{
	"AgentAuditLogger.sol": {
		"AgentAuditLogger": {
			"abi": [
				{
					"inputs": [],
					"stateMutability": "nonpayable",
					"type": "constructor"
				},
				{
					"anonymous": false,
					"inputs": [
						{
							"indexed": true,
							"internalType": "uint256",
							"name": "id",
							"type": "uint256"
						},
						{
							"indexed": false,
							"internalType": "address",
							"name": "challenger",
							"type": "address"
						}
					],
					"name": "DecisionChallenged",
					"type": "event"
				},
				{
					"anonymous": false,
					"inputs": [
						{
							"indexed": true,
							"internalType": "uint256",
							"name": "id",
							"type": "uint256"
						},
						{
							"indexed": false,
							"internalType": "string",
							"name": "action",
							"type": "string"
						},
						{
							"indexed": false,
							"internalType": "address",
							"name": "agent",
							"type": "address"
						}
					],
					"name": "DecisionLogged",
					"type": "event"
				},
				{
					"anonymous": false,
					"inputs": [
						{
							"indexed": true,
							"internalType": "uint256",
							"name": "id",
							"type": "uint256"
						},
						{
							"indexed": false,
							"internalType": "bool",
							"name": "upheld",
							"type": "bool"
						}
					],
					"name": "DisputeResolved",
					"type": "event"
				},
				{
					"inputs": [
						{
							"internalType": "address",
							"name": "",
							"type": "address"
						}
					],
					"name": "agentReputation",
					"outputs": [
						{
							"internalType": "int256",
							"name": "",
							"type": "int256"
						}
					],
					"stateMutability": "view",
					"type": "function"
				},
				{
					"inputs": [
						{
							"internalType": "uint256",
							"name": "_id",
							"type": "uint256"
						}
					],
					"name": "challengeDecision",
					"outputs": [],
					"stateMutability": "nonpayable",
					"type": "function"
				},
				{
					"inputs": [
						{
							"internalType": "uint256",
							"name": "_id",
							"type": "uint256"
						}
					],
					"name": "getDecision",
					"outputs": [
						{
							"components": [
								{
									"internalType": "uint256",
									"name": "id",
									"type": "uint256"
								},
								{
									"internalType": "string",
									"name": "action",
									"type": "string"
								},
								{
									"internalType": "string",
									"name": "reason",
									"type": "string"
								},
								{
									"internalType": "uint256",
									"name": "amount",
									"type": "uint256"
								},
								{
									"internalType": "string",
									"name": "explanationHash",
									"type": "string"
								},
								{
									"internalType": "uint256",
									"name": "timestamp",
									"type": "uint256"
								},
								{
									"internalType": "address",
									"name": "agent",
									"type": "address"
								},
								{
									"internalType": "uint8",
									"name": "status",
									"type": "uint8"
								},
								{
									"internalType": "bool",
									"name": "disputed",
									"type": "bool"
								}
							],
							"internalType": "struct AgentAuditLogger.Decision",
							"name": "",
							"type": "tuple"
						}
					],
					"stateMutability": "view",
					"type": "function"
				},
				{
					"inputs": [],
					"name": "governanceRole",
					"outputs": [
						{
							"internalType": "address",
							"name": "",
							"type": "address"
						}
					],
					"stateMutability": "view",
					"type": "function"
				},
				{
					"inputs": [
						{
							"internalType": "string",
							"name": "_action",
							"type": "string"
						},
						{
							"internalType": "string",
							"name": "_reason",
							"type": "string"
						},
						{
							"internalType": "uint256",
							"name": "_amount",
							"type": "uint256"
						},
						{
							"internalType": "string",
							"name": "_explanationHash",
							"type": "string"
						}
					],
					"name": "logDecision",
					"outputs": [
						{
							"internalType": "uint256",
							"name": "",
							"type": "uint256"
						}
					],
					"stateMutability": "nonpayable",
					"type": "function"
				},
				{
					"inputs": [
						{
							"internalType": "uint256",
							"name": "_id",
							"type": "uint256"
						},
						{
							"internalType": "bool",
							"name": "_upheld",
							"type": "bool"
						}
					],
					"name": "resolveDispute",
					"outputs": [],
					"stateMutability": "nonpayable",
					"type": "function"
				},
				{
					"inputs": [],
					"name": "totalDecisions",
					"outputs": [
						{
							"internalType": "uint256",
							"name": "",
							"type": "uint256"
						}
					],
					"stateMutability": "view",
					"type": "function"
				},
				{
					"inputs": [
						{
							"internalType": "address",
							"name": "_newGovernance",
							"type": "address"
						}
					],
					"name": "transferGovernance",
					"outputs": [],
					"stateMutability": "nonpayable",
					"type": "function"
				}
			],
			"devdoc": {
				"details": "Protocol for transparent logging, explainability, and verification of decisions made by autonomous agents.",
				"kind": "dev",
				"methods": {
					"challengeDecision(uint256)": {
						"details": "Allows any user or governing body to challenge an agent's decision.",
						"params": {
							"_id": "The ID of the decision to challenge."
						}
					},
					"constructor": {
						"details": "Sets the deployer as the initial governance/DAO role."
					},
					"getDecision(uint256)": {
						"details": "Retrieves the full details of a decision.",
						"params": {
							"_id": "The ID of the decision."
						},
						"returns": {
							"_0": "The Decision struct containing all properties."
						}
					},
					"logDecision(string,string,uint256,string)": {
						"details": "Log a decision made by an autonomous agent.",
						"params": {
							"_action": "The action taken.",
							"_amount": "Any numeric value or token amount associated with the decision.",
							"_reason": "Human-readable explanation for the decision."
						},
						"returns": {
							"_0": "id The unique ID of the logged decision."
						}
					},
					"resolveDispute(uint256,bool)": {
						"details": "Resolves a challenged decision. Only callable by the governance role.",
						"params": {
							"_id": "The ID of the decision.",
							"_upheld": "True if the challenge was upheld (agent was wrong/overridden), false if rejected (agent was right)."
						}
					},
					"transferGovernance(address)": {
						"details": "Allows updating the governance role (e.g., transferring control to a DAO).",
						"params": {
							"_newGovernance": "The address of the new governance contract/wallet."
						}
					}
				},
				"title": "AgentAuditLogger",
				"version": 1
			},
			"evm": {
				"assembly": "    /* \"AgentAuditLogger.sol\":207:4852  contract AgentAuditLogger {... */\n  mstore(0x40, 0x80)\n    /* \"AgentAuditLogger.sol\":1234:1292  constructor() {... */\n  callvalue\n  dup1\n  iszero\n  tag_1\n  jumpi\n  0x00\n  dup1\n  revert\ntag_1:\n  pop\n    /* \"AgentAuditLogger.sol\":1275:1285  msg.sender */\n  caller\n    /* \"AgentAuditLogger.sol\":1258:1272  governanceRole */\n  0x03\n  0x00\n    /* \"AgentAuditLogger.sol\":1258:1285  governanceRole = msg.sender */\n  0x0100\n  exp\n  dup2\n  sload\n  dup2\n  0xffffffffffffffffffffffffffffffffffffffff\n  mul\n  not\n  and\n  swap1\n  dup4\n  0xffffffffffffffffffffffffffffffffffffffff\n  and\n  mul\n  or\n  swap1\n  sstore\n  pop\n    /* \"AgentAuditLogger.sol\":207:4852  contract AgentAuditLogger {... */\n  dataSize(sub_0)\n  dup1\n  dataOffset(sub_0)\n  0x00\n  codecopy\n  0x00\n  return\nstop\n\nsub_0: assembly {\n        /* \"AgentAuditLogger.sol\":207:4852  contract AgentAuditLogger {... */\n      mstore(0x40, 0x80)\n      callvalue\n      dup1\n      iszero\n      tag_1\n      jumpi\n      0x00\n      dup1\n      revert\n    tag_1:\n      pop\n      jumpi(tag_2, lt(calldatasize, 0x04))\n      shr(0xe0, calldataload(0x00))\n      dup1\n      0x70ace0d6\n      gt\n      tag_11\n      jumpi\n      dup1\n      0x70ace0d6\n      eq\n      tag_7\n      jumpi\n      dup1\n      0xaf754848\n      eq\n      tag_8\n      jumpi\n      dup1\n      0xbc3e07df\n      eq\n      tag_9\n      jumpi\n      dup1\n      0xd38bfff4\n      eq\n      tag_10\n      jumpi\n      jump(tag_2)\n    tag_11:\n      dup1\n      0x0c96a61a\n      eq\n      tag_3\n      jumpi\n      dup1\n      0x221bfa48\n      eq\n      tag_4\n      jumpi\n      dup1\n      0x34b25ee2\n      eq\n      tag_5\n      jumpi\n      dup1\n      0x54de6e32\n      eq\n      tag_6\n      jumpi\n    tag_2:\n      0x00\n      dup1\n      revert\n        /* \"AgentAuditLogger.sol\":672:701  uint256 public totalDecisions */\n    tag_3:\n      tag_12\n      tag_13\n      jump\t// in\n    tag_12:\n      mload(0x40)\n      tag_14\n      swap2\n      swap1\n      tag_15\n      jump\t// in\n    tag_14:\n      mload(0x40)\n      dup1\n      swap2\n      sub\n      swap1\n      return\n        /* \"AgentAuditLogger.sol\":909:938  address public governanceRole */\n    tag_4:\n      tag_16\n      tag_17\n      jump\t// in\n    tag_16:\n      mload(0x40)\n      tag_18\n      swap2\n      swap1\n      tag_19\n      jump\t// in\n    tag_18:\n      mload(0x40)\n      dup1\n      swap2\n      sub\n      swap1\n      return\n        /* \"AgentAuditLogger.sol\":3712:4476  function resolveDispute(uint256 _id, bool _upheld) public onlyGovernance {... */\n    tag_5:\n      tag_20\n      0x04\n      dup1\n      calldatasize\n      sub\n      dup2\n      add\n      swap1\n      tag_21\n      swap2\n      swap1\n      tag_22\n      jump\t// in\n    tag_21:\n      tag_23\n      jump\t// in\n    tag_20:\n      stop\n        /* \"AgentAuditLogger.sol\":759:808  mapping(address => int256) public agentReputation */\n    tag_6:\n      tag_24\n      0x04\n      dup1\n      calldatasize\n      sub\n      dup2\n      add\n      swap1\n      tag_25\n      swap2\n      swap1\n      tag_26\n      jump\t// in\n    tag_25:\n      tag_27\n      jump\t// in\n    tag_24:\n      mload(0x40)\n      tag_28\n      swap2\n      swap1\n      tag_29\n      jump\t// in\n    tag_28:\n      mload(0x40)\n      dup1\n      swap2\n      sub\n      swap1\n      return\n        /* \"AgentAuditLogger.sol\":2185:2823  function logDecision(string memory _action, string memory _reason, uint256 _amount, string memory _explanationHash) public returns (uint256) {... */\n    tag_7:\n      tag_30\n      0x04\n      dup1\n      calldatasize\n      sub\n      dup2\n      add\n      swap1\n      tag_31\n      swap2\n      swap1\n      tag_32\n      jump\t// in\n    tag_31:\n      tag_33\n      jump\t// in\n    tag_30:\n      mload(0x40)\n      tag_34\n      swap2\n      swap1\n      tag_15\n      jump\t// in\n    tag_34:\n      mload(0x40)\n      dup1\n      swap2\n      sub\n      swap1\n      return\n        /* \"AgentAuditLogger.sol\":4656:4850  function getDecision(uint256 _id) public view returns (Decision memory) {... */\n    tag_8:\n      tag_35\n      0x04\n      dup1\n      calldatasize\n      sub\n      dup2\n      add\n      swap1\n      tag_36\n      swap2\n      swap1\n      tag_37\n      jump\t// in\n    tag_36:\n      tag_38\n      jump\t// in\n    tag_35:\n      mload(0x40)\n      tag_39\n      swap2\n      swap1\n      tag_40\n      jump\t// in\n    tag_39:\n      mload(0x40)\n      dup1\n      swap2\n      sub\n      swap1\n      return\n        /* \"AgentAuditLogger.sol\":2980:3444  function challengeDecision(uint256 _id) public {... */\n    tag_9:\n      tag_41\n      0x04\n      dup1\n      calldatasize\n      sub\n      dup2\n      add\n      swap1\n      tag_42\n      swap2\n      swap1\n      tag_37\n      jump\t// in\n    tag_42:\n      tag_43\n      jump\t// in\n    tag_41:\n      stop\n        /* \"AgentAuditLogger.sol\":1633:1858  function transferGovernance(address _newGovernance) public onlyGovernance {... */\n    tag_10:\n      tag_44\n      0x04\n      dup1\n      calldatasize\n      sub\n      dup2\n      add\n      swap1\n      tag_45\n      swap2\n      swap1\n      tag_26\n      jump\t// in\n    tag_45:\n      tag_46\n      jump\t// in\n    tag_44:\n      stop\n        /* \"AgentAuditLogger.sol\":672:701  uint256 public totalDecisions */\n    tag_13:\n      sload(0x00)\n      dup2\n      jump\t// out\n        /* \"AgentAuditLogger.sol\":909:938  address public governanceRole */\n    tag_17:\n      0x03\n      0x00\n      swap1\n      sload\n      swap1\n      0x0100\n      exp\n      swap1\n      div\n      0xffffffffffffffffffffffffffffffffffffffff\n      and\n      dup2\n      jump\t// out\n        /* \"AgentAuditLogger.sol\":3712:4476  function resolveDispute(uint256 _id, bool _upheld) public onlyGovernance {... */\n    tag_23:\n        /* \"AgentAuditLogger.sol\":1356:1370  governanceRole */\n      0x03\n      0x00\n      swap1\n      sload\n      swap1\n      0x0100\n      exp\n      swap1\n      div\n      0xffffffffffffffffffffffffffffffffffffffff\n      and\n        /* \"AgentAuditLogger.sol\":1342:1370  msg.sender == governanceRole */\n      0xffffffffffffffffffffffffffffffffffffffff\n      and\n        /* \"AgentAuditLogger.sol\":1342:1352  msg.sender */\n      caller\n        /* \"AgentAuditLogger.sol\":1342:1370  msg.sender == governanceRole */\n      0xffffffffffffffffffffffffffffffffffffffff\n      and\n      eq\n        /* \"AgentAuditLogger.sol\":1334:1426  require(msg.sender == governanceRole, \"AgentAuditLogger: caller is not the governance role\") */\n      tag_48\n      jumpi\n      mload(0x40)\n      0x08c379a000000000000000000000000000000000000000000000000000000000\n      dup2\n      mstore\n      0x04\n      add\n      tag_49\n      swap1\n      tag_50\n      jump\t// in\n    tag_49:\n      mload(0x40)\n      dup1\n      swap2\n      sub\n      swap1\n      revert\n    tag_48:\n        /* \"AgentAuditLogger.sol\":3809:3823  totalDecisions */\n      sload(0x00)\n        /* \"AgentAuditLogger.sol\":3803:3806  _id */\n      dup3\n        /* \"AgentAuditLogger.sol\":3803:3823  _id < totalDecisions */\n      lt\n        /* \"AgentAuditLogger.sol\":3795:3869  require(_id < totalDecisions, \"AgentAuditLogger: Decision does not exist\") */\n      tag_52\n      jumpi\n      mload(0x40)\n      0x08c379a000000000000000000000000000000000000000000000000000000000\n      dup2\n      mstore\n      0x04\n      add\n      tag_53\n      swap1\n      tag_54\n      jump\t// in\n    tag_53:\n      mload(0x40)\n      dup1\n      swap2\n      sub\n      swap1\n      revert\n    tag_52:\n        /* \"AgentAuditLogger.sol\":3879:3904  Decision storage decision */\n      0x00\n        /* \"AgentAuditLogger.sol\":3907:3916  decisions */\n      0x01\n        /* \"AgentAuditLogger.sol\":3907:3921  decisions[_id] */\n      0x00\n        /* \"AgentAuditLogger.sol\":3917:3920  _id */\n      dup5\n        /* \"AgentAuditLogger.sol\":3907:3921  decisions[_id] */\n      dup2\n      mstore\n      0x20\n      add\n      swap1\n      dup2\n      mstore\n      0x20\n      add\n      0x00\n      keccak256\n        /* \"AgentAuditLogger.sol\":3879:3921  Decision storage decision = decisions[_id] */\n      swap1\n      pop\n        /* \"AgentAuditLogger.sol\":3973:3990  Status.Challenged */\n      0x01\n        /* \"AgentAuditLogger.sol\":3967:3991  uint8(Status.Challenged) */\n      0x02\n      dup2\n      gt\n      iszero\n      tag_55\n      jumpi\n      tag_56\n      tag_57\n      jump\t// in\n    tag_56:\n    tag_55:\n        /* \"AgentAuditLogger.sol\":3948:3991  decision.status == uint8(Status.Challenged) */\n      0xff\n      and\n        /* \"AgentAuditLogger.sol\":3948:3956  decision */\n      dup2\n        /* \"AgentAuditLogger.sol\":3948:3963  decision.status */\n      0x06\n      add\n      0x14\n      swap1\n      sload\n      swap1\n      0x0100\n      exp\n      swap1\n      div\n      0xff\n      and\n        /* \"AgentAuditLogger.sol\":3948:3991  decision.status == uint8(Status.Challenged) */\n      0xff\n      and\n      eq\n        /* \"AgentAuditLogger.sol\":3940:4056  require(decision.status == uint8(Status.Challenged), \"AgentAuditLogger: Decision must be challenged to be resolved\") */\n      tag_58\n      jumpi\n      mload(0x40)\n      0x08c379a000000000000000000000000000000000000000000000000000000000\n      dup2\n      mstore\n      0x04\n      add\n      tag_59\n      swap1\n      tag_60\n      jump\t// in\n    tag_59:\n      mload(0x40)\n      dup1\n      swap2\n      sub\n      swap1\n      revert\n    tag_58:\n        /* \"AgentAuditLogger.sol\":4091:4106  Status.Resolved */\n      0x02\n        /* \"AgentAuditLogger.sol\":4085:4107  uint8(Status.Resolved) */\n      dup1\n      dup2\n      gt\n      iszero\n      tag_61\n      jumpi\n      tag_62\n      tag_57\n      jump\t// in\n    tag_62:\n    tag_61:\n        /* \"AgentAuditLogger.sol\":4067:4075  decision */\n      dup2\n        /* \"AgentAuditLogger.sol\":4067:4082  decision.status */\n      0x06\n      add\n      0x14\n        /* \"AgentAuditLogger.sol\":4067:4107  decision.status = uint8(Status.Resolved) */\n      0x0100\n      exp\n      dup2\n      sload\n      dup2\n      0xff\n      mul\n      not\n      and\n      swap1\n      dup4\n      0xff\n      and\n      mul\n      or\n      swap1\n      sstore\n      pop\n        /* \"AgentAuditLogger.sol\":4165:4172  _upheld */\n      dup2\n        /* \"AgentAuditLogger.sol\":4161:4417  if (_upheld) {... */\n      iszero\n      tag_63\n      jumpi\n        /* \"AgentAuditLogger.sol\":4286:4288  15 */\n      0x0f\n        /* \"AgentAuditLogger.sol\":4251:4266  agentReputation */\n      0x02\n        /* \"AgentAuditLogger.sol\":4251:4282  agentReputation[decision.agent] */\n      0x00\n        /* \"AgentAuditLogger.sol\":4267:4275  decision */\n      dup4\n        /* \"AgentAuditLogger.sol\":4267:4281  decision.agent */\n      0x06\n      add\n      0x00\n      swap1\n      sload\n      swap1\n      0x0100\n      exp\n      swap1\n      div\n      0xffffffffffffffffffffffffffffffffffffffff\n      and\n        /* \"AgentAuditLogger.sol\":4251:4282  agentReputation[decision.agent] */\n      0xffffffffffffffffffffffffffffffffffffffff\n      and\n      0xffffffffffffffffffffffffffffffffffffffff\n      and\n      dup2\n      mstore\n      0x20\n      add\n      swap1\n      dup2\n      mstore\n      0x20\n      add\n      0x00\n      keccak256\n      0x00\n        /* \"AgentAuditLogger.sol\":4251:4288  agentReputation[decision.agent] -= 15 */\n      dup3\n      dup3\n      sload\n      tag_64\n      swap2\n      swap1\n      tag_65\n      jump\t// in\n    tag_64:\n      swap3\n      pop\n      pop\n      dup2\n      swap1\n      sstore\n      pop\n        /* \"AgentAuditLogger.sol\":4161:4417  if (_upheld) {... */\n      jump(tag_66)\n    tag_63:\n        /* \"AgentAuditLogger.sol\":4405:4406  5 */\n      0x05\n        /* \"AgentAuditLogger.sol\":4370:4385  agentReputation */\n      0x02\n        /* \"AgentAuditLogger.sol\":4370:4401  agentReputation[decision.agent] */\n      0x00\n        /* \"AgentAuditLogger.sol\":4386:4394  decision */\n      dup4\n        /* \"AgentAuditLogger.sol\":4386:4400  decision.agent */\n      0x06\n      add\n      0x00\n      swap1\n      sload\n      swap1\n      0x0100\n      exp\n      swap1\n      div\n      0xffffffffffffffffffffffffffffffffffffffff\n      and\n        /* \"AgentAuditLogger.sol\":4370:4401  agentReputation[decision.agent] */\n      0xffffffffffffffffffffffffffffffffffffffff\n      and\n      0xffffffffffffffffffffffffffffffffffffffff\n      and\n      dup2\n      mstore\n      0x20\n      add\n      swap1\n      dup2\n      mstore\n      0x20\n      add\n      0x00\n      keccak256\n      0x00\n        /* \"AgentAuditLogger.sol\":4370:4406  agentReputation[decision.agent] += 5 */\n      dup3\n      dup3\n      sload\n      tag_67\n      swap2\n      swap1\n      tag_68\n      jump\t// in\n    tag_67:\n      swap3\n      pop\n      pop\n      dup2\n      swap1\n      sstore\n      pop\n        /* \"AgentAuditLogger.sol\":4161:4417  if (_upheld) {... */\n    tag_66:\n        /* \"AgentAuditLogger.sol\":4456:4459  _id */\n      dup3\n        /* \"AgentAuditLogger.sol\":4440:4469  DisputeResolved(_id, _upheld) */\n      0x5a87909bff68caaaaf0b3fd9c74eeccc928832f879315e5c6fb7a73612f26c0c\n        /* \"AgentAuditLogger.sol\":4461:4468  _upheld */\n      dup4\n        /* \"AgentAuditLogger.sol\":4440:4469  DisputeResolved(_id, _upheld) */\n      mload(0x40)\n      tag_69\n      swap2\n      swap1\n      tag_70\n      jump\t// in\n    tag_69:\n      mload(0x40)\n      dup1\n      swap2\n      sub\n      swap1\n      log2\n        /* \"AgentAuditLogger.sol\":3785:4476  {... */\n      pop\n        /* \"AgentAuditLogger.sol\":3712:4476  function resolveDispute(uint256 _id, bool _upheld) public onlyGovernance {... */\n      pop\n      pop\n      jump\t// out\n        /* \"AgentAuditLogger.sol\":759:808  mapping(address => int256) public agentReputation */\n    tag_27:\n      mstore(0x20, 0x02)\n      dup1\n      0x00\n      mstore\n      keccak256(0x00, 0x40)\n      0x00\n      swap2\n      pop\n      swap1\n      pop\n      sload\n      dup2\n      jump\t// out\n        /* \"AgentAuditLogger.sol\":2185:2823  function logDecision(string memory _action, string memory _reason, uint256 _amount, string memory _explanationHash) public returns (uint256) {... */\n    tag_33:\n        /* \"AgentAuditLogger.sol\":2317:2324  uint256 */\n      0x00\n        /* \"AgentAuditLogger.sol\":2336:2346  uint256 id */\n      dup1\n        /* \"AgentAuditLogger.sol\":2349:2363  totalDecisions */\n      sload(0x00)\n        /* \"AgentAuditLogger.sol\":2336:2363  uint256 id = totalDecisions */\n      swap1\n      pop\n        /* \"AgentAuditLogger.sol\":2398:2715  Decision({... */\n      mload(0x40)\n      dup1\n      0x0120\n      add\n      0x40\n      mstore\n      dup1\n        /* \"AgentAuditLogger.sol\":2425:2427  id */\n      dup3\n        /* \"AgentAuditLogger.sol\":2398:2715  Decision({... */\n      dup2\n      mstore\n      0x20\n      add\n        /* \"AgentAuditLogger.sol\":2449:2456  _action */\n      dup8\n        /* \"AgentAuditLogger.sol\":2398:2715  Decision({... */\n      dup2\n      mstore\n      0x20\n      add\n        /* \"AgentAuditLogger.sol\":2478:2485  _reason */\n      dup7\n        /* \"AgentAuditLogger.sol\":2398:2715  Decision({... */\n      dup2\n      mstore\n      0x20\n      add\n        /* \"AgentAuditLogger.sol\":2507:2514  _amount */\n      dup6\n        /* \"AgentAuditLogger.sol\":2398:2715  Decision({... */\n      dup2\n      mstore\n      0x20\n      add\n        /* \"AgentAuditLogger.sol\":2545:2561  _explanationHash */\n      dup5\n        /* \"AgentAuditLogger.sol\":2398:2715  Decision({... */\n      dup2\n      mstore\n      0x20\n      add\n        /* \"AgentAuditLogger.sol\":2586:2601  block.timestamp */\n      timestamp\n        /* \"AgentAuditLogger.sol\":2398:2715  Decision({... */\n      dup2\n      mstore\n      0x20\n      add\n        /* \"AgentAuditLogger.sol\":2622:2632  msg.sender */\n      caller\n        /* \"AgentAuditLogger.sol\":2398:2715  Decision({... */\n      0xffffffffffffffffffffffffffffffffffffffff\n      and\n      dup2\n      mstore\n      0x20\n      add\n        /* \"AgentAuditLogger.sol\":2660:2674  Status.Pending */\n      0x00\n        /* \"AgentAuditLogger.sol\":2654:2675  uint8(Status.Pending) */\n      0x02\n      dup2\n      gt\n      iszero\n      tag_72\n      jumpi\n      tag_73\n      tag_57\n      jump\t// in\n    tag_73:\n    tag_72:\n        /* \"AgentAuditLogger.sol\":2398:2715  Decision({... */\n      0xff\n      and\n      dup2\n      mstore\n      0x20\n      add\n        /* \"AgentAuditLogger.sol\":2699:2704  false */\n      0x00\n        /* \"AgentAuditLogger.sol\":2398:2715  Decision({... */\n      iszero\n      iszero\n      dup2\n      mstore\n      pop\n        /* \"AgentAuditLogger.sol\":2382:2391  decisions */\n      0x01\n        /* \"AgentAuditLogger.sol\":2382:2395  decisions[id] */\n      0x00\n        /* \"AgentAuditLogger.sol\":2392:2394  id */\n      dup4\n        /* \"AgentAuditLogger.sol\":2382:2395  decisions[id] */\n      dup2\n      mstore\n      0x20\n      add\n      swap1\n      dup2\n      mstore\n      0x20\n      add\n      0x00\n      keccak256\n        /* \"AgentAuditLogger.sol\":2382:2715  decisions[id] = Decision({... */\n      0x00\n      dup3\n      add\n      mload\n      dup2\n      0x00\n      add\n      sstore\n      0x20\n      dup3\n      add\n      mload\n      dup2\n      0x01\n      add\n      swap1\n      dup2\n      tag_74\n      swap2\n      swap1\n      tag_75\n      jump\t// in\n    tag_74:\n      pop\n      0x40\n      dup3\n      add\n      mload\n      dup2\n      0x02\n      add\n      swap1\n      dup2\n      tag_76\n      swap2\n      swap1\n      tag_75\n      jump\t// in\n    tag_76:\n      pop\n      0x60\n      dup3\n      add\n      mload\n      dup2\n      0x03\n      add\n      sstore\n      0x80\n      dup3\n      add\n      mload\n      dup2\n      0x04\n      add\n      swap1\n      dup2\n      tag_77\n      swap2\n      swap1\n      tag_75\n      jump\t// in\n    tag_77:\n      pop\n      0xa0\n      dup3\n      add\n      mload\n      dup2\n      0x05\n      add\n      sstore\n      0xc0\n      dup3\n      add\n      mload\n      dup2\n      0x06\n      add\n      exp(0x0100, 0x00)\n      dup2\n      sload\n      dup2\n      0xffffffffffffffffffffffffffffffffffffffff\n      mul\n      not\n      and\n      swap1\n      dup4\n      0xffffffffffffffffffffffffffffffffffffffff\n      and\n      mul\n      or\n      swap1\n      sstore\n      pop\n      0xe0\n      dup3\n      add\n      mload\n      dup2\n      0x06\n      add\n      exp(0x0100, 0x14)\n      dup2\n      sload\n      dup2\n      0xff\n      mul\n      not\n      and\n      swap1\n      dup4\n      0xff\n      and\n      mul\n      or\n      swap1\n      sstore\n      pop\n      0x0100\n      dup3\n      add\n      mload\n      dup2\n      0x06\n      add\n      exp(0x0100, 0x15)\n      dup2\n      sload\n      dup2\n      0xff\n      mul\n      not\n      and\n      swap1\n      dup4\n      iszero\n      iszero\n      mul\n      or\n      swap1\n      sstore\n      pop\n      swap1\n      pop\n      pop\n        /* \"AgentAuditLogger.sol\":2726:2740  totalDecisions */\n      0x00\n      dup1\n        /* \"AgentAuditLogger.sol\":2726:2742  totalDecisions++ */\n      dup2\n      sload\n      dup1\n      swap3\n      swap2\n      swap1\n      tag_78\n      swap1\n      tag_79\n      jump\t// in\n    tag_78:\n      swap2\n      swap1\n      pop\n      sstore\n      pop\n        /* \"AgentAuditLogger.sol\":2773:2775  id */\n      dup1\n        /* \"AgentAuditLogger.sol\":2758:2797  DecisionLogged(id, _action, msg.sender) */\n      0x9dd457e4fc133d6824e882079b7f2b0fdc92a7158363dbf8abd880324603b108\n        /* \"AgentAuditLogger.sol\":2777:2784  _action */\n      dup8\n        /* \"AgentAuditLogger.sol\":2786:2796  msg.sender */\n      caller\n        /* \"AgentAuditLogger.sol\":2758:2797  DecisionLogged(id, _action, msg.sender) */\n      mload(0x40)\n      tag_80\n      swap3\n      swap2\n      swap1\n      tag_81\n      jump\t// in\n    tag_80:\n      mload(0x40)\n      dup1\n      swap2\n      sub\n      swap1\n      log2\n        /* \"AgentAuditLogger.sol\":2814:2816  id */\n      dup1\n        /* \"AgentAuditLogger.sol\":2807:2816  return id */\n      swap2\n      pop\n      pop\n        /* \"AgentAuditLogger.sol\":2185:2823  function logDecision(string memory _action, string memory _reason, uint256 _amount, string memory _explanationHash) public returns (uint256) {... */\n      swap5\n      swap4\n      pop\n      pop\n      pop\n      pop\n      jump\t// out\n        /* \"AgentAuditLogger.sol\":4656:4850  function getDecision(uint256 _id) public view returns (Decision memory) {... */\n    tag_38:\n        /* \"AgentAuditLogger.sol\":4711:4726  Decision memory */\n      tag_82\n      tag_83\n      jump\t// in\n    tag_82:\n        /* \"AgentAuditLogger.sol\":4752:4766  totalDecisions */\n      sload(0x00)\n        /* \"AgentAuditLogger.sol\":4746:4749  _id */\n      dup3\n        /* \"AgentAuditLogger.sol\":4746:4766  _id < totalDecisions */\n      lt\n        /* \"AgentAuditLogger.sol\":4738:4812  require(_id < totalDecisions, \"AgentAuditLogger: Decision does not exist\") */\n      tag_85\n      jumpi\n      mload(0x40)\n      0x08c379a000000000000000000000000000000000000000000000000000000000\n      dup2\n      mstore\n      0x04\n      add\n      tag_86\n      swap1\n      tag_54\n      jump\t// in\n    tag_86:\n      mload(0x40)\n      dup1\n      swap2\n      sub\n      swap1\n      revert\n    tag_85:\n        /* \"AgentAuditLogger.sol\":4829:4838  decisions */\n      0x01\n        /* \"AgentAuditLogger.sol\":4829:4843  decisions[_id] */\n      0x00\n        /* \"AgentAuditLogger.sol\":4839:4842  _id */\n      dup4\n        /* \"AgentAuditLogger.sol\":4829:4843  decisions[_id] */\n      dup2\n      mstore\n      0x20\n      add\n      swap1\n      dup2\n      mstore\n      0x20\n      add\n      0x00\n      keccak256\n        /* \"AgentAuditLogger.sol\":4822:4843  return decisions[_id] */\n      mload(0x40)\n      dup1\n      0x0120\n      add\n      0x40\n      mstore\n      swap1\n      dup2\n      0x00\n      dup3\n      add\n      sload\n      dup2\n      mstore\n      0x20\n      add\n      0x01\n      dup3\n      add\n      dup1\n      sload\n      tag_87\n      swap1\n      tag_88\n      jump\t// in\n    tag_87:\n      dup1\n      0x1f\n      add\n      0x20\n      dup1\n      swap2\n      div\n      mul\n      0x20\n      add\n      mload(0x40)\n      swap1\n      dup2\n      add\n      0x40\n      mstore\n      dup1\n      swap3\n      swap2\n      swap1\n      dup2\n      dup2\n      mstore\n      0x20\n      add\n      dup3\n      dup1\n      sload\n      tag_89\n      swap1\n      tag_88\n      jump\t// in\n    tag_89:\n      dup1\n      iszero\n      tag_90\n      jumpi\n      dup1\n      0x1f\n      lt\n      tag_91\n      jumpi\n      0x0100\n      dup1\n      dup4\n      sload\n      div\n      mul\n      dup4\n      mstore\n      swap2\n      0x20\n      add\n      swap2\n      jump(tag_90)\n    tag_91:\n      dup3\n      add\n      swap2\n      swap1\n      0x00\n      mstore\n      keccak256(0x00, 0x20)\n      swap1\n    tag_92:\n      dup2\n      sload\n      dup2\n      mstore\n      swap1\n      0x01\n      add\n      swap1\n      0x20\n      add\n      dup1\n      dup4\n      gt\n      tag_92\n      jumpi\n      dup3\n      swap1\n      sub\n      0x1f\n      and\n      dup3\n      add\n      swap2\n    tag_90:\n      pop\n      pop\n      pop\n      pop\n      pop\n      dup2\n      mstore\n      0x20\n      add\n      0x02\n      dup3\n      add\n      dup1\n      sload\n      tag_93\n      swap1\n      tag_88\n      jump\t// in\n    tag_93:\n      dup1\n      0x1f\n      add\n      0x20\n      dup1\n      swap2\n      div\n      mul\n      0x20\n      add\n      mload(0x40)\n      swap1\n      dup2\n      add\n      0x40\n      mstore\n      dup1\n      swap3\n      swap2\n      swap1\n      dup2\n      dup2\n      mstore\n      0x20\n      add\n      dup3\n      dup1\n      sload\n      tag_94\n      swap1\n      tag_88\n      jump\t// in\n    tag_94:\n      dup1\n      iszero\n      tag_95\n      jumpi\n      dup1\n      0x1f\n      lt\n      tag_96\n      jumpi\n      0x0100\n      dup1\n      dup4\n      sload\n      div\n      mul\n      dup4\n      mstore\n      swap2\n      0x20\n      add\n      swap2\n      jump(tag_95)\n    tag_96:\n      dup3\n      add\n      swap2\n      swap1\n      0x00\n      mstore\n      keccak256(0x00, 0x20)\n      swap1\n    tag_97:\n      dup2\n      sload\n      dup2\n      mstore\n      swap1\n      0x01\n      add\n      swap1\n      0x20\n      add\n      dup1\n      dup4\n      gt\n      tag_97\n      jumpi\n      dup3\n      swap1\n      sub\n      0x1f\n      and\n      dup3\n      add\n      swap2\n    tag_95:\n      pop\n      pop\n      pop\n      pop\n      pop\n      dup2\n      mstore\n      0x20\n      add\n      0x03\n      dup3\n      add\n      sload\n      dup2\n      mstore\n      0x20\n      add\n      0x04\n      dup3\n      add\n      dup1\n      sload\n      tag_98\n      swap1\n      tag_88\n      jump\t// in\n    tag_98:\n      dup1\n      0x1f\n      add\n      0x20\n      dup1\n      swap2\n      div\n      mul\n      0x20\n      add\n      mload(0x40)\n      swap1\n      dup2\n      add\n      0x40\n      mstore\n      dup1\n      swap3\n      swap2\n      swap1\n      dup2\n      dup2\n      mstore\n      0x20\n      add\n      dup3\n      dup1\n      sload\n      tag_99\n      swap1\n      tag_88\n      jump\t// in\n    tag_99:\n      dup1\n      iszero\n      tag_100\n      jumpi\n      dup1\n      0x1f\n      lt\n      tag_101\n      jumpi\n      0x0100\n      dup1\n      dup4\n      sload\n      div\n      mul\n      dup4\n      mstore\n      swap2\n      0x20\n      add\n      swap2\n      jump(tag_100)\n    tag_101:\n      dup3\n      add\n      swap2\n      swap1\n      0x00\n      mstore\n      keccak256(0x00, 0x20)\n      swap1\n    tag_102:\n      dup2\n      sload\n      dup2\n      mstore\n      swap1\n      0x01\n      add\n      swap1\n      0x20\n      add\n      dup1\n      dup4\n      gt\n      tag_102\n      jumpi\n      dup3\n      swap1\n      sub\n      0x1f\n      and\n      dup3\n      add\n      swap2\n    tag_100:\n      pop\n      pop\n      pop\n      pop\n      pop\n      dup2\n      mstore\n      0x20\n      add\n      0x05\n      dup3\n      add\n      sload\n      dup2\n      mstore\n      0x20\n      add\n      0x06\n      dup3\n      add\n      0x00\n      swap1\n      sload\n      swap1\n      0x0100\n      exp\n      swap1\n      div\n      0xffffffffffffffffffffffffffffffffffffffff\n      and\n      0xffffffffffffffffffffffffffffffffffffffff\n      and\n      0xffffffffffffffffffffffffffffffffffffffff\n      and\n      dup2\n      mstore\n      0x20\n      add\n      0x06\n      dup3\n      add\n      0x14\n      swap1\n      sload\n      swap1\n      0x0100\n      exp\n      swap1\n      div\n      0xff\n      and\n      0xff\n      and\n      0xff\n      and\n      dup2\n      mstore\n      0x20\n      add\n      0x06\n      dup3\n      add\n      0x15\n      swap1\n      sload\n      swap1\n      0x0100\n      exp\n      swap1\n      div\n      0xff\n      and\n      iszero\n      iszero\n      iszero\n      iszero\n      dup2\n      mstore\n      pop\n      pop\n      swap1\n      pop\n        /* \"AgentAuditLogger.sol\":4656:4850  function getDecision(uint256 _id) public view returns (Decision memory) {... */\n      swap2\n      swap1\n      pop\n      jump\t// out\n        /* \"AgentAuditLogger.sol\":2980:3444  function challengeDecision(uint256 _id) public {... */\n    tag_43:\n        /* \"AgentAuditLogger.sol\":3051:3065  totalDecisions */\n      sload(0x00)\n        /* \"AgentAuditLogger.sol\":3045:3048  _id */\n      dup2\n        /* \"AgentAuditLogger.sol\":3045:3065  _id < totalDecisions */\n      lt\n        /* \"AgentAuditLogger.sol\":3037:3111  require(_id < totalDecisions, \"AgentAuditLogger: Decision does not exist\") */\n      tag_104\n      jumpi\n      mload(0x40)\n      0x08c379a000000000000000000000000000000000000000000000000000000000\n      dup2\n      mstore\n      0x04\n      add\n      tag_105\n      swap1\n      tag_54\n      jump\t// in\n    tag_105:\n      mload(0x40)\n      dup1\n      swap2\n      sub\n      swap1\n      revert\n    tag_104:\n        /* \"AgentAuditLogger.sol\":3121:3146  Decision storage decision */\n      0x00\n        /* \"AgentAuditLogger.sol\":3149:3158  decisions */\n      0x01\n        /* \"AgentAuditLogger.sol\":3149:3163  decisions[_id] */\n      0x00\n        /* \"AgentAuditLogger.sol\":3159:3162  _id */\n      dup4\n        /* \"AgentAuditLogger.sol\":3149:3163  decisions[_id] */\n      dup2\n      mstore\n      0x20\n      add\n      swap1\n      dup2\n      mstore\n      0x20\n      add\n      0x00\n      keccak256\n        /* \"AgentAuditLogger.sol\":3121:3163  Decision storage decision = decisions[_id] */\n      swap1\n      pop\n        /* \"AgentAuditLogger.sol\":3215:3229  Status.Pending */\n      0x00\n        /* \"AgentAuditLogger.sol\":3209:3230  uint8(Status.Pending) */\n      0x02\n      dup2\n      gt\n      iszero\n      tag_106\n      jumpi\n      tag_107\n      tag_57\n      jump\t// in\n    tag_107:\n    tag_106:\n        /* \"AgentAuditLogger.sol\":3190:3230  decision.status == uint8(Status.Pending) */\n      0xff\n      and\n        /* \"AgentAuditLogger.sol\":3190:3198  decision */\n      dup2\n        /* \"AgentAuditLogger.sol\":3190:3205  decision.status */\n      0x06\n      add\n      0x14\n      swap1\n      sload\n      swap1\n      0x0100\n      exp\n      swap1\n      div\n      0xff\n      and\n        /* \"AgentAuditLogger.sol\":3190:3230  decision.status == uint8(Status.Pending) */\n      0xff\n      and\n      eq\n        /* \"AgentAuditLogger.sol\":3182:3299  require(decision.status == uint8(Status.Pending), \"AgentAuditLogger: Decision not in correct state to be challenged\") */\n      tag_108\n      jumpi\n      mload(0x40)\n      0x08c379a000000000000000000000000000000000000000000000000000000000\n      dup2\n      mstore\n      0x04\n      add\n      tag_109\n      swap1\n      tag_110\n      jump\t// in\n    tag_109:\n      mload(0x40)\n      dup1\n      swap2\n      sub\n      swap1\n      revert\n    tag_108:\n        /* \"AgentAuditLogger.sol\":3334:3351  Status.Challenged */\n      0x01\n        /* \"AgentAuditLogger.sol\":3328:3352  uint8(Status.Challenged) */\n      0x02\n      dup2\n      gt\n      iszero\n      tag_111\n      jumpi\n      tag_112\n      tag_57\n      jump\t// in\n    tag_112:\n    tag_111:\n        /* \"AgentAuditLogger.sol\":3310:3318  decision */\n      dup2\n        /* \"AgentAuditLogger.sol\":3310:3325  decision.status */\n      0x06\n      add\n      0x14\n        /* \"AgentAuditLogger.sol\":3310:3352  decision.status = uint8(Status.Challenged) */\n      0x0100\n      exp\n      dup2\n      sload\n      dup2\n      0xff\n      mul\n      not\n      and\n      swap1\n      dup4\n      0xff\n      and\n      mul\n      or\n      swap1\n      sstore\n      pop\n        /* \"AgentAuditLogger.sol\":3382:3386  true */\n      0x01\n        /* \"AgentAuditLogger.sol\":3362:3370  decision */\n      dup2\n        /* \"AgentAuditLogger.sol\":3362:3379  decision.disputed */\n      0x06\n      add\n      0x15\n        /* \"AgentAuditLogger.sol\":3362:3386  decision.disputed = true */\n      0x0100\n      exp\n      dup2\n      sload\n      dup2\n      0xff\n      mul\n      not\n      and\n      swap1\n      dup4\n      iszero\n      iszero\n      mul\n      or\n      swap1\n      sstore\n      pop\n        /* \"AgentAuditLogger.sol\":3421:3424  _id */\n      dup2\n        /* \"AgentAuditLogger.sol\":3402:3437  DecisionChallenged(_id, msg.sender) */\n      0x56e8e57e3c10b8bae669b54e45b34845569c2fac78835439483fd7cf0db24adc\n        /* \"AgentAuditLogger.sol\":3426:3436  msg.sender */\n      caller\n        /* \"AgentAuditLogger.sol\":3402:3437  DecisionChallenged(_id, msg.sender) */\n      mload(0x40)\n      tag_113\n      swap2\n      swap1\n      tag_19\n      jump\t// in\n    tag_113:\n      mload(0x40)\n      dup1\n      swap2\n      sub\n      swap1\n      log2\n        /* \"AgentAuditLogger.sol\":3027:3444  {... */\n      pop\n        /* \"AgentAuditLogger.sol\":2980:3444  function challengeDecision(uint256 _id) public {... */\n      pop\n      jump\t// out\n        /* \"AgentAuditLogger.sol\":1633:1858  function transferGovernance(address _newGovernance) public onlyGovernance {... */\n    tag_46:\n        /* \"AgentAuditLogger.sol\":1356:1370  governanceRole */\n      0x03\n      0x00\n      swap1\n      sload\n      swap1\n      0x0100\n      exp\n      swap1\n      div\n      0xffffffffffffffffffffffffffffffffffffffff\n      and\n        /* \"AgentAuditLogger.sol\":1342:1370  msg.sender == governanceRole */\n      0xffffffffffffffffffffffffffffffffffffffff\n      and\n        /* \"AgentAuditLogger.sol\":1342:1352  msg.sender */\n      caller\n        /* \"AgentAuditLogger.sol\":1342:1370  msg.sender == governanceRole */\n      0xffffffffffffffffffffffffffffffffffffffff\n      and\n      eq\n        /* \"AgentAuditLogger.sol\":1334:1426  require(msg.sender == governanceRole, \"AgentAuditLogger: caller is not the governance role\") */\n      tag_115\n      jumpi\n      mload(0x40)\n      0x08c379a000000000000000000000000000000000000000000000000000000000\n      dup2\n      mstore\n      0x04\n      add\n      tag_116\n      swap1\n      tag_50\n      jump\t// in\n    tag_116:\n      mload(0x40)\n      dup1\n      swap2\n      sub\n      swap1\n      revert\n    tag_115:\n        /* \"AgentAuditLogger.sol\":1751:1752  0 */\n      0x00\n        /* \"AgentAuditLogger.sol\":1725:1753  _newGovernance != address(0) */\n      0xffffffffffffffffffffffffffffffffffffffff\n      and\n        /* \"AgentAuditLogger.sol\":1725:1739  _newGovernance */\n      dup2\n        /* \"AgentAuditLogger.sol\":1725:1753  _newGovernance != address(0) */\n      0xffffffffffffffffffffffffffffffffffffffff\n      and\n      sub\n        /* \"AgentAuditLogger.sol\":1717:1810  require(_newGovernance != address(0), \"AgentAuditLogger: new governance is the zero address\") */\n      tag_118\n      jumpi\n      mload(0x40)\n      0x08c379a000000000000000000000000000000000000000000000000000000000\n      dup2\n      mstore\n      0x04\n      add\n      tag_119\n      swap1\n      tag_120\n      jump\t// in\n    tag_119:\n      mload(0x40)\n      dup1\n      swap2\n      sub\n      swap1\n      revert\n    tag_118:\n        /* \"AgentAuditLogger.sol\":1837:1851  _newGovernance */\n      dup1\n        /* \"AgentAuditLogger.sol\":1820:1834  governanceRole */\n      0x03\n      0x00\n        /* \"AgentAuditLogger.sol\":1820:1851  governanceRole = _newGovernance */\n      0x0100\n      exp\n      dup2\n      sload\n      dup2\n      0xffffffffffffffffffffffffffffffffffffffff\n      mul\n      not\n      and\n      swap1\n      dup4\n      0xffffffffffffffffffffffffffffffffffffffff\n      and\n      mul\n      or\n      swap1\n      sstore\n      pop\n        /* \"AgentAuditLogger.sol\":1633:1858  function transferGovernance(address _newGovernance) public onlyGovernance {... */\n      pop\n      jump\t// out\n    tag_83:\n      mload(0x40)\n      dup1\n      0x0120\n      add\n      0x40\n      mstore\n      dup1\n      0x00\n      dup2\n      mstore\n      0x20\n      add\n      0x60\n      dup2\n      mstore\n      0x20\n      add\n      0x60\n      dup2\n      mstore\n      0x20\n      add\n      0x00\n      dup2\n      mstore\n      0x20\n      add\n      0x60\n      dup2\n      mstore\n      0x20\n      add\n      0x00\n      dup2\n      mstore\n      0x20\n      add\n      and(0xffffffffffffffffffffffffffffffffffffffff, 0x00)\n      dup2\n      mstore\n      0x20\n      add\n      and(0xff, 0x00)\n      dup2\n      mstore\n      0x20\n      add\n      iszero(iszero(0x00))\n      dup2\n      mstore\n      pop\n      swap1\n      jump\t// out\n        /* \"#utility.yul\":7:84   */\n    tag_121:\n        /* \"#utility.yul\":44:51   */\n      0x00\n        /* \"#utility.yul\":73:78   */\n      dup2\n        /* \"#utility.yul\":62:78   */\n      swap1\n      pop\n        /* \"#utility.yul\":7:84   */\n      swap2\n      swap1\n      pop\n      jump\t// out\n        /* \"#utility.yul\":90:208   */\n    tag_122:\n        /* \"#utility.yul\":177:201   */\n      tag_191\n        /* \"#utility.yul\":195:200   */\n      dup2\n        /* \"#utility.yul\":177:201   */\n      tag_121\n      jump\t// in\n    tag_191:\n        /* \"#utility.yul\":172:175   */\n      dup3\n        /* \"#utility.yul\":165:202   */\n      mstore\n        /* \"#utility.yul\":90:208   */\n      pop\n      pop\n      jump\t// out\n        /* \"#utility.yul\":214:436   */\n    tag_15:\n        /* \"#utility.yul\":307:311   */\n      0x00\n        /* \"#utility.yul\":345:347   */\n      0x20\n        /* \"#utility.yul\":334:343   */\n      dup3\n        /* \"#utility.yul\":330:348   */\n      add\n        /* \"#utility.yul\":322:348   */\n      swap1\n      pop\n        /* \"#utility.yul\":358:429   */\n      tag_193\n        /* \"#utility.yul\":426:427   */\n      0x00\n        /* \"#utility.yul\":415:424   */\n      dup4\n        /* \"#utility.yul\":411:428   */\n      add\n        /* \"#utility.yul\":402:408   */\n      dup5\n        /* \"#utility.yul\":358:429   */\n      tag_122\n      jump\t// in\n    tag_193:\n        /* \"#utility.yul\":214:436   */\n      swap3\n      swap2\n      pop\n      pop\n      jump\t// out\n        /* \"#utility.yul\":442:568   */\n    tag_123:\n        /* \"#utility.yul\":479:486   */\n      0x00\n        /* \"#utility.yul\":519:561   */\n      0xffffffffffffffffffffffffffffffffffffffff\n        /* \"#utility.yul\":512:517   */\n      dup3\n        /* \"#utility.yul\":508:562   */\n      and\n        /* \"#utility.yul\":497:562   */\n      swap1\n      pop\n        /* \"#utility.yul\":442:568   */\n      swap2\n      swap1\n      pop\n      jump\t// out\n        /* \"#utility.yul\":574:670   */\n    tag_124:\n        /* \"#utility.yul\":611:618   */\n      0x00\n        /* \"#utility.yul\":640:664   */\n      tag_196\n        /* \"#utility.yul\":658:663   */\n      dup3\n        /* \"#utility.yul\":640:664   */\n      tag_123\n      jump\t// in\n    tag_196:\n        /* \"#utility.yul\":629:664   */\n      swap1\n      pop\n        /* \"#utility.yul\":574:670   */\n      swap2\n      swap1\n      pop\n      jump\t// out\n        /* \"#utility.yul\":676:794   */\n    tag_125:\n        /* \"#utility.yul\":763:787   */\n      tag_198\n        /* \"#utility.yul\":781:786   */\n      dup2\n        /* \"#utility.yul\":763:787   */\n      tag_124\n      jump\t// in\n    tag_198:\n        /* \"#utility.yul\":758:761   */\n      dup3\n        /* \"#utility.yul\":751:788   */\n      mstore\n        /* \"#utility.yul\":676:794   */\n      pop\n      pop\n      jump\t// out\n        /* \"#utility.yul\":800:1022   */\n    tag_19:\n        /* \"#utility.yul\":893:897   */\n      0x00\n        /* \"#utility.yul\":931:933   */\n      0x20\n        /* \"#utility.yul\":920:929   */\n      dup3\n        /* \"#utility.yul\":916:934   */\n      add\n        /* \"#utility.yul\":908:934   */\n      swap1\n      pop\n        /* \"#utility.yul\":944:1015   */\n      tag_200\n        /* \"#utility.yul\":1012:1013   */\n      0x00\n        /* \"#utility.yul\":1001:1010   */\n      dup4\n        /* \"#utility.yul\":997:1014   */\n      add\n        /* \"#utility.yul\":988:994   */\n      dup5\n        /* \"#utility.yul\":944:1015   */\n      tag_125\n      jump\t// in\n    tag_200:\n        /* \"#utility.yul\":800:1022   */\n      swap3\n      swap2\n      pop\n      pop\n      jump\t// out\n        /* \"#utility.yul\":1028:1103   */\n    tag_126:\n        /* \"#utility.yul\":1061:1067   */\n      0x00\n        /* \"#utility.yul\":1094:1096   */\n      0x40\n        /* \"#utility.yul\":1088:1097   */\n      mload\n        /* \"#utility.yul\":1078:1097   */\n      swap1\n      pop\n        /* \"#utility.yul\":1028:1103   */\n      swap1\n      jump\t// out\n        /* \"#utility.yul\":1109:1226   */\n    tag_127:\n        /* \"#utility.yul\":1218:1219   */\n      0x00\n        /* \"#utility.yul\":1215:1216   */\n      dup1\n        /* \"#utility.yul\":1208:1220   */\n      revert\n        /* \"#utility.yul\":1232:1349   */\n    tag_128:\n        /* \"#utility.yul\":1341:1342   */\n      0x00\n        /* \"#utility.yul\":1338:1339   */\n      dup1\n        /* \"#utility.yul\":1331:1343   */\n      revert\n        /* \"#utility.yul\":1355:1477   */\n    tag_129:\n        /* \"#utility.yul\":1428:1452   */\n      tag_205\n        /* \"#utility.yul\":1446:1451   */\n      dup2\n        /* \"#utility.yul\":1428:1452   */\n      tag_121\n      jump\t// in\n    tag_205:\n        /* \"#utility.yul\":1421:1426   */\n      dup2\n        /* \"#utility.yul\":1418:1453   */\n      eq\n        /* \"#utility.yul\":1408:1471   */\n      tag_206\n      jumpi\n        /* \"#utility.yul\":1467:1468   */\n      0x00\n        /* \"#utility.yul\":1464:1465   */\n      dup1\n        /* \"#utility.yul\":1457:1469   */\n      revert\n        /* \"#utility.yul\":1408:1471   */\n    tag_206:\n        /* \"#utility.yul\":1355:1477   */\n      pop\n      jump\t// out\n        /* \"#utility.yul\":1483:1622   */\n    tag_130:\n        /* \"#utility.yul\":1529:1534   */\n      0x00\n        /* \"#utility.yul\":1567:1573   */\n      dup2\n        /* \"#utility.yul\":1554:1574   */\n      calldataload\n        /* \"#utility.yul\":1545:1574   */\n      swap1\n      pop\n        /* \"#utility.yul\":1583:1616   */\n      tag_208\n        /* \"#utility.yul\":1610:1615   */\n      dup2\n        /* \"#utility.yul\":1583:1616   */\n      tag_129\n      jump\t// in\n    tag_208:\n        /* \"#utility.yul\":1483:1622   */\n      swap3\n      swap2\n      pop\n      pop\n      jump\t// out\n        /* \"#utility.yul\":1628:1718   */\n    tag_131:\n        /* \"#utility.yul\":1662:1669   */\n      0x00\n        /* \"#utility.yul\":1705:1710   */\n      dup2\n        /* \"#utility.yul\":1698:1711   */\n      iszero\n        /* \"#utility.yul\":1691:1712   */\n      iszero\n        /* \"#utility.yul\":1680:1712   */\n      swap1\n      pop\n        /* \"#utility.yul\":1628:1718   */\n      swap2\n      swap1\n      pop\n      jump\t// out\n        /* \"#utility.yul\":1724:1840   */\n    tag_132:\n        /* \"#utility.yul\":1794:1815   */\n      tag_211\n        /* \"#utility.yul\":1809:1814   */\n      dup2\n        /* \"#utility.yul\":1794:1815   */\n      tag_131\n      jump\t// in\n    tag_211:\n        /* \"#utility.yul\":1787:1792   */\n      dup2\n        /* \"#utility.yul\":1784:1816   */\n      eq\n        /* \"#utility.yul\":1774:1834   */\n      tag_212\n      jumpi\n        /* \"#utility.yul\":1830:1831   */\n      0x00\n        /* \"#utility.yul\":1827:1828   */\n      dup1\n        /* \"#utility.yul\":1820:1832   */\n      revert\n        /* \"#utility.yul\":1774:1834   */\n    tag_212:\n        /* \"#utility.yul\":1724:1840   */\n      pop\n      jump\t// out\n        /* \"#utility.yul\":1846:1979   */\n    tag_133:\n        /* \"#utility.yul\":1889:1894   */\n      0x00\n        /* \"#utility.yul\":1927:1933   */\n      dup2\n        /* \"#utility.yul\":1914:1934   */\n      calldataload\n        /* \"#utility.yul\":1905:1934   */\n      swap1\n      pop\n        /* \"#utility.yul\":1943:1973   */\n      tag_214\n        /* \"#utility.yul\":1967:1972   */\n      dup2\n        /* \"#utility.yul\":1943:1973   */\n      tag_132\n      jump\t// in\n    tag_214:\n        /* \"#utility.yul\":1846:1979   */\n      swap3\n      swap2\n      pop\n      pop\n      jump\t// out\n        /* \"#utility.yul\":1985:2453   */\n    tag_22:\n        /* \"#utility.yul\":2050:2056   */\n      0x00\n        /* \"#utility.yul\":2058:2064   */\n      dup1\n        /* \"#utility.yul\":2107:2109   */\n      0x40\n        /* \"#utility.yul\":2095:2104   */\n      dup4\n        /* \"#utility.yul\":2086:2093   */\n      dup6\n        /* \"#utility.yul\":2082:2105   */\n      sub\n        /* \"#utility.yul\":2078:2110   */\n      slt\n        /* \"#utility.yul\":2075:2194   */\n      iszero\n      tag_216\n      jumpi\n        /* \"#utility.yul\":2113:2192   */\n      tag_217\n      tag_127\n      jump\t// in\n    tag_217:\n        /* \"#utility.yul\":2075:2194   */\n    tag_216:\n        /* \"#utility.yul\":2233:2234   */\n      0x00\n        /* \"#utility.yul\":2258:2311   */\n      tag_218\n        /* \"#utility.yul\":2303:2310   */\n      dup6\n        /* \"#utility.yul\":2294:2300   */\n      dup3\n        /* \"#utility.yul\":2283:2292   */\n      dup7\n        /* \"#utility.yul\":2279:2301   */\n      add\n        /* \"#utility.yul\":2258:2311   */\n      tag_130\n      jump\t// in\n    tag_218:\n        /* \"#utility.yul\":2248:2311   */\n      swap3\n      pop\n        /* \"#utility.yul\":2204:2321   */\n      pop\n        /* \"#utility.yul\":2360:2362   */\n      0x20\n        /* \"#utility.yul\":2386:2436   */\n      tag_219\n        /* \"#utility.yul\":2428:2435   */\n      dup6\n        /* \"#utility.yul\":2419:2425   */\n      dup3\n        /* \"#utility.yul\":2408:2417   */\n      dup7\n        /* \"#utility.yul\":2404:2426   */\n      add\n        /* \"#utility.yul\":2386:2436   */\n      tag_133\n      jump\t// in\n    tag_219:\n        /* \"#utility.yul\":2376:2436   */\n      swap2\n      pop\n        /* \"#utility.yul\":2331:2446   */\n      pop\n        /* \"#utility.yul\":1985:2453   */\n      swap3\n      pop\n      swap3\n      swap1\n      pop\n      jump\t// out\n        /* \"#utility.yul\":2459:2581   */\n    tag_134:\n        /* \"#utility.yul\":2532:2556   */\n      tag_221\n        /* \"#utility.yul\":2550:2555   */\n      dup2\n        /* \"#utility.yul\":2532:2556   */\n      tag_124\n      jump\t// in\n    tag_221:\n        /* \"#utility.yul\":2525:2530   */\n      dup2\n        /* \"#utility.yul\":2522:2557   */\n      eq\n        /* \"#utility.yul\":2512:2575   */\n      tag_222\n      jumpi\n        /* \"#utility.yul\":2571:2572   */\n      0x00\n        /* \"#utility.yul\":2568:2569   */\n      dup1\n        /* \"#utility.yul\":2561:2573   */\n      revert\n        /* \"#utility.yul\":2512:2575   */\n    tag_222:\n        /* \"#utility.yul\":2459:2581   */\n      pop\n      jump\t// out\n        /* \"#utility.yul\":2587:2726   */\n    tag_135:\n        /* \"#utility.yul\":2633:2638   */\n      0x00\n        /* \"#utility.yul\":2671:2677   */\n      dup2\n        /* \"#utility.yul\":2658:2678   */\n      calldataload\n        /* \"#utility.yul\":2649:2678   */\n      swap1\n      pop\n        /* \"#utility.yul\":2687:2720   */\n      tag_224\n        /* \"#utility.yul\":2714:2719   */\n      dup2\n        /* \"#utility.yul\":2687:2720   */\n      tag_134\n      jump\t// in\n    tag_224:\n        /* \"#utility.yul\":2587:2726   */\n      swap3\n      swap2\n      pop\n      pop\n      jump\t// out\n        /* \"#utility.yul\":2732:3061   */\n    tag_26:\n        /* \"#utility.yul\":2791:2797   */\n      0x00\n        /* \"#utility.yul\":2840:2842   */\n      0x20\n        /* \"#utility.yul\":2828:2837   */\n      dup3\n        /* \"#utility.yul\":2819:2826   */\n      dup5\n        /* \"#utility.yul\":2815:2838   */\n      sub\n        /* \"#utility.yul\":2811:2843   */\n      slt\n        /* \"#utility.yul\":2808:2927   */\n      iszero\n      tag_226\n      jumpi\n        /* \"#utility.yul\":2846:2925   */\n      tag_227\n      tag_127\n      jump\t// in\n    tag_227:\n        /* \"#utility.yul\":2808:2927   */\n    tag_226:\n        /* \"#utility.yul\":2966:2967   */\n      0x00\n        /* \"#utility.yul\":2991:3044   */\n      tag_228\n        /* \"#utility.yul\":3036:3043   */\n      dup5\n        /* \"#utility.yul\":3027:3033   */\n      dup3\n        /* \"#utility.yul\":3016:3025   */\n      dup6\n        /* \"#utility.yul\":3012:3034   */\n      add\n        /* \"#utility.yul\":2991:3044   */\n      tag_135\n      jump\t// in\n    tag_228:\n        /* \"#utility.yul\":2981:3044   */\n      swap2\n      pop\n        /* \"#utility.yul\":2937:3054   */\n      pop\n        /* \"#utility.yul\":2732:3061   */\n      swap3\n      swap2\n      pop\n      pop\n      jump\t// out\n        /* \"#utility.yul\":3067:3143   */\n    tag_136:\n        /* \"#utility.yul\":3103:3110   */\n      0x00\n        /* \"#utility.yul\":3132:3137   */\n      dup2\n        /* \"#utility.yul\":3121:3137   */\n      swap1\n      pop\n        /* \"#utility.yul\":3067:3143   */\n      swap2\n      swap1\n      pop\n      jump\t// out\n        /* \"#utility.yul\":3149:3264   */\n    tag_137:\n        /* \"#utility.yul\":3234:3257   */\n      tag_231\n        /* \"#utility.yul\":3251:3256   */\n      dup2\n        /* \"#utility.yul\":3234:3257   */\n      tag_136\n      jump\t// in\n    tag_231:\n        /* \"#utility.yul\":3229:3232   */\n      dup3\n        /* \"#utility.yul\":3222:3258   */\n      mstore\n        /* \"#utility.yul\":3149:3264   */\n      pop\n      pop\n      jump\t// out\n        /* \"#utility.yul\":3270:3488   */\n    tag_29:\n        /* \"#utility.yul\":3361:3365   */\n      0x00\n        /* \"#utility.yul\":3399:3401   */\n      0x20\n        /* \"#utility.yul\":3388:3397   */\n      dup3\n        /* \"#utility.yul\":3384:3402   */\n      add\n        /* \"#utility.yul\":3376:3402   */\n      swap1\n      pop\n        /* \"#utility.yul\":3412:3481   */\n      tag_233\n        /* \"#utility.yul\":3478:3479   */\n      0x00\n        /* \"#utility.yul\":3467:3476   */\n      dup4\n        /* \"#utility.yul\":3463:3480   */\n      add\n        /* \"#utility.yul\":3454:3460   */\n      dup5\n        /* \"#utility.yul\":3412:3481   */\n      tag_137\n      jump\t// in\n    tag_233:\n        /* \"#utility.yul\":3270:3488   */\n      swap3\n      swap2\n      pop\n      pop\n      jump\t// out\n        /* \"#utility.yul\":3494:3611   */\n    tag_138:\n        /* \"#utility.yul\":3603:3604   */\n      0x00\n        /* \"#utility.yul\":3600:3601   */\n      dup1\n        /* \"#utility.yul\":3593:3605   */\n      revert\n        /* \"#utility.yul\":3617:3734   */\n    tag_139:\n        /* \"#utility.yul\":3726:3727   */\n      0x00\n        /* \"#utility.yul\":3723:3724   */\n      dup1\n        /* \"#utility.yul\":3716:3728   */\n      revert\n        /* \"#utility.yul\":3740:3842   */\n    tag_140:\n        /* \"#utility.yul\":3781:3787   */\n      0x00\n        /* \"#utility.yul\":3832:3834   */\n      0x1f\n        /* \"#utility.yul\":3828:3835   */\n      not\n        /* \"#utility.yul\":3823:3825   */\n      0x1f\n        /* \"#utility.yul\":3816:3821   */\n      dup4\n        /* \"#utility.yul\":3812:3826   */\n      add\n        /* \"#utility.yul\":3808:3836   */\n      and\n        /* \"#utility.yul\":3798:3836   */\n      swap1\n      pop\n        /* \"#utility.yul\":3740:3842   */\n      swap2\n      swap1\n      pop\n      jump\t// out\n        /* \"#utility.yul\":3848:4028   */\n    tag_141:\n        /* \"#utility.yul\":3896:3973   */\n      0x4e487b7100000000000000000000000000000000000000000000000000000000\n        /* \"#utility.yul\":3893:3894   */\n      0x00\n        /* \"#utility.yul\":3886:3974   */\n      mstore\n        /* \"#utility.yul\":3993:3997   */\n      0x41\n        /* \"#utility.yul\":3990:3991   */\n      0x04\n        /* \"#utility.yul\":3983:3998   */\n      mstore\n        /* \"#utility.yul\":4017:4021   */\n      0x24\n        /* \"#utility.yul\":4014:4015   */\n      0x00\n        /* \"#utility.yul\":4007:4022   */\n      revert\n        /* \"#utility.yul\":4034:4315   */\n    tag_142:\n        /* \"#utility.yul\":4117:4144   */\n      tag_239\n        /* \"#utility.yul\":4139:4143   */\n      dup3\n        /* \"#utility.yul\":4117:4144   */\n      tag_140\n      jump\t// in\n    tag_239:\n        /* \"#utility.yul\":4109:4115   */\n      dup2\n        /* \"#utility.yul\":4105:4145   */\n      add\n        /* \"#utility.yul\":4247:4253   */\n      dup2\n        /* \"#utility.yul\":4235:4245   */\n      dup2\n        /* \"#utility.yul\":4232:4254   */\n      lt\n        /* \"#utility.yul\":4211:4229   */\n      0xffffffffffffffff\n        /* \"#utility.yul\":4199:4209   */\n      dup3\n        /* \"#utility.yul\":4196:4230   */\n      gt\n        /* \"#utility.yul\":4193:4255   */\n      or\n        /* \"#utility.yul\":4190:4278   */\n      iszero\n      tag_240\n      jumpi\n        /* \"#utility.yul\":4258:4276   */\n      tag_241\n      tag_141\n      jump\t// in\n    tag_241:\n        /* \"#utility.yul\":4190:4278   */\n    tag_240:\n        /* \"#utility.yul\":4298:4308   */\n      dup1\n        /* \"#utility.yul\":4294:4296   */\n      0x40\n        /* \"#utility.yul\":4287:4309   */\n      mstore\n        /* \"#utility.yul\":4077:4315   */\n      pop\n        /* \"#utility.yul\":4034:4315   */\n      pop\n      pop\n      jump\t// out\n        /* \"#utility.yul\":4321:4450   */\n    tag_143:\n        /* \"#utility.yul\":4355:4361   */\n      0x00\n        /* \"#utility.yul\":4382:4402   */\n      tag_243\n      tag_126\n      jump\t// in\n    tag_243:\n        /* \"#utility.yul\":4372:4402   */\n      swap1\n      pop\n        /* \"#utility.yul\":4411:4444   */\n      tag_244\n        /* \"#utility.yul\":4439:4443   */\n      dup3\n        /* \"#utility.yul\":4431:4437   */\n      dup3\n        /* \"#utility.yul\":4411:4444   */\n      tag_142\n      jump\t// in\n    tag_244:\n        /* \"#utility.yul\":4321:4450   */\n      swap2\n      swap1\n      pop\n      jump\t// out\n        /* \"#utility.yul\":4456:4764   */\n    tag_144:\n        /* \"#utility.yul\":4518:4522   */\n      0x00\n        /* \"#utility.yul\":4608:4626   */\n      0xffffffffffffffff\n        /* \"#utility.yul\":4600:4606   */\n      dup3\n        /* \"#utility.yul\":4597:4627   */\n      gt\n        /* \"#utility.yul\":4594:4650   */\n      iszero\n      tag_246\n      jumpi\n        /* \"#utility.yul\":4630:4648   */\n      tag_247\n      tag_141\n      jump\t// in\n    tag_247:\n        /* \"#utility.yul\":4594:4650   */\n    tag_246:\n        /* \"#utility.yul\":4668:4697   */\n      tag_248\n        /* \"#utility.yul\":4690:4696   */\n      dup3\n        /* \"#utility.yul\":4668:4697   */\n      tag_140\n      jump\t// in\n    tag_248:\n        /* \"#utility.yul\":4660:4697   */\n      swap1\n      pop\n        /* \"#utility.yul\":4752:4756   */\n      0x20\n        /* \"#utility.yul\":4746:4750   */\n      dup2\n        /* \"#utility.yul\":4742:4757   */\n      add\n        /* \"#utility.yul\":4734:4757   */\n      swap1\n      pop\n        /* \"#utility.yul\":4456:4764   */\n      swap2\n      swap1\n      pop\n      jump\t// out\n        /* \"#utility.yul\":4770:4918   */\n    tag_145:\n        /* \"#utility.yul\":4868:4874   */\n      dup3\n        /* \"#utility.yul\":4863:4866   */\n      dup2\n        /* \"#utility.yul\":4858:4861   */\n      dup4\n        /* \"#utility.yul\":4845:4875   */\n      calldatacopy\n        /* \"#utility.yul\":4909:4910   */\n      0x00\n        /* \"#utility.yul\":4900:4906   */\n      dup4\n        /* \"#utility.yul\":4895:4898   */\n      dup4\n        /* \"#utility.yul\":4891:4907   */\n      add\n        /* \"#utility.yul\":4884:4911   */\n      mstore\n        /* \"#utility.yul\":4770:4918   */\n      pop\n      pop\n      pop\n      jump\t// out\n        /* \"#utility.yul\":4924:5349   */\n    tag_146:\n        /* \"#utility.yul\":5002:5007   */\n      0x00\n        /* \"#utility.yul\":5027:5093   */\n      tag_251\n        /* \"#utility.yul\":5043:5092   */\n      tag_252\n        /* \"#utility.yul\":5085:5091   */\n      dup5\n        /* \"#utility.yul\":5043:5092   */\n      tag_144\n      jump\t// in\n    tag_252:\n        /* \"#utility.yul\":5027:5093   */\n      tag_143\n      jump\t// in\n    tag_251:\n        /* \"#utility.yul\":5018:5093   */\n      swap1\n      pop\n        /* \"#utility.yul\":5116:5122   */\n      dup3\n        /* \"#utility.yul\":5109:5114   */\n      dup2\n        /* \"#utility.yul\":5102:5123   */\n      mstore\n        /* \"#utility.yul\":5154:5158   */\n      0x20\n        /* \"#utility.yul\":5147:5152   */\n      dup2\n        /* \"#utility.yul\":5143:5159   */\n      add\n        /* \"#utility.yul\":5192:5195   */\n      dup5\n        /* \"#utility.yul\":5183:5189   */\n      dup5\n        /* \"#utility.yul\":5178:5181   */\n      dup5\n        /* \"#utility.yul\":5174:5190   */\n      add\n        /* \"#utility.yul\":5171:5196   */\n      gt\n        /* \"#utility.yul\":5168:5280   */\n      iszero\n      tag_253\n      jumpi\n        /* \"#utility.yul\":5199:5278   */\n      tag_254\n      tag_139\n      jump\t// in\n    tag_254:\n        /* \"#utility.yul\":5168:5280   */\n    tag_253:\n        /* \"#utility.yul\":5289:5343   */\n      tag_255\n        /* \"#utility.yul\":5336:5342   */\n      dup5\n        /* \"#utility.yul\":5331:5334   */\n      dup3\n        /* \"#utility.yul\":5326:5329   */\n      dup6\n        /* \"#utility.yul\":5289:5343   */\n      tag_145\n      jump\t// in\n    tag_255:\n        /* \"#utility.yul\":5008:5349   */\n      pop\n        /* \"#utility.yul\":4924:5349   */\n      swap4\n      swap3\n      pop\n      pop\n      pop\n      jump\t// out\n        /* \"#utility.yul\":5369:5709   */\n    tag_147:\n        /* \"#utility.yul\":5425:5430   */\n      0x00\n        /* \"#utility.yul\":5474:5477   */\n      dup3\n        /* \"#utility.yul\":5467:5471   */\n      0x1f\n        /* \"#utility.yul\":5459:5465   */\n      dup4\n        /* \"#utility.yul\":5455:5472   */\n      add\n        /* \"#utility.yul\":5451:5478   */\n      slt\n        /* \"#utility.yul\":5441:5563   */\n      tag_257\n      jumpi\n        /* \"#utility.yul\":5482:5561   */\n      tag_258\n      tag_138\n      jump\t// in\n    tag_258:\n        /* \"#utility.yul\":5441:5563   */\n    tag_257:\n        /* \"#utility.yul\":5599:5605   */\n      dup2\n        /* \"#utility.yul\":5586:5606   */\n      calldataload\n        /* \"#utility.yul\":5624:5703   */\n      tag_259\n        /* \"#utility.yul\":5699:5702   */\n      dup5\n        /* \"#utility.yul\":5691:5697   */\n      dup3\n        /* \"#utility.yul\":5684:5688   */\n      0x20\n        /* \"#utility.yul\":5676:5682   */\n      dup7\n        /* \"#utility.yul\":5672:5689   */\n      add\n        /* \"#utility.yul\":5624:5703   */\n      tag_146\n      jump\t// in\n    tag_259:\n        /* \"#utility.yul\":5615:5703   */\n      swap2\n      pop\n        /* \"#utility.yul\":5431:5709   */\n      pop\n        /* \"#utility.yul\":5369:5709   */\n      swap3\n      swap2\n      pop\n      pop\n      jump\t// out\n        /* \"#utility.yul\":5715:7020   */\n    tag_32:\n        /* \"#utility.yul\":5831:5837   */\n      0x00\n        /* \"#utility.yul\":5839:5845   */\n      dup1\n        /* \"#utility.yul\":5847:5853   */\n      0x00\n        /* \"#utility.yul\":5855:5861   */\n      dup1\n        /* \"#utility.yul\":5904:5907   */\n      0x80\n        /* \"#utility.yul\":5892:5901   */\n      dup6\n        /* \"#utility.yul\":5883:5890   */\n      dup8\n        /* \"#utility.yul\":5879:5902   */\n      sub\n        /* \"#utility.yul\":5875:5908   */\n      slt\n        /* \"#utility.yul\":5872:5992   */\n      iszero\n      tag_261\n      jumpi\n        /* \"#utility.yul\":5911:5990   */\n      tag_262\n      tag_127\n      jump\t// in\n    tag_262:\n        /* \"#utility.yul\":5872:5992   */\n    tag_261:\n        /* \"#utility.yul\":6059:6060   */\n      0x00\n        /* \"#utility.yul\":6048:6057   */\n      dup6\n        /* \"#utility.yul\":6044:6061   */\n      add\n        /* \"#utility.yul\":6031:6062   */\n      calldataload\n        /* \"#utility.yul\":6089:6107   */\n      0xffffffffffffffff\n        /* \"#utility.yul\":6081:6087   */\n      dup2\n        /* \"#utility.yul\":6078:6108   */\n      gt\n        /* \"#utility.yul\":6075:6192   */\n      iszero\n      tag_263\n      jumpi\n        /* \"#utility.yul\":6111:6190   */\n      tag_264\n      tag_128\n      jump\t// in\n    tag_264:\n        /* \"#utility.yul\":6075:6192   */\n    tag_263:\n        /* \"#utility.yul\":6216:6279   */\n      tag_265\n        /* \"#utility.yul\":6271:6278   */\n      dup8\n        /* \"#utility.yul\":6262:6268   */\n      dup3\n        /* \"#utility.yul\":6251:6260   */\n      dup9\n        /* \"#utility.yul\":6247:6269   */\n      add\n        /* \"#utility.yul\":6216:6279   */\n      tag_147\n      jump\t// in\n    tag_265:\n        /* \"#utility.yul\":6206:6279   */\n      swap5\n      pop\n        /* \"#utility.yul\":6002:6289   */\n      pop\n        /* \"#utility.yul\":6356:6358   */\n      0x20\n        /* \"#utility.yul\":6345:6354   */\n      dup6\n        /* \"#utility.yul\":6341:6359   */\n      add\n        /* \"#utility.yul\":6328:6360   */\n      calldataload\n        /* \"#utility.yul\":6387:6405   */\n      0xffffffffffffffff\n        /* \"#utility.yul\":6379:6385   */\n      dup2\n        /* \"#utility.yul\":6376:6406   */\n      gt\n        /* \"#utility.yul\":6373:6490   */\n      iszero\n      tag_266\n      jumpi\n        /* \"#utility.yul\":6409:6488   */\n      tag_267\n      tag_128\n      jump\t// in\n    tag_267:\n        /* \"#utility.yul\":6373:6490   */\n    tag_266:\n        /* \"#utility.yul\":6514:6577   */\n      tag_268\n        /* \"#utility.yul\":6569:6576   */\n      dup8\n        /* \"#utility.yul\":6560:6566   */\n      dup3\n        /* \"#utility.yul\":6549:6558   */\n      dup9\n        /* \"#utility.yul\":6545:6567   */\n      add\n        /* \"#utility.yul\":6514:6577   */\n      tag_147\n      jump\t// in\n    tag_268:\n        /* \"#utility.yul\":6504:6577   */\n      swap4\n      pop\n        /* \"#utility.yul\":6299:6587   */\n      pop\n        /* \"#utility.yul\":6626:6628   */\n      0x40\n        /* \"#utility.yul\":6652:6705   */\n      tag_269\n        /* \"#utility.yul\":6697:6704   */\n      dup8\n        /* \"#utility.yul\":6688:6694   */\n      dup3\n        /* \"#utility.yul\":6677:6686   */\n      dup9\n        /* \"#utility.yul\":6673:6695   */\n      add\n        /* \"#utility.yul\":6652:6705   */\n      tag_130\n      jump\t// in\n    tag_269:\n        /* \"#utility.yul\":6642:6705   */\n      swap3\n      pop\n        /* \"#utility.yul\":6597:6715   */\n      pop\n        /* \"#utility.yul\":6782:6784   */\n      0x60\n        /* \"#utility.yul\":6771:6780   */\n      dup6\n        /* \"#utility.yul\":6767:6785   */\n      add\n        /* \"#utility.yul\":6754:6786   */\n      calldataload\n        /* \"#utility.yul\":6813:6831   */\n      0xffffffffffffffff\n        /* \"#utility.yul\":6805:6811   */\n      dup2\n        /* \"#utility.yul\":6802:6832   */\n      gt\n        /* \"#utility.yul\":6799:6916   */\n      iszero\n      tag_270\n      jumpi\n        /* \"#utility.yul\":6835:6914   */\n      tag_271\n      tag_128\n      jump\t// in\n    tag_271:\n        /* \"#utility.yul\":6799:6916   */\n    tag_270:\n        /* \"#utility.yul\":6940:7003   */\n      tag_272\n        /* \"#utility.yul\":6995:7002   */\n      dup8\n        /* \"#utility.yul\":6986:6992   */\n      dup3\n        /* \"#utility.yul\":6975:6984   */\n      dup9\n        /* \"#utility.yul\":6971:6993   */\n      add\n        /* \"#utility.yul\":6940:7003   */\n      tag_147\n      jump\t// in\n    tag_272:\n        /* \"#utility.yul\":6930:7003   */\n      swap2\n      pop\n        /* \"#utility.yul\":6725:7013   */\n      pop\n        /* \"#utility.yul\":5715:7020   */\n      swap3\n      swap6\n      swap2\n      swap5\n      pop\n      swap3\n      pop\n      jump\t// out\n        /* \"#utility.yul\":7026:7355   */\n    tag_37:\n        /* \"#utility.yul\":7085:7091   */\n      0x00\n        /* \"#utility.yul\":7134:7136   */\n      0x20\n        /* \"#utility.yul\":7122:7131   */\n      dup3\n        /* \"#utility.yul\":7113:7120   */\n      dup5\n        /* \"#utility.yul\":7109:7132   */\n      sub\n        /* \"#utility.yul\":7105:7137   */\n      slt\n        /* \"#utility.yul\":7102:7221   */\n      iszero\n      tag_274\n      jumpi\n        /* \"#utility.yul\":7140:7219   */\n      tag_275\n      tag_127\n      jump\t// in\n    tag_275:\n        /* \"#utility.yul\":7102:7221   */\n    tag_274:\n        /* \"#utility.yul\":7260:7261   */\n      0x00\n        /* \"#utility.yul\":7285:7338   */\n      tag_276\n        /* \"#utility.yul\":7330:7337   */\n      dup5\n        /* \"#utility.yul\":7321:7327   */\n      dup3\n        /* \"#utility.yul\":7310:7319   */\n      dup6\n        /* \"#utility.yul\":7306:7328   */\n      add\n        /* \"#utility.yul\":7285:7338   */\n      tag_130\n      jump\t// in\n    tag_276:\n        /* \"#utility.yul\":7275:7338   */\n      swap2\n      pop\n        /* \"#utility.yul\":7231:7348   */\n      pop\n        /* \"#utility.yul\":7026:7355   */\n      swap3\n      swap2\n      pop\n      pop\n      jump\t// out\n        /* \"#utility.yul\":7361:7469   */\n    tag_148:\n        /* \"#utility.yul\":7438:7462   */\n      tag_278\n        /* \"#utility.yul\":7456:7461   */\n      dup2\n        /* \"#utility.yul\":7438:7462   */\n      tag_121\n      jump\t// in\n    tag_278:\n        /* \"#utility.yul\":7433:7436   */\n      dup3\n        /* \"#utility.yul\":7426:7463   */\n      mstore\n        /* \"#utility.yul\":7361:7469   */\n      pop\n      pop\n      jump\t// out\n        /* \"#utility.yul\":7475:7574   */\n    tag_149:\n        /* \"#utility.yul\":7527:7533   */\n      0x00\n        /* \"#utility.yul\":7561:7566   */\n      dup2\n        /* \"#utility.yul\":7555:7567   */\n      mload\n        /* \"#utility.yul\":7545:7567   */\n      swap1\n      pop\n        /* \"#utility.yul\":7475:7574   */\n      swap2\n      swap1\n      pop\n      jump\t// out\n        /* \"#utility.yul\":7580:7739   */\n    tag_150:\n        /* \"#utility.yul\":7654:7665   */\n      0x00\n        /* \"#utility.yul\":7688:7694   */\n      dup3\n        /* \"#utility.yul\":7683:7686   */\n      dup3\n        /* \"#utility.yul\":7676:7695   */\n      mstore\n        /* \"#utility.yul\":7728:7732   */\n      0x20\n        /* \"#utility.yul\":7723:7726   */\n      dup3\n        /* \"#utility.yul\":7719:7733   */\n      add\n        /* \"#utility.yul\":7704:7733   */\n      swap1\n      pop\n        /* \"#utility.yul\":7580:7739   */\n      swap3\n      swap2\n      pop\n      pop\n      jump\t// out\n        /* \"#utility.yul\":7745:7993   */\n    tag_151:\n        /* \"#utility.yul\":7827:7828   */\n      0x00\n        /* \"#utility.yul\":7837:7950   */\n    tag_282:\n        /* \"#utility.yul\":7851:7857   */\n      dup4\n        /* \"#utility.yul\":7848:7849   */\n      dup2\n        /* \"#utility.yul\":7845:7858   */\n      lt\n        /* \"#utility.yul\":7837:7950   */\n      iszero\n      tag_284\n      jumpi\n        /* \"#utility.yul\":7936:7937   */\n      dup1\n        /* \"#utility.yul\":7931:7934   */\n      dup3\n        /* \"#utility.yul\":7927:7938   */\n      add\n        /* \"#utility.yul\":7921:7939   */\n      mload\n        /* \"#utility.yul\":7917:7918   */\n      dup2\n        /* \"#utility.yul\":7912:7915   */\n      dup5\n        /* \"#utility.yul\":7908:7919   */\n      add\n        /* \"#utility.yul\":7901:7940   */\n      mstore\n        /* \"#utility.yul\":7873:7875   */\n      0x20\n        /* \"#utility.yul\":7870:7871   */\n      dup2\n        /* \"#utility.yul\":7866:7876   */\n      add\n        /* \"#utility.yul\":7861:7876   */\n      swap1\n      pop\n        /* \"#utility.yul\":7837:7950   */\n      jump(tag_282)\n    tag_284:\n        /* \"#utility.yul\":7984:7985   */\n      0x00\n        /* \"#utility.yul\":7975:7981   */\n      dup5\n        /* \"#utility.yul\":7970:7973   */\n      dup5\n        /* \"#utility.yul\":7966:7982   */\n      add\n        /* \"#utility.yul\":7959:7986   */\n      mstore\n        /* \"#utility.yul\":7807:7993   */\n      pop\n        /* \"#utility.yul\":7745:7993   */\n      pop\n      pop\n      pop\n      jump\t// out\n        /* \"#utility.yul\":7999:8356   */\n    tag_152:\n        /* \"#utility.yul\":8077:8080   */\n      0x00\n        /* \"#utility.yul\":8105:8144   */\n      tag_286\n        /* \"#utility.yul\":8138:8143   */\n      dup3\n        /* \"#utility.yul\":8105:8144   */\n      tag_149\n      jump\t// in\n    tag_286:\n        /* \"#utility.yul\":8160:8221   */\n      tag_287\n        /* \"#utility.yul\":8214:8220   */\n      dup2\n        /* \"#utility.yul\":8209:8212   */\n      dup6\n        /* \"#utility.yul\":8160:8221   */\n      tag_150\n      jump\t// in\n    tag_287:\n        /* \"#utility.yul\":8153:8221   */\n      swap4\n      pop\n        /* \"#utility.yul\":8230:8295   */\n      tag_288\n        /* \"#utility.yul\":8288:8294   */\n      dup2\n        /* \"#utility.yul\":8283:8286   */\n      dup6\n        /* \"#utility.yul\":8276:8280   */\n      0x20\n        /* \"#utility.yul\":8269:8274   */\n      dup7\n        /* \"#utility.yul\":8265:8281   */\n      add\n        /* \"#utility.yul\":8230:8295   */\n      tag_151\n      jump\t// in\n    tag_288:\n        /* \"#utility.yul\":8320:8349   */\n      tag_289\n        /* \"#utility.yul\":8342:8348   */\n      dup2\n        /* \"#utility.yul\":8320:8349   */\n      tag_140\n      jump\t// in\n    tag_289:\n        /* \"#utility.yul\":8315:8318   */\n      dup5\n        /* \"#utility.yul\":8311:8350   */\n      add\n        /* \"#utility.yul\":8304:8350   */\n      swap2\n      pop\n        /* \"#utility.yul\":8081:8356   */\n      pop\n        /* \"#utility.yul\":7999:8356   */\n      swap3\n      swap2\n      pop\n      pop\n      jump\t// out\n        /* \"#utility.yul\":8362:8470   */\n    tag_153:\n        /* \"#utility.yul\":8439:8463   */\n      tag_291\n        /* \"#utility.yul\":8457:8462   */\n      dup2\n        /* \"#utility.yul\":8439:8463   */\n      tag_124\n      jump\t// in\n    tag_291:\n        /* \"#utility.yul\":8434:8437   */\n      dup3\n        /* \"#utility.yul\":8427:8464   */\n      mstore\n        /* \"#utility.yul\":8362:8470   */\n      pop\n      pop\n      jump\t// out\n        /* \"#utility.yul\":8476:8562   */\n    tag_154:\n        /* \"#utility.yul\":8511:8518   */\n      0x00\n        /* \"#utility.yul\":8551:8555   */\n      0xff\n        /* \"#utility.yul\":8544:8549   */\n      dup3\n        /* \"#utility.yul\":8540:8556   */\n      and\n        /* \"#utility.yul\":8529:8556   */\n      swap1\n      pop\n        /* \"#utility.yul\":8476:8562   */\n      swap2\n      swap1\n      pop\n      jump\t// out\n        /* \"#utility.yul\":8568:8670   */\n    tag_155:\n        /* \"#utility.yul\":8641:8663   */\n      tag_294\n        /* \"#utility.yul\":8657:8662   */\n      dup2\n        /* \"#utility.yul\":8641:8663   */\n      tag_154\n      jump\t// in\n    tag_294:\n        /* \"#utility.yul\":8636:8639   */\n      dup3\n        /* \"#utility.yul\":8629:8664   */\n      mstore\n        /* \"#utility.yul\":8568:8670   */\n      pop\n      pop\n      jump\t// out\n        /* \"#utility.yul\":8676:8775   */\n    tag_156:\n        /* \"#utility.yul\":8747:8768   */\n      tag_296\n        /* \"#utility.yul\":8762:8767   */\n      dup2\n        /* \"#utility.yul\":8747:8768   */\n      tag_131\n      jump\t// in\n    tag_296:\n        /* \"#utility.yul\":8742:8745   */\n      dup3\n        /* \"#utility.yul\":8735:8769   */\n      mstore\n        /* \"#utility.yul\":8676:8775   */\n      pop\n      pop\n      jump\t// out\n        /* \"#utility.yul\":8857:10844   */\n    tag_157:\n        /* \"#utility.yul\":8974:8977   */\n      0x00\n        /* \"#utility.yul\":9010:9016   */\n      0x0120\n        /* \"#utility.yul\":9005:9008   */\n      dup4\n        /* \"#utility.yul\":9001:9017   */\n      add\n        /* \"#utility.yul\":9097:9101   */\n      0x00\n        /* \"#utility.yul\":9090:9095   */\n      dup4\n        /* \"#utility.yul\":9086:9102   */\n      add\n        /* \"#utility.yul\":9080:9103   */\n      mload\n        /* \"#utility.yul\":9116:9179   */\n      tag_298\n        /* \"#utility.yul\":9173:9177   */\n      0x00\n        /* \"#utility.yul\":9168:9171   */\n      dup7\n        /* \"#utility.yul\":9164:9178   */\n      add\n        /* \"#utility.yul\":9150:9162   */\n      dup3\n        /* \"#utility.yul\":9116:9179   */\n      tag_148\n      jump\t// in\n    tag_298:\n        /* \"#utility.yul\":9027:9189   */\n      pop\n        /* \"#utility.yul\":9273:9277   */\n      0x20\n        /* \"#utility.yul\":9266:9271   */\n      dup4\n        /* \"#utility.yul\":9262:9278   */\n      add\n        /* \"#utility.yul\":9256:9279   */\n      mload\n        /* \"#utility.yul\":9326:9329   */\n      dup5\n        /* \"#utility.yul\":9320:9324   */\n      dup3\n        /* \"#utility.yul\":9316:9330   */\n      sub\n        /* \"#utility.yul\":9309:9313   */\n      0x20\n        /* \"#utility.yul\":9304:9307   */\n      dup7\n        /* \"#utility.yul\":9300:9314   */\n      add\n        /* \"#utility.yul\":9293:9331   */\n      mstore\n        /* \"#utility.yul\":9352:9425   */\n      tag_299\n        /* \"#utility.yul\":9420:9424   */\n      dup3\n        /* \"#utility.yul\":9406:9418   */\n      dup3\n        /* \"#utility.yul\":9352:9425   */\n      tag_152\n      jump\t// in\n    tag_299:\n        /* \"#utility.yul\":9344:9425   */\n      swap2\n      pop\n        /* \"#utility.yul\":9199:9436   */\n      pop\n        /* \"#utility.yul\":9520:9524   */\n      0x40\n        /* \"#utility.yul\":9513:9518   */\n      dup4\n        /* \"#utility.yul\":9509:9525   */\n      add\n        /* \"#utility.yul\":9503:9526   */\n      mload\n        /* \"#utility.yul\":9573:9576   */\n      dup5\n        /* \"#utility.yul\":9567:9571   */\n      dup3\n        /* \"#utility.yul\":9563:9577   */\n      sub\n        /* \"#utility.yul\":9556:9560   */\n      0x40\n        /* \"#utility.yul\":9551:9554   */\n      dup7\n        /* \"#utility.yul\":9547:9561   */\n      add\n        /* \"#utility.yul\":9540:9578   */\n      mstore\n        /* \"#utility.yul\":9599:9672   */\n      tag_300\n        /* \"#utility.yul\":9667:9671   */\n      dup3\n        /* \"#utility.yul\":9653:9665   */\n      dup3\n        /* \"#utility.yul\":9599:9672   */\n      tag_152\n      jump\t// in\n    tag_300:\n        /* \"#utility.yul\":9591:9672   */\n      swap2\n      pop\n        /* \"#utility.yul\":9446:9683   */\n      pop\n        /* \"#utility.yul\":9767:9771   */\n      0x60\n        /* \"#utility.yul\":9760:9765   */\n      dup4\n        /* \"#utility.yul\":9756:9772   */\n      add\n        /* \"#utility.yul\":9750:9773   */\n      mload\n        /* \"#utility.yul\":9786:9849   */\n      tag_301\n        /* \"#utility.yul\":9843:9847   */\n      0x60\n        /* \"#utility.yul\":9838:9841   */\n      dup7\n        /* \"#utility.yul\":9834:9848   */\n      add\n        /* \"#utility.yul\":9820:9832   */\n      dup3\n        /* \"#utility.yul\":9786:9849   */\n      tag_148\n      jump\t// in\n    tag_301:\n        /* \"#utility.yul\":9693:9859   */\n      pop\n        /* \"#utility.yul\":9952:9956   */\n      0x80\n        /* \"#utility.yul\":9945:9950   */\n      dup4\n        /* \"#utility.yul\":9941:9957   */\n      add\n        /* \"#utility.yul\":9935:9958   */\n      mload\n        /* \"#utility.yul\":10005:10008   */\n      dup5\n        /* \"#utility.yul\":9999:10003   */\n      dup3\n        /* \"#utility.yul\":9995:10009   */\n      sub\n        /* \"#utility.yul\":9988:9992   */\n      0x80\n        /* \"#utility.yul\":9983:9986   */\n      dup7\n        /* \"#utility.yul\":9979:9993   */\n      add\n        /* \"#utility.yul\":9972:10010   */\n      mstore\n        /* \"#utility.yul\":10031:10104   */\n      tag_302\n        /* \"#utility.yul\":10099:10103   */\n      dup3\n        /* \"#utility.yul\":10085:10097   */\n      dup3\n        /* \"#utility.yul\":10031:10104   */\n      tag_152\n      jump\t// in\n    tag_302:\n        /* \"#utility.yul\":10023:10104   */\n      swap2\n      pop\n        /* \"#utility.yul\":9869:10115   */\n      pop\n        /* \"#utility.yul\":10202:10206   */\n      0xa0\n        /* \"#utility.yul\":10195:10200   */\n      dup4\n        /* \"#utility.yul\":10191:10207   */\n      add\n        /* \"#utility.yul\":10185:10208   */\n      mload\n        /* \"#utility.yul\":10221:10284   */\n      tag_303\n        /* \"#utility.yul\":10278:10282   */\n      0xa0\n        /* \"#utility.yul\":10273:10276   */\n      dup7\n        /* \"#utility.yul\":10269:10283   */\n      add\n        /* \"#utility.yul\":10255:10267   */\n      dup3\n        /* \"#utility.yul\":10221:10284   */\n      tag_148\n      jump\t// in\n    tag_303:\n        /* \"#utility.yul\":10125:10294   */\n      pop\n        /* \"#utility.yul\":10377:10381   */\n      0xc0\n        /* \"#utility.yul\":10370:10375   */\n      dup4\n        /* \"#utility.yul\":10366:10382   */\n      add\n        /* \"#utility.yul\":10360:10383   */\n      mload\n        /* \"#utility.yul\":10396:10459   */\n      tag_304\n        /* \"#utility.yul\":10453:10457   */\n      0xc0\n        /* \"#utility.yul\":10448:10451   */\n      dup7\n        /* \"#utility.yul\":10444:10458   */\n      add\n        /* \"#utility.yul\":10430:10442   */\n      dup3\n        /* \"#utility.yul\":10396:10459   */\n      tag_153\n      jump\t// in\n    tag_304:\n        /* \"#utility.yul\":10304:10469   */\n      pop\n        /* \"#utility.yul\":10553:10557   */\n      0xe0\n        /* \"#utility.yul\":10546:10551   */\n      dup4\n        /* \"#utility.yul\":10542:10558   */\n      add\n        /* \"#utility.yul\":10536:10559   */\n      mload\n        /* \"#utility.yul\":10572:10631   */\n      tag_305\n        /* \"#utility.yul\":10625:10629   */\n      0xe0\n        /* \"#utility.yul\":10620:10623   */\n      dup7\n        /* \"#utility.yul\":10616:10630   */\n      add\n        /* \"#utility.yul\":10602:10614   */\n      dup3\n        /* \"#utility.yul\":10572:10631   */\n      tag_155\n      jump\t// in\n    tag_305:\n        /* \"#utility.yul\":10479:10641   */\n      pop\n        /* \"#utility.yul\":10727:10733   */\n      0x0100\n        /* \"#utility.yul\":10720:10725   */\n      dup4\n        /* \"#utility.yul\":10716:10734   */\n      add\n        /* \"#utility.yul\":10710:10735   */\n      mload\n        /* \"#utility.yul\":10748:10807   */\n      tag_306\n        /* \"#utility.yul\":10799:10805   */\n      0x0100\n        /* \"#utility.yul\":10794:10797   */\n      dup7\n        /* \"#utility.yul\":10790:10806   */\n      add\n        /* \"#utility.yul\":10776:10788   */\n      dup3\n        /* \"#utility.yul\":10748:10807   */\n      tag_156\n      jump\t// in\n    tag_306:\n        /* \"#utility.yul\":10651:10817   */\n      pop\n        /* \"#utility.yul\":10834:10838   */\n      dup1\n        /* \"#utility.yul\":10827:10838   */\n      swap2\n      pop\n        /* \"#utility.yul\":8979:10844   */\n      pop\n        /* \"#utility.yul\":8857:10844   */\n      swap3\n      swap2\n      pop\n      pop\n      jump\t// out\n        /* \"#utility.yul\":10850:11219   */\n    tag_40:\n        /* \"#utility.yul\":10991:10995   */\n      0x00\n        /* \"#utility.yul\":11029:11031   */\n      0x20\n        /* \"#utility.yul\":11018:11027   */\n      dup3\n        /* \"#utility.yul\":11014:11032   */\n      add\n        /* \"#utility.yul\":11006:11032   */\n      swap1\n      pop\n        /* \"#utility.yul\":11078:11087   */\n      dup2\n        /* \"#utility.yul\":11072:11076   */\n      dup2\n        /* \"#utility.yul\":11068:11088   */\n      sub\n        /* \"#utility.yul\":11064:11065   */\n      0x00\n        /* \"#utility.yul\":11053:11062   */\n      dup4\n        /* \"#utility.yul\":11049:11066   */\n      add\n        /* \"#utility.yul\":11042:11089   */\n      mstore\n        /* \"#utility.yul\":11106:11212   */\n      tag_308\n        /* \"#utility.yul\":11207:11211   */\n      dup2\n        /* \"#utility.yul\":11198:11204   */\n      dup5\n        /* \"#utility.yul\":11106:11212   */\n      tag_157\n      jump\t// in\n    tag_308:\n        /* \"#utility.yul\":11098:11212   */\n      swap1\n      pop\n        /* \"#utility.yul\":10850:11219   */\n      swap3\n      swap2\n      pop\n      pop\n      jump\t// out\n        /* \"#utility.yul\":11225:11394   */\n    tag_158:\n        /* \"#utility.yul\":11309:11320   */\n      0x00\n        /* \"#utility.yul\":11343:11349   */\n      dup3\n        /* \"#utility.yul\":11338:11341   */\n      dup3\n        /* \"#utility.yul\":11331:11350   */\n      mstore\n        /* \"#utility.yul\":11383:11387   */\n      0x20\n        /* \"#utility.yul\":11378:11381   */\n      dup3\n        /* \"#utility.yul\":11374:11388   */\n      add\n        /* \"#utility.yul\":11359:11388   */\n      swap1\n      pop\n        /* \"#utility.yul\":11225:11394   */\n      swap3\n      swap2\n      pop\n      pop\n      jump\t// out\n        /* \"#utility.yul\":11400:11638   */\n    tag_159:\n        /* \"#utility.yul\":11540:11574   */\n      0x4167656e7441756469744c6f676765723a2063616c6c6572206973206e6f7420\n        /* \"#utility.yul\":11536:11537   */\n      0x00\n        /* \"#utility.yul\":11528:11534   */\n      dup3\n        /* \"#utility.yul\":11524:11538   */\n      add\n        /* \"#utility.yul\":11517:11575   */\n      mstore\n        /* \"#utility.yul\":11609:11630   */\n      0x74686520676f7665726e616e636520726f6c6500000000000000000000000000\n        /* \"#utility.yul\":11604:11606   */\n      0x20\n        /* \"#utility.yul\":11596:11602   */\n      dup3\n        /* \"#utility.yul\":11592:11607   */\n      add\n        /* \"#utility.yul\":11585:11631   */\n      mstore\n        /* \"#utility.yul\":11400:11638   */\n      pop\n      jump\t// out\n        /* \"#utility.yul\":11644:12010   */\n    tag_160:\n        /* \"#utility.yul\":11786:11789   */\n      0x00\n        /* \"#utility.yul\":11807:11874   */\n      tag_312\n        /* \"#utility.yul\":11871:11873   */\n      0x33\n        /* \"#utility.yul\":11866:11869   */\n      dup4\n        /* \"#utility.yul\":11807:11874   */\n      tag_158\n      jump\t// in\n    tag_312:\n        /* \"#utility.yul\":11800:11874   */\n      swap2\n      pop\n        /* \"#utility.yul\":11883:11976   */\n      tag_313\n        /* \"#utility.yul\":11972:11975   */\n      dup3\n        /* \"#utility.yul\":11883:11976   */\n      tag_159\n      jump\t// in\n    tag_313:\n        /* \"#utility.yul\":12001:12003   */\n      0x40\n        /* \"#utility.yul\":11996:11999   */\n      dup3\n        /* \"#utility.yul\":11992:12004   */\n      add\n        /* \"#utility.yul\":11985:12004   */\n      swap1\n      pop\n        /* \"#utility.yul\":11644:12010   */\n      swap2\n      swap1\n      pop\n      jump\t// out\n        /* \"#utility.yul\":12016:12435   */\n    tag_50:\n        /* \"#utility.yul\":12182:12186   */\n      0x00\n        /* \"#utility.yul\":12220:12222   */\n      0x20\n        /* \"#utility.yul\":12209:12218   */\n      dup3\n        /* \"#utility.yul\":12205:12223   */\n      add\n        /* \"#utility.yul\":12197:12223   */\n      swap1\n      pop\n        /* \"#utility.yul\":12269:12278   */\n      dup2\n        /* \"#utility.yul\":12263:12267   */\n      dup2\n        /* \"#utility.yul\":12259:12279   */\n      sub\n        /* \"#utility.yul\":12255:12256   */\n      0x00\n        /* \"#utility.yul\":12244:12253   */\n      dup4\n        /* \"#utility.yul\":12240:12257   */\n      add\n        /* \"#utility.yul\":12233:12280   */\n      mstore\n        /* \"#utility.yul\":12297:12428   */\n      tag_315\n        /* \"#utility.yul\":12423:12427   */\n      dup2\n        /* \"#utility.yul\":12297:12428   */\n      tag_160\n      jump\t// in\n    tag_315:\n        /* \"#utility.yul\":12289:12428   */\n      swap1\n      pop\n        /* \"#utility.yul\":12016:12435   */\n      swap2\n      swap1\n      pop\n      jump\t// out\n        /* \"#utility.yul\":12441:12669   */\n    tag_161:\n        /* \"#utility.yul\":12581:12615   */\n      0x4167656e7441756469744c6f676765723a204465636973696f6e20646f657320\n        /* \"#utility.yul\":12577:12578   */\n      0x00\n        /* \"#utility.yul\":12569:12575   */\n      dup3\n        /* \"#utility.yul\":12565:12579   */\n      add\n        /* \"#utility.yul\":12558:12616   */\n      mstore\n        /* \"#utility.yul\":12650:12661   */\n      0x6e6f742065786973740000000000000000000000000000000000000000000000\n        /* \"#utility.yul\":12645:12647   */\n      0x20\n        /* \"#utility.yul\":12637:12643   */\n      dup3\n        /* \"#utility.yul\":12633:12648   */\n      add\n        /* \"#utility.yul\":12626:12662   */\n      mstore\n        /* \"#utility.yul\":12441:12669   */\n      pop\n      jump\t// out\n        /* \"#utility.yul\":12675:13041   */\n    tag_162:\n        /* \"#utility.yul\":12817:12820   */\n      0x00\n        /* \"#utility.yul\":12838:12905   */\n      tag_318\n        /* \"#utility.yul\":12902:12904   */\n      0x29\n        /* \"#utility.yul\":12897:12900   */\n      dup4\n        /* \"#utility.yul\":12838:12905   */\n      tag_158\n      jump\t// in\n    tag_318:\n        /* \"#utility.yul\":12831:12905   */\n      swap2\n      pop\n        /* \"#utility.yul\":12914:13007   */\n      tag_319\n        /* \"#utility.yul\":13003:13006   */\n      dup3\n        /* \"#utility.yul\":12914:13007   */\n      tag_161\n      jump\t// in\n    tag_319:\n        /* \"#utility.yul\":13032:13034   */\n      0x40\n        /* \"#utility.yul\":13027:13030   */\n      dup3\n        /* \"#utility.yul\":13023:13035   */\n      add\n        /* \"#utility.yul\":13016:13035   */\n      swap1\n      pop\n        /* \"#utility.yul\":12675:13041   */\n      swap2\n      swap1\n      pop\n      jump\t// out\n        /* \"#utility.yul\":13047:13466   */\n    tag_54:\n        /* \"#utility.yul\":13213:13217   */\n      0x00\n        /* \"#utility.yul\":13251:13253   */\n      0x20\n        /* \"#utility.yul\":13240:13249   */\n      dup3\n        /* \"#utility.yul\":13236:13254   */\n      add\n        /* \"#utility.yul\":13228:13254   */\n      swap1\n      pop\n        /* \"#utility.yul\":13300:13309   */\n      dup2\n        /* \"#utility.yul\":13294:13298   */\n      dup2\n        /* \"#utility.yul\":13290:13310   */\n      sub\n        /* \"#utility.yul\":13286:13287   */\n      0x00\n        /* \"#utility.yul\":13275:13284   */\n      dup4\n        /* \"#utility.yul\":13271:13288   */\n      add\n        /* \"#utility.yul\":13264:13311   */\n      mstore\n        /* \"#utility.yul\":13328:13459   */\n      tag_321\n        /* \"#utility.yul\":13454:13458   */\n      dup2\n        /* \"#utility.yul\":13328:13459   */\n      tag_162\n      jump\t// in\n    tag_321:\n        /* \"#utility.yul\":13320:13459   */\n      swap1\n      pop\n        /* \"#utility.yul\":13047:13466   */\n      swap2\n      swap1\n      pop\n      jump\t// out\n        /* \"#utility.yul\":13472:13652   */\n    tag_57:\n        /* \"#utility.yul\":13520:13597   */\n      0x4e487b7100000000000000000000000000000000000000000000000000000000\n        /* \"#utility.yul\":13517:13518   */\n      0x00\n        /* \"#utility.yul\":13510:13598   */\n      mstore\n        /* \"#utility.yul\":13617:13621   */\n      0x21\n        /* \"#utility.yul\":13614:13615   */\n      0x04\n        /* \"#utility.yul\":13607:13622   */\n      mstore\n        /* \"#utility.yul\":13641:13645   */\n      0x24\n        /* \"#utility.yul\":13638:13639   */\n      0x00\n        /* \"#utility.yul\":13631:13646   */\n      revert\n        /* \"#utility.yul\":13658:13905   */\n    tag_163:\n        /* \"#utility.yul\":13798:13832   */\n      0x4167656e7441756469744c6f676765723a204465636973696f6e206d75737420\n        /* \"#utility.yul\":13794:13795   */\n      0x00\n        /* \"#utility.yul\":13786:13792   */\n      dup3\n        /* \"#utility.yul\":13782:13796   */\n      add\n        /* \"#utility.yul\":13775:13833   */\n      mstore\n        /* \"#utility.yul\":13867:13897   */\n      0x6265206368616c6c656e67656420746f206265207265736f6c76656400000000\n        /* \"#utility.yul\":13862:13864   */\n      0x20\n        /* \"#utility.yul\":13854:13860   */\n      dup3\n        /* \"#utility.yul\":13850:13865   */\n      add\n        /* \"#utility.yul\":13843:13898   */\n      mstore\n        /* \"#utility.yul\":13658:13905   */\n      pop\n      jump\t// out\n        /* \"#utility.yul\":13911:14277   */\n    tag_164:\n        /* \"#utility.yul\":14053:14056   */\n      0x00\n        /* \"#utility.yul\":14074:14141   */\n      tag_325\n        /* \"#utility.yul\":14138:14140   */\n      0x3c\n        /* \"#utility.yul\":14133:14136   */\n      dup4\n        /* \"#utility.yul\":14074:14141   */\n      tag_158\n      jump\t// in\n    tag_325:\n        /* \"#utility.yul\":14067:14141   */\n      swap2\n      pop\n        /* \"#utility.yul\":14150:14243   */\n      tag_326\n        /* \"#utility.yul\":14239:14242   */\n      dup3\n        /* \"#utility.yul\":14150:14243   */\n      tag_163\n      jump\t// in\n    tag_326:\n        /* \"#utility.yul\":14268:14270   */\n      0x40\n        /* \"#utility.yul\":14263:14266   */\n      dup3\n        /* \"#utility.yul\":14259:14271   */\n      add\n        /* \"#utility.yul\":14252:14271   */\n      swap1\n      pop\n        /* \"#utility.yul\":13911:14277   */\n      swap2\n      swap1\n      pop\n      jump\t// out\n        /* \"#utility.yul\":14283:14702   */\n    tag_60:\n        /* \"#utility.yul\":14449:14453   */\n      0x00\n        /* \"#utility.yul\":14487:14489   */\n      0x20\n        /* \"#utility.yul\":14476:14485   */\n      dup3\n        /* \"#utility.yul\":14472:14490   */\n      add\n        /* \"#utility.yul\":14464:14490   */\n      swap1\n      pop\n        /* \"#utility.yul\":14536:14545   */\n      dup2\n        /* \"#utility.yul\":14530:14534   */\n      dup2\n        /* \"#utility.yul\":14526:14546   */\n      sub\n        /* \"#utility.yul\":14522:14523   */\n      0x00\n        /* \"#utility.yul\":14511:14520   */\n      dup4\n        /* \"#utility.yul\":14507:14524   */\n      add\n        /* \"#utility.yul\":14500:14547   */\n      mstore\n        /* \"#utility.yul\":14564:14695   */\n      tag_328\n        /* \"#utility.yul\":14690:14694   */\n      dup2\n        /* \"#utility.yul\":14564:14695   */\n      tag_164\n      jump\t// in\n    tag_328:\n        /* \"#utility.yul\":14556:14695   */\n      swap1\n      pop\n        /* \"#utility.yul\":14283:14702   */\n      swap2\n      swap1\n      pop\n      jump\t// out\n        /* \"#utility.yul\":14708:14888   */\n    tag_165:\n        /* \"#utility.yul\":14756:14833   */\n      0x4e487b7100000000000000000000000000000000000000000000000000000000\n        /* \"#utility.yul\":14753:14754   */\n      0x00\n        /* \"#utility.yul\":14746:14834   */\n      mstore\n        /* \"#utility.yul\":14853:14857   */\n      0x11\n        /* \"#utility.yul\":14850:14851   */\n      0x04\n        /* \"#utility.yul\":14843:14858   */\n      mstore\n        /* \"#utility.yul\":14877:14881   */\n      0x24\n        /* \"#utility.yul\":14874:14875   */\n      0x00\n        /* \"#utility.yul\":14867:14882   */\n      revert\n        /* \"#utility.yul\":14894:15266   */\n    tag_65:\n        /* \"#utility.yul\":14933:14937   */\n      0x00\n        /* \"#utility.yul\":14953:14972   */\n      tag_331\n        /* \"#utility.yul\":14970:14971   */\n      dup3\n        /* \"#utility.yul\":14953:14972   */\n      tag_136\n      jump\t// in\n    tag_331:\n        /* \"#utility.yul\":14948:14972   */\n      swap2\n      pop\n        /* \"#utility.yul\":14986:15005   */\n      tag_332\n        /* \"#utility.yul\":15003:15004   */\n      dup4\n        /* \"#utility.yul\":14986:15005   */\n      tag_136\n      jump\t// in\n    tag_332:\n        /* \"#utility.yul\":14981:15005   */\n      swap3\n      pop\n        /* \"#utility.yul\":15029:15030   */\n      dup3\n        /* \"#utility.yul\":15026:15027   */\n      dup3\n        /* \"#utility.yul\":15022:15031   */\n      sub\n        /* \"#utility.yul\":15014:15031   */\n      swap1\n      pop\n        /* \"#utility.yul\":15223:15224   */\n      dup2\n        /* \"#utility.yul\":15217:15221   */\n      dup2\n        /* \"#utility.yul\":15213:15225   */\n      slt\n        /* \"#utility.yul\":15209:15210   */\n      0x00\n        /* \"#utility.yul\":15206:15207   */\n      dup5\n        /* \"#utility.yul\":15202:15211   */\n      slt\n        /* \"#utility.yul\":15198:15226   */\n      and\n        /* \"#utility.yul\":15181:15182   */\n      dup3\n        /* \"#utility.yul\":15175:15179   */\n      dup3\n        /* \"#utility.yul\":15171:15183   */\n      sgt\n        /* \"#utility.yul\":15166:15167   */\n      0x00\n        /* \"#utility.yul\":15163:15164   */\n      dup6\n        /* \"#utility.yul\":15159:15168   */\n      slt\n        /* \"#utility.yul\":15152:15169   */\n      iszero\n        /* \"#utility.yul\":15148:15184   */\n      and\n        /* \"#utility.yul\":15132:15236   */\n      or\n        /* \"#utility.yul\":15129:15259   */\n      iszero\n      tag_333\n      jumpi\n        /* \"#utility.yul\":15239:15257   */\n      tag_334\n      tag_165\n      jump\t// in\n    tag_334:\n        /* \"#utility.yul\":15129:15259   */\n    tag_333:\n        /* \"#utility.yul\":14894:15266   */\n      swap3\n      swap2\n      pop\n      pop\n      jump\t// out\n        /* \"#utility.yul\":15272:15647   */\n    tag_68:\n        /* \"#utility.yul\":15311:15314   */\n      0x00\n        /* \"#utility.yul\":15330:15349   */\n      tag_336\n        /* \"#utility.yul\":15347:15348   */\n      dup3\n        /* \"#utility.yul\":15330:15349   */\n      tag_136\n      jump\t// in\n    tag_336:\n        /* \"#utility.yul\":15325:15349   */\n      swap2\n      pop\n        /* \"#utility.yul\":15363:15382   */\n      tag_337\n        /* \"#utility.yul\":15380:15381   */\n      dup4\n        /* \"#utility.yul\":15363:15382   */\n      tag_136\n      jump\t// in\n    tag_337:\n        /* \"#utility.yul\":15358:15382   */\n      swap3\n      pop\n        /* \"#utility.yul\":15405:15406   */\n      dup3\n        /* \"#utility.yul\":15402:15403   */\n      dup3\n        /* \"#utility.yul\":15398:15407   */\n      add\n        /* \"#utility.yul\":15391:15407   */\n      swap1\n      pop\n        /* \"#utility.yul\":15603:15604   */\n      dup3\n        /* \"#utility.yul\":15598:15601   */\n      dup2\n        /* \"#utility.yul\":15594:15605   */\n      slt\n        /* \"#utility.yul\":15587:15606   */\n      iszero\n        /* \"#utility.yul\":15583:15584   */\n      0x00\n        /* \"#utility.yul\":15580:15581   */\n      dup4\n        /* \"#utility.yul\":15576:15585   */\n      slt\n        /* \"#utility.yul\":15572:15607   */\n      and\n        /* \"#utility.yul\":15555:15556   */\n      dup4\n        /* \"#utility.yul\":15550:15553   */\n      dup3\n        /* \"#utility.yul\":15546:15557   */\n      slt\n        /* \"#utility.yul\":15541:15542   */\n      0x00\n        /* \"#utility.yul\":15538:15539   */\n      dup5\n        /* \"#utility.yul\":15534:15543   */\n      slt\n        /* \"#utility.yul\":15527:15544   */\n      iszero\n        /* \"#utility.yul\":15523:15558   */\n      and\n        /* \"#utility.yul\":15507:15617   */\n      or\n        /* \"#utility.yul\":15504:15640   */\n      iszero\n      tag_338\n      jumpi\n        /* \"#utility.yul\":15620:15638   */\n      tag_339\n      tag_165\n      jump\t// in\n    tag_339:\n        /* \"#utility.yul\":15504:15640   */\n    tag_338:\n        /* \"#utility.yul\":15272:15647   */\n      swap3\n      swap2\n      pop\n      pop\n      jump\t// out\n        /* \"#utility.yul\":15653:15762   */\n    tag_166:\n        /* \"#utility.yul\":15734:15755   */\n      tag_341\n        /* \"#utility.yul\":15749:15754   */\n      dup2\n        /* \"#utility.yul\":15734:15755   */\n      tag_131\n      jump\t// in\n    tag_341:\n        /* \"#utility.yul\":15729:15732   */\n      dup3\n        /* \"#utility.yul\":15722:15756   */\n      mstore\n        /* \"#utility.yul\":15653:15762   */\n      pop\n      pop\n      jump\t// out\n        /* \"#utility.yul\":15768:15978   */\n    tag_70:\n        /* \"#utility.yul\":15855:15859   */\n      0x00\n        /* \"#utility.yul\":15893:15895   */\n      0x20\n        /* \"#utility.yul\":15882:15891   */\n      dup3\n        /* \"#utility.yul\":15878:15896   */\n      add\n        /* \"#utility.yul\":15870:15896   */\n      swap1\n      pop\n        /* \"#utility.yul\":15906:15971   */\n      tag_343\n        /* \"#utility.yul\":15968:15969   */\n      0x00\n        /* \"#utility.yul\":15957:15966   */\n      dup4\n        /* \"#utility.yul\":15953:15970   */\n      add\n        /* \"#utility.yul\":15944:15950   */\n      dup5\n        /* \"#utility.yul\":15906:15971   */\n      tag_166\n      jump\t// in\n    tag_343:\n        /* \"#utility.yul\":15768:15978   */\n      swap3\n      swap2\n      pop\n      pop\n      jump\t// out\n        /* \"#utility.yul\":15984:16164   */\n    tag_167:\n        /* \"#utility.yul\":16032:16109   */\n      0x4e487b7100000000000000000000000000000000000000000000000000000000\n        /* \"#utility.yul\":16029:16030   */\n      0x00\n        /* \"#utility.yul\":16022:16110   */\n      mstore\n        /* \"#utility.yul\":16129:16133   */\n      0x22\n        /* \"#utility.yul\":16126:16127   */\n      0x04\n        /* \"#utility.yul\":16119:16134   */\n      mstore\n        /* \"#utility.yul\":16153:16157   */\n      0x24\n        /* \"#utility.yul\":16150:16151   */\n      0x00\n        /* \"#utility.yul\":16143:16158   */\n      revert\n        /* \"#utility.yul\":16170:16490   */\n    tag_88:\n        /* \"#utility.yul\":16214:16220   */\n      0x00\n        /* \"#utility.yul\":16251:16252   */\n      0x02\n        /* \"#utility.yul\":16245:16249   */\n      dup3\n        /* \"#utility.yul\":16241:16253   */\n      div\n        /* \"#utility.yul\":16231:16253   */\n      swap1\n      pop\n        /* \"#utility.yul\":16298:16299   */\n      0x01\n        /* \"#utility.yul\":16292:16296   */\n      dup3\n        /* \"#utility.yul\":16288:16300   */\n      and\n        /* \"#utility.yul\":16319:16337   */\n      dup1\n        /* \"#utility.yul\":16309:16390   */\n      tag_346\n      jumpi\n        /* \"#utility.yul\":16375:16379   */\n      0x7f\n        /* \"#utility.yul\":16367:16373   */\n      dup3\n        /* \"#utility.yul\":16363:16380   */\n      and\n        /* \"#utility.yul\":16353:16380   */\n      swap2\n      pop\n        /* \"#utility.yul\":16309:16390   */\n    tag_346:\n        /* \"#utility.yul\":16437:16439   */\n      0x20\n        /* \"#utility.yul\":16429:16435   */\n      dup3\n        /* \"#utility.yul\":16426:16440   */\n      lt\n        /* \"#utility.yul\":16406:16424   */\n      dup2\n        /* \"#utility.yul\":16403:16441   */\n      sub\n        /* \"#utility.yul\":16400:16484   */\n      tag_347\n      jumpi\n        /* \"#utility.yul\":16456:16474   */\n      tag_348\n      tag_167\n      jump\t// in\n    tag_348:\n        /* \"#utility.yul\":16400:16484   */\n    tag_347:\n        /* \"#utility.yul\":16221:16490   */\n      pop\n        /* \"#utility.yul\":16170:16490   */\n      swap2\n      swap1\n      pop\n      jump\t// out\n        /* \"#utility.yul\":16496:16637   */\n    tag_168:\n        /* \"#utility.yul\":16545:16549   */\n      0x00\n        /* \"#utility.yul\":16568:16571   */\n      dup2\n        /* \"#utility.yul\":16560:16571   */\n      swap1\n      pop\n        /* \"#utility.yul\":16591:16594   */\n      dup2\n        /* \"#utility.yul\":16588:16589   */\n      0x00\n        /* \"#utility.yul\":16581:16595   */\n      mstore\n        /* \"#utility.yul\":16625:16629   */\n      0x20\n        /* \"#utility.yul\":16622:16623   */\n      0x00\n        /* \"#utility.yul\":16612:16630   */\n      keccak256\n        /* \"#utility.yul\":16604:16630   */\n      swap1\n      pop\n        /* \"#utility.yul\":16496:16637   */\n      swap2\n      swap1\n      pop\n      jump\t// out\n        /* \"#utility.yul\":16643:16736   */\n    tag_169:\n        /* \"#utility.yul\":16680:16686   */\n      0x00\n        /* \"#utility.yul\":16727:16729   */\n      0x20\n        /* \"#utility.yul\":16722:16724   */\n      0x1f\n        /* \"#utility.yul\":16715:16720   */\n      dup4\n        /* \"#utility.yul\":16711:16725   */\n      add\n        /* \"#utility.yul\":16707:16730   */\n      div\n        /* \"#utility.yul\":16697:16730   */\n      swap1\n      pop\n        /* \"#utility.yul\":16643:16736   */\n      swap2\n      swap1\n      pop\n      jump\t// out\n        /* \"#utility.yul\":16742:16849   */\n    tag_170:\n        /* \"#utility.yul\":16786:16794   */\n      0x00\n        /* \"#utility.yul\":16836:16841   */\n      dup3\n        /* \"#utility.yul\":16830:16834   */\n      dup3\n        /* \"#utility.yul\":16826:16842   */\n      shl\n        /* \"#utility.yul\":16805:16842   */\n      swap1\n      pop\n        /* \"#utility.yul\":16742:16849   */\n      swap3\n      swap2\n      pop\n      pop\n      jump\t// out\n        /* \"#utility.yul\":16855:17248   */\n    tag_171:\n        /* \"#utility.yul\":16924:16930   */\n      0x00\n        /* \"#utility.yul\":16974:16975   */\n      0x08\n        /* \"#utility.yul\":16962:16972   */\n      dup4\n        /* \"#utility.yul\":16958:16976   */\n      mul\n        /* \"#utility.yul\":16997:17094   */\n      tag_353\n        /* \"#utility.yul\":17027:17093   */\n      0xffffffffffffffffffffffffffffffffffffffffffffffffffffffffffffffff\n        /* \"#utility.yul\":17016:17025   */\n      dup3\n        /* \"#utility.yul\":16997:17094   */\n      tag_170\n      jump\t// in\n    tag_353:\n        /* \"#utility.yul\":17115:17154   */\n      tag_354\n        /* \"#utility.yul\":17145:17153   */\n      dup7\n        /* \"#utility.yul\":17134:17143   */\n      dup4\n        /* \"#utility.yul\":17115:17154   */\n      tag_170\n      jump\t// in\n    tag_354:\n        /* \"#utility.yul\":17103:17154   */\n      swap6\n      pop\n        /* \"#utility.yul\":17187:17191   */\n      dup1\n        /* \"#utility.yul\":17183:17192   */\n      not\n        /* \"#utility.yul\":17176:17181   */\n      dup5\n        /* \"#utility.yul\":17172:17193   */\n      and\n        /* \"#utility.yul\":17163:17193   */\n      swap4\n      pop\n        /* \"#utility.yul\":17236:17240   */\n      dup1\n        /* \"#utility.yul\":17226:17234   */\n      dup7\n        /* \"#utility.yul\":17222:17241   */\n      and\n        /* \"#utility.yul\":17215:17220   */\n      dup5\n        /* \"#utility.yul\":17212:17242   */\n      or\n        /* \"#utility.yul\":17202:17242   */\n      swap3\n      pop\n        /* \"#utility.yul\":16931:17248   */\n      pop\n      pop\n        /* \"#utility.yul\":16855:17248   */\n      swap4\n      swap3\n      pop\n      pop\n      pop\n      jump\t// out\n        /* \"#utility.yul\":17254:17314   */\n    tag_172:\n        /* \"#utility.yul\":17282:17285   */\n      0x00\n        /* \"#utility.yul\":17303:17308   */\n      dup2\n        /* \"#utility.yul\":17296:17308   */\n      swap1\n      pop\n        /* \"#utility.yul\":17254:17314   */\n      swap2\n      swap1\n      pop\n      jump\t// out\n        /* \"#utility.yul\":17320:17462   */\n    tag_173:\n        /* \"#utility.yul\":17370:17379   */\n      0x00\n        /* \"#utility.yul\":17403:17456   */\n      tag_357\n        /* \"#utility.yul\":17421:17455   */\n      tag_358\n        /* \"#utility.yul\":17430:17454   */\n      tag_359\n        /* \"#utility.yul\":17448:17453   */\n      dup5\n        /* \"#utility.yul\":17430:17454   */\n      tag_121\n      jump\t// in\n    tag_359:\n        /* \"#utility.yul\":17421:17455   */\n      tag_172\n      jump\t// in\n    tag_358:\n        /* \"#utility.yul\":17403:17456   */\n      tag_121\n      jump\t// in\n    tag_357:\n        /* \"#utility.yul\":17390:17456   */\n      swap1\n      pop\n        /* \"#utility.yul\":17320:17462   */\n      swap2\n      swap1\n      pop\n      jump\t// out\n        /* \"#utility.yul\":17468:17543   */\n    tag_174:\n        /* \"#utility.yul\":17511:17514   */\n      0x00\n        /* \"#utility.yul\":17532:17537   */\n      dup2\n        /* \"#utility.yul\":17525:17537   */\n      swap1\n      pop\n        /* \"#utility.yul\":17468:17543   */\n      swap2\n      swap1\n      pop\n      jump\t// out\n        /* \"#utility.yul\":17549:17818   */\n    tag_175:\n        /* \"#utility.yul\":17659:17698   */\n      tag_362\n        /* \"#utility.yul\":17690:17697   */\n      dup4\n        /* \"#utility.yul\":17659:17698   */\n      tag_173\n      jump\t// in\n    tag_362:\n        /* \"#utility.yul\":17720:17811   */\n      tag_363\n        /* \"#utility.yul\":17769:17810   */\n      tag_364\n        /* \"#utility.yul\":17793:17809   */\n      dup3\n        /* \"#utility.yul\":17769:17810   */\n      tag_174\n      jump\t// in\n    tag_364:\n        /* \"#utility.yul\":17761:17767   */\n      dup5\n        /* \"#utility.yul\":17754:17758   */\n      dup5\n        /* \"#utility.yul\":17748:17759   */\n      sload\n        /* \"#utility.yul\":17720:17811   */\n      tag_171\n      jump\t// in\n    tag_363:\n        /* \"#utility.yul\":17714:17718   */\n      dup3\n        /* \"#utility.yul\":17707:17812   */\n      sstore\n        /* \"#utility.yul\":17625:17818   */\n      pop\n        /* \"#utility.yul\":17549:17818   */\n      pop\n      pop\n      pop\n      jump\t// out\n        /* \"#utility.yul\":17824:17897   */\n    tag_176:\n        /* \"#utility.yul\":17869:17872   */\n      0x00\n        /* \"#utility.yul\":17824:17897   */\n      swap1\n      jump\t// out\n        /* \"#utility.yul\":17903:18092   */\n    tag_177:\n        /* \"#utility.yul\":17980:18012   */\n      tag_367\n      tag_176\n      jump\t// in\n    tag_367:\n        /* \"#utility.yul\":18021:18086   */\n      tag_368\n        /* \"#utility.yul\":18079:18085   */\n      dup2\n        /* \"#utility.yul\":18071:18077   */\n      dup5\n        /* \"#utility.yul\":18065:18069   */\n      dup5\n        /* \"#utility.yul\":18021:18086   */\n      tag_175\n      jump\t// in\n    tag_368:\n        /* \"#utility.yul\":17956:18092   */\n      pop\n        /* \"#utility.yul\":17903:18092   */\n      pop\n      pop\n      jump\t// out\n        /* \"#utility.yul\":18098:18284   */\n    tag_178:\n        /* \"#utility.yul\":18158:18278   */\n    tag_370:\n        /* \"#utility.yul\":18175:18178   */\n      dup2\n        /* \"#utility.yul\":18168:18173   */\n      dup2\n        /* \"#utility.yul\":18165:18179   */\n      lt\n        /* \"#utility.yul\":18158:18278   */\n      iszero\n      tag_372\n      jumpi\n        /* \"#utility.yul\":18229:18268   */\n      tag_373\n        /* \"#utility.yul\":18266:18267   */\n      0x00\n        /* \"#utility.yul\":18259:18264   */\n      dup3\n        /* \"#utility.yul\":18229:18268   */\n      tag_177\n      jump\t// in\n    tag_373:\n        /* \"#utility.yul\":18202:18203   */\n      0x01\n        /* \"#utility.yul\":18195:18200   */\n      dup2\n        /* \"#utility.yul\":18191:18204   */\n      add\n        /* \"#utility.yul\":18182:18204   */\n      swap1\n      pop\n        /* \"#utility.yul\":18158:18278   */\n      jump(tag_370)\n    tag_372:\n        /* \"#utility.yul\":18098:18284   */\n      pop\n      pop\n      jump\t// out\n        /* \"#utility.yul\":18290:18833   */\n    tag_179:\n        /* \"#utility.yul\":18391:18393   */\n      0x1f\n        /* \"#utility.yul\":18386:18389   */\n      dup3\n        /* \"#utility.yul\":18383:18394   */\n      gt\n        /* \"#utility.yul\":18380:18826   */\n      iszero\n      tag_375\n      jumpi\n        /* \"#utility.yul\":18425:18463   */\n      tag_376\n        /* \"#utility.yul\":18457:18462   */\n      dup2\n        /* \"#utility.yul\":18425:18463   */\n      tag_168\n      jump\t// in\n    tag_376:\n        /* \"#utility.yul\":18509:18538   */\n      tag_377\n        /* \"#utility.yul\":18527:18537   */\n      dup5\n        /* \"#utility.yul\":18509:18538   */\n      tag_169\n      jump\t// in\n    tag_377:\n        /* \"#utility.yul\":18499:18507   */\n      dup2\n        /* \"#utility.yul\":18495:18539   */\n      add\n        /* \"#utility.yul\":18692:18694   */\n      0x20\n        /* \"#utility.yul\":18680:18690   */\n      dup6\n        /* \"#utility.yul\":18677:18695   */\n      lt\n        /* \"#utility.yul\":18674:18723   */\n      iszero\n      tag_378\n      jumpi\n        /* \"#utility.yul\":18713:18721   */\n      dup2\n        /* \"#utility.yul\":18698:18721   */\n      swap1\n      pop\n        /* \"#utility.yul\":18674:18723   */\n    tag_378:\n        /* \"#utility.yul\":18736:18816   */\n      tag_379\n        /* \"#utility.yul\":18792:18814   */\n      tag_380\n        /* \"#utility.yul\":18810:18813   */\n      dup6\n        /* \"#utility.yul\":18792:18814   */\n      tag_169\n      jump\t// in\n    tag_380:\n        /* \"#utility.yul\":18782:18790   */\n      dup4\n        /* \"#utility.yul\":18778:18815   */\n      add\n        /* \"#utility.yul\":18765:18776   */\n      dup3\n        /* \"#utility.yul\":18736:18816   */\n      tag_178\n      jump\t// in\n    tag_379:\n        /* \"#utility.yul\":18395:18826   */\n      pop\n      pop\n        /* \"#utility.yul\":18380:18826   */\n    tag_375:\n        /* \"#utility.yul\":18290:18833   */\n      pop\n      pop\n      pop\n      jump\t// out\n        /* \"#utility.yul\":18839:18956   */\n    tag_180:\n        /* \"#utility.yul\":18893:18901   */\n      0x00\n        /* \"#utility.yul\":18943:18948   */\n      dup3\n        /* \"#utility.yul\":18937:18941   */\n      dup3\n        /* \"#utility.yul\":18933:18949   */\n      shr\n        /* \"#utility.yul\":18912:18949   */\n      swap1\n      pop\n        /* \"#utility.yul\":18839:18956   */\n      swap3\n      swap2\n      pop\n      pop\n      jump\t// out\n        /* \"#utility.yul\":18962:19131   */\n    tag_181:\n        /* \"#utility.yul\":19006:19012   */\n      0x00\n        /* \"#utility.yul\":19039:19090   */\n      tag_383\n        /* \"#utility.yul\":19087:19088   */\n      0x00\n        /* \"#utility.yul\":19083:19089   */\n      not\n        /* \"#utility.yul\":19075:19080   */\n      dup5\n        /* \"#utility.yul\":19072:19073   */\n      0x08\n        /* \"#utility.yul\":19068:19081   */\n      mul\n        /* \"#utility.yul\":19039:19090   */\n      tag_180\n      jump\t// in\n    tag_383:\n        /* \"#utility.yul\":19035:19091   */\n      not\n        /* \"#utility.yul\":19120:19124   */\n      dup1\n        /* \"#utility.yul\":19114:19118   */\n      dup4\n        /* \"#utility.yul\":19110:19125   */\n      and\n        /* \"#utility.yul\":19100:19125   */\n      swap2\n      pop\n        /* \"#utility.yul\":19013:19131   */\n      pop\n        /* \"#utility.yul\":18962:19131   */\n      swap3\n      swap2\n      pop\n      pop\n      jump\t// out\n        /* \"#utility.yul\":19136:19431   */\n    tag_182:\n        /* \"#utility.yul\":19212:19216   */\n      0x00\n        /* \"#utility.yul\":19358:19387   */\n      tag_385\n        /* \"#utility.yul\":19383:19386   */\n      dup4\n        /* \"#utility.yul\":19377:19381   */\n      dup4\n        /* \"#utility.yul\":19358:19387   */\n      tag_181\n      jump\t// in\n    tag_385:\n        /* \"#utility.yul\":19350:19387   */\n      swap2\n      pop\n        /* \"#utility.yul\":19420:19423   */\n      dup3\n        /* \"#utility.yul\":19417:19418   */\n      0x02\n        /* \"#utility.yul\":19413:19424   */\n      mul\n        /* \"#utility.yul\":19407:19411   */\n      dup3\n        /* \"#utility.yul\":19404:19425   */\n      or\n        /* \"#utility.yul\":19396:19425   */\n      swap1\n      pop\n        /* \"#utility.yul\":19136:19431   */\n      swap3\n      swap2\n      pop\n      pop\n      jump\t// out\n        /* \"#utility.yul\":19436:20831   */\n    tag_75:\n        /* \"#utility.yul\":19553:19590   */\n      tag_387\n        /* \"#utility.yul\":19586:19589   */\n      dup3\n        /* \"#utility.yul\":19553:19590   */\n      tag_149\n      jump\t// in\n    tag_387:\n        /* \"#utility.yul\":19655:19673   */\n      0xffffffffffffffff\n        /* \"#utility.yul\":19647:19653   */\n      dup2\n        /* \"#utility.yul\":19644:19674   */\n      gt\n        /* \"#utility.yul\":19641:19697   */\n      iszero\n      tag_388\n      jumpi\n        /* \"#utility.yul\":19677:19695   */\n      tag_389\n      tag_141\n      jump\t// in\n    tag_389:\n        /* \"#utility.yul\":19641:19697   */\n    tag_388:\n        /* \"#utility.yul\":19721:19759   */\n      tag_390\n        /* \"#utility.yul\":19753:19757   */\n      dup3\n        /* \"#utility.yul\":19747:19758   */\n      sload\n        /* \"#utility.yul\":19721:19759   */\n      tag_88\n      jump\t// in\n    tag_390:\n        /* \"#utility.yul\":19806:19873   */\n      tag_391\n        /* \"#utility.yul\":19866:19872   */\n      dup3\n        /* \"#utility.yul\":19858:19864   */\n      dup3\n        /* \"#utility.yul\":19852:19856   */\n      dup6\n        /* \"#utility.yul\":19806:19873   */\n      tag_179\n      jump\t// in\n    tag_391:\n        /* \"#utility.yul\":19900:19901   */\n      0x00\n        /* \"#utility.yul\":19924:19928   */\n      0x20\n        /* \"#utility.yul\":19911:19928   */\n      swap1\n      pop\n        /* \"#utility.yul\":19956:19958   */\n      0x1f\n        /* \"#utility.yul\":19948:19954   */\n      dup4\n        /* \"#utility.yul\":19945:19959   */\n      gt\n        /* \"#utility.yul\":19973:19974   */\n      0x01\n        /* \"#utility.yul\":19968:20586   */\n      dup2\n      eq\n      tag_393\n      jumpi\n        /* \"#utility.yul\":20630:20631   */\n      0x00\n        /* \"#utility.yul\":20647:20653   */\n      dup5\n        /* \"#utility.yul\":20644:20721   */\n      iszero\n      tag_394\n      jumpi\n        /* \"#utility.yul\":20696:20705   */\n      dup3\n        /* \"#utility.yul\":20691:20694   */\n      dup8\n        /* \"#utility.yul\":20687:20706   */\n      add\n        /* \"#utility.yul\":20681:20707   */\n      mload\n        /* \"#utility.yul\":20672:20707   */\n      swap1\n      pop\n        /* \"#utility.yul\":20644:20721   */\n    tag_394:\n        /* \"#utility.yul\":20747:20814   */\n      tag_395\n        /* \"#utility.yul\":20807:20813   */\n      dup6\n        /* \"#utility.yul\":20800:20805   */\n      dup3\n        /* \"#utility.yul\":20747:20814   */\n      tag_182\n      jump\t// in\n    tag_395:\n        /* \"#utility.yul\":20741:20745   */\n      dup7\n        /* \"#utility.yul\":20734:20815   */\n      sstore\n        /* \"#utility.yul\":20603:20825   */\n      pop\n        /* \"#utility.yul\":19938:20825   */\n      jump(tag_392)\n        /* \"#utility.yul\":19968:20586   */\n    tag_393:\n        /* \"#utility.yul\":20020:20024   */\n      0x1f\n        /* \"#utility.yul\":20016:20025   */\n      not\n        /* \"#utility.yul\":20008:20014   */\n      dup5\n        /* \"#utility.yul\":20004:20026   */\n      and\n        /* \"#utility.yul\":20054:20091   */\n      tag_396\n        /* \"#utility.yul\":20086:20090   */\n      dup7\n        /* \"#utility.yul\":20054:20091   */\n      tag_168\n      jump\t// in\n    tag_396:\n        /* \"#utility.yul\":20113:20114   */\n      0x00\n        /* \"#utility.yul\":20127:20335   */\n    tag_397:\n        /* \"#utility.yul\":20141:20148   */\n      dup3\n        /* \"#utility.yul\":20138:20139   */\n      dup2\n        /* \"#utility.yul\":20135:20149   */\n      lt\n        /* \"#utility.yul\":20127:20335   */\n      iszero\n      tag_399\n      jumpi\n        /* \"#utility.yul\":20220:20229   */\n      dup5\n        /* \"#utility.yul\":20215:20218   */\n      dup10\n        /* \"#utility.yul\":20211:20230   */\n      add\n        /* \"#utility.yul\":20205:20231   */\n      mload\n        /* \"#utility.yul\":20197:20203   */\n      dup3\n        /* \"#utility.yul\":20190:20232   */\n      sstore\n        /* \"#utility.yul\":20271:20272   */\n      0x01\n        /* \"#utility.yul\":20263:20269   */\n      dup3\n        /* \"#utility.yul\":20259:20273   */\n      add\n        /* \"#utility.yul\":20249:20273   */\n      swap2\n      pop\n        /* \"#utility.yul\":20318:20320   */\n      0x20\n        /* \"#utility.yul\":20307:20316   */\n      dup6\n        /* \"#utility.yul\":20303:20321   */\n      add\n        /* \"#utility.yul\":20290:20321   */\n      swap5\n      pop\n        /* \"#utility.yul\":20164:20168   */\n      0x20\n        /* \"#utility.yul\":20161:20162   */\n      dup2\n        /* \"#utility.yul\":20157:20169   */\n      add\n        /* \"#utility.yul\":20152:20169   */\n      swap1\n      pop\n        /* \"#utility.yul\":20127:20335   */\n      jump(tag_397)\n    tag_399:\n        /* \"#utility.yul\":20363:20369   */\n      dup7\n        /* \"#utility.yul\":20354:20361   */\n      dup4\n        /* \"#utility.yul\":20351:20370   */\n      lt\n        /* \"#utility.yul\":20348:20527   */\n      iszero\n      tag_400\n      jumpi\n        /* \"#utility.yul\":20421:20430   */\n      dup5\n        /* \"#utility.yul\":20416:20419   */\n      dup10\n        /* \"#utility.yul\":20412:20431   */\n      add\n        /* \"#utility.yul\":20406:20432   */\n      mload\n        /* \"#utility.yul\":20464:20512   */\n      tag_401\n        /* \"#utility.yul\":20506:20510   */\n      0x1f\n        /* \"#utility.yul\":20498:20504   */\n      dup10\n        /* \"#utility.yul\":20494:20511   */\n      and\n        /* \"#utility.yul\":20483:20492   */\n      dup3\n        /* \"#utility.yul\":20464:20512   */\n      tag_181\n      jump\t// in\n    tag_401:\n        /* \"#utility.yul\":20456:20462   */\n      dup4\n        /* \"#utility.yul\":20449:20513   */\n      sstore\n        /* \"#utility.yul\":20371:20527   */\n      pop\n        /* \"#utility.yul\":20348:20527   */\n    tag_400:\n        /* \"#utility.yul\":20573:20574   */\n      0x01\n        /* \"#utility.yul\":20569:20570   */\n      0x02\n        /* \"#utility.yul\":20561:20567   */\n      dup9\n        /* \"#utility.yul\":20557:20571   */\n      mul\n        /* \"#utility.yul\":20553:20575   */\n      add\n        /* \"#utility.yul\":20547:20551   */\n      dup9\n        /* \"#utility.yul\":20540:20576   */\n      sstore\n        /* \"#utility.yul\":19975:20586   */\n      pop\n      pop\n      pop\n        /* \"#utility.yul\":19938:20825   */\n    tag_392:\n      pop\n        /* \"#utility.yul\":19528:20831   */\n      pop\n      pop\n      pop\n        /* \"#utility.yul\":19436:20831   */\n      pop\n      pop\n      jump\t// out\n        /* \"#utility.yul\":20837:21070   */\n    tag_79:\n        /* \"#utility.yul\":20876:20879   */\n      0x00\n        /* \"#utility.yul\":20899:20923   */\n      tag_403\n        /* \"#utility.yul\":20917:20922   */\n      dup3\n        /* \"#utility.yul\":20899:20923   */\n      tag_121\n      jump\t// in\n    tag_403:\n        /* \"#utility.yul\":20890:20923   */\n      swap2\n      pop\n        /* \"#utility.yul\":20945:21011   */\n      0xffffffffffffffffffffffffffffffffffffffffffffffffffffffffffffffff\n        /* \"#utility.yul\":20938:20943   */\n      dup3\n        /* \"#utility.yul\":20935:21012   */\n      sub\n        /* \"#utility.yul\":20932:21035   */\n      tag_404\n      jumpi\n        /* \"#utility.yul\":21015:21033   */\n      tag_405\n      tag_165\n      jump\t// in\n    tag_405:\n        /* \"#utility.yul\":20932:21035   */\n    tag_404:\n        /* \"#utility.yul\":21062:21063   */\n      0x01\n        /* \"#utility.yul\":21055:21060   */\n      dup3\n        /* \"#utility.yul\":21051:21064   */\n      add\n        /* \"#utility.yul\":21044:21064   */\n      swap1\n      pop\n        /* \"#utility.yul\":20837:21070   */\n      swap2\n      swap1\n      pop\n      jump\t// out\n        /* \"#utility.yul\":21076:21453   */\n    tag_183:\n        /* \"#utility.yul\":21164:21167   */\n      0x00\n        /* \"#utility.yul\":21192:21231   */\n      tag_407\n        /* \"#utility.yul\":21225:21230   */\n      dup3\n        /* \"#utility.yul\":21192:21231   */\n      tag_149\n      jump\t// in\n    tag_407:\n        /* \"#utility.yul\":21247:21318   */\n      tag_408\n        /* \"#utility.yul\":21311:21317   */\n      dup2\n        /* \"#utility.yul\":21306:21309   */\n      dup6\n        /* \"#utility.yul\":21247:21318   */\n      tag_158\n      jump\t// in\n    tag_408:\n        /* \"#utility.yul\":21240:21318   */\n      swap4\n      pop\n        /* \"#utility.yul\":21327:21392   */\n      tag_409\n        /* \"#utility.yul\":21385:21391   */\n      dup2\n        /* \"#utility.yul\":21380:21383   */\n      dup6\n        /* \"#utility.yul\":21373:21377   */\n      0x20\n        /* \"#utility.yul\":21366:21371   */\n      dup7\n        /* \"#utility.yul\":21362:21378   */\n      add\n        /* \"#utility.yul\":21327:21392   */\n      tag_151\n      jump\t// in\n    tag_409:\n        /* \"#utility.yul\":21417:21446   */\n      tag_410\n        /* \"#utility.yul\":21439:21445   */\n      dup2\n        /* \"#utility.yul\":21417:21446   */\n      tag_140\n      jump\t// in\n    tag_410:\n        /* \"#utility.yul\":21412:21415   */\n      dup5\n        /* \"#utility.yul\":21408:21447   */\n      add\n        /* \"#utility.yul\":21401:21447   */\n      swap2\n      pop\n        /* \"#utility.yul\":21168:21453   */\n      pop\n        /* \"#utility.yul\":21076:21453   */\n      swap3\n      swap2\n      pop\n      pop\n      jump\t// out\n        /* \"#utility.yul\":21459:21882   */\n    tag_81:\n        /* \"#utility.yul\":21600:21604   */\n      0x00\n        /* \"#utility.yul\":21638:21640   */\n      0x40\n        /* \"#utility.yul\":21627:21636   */\n      dup3\n        /* \"#utility.yul\":21623:21641   */\n      add\n        /* \"#utility.yul\":21615:21641   */\n      swap1\n      pop\n        /* \"#utility.yul\":21687:21696   */\n      dup2\n        /* \"#utility.yul\":21681:21685   */\n      dup2\n        /* \"#utility.yul\":21677:21697   */\n      sub\n        /* \"#utility.yul\":21673:21674   */\n      0x00\n        /* \"#utility.yul\":21662:21671   */\n      dup4\n        /* \"#utility.yul\":21658:21675   */\n      add\n        /* \"#utility.yul\":21651:21698   */\n      mstore\n        /* \"#utility.yul\":21715:21793   */\n      tag_412\n        /* \"#utility.yul\":21788:21792   */\n      dup2\n        /* \"#utility.yul\":21779:21785   */\n      dup6\n        /* \"#utility.yul\":21715:21793   */\n      tag_183\n      jump\t// in\n    tag_412:\n        /* \"#utility.yul\":21707:21793   */\n      swap1\n      pop\n        /* \"#utility.yul\":21803:21875   */\n      tag_413\n        /* \"#utility.yul\":21871:21873   */\n      0x20\n        /* \"#utility.yul\":21860:21869   */\n      dup4\n        /* \"#utility.yul\":21856:21874   */\n      add\n        /* \"#utility.yul\":21847:21853   */\n      dup5\n        /* \"#utility.yul\":21803:21875   */\n      tag_125\n      jump\t// in\n    tag_413:\n        /* \"#utility.yul\":21459:21882   */\n      swap4\n      swap3\n      pop\n      pop\n      pop\n      jump\t// out\n        /* \"#utility.yul\":21888:22139   */\n    tag_184:\n        /* \"#utility.yul\":22028:22062   */\n      0x4167656e7441756469744c6f676765723a204465636973696f6e206e6f742069\n        /* \"#utility.yul\":22024:22025   */\n      0x00\n        /* \"#utility.yul\":22016:22022   */\n      dup3\n        /* \"#utility.yul\":22012:22026   */\n      add\n        /* \"#utility.yul\":22005:22063   */\n      mstore\n        /* \"#utility.yul\":22097:22131   */\n      0x6e20636f727265637420737461746520746f206265206368616c6c656e676564\n        /* \"#utility.yul\":22092:22094   */\n      0x20\n        /* \"#utility.yul\":22084:22090   */\n      dup3\n        /* \"#utility.yul\":22080:22095   */\n      add\n        /* \"#utility.yul\":22073:22132   */\n      mstore\n        /* \"#utility.yul\":21888:22139   */\n      pop\n      jump\t// out\n        /* \"#utility.yul\":22145:22511   */\n    tag_185:\n        /* \"#utility.yul\":22287:22290   */\n      0x00\n        /* \"#utility.yul\":22308:22375   */\n      tag_416\n        /* \"#utility.yul\":22372:22374   */\n      0x40\n        /* \"#utility.yul\":22367:22370   */\n      dup4\n        /* \"#utility.yul\":22308:22375   */\n      tag_158\n      jump\t// in\n    tag_416:\n        /* \"#utility.yul\":22301:22375   */\n      swap2\n      pop\n        /* \"#utility.yul\":22384:22477   */\n      tag_417\n        /* \"#utility.yul\":22473:22476   */\n      dup3\n        /* \"#utility.yul\":22384:22477   */\n      tag_184\n      jump\t// in\n    tag_417:\n        /* \"#utility.yul\":22502:22504   */\n      0x40\n        /* \"#utility.yul\":22497:22500   */\n      dup3\n        /* \"#utility.yul\":22493:22505   */\n      add\n        /* \"#utility.yul\":22486:22505   */\n      swap1\n      pop\n        /* \"#utility.yul\":22145:22511   */\n      swap2\n      swap1\n      pop\n      jump\t// out\n        /* \"#utility.yul\":22517:22936   */\n    tag_110:\n        /* \"#utility.yul\":22683:22687   */\n      0x00\n        /* \"#utility.yul\":22721:22723   */\n      0x20\n        /* \"#utility.yul\":22710:22719   */\n      dup3\n        /* \"#utility.yul\":22706:22724   */\n      add\n        /* \"#utility.yul\":22698:22724   */\n      swap1\n      pop\n        /* \"#utility.yul\":22770:22779   */\n      dup2\n        /* \"#utility.yul\":22764:22768   */\n      dup2\n        /* \"#utility.yul\":22760:22780   */\n      sub\n        /* \"#utility.yul\":22756:22757   */\n      0x00\n        /* \"#utility.yul\":22745:22754   */\n      dup4\n        /* \"#utility.yul\":22741:22758   */\n      add\n        /* \"#utility.yul\":22734:22781   */\n      mstore\n        /* \"#utility.yul\":22798:22929   */\n      tag_419\n        /* \"#utility.yul\":22924:22928   */\n      dup2\n        /* \"#utility.yul\":22798:22929   */\n      tag_185\n      jump\t// in\n    tag_419:\n        /* \"#utility.yul\":22790:22929   */\n      swap1\n      pop\n        /* \"#utility.yul\":22517:22936   */\n      swap2\n      swap1\n      pop\n      jump\t// out\n        /* \"#utility.yul\":22942:23181   */\n    tag_186:\n        /* \"#utility.yul\":23082:23116   */\n      0x4167656e7441756469744c6f676765723a206e657720676f7665726e616e6365\n        /* \"#utility.yul\":23078:23079   */\n      0x00\n        /* \"#utility.yul\":23070:23076   */\n      dup3\n        /* \"#utility.yul\":23066:23080   */\n      add\n        /* \"#utility.yul\":23059:23117   */\n      mstore\n        /* \"#utility.yul\":23151:23173   */\n      0x20697320746865207a65726f2061646472657373000000000000000000000000\n        /* \"#utility.yul\":23146:23148   */\n      0x20\n        /* \"#utility.yul\":23138:23144   */\n      dup3\n        /* \"#utility.yul\":23134:23149   */\n      add\n        /* \"#utility.yul\":23127:23174   */\n      mstore\n        /* \"#utility.yul\":22942:23181   */\n      pop\n      jump\t// out\n        /* \"#utility.yul\":23187:23553   */\n    tag_187:\n        /* \"#utility.yul\":23329:23332   */\n      0x00\n        /* \"#utility.yul\":23350:23417   */\n      tag_422\n        /* \"#utility.yul\":23414:23416   */\n      0x34\n        /* \"#utility.yul\":23409:23412   */\n      dup4\n        /* \"#utility.yul\":23350:23417   */\n      tag_158\n      jump\t// in\n    tag_422:\n        /* \"#utility.yul\":23343:23417   */\n      swap2\n      pop\n        /* \"#utility.yul\":23426:23519   */\n      tag_423\n        /* \"#utility.yul\":23515:23518   */\n      dup3\n        /* \"#utility.yul\":23426:23519   */\n      tag_186\n      jump\t// in\n    tag_423:\n        /* \"#utility.yul\":23544:23546   */\n      0x40\n        /* \"#utility.yul\":23539:23542   */\n      dup3\n        /* \"#utility.yul\":23535:23547   */\n      add\n        /* \"#utility.yul\":23528:23547   */\n      swap1\n      pop\n        /* \"#utility.yul\":23187:23553   */\n      swap2\n      swap1\n      pop\n      jump\t// out\n        /* \"#utility.yul\":23559:23978   */\n    tag_120:\n        /* \"#utility.yul\":23725:23729   */\n      0x00\n        /* \"#utility.yul\":23763:23765   */\n      0x20\n        /* \"#utility.yul\":23752:23761   */\n      dup3\n        /* \"#utility.yul\":23748:23766   */\n      add\n        /* \"#utility.yul\":23740:23766   */\n      swap1\n      pop\n        /* \"#utility.yul\":23812:23821   */\n      dup2\n        /* \"#utility.yul\":23806:23810   */\n      dup2\n        /* \"#utility.yul\":23802:23822   */\n      sub\n        /* \"#utility.yul\":23798:23799   */\n      0x00\n        /* \"#utility.yul\":23787:23796   */\n      dup4\n        /* \"#utility.yul\":23783:23800   */\n      add\n        /* \"#utility.yul\":23776:23823   */\n      mstore\n        /* \"#utility.yul\":23840:23971   */\n      tag_425\n        /* \"#utility.yul\":23966:23970   */\n      dup2\n        /* \"#utility.yul\":23840:23971   */\n      tag_187\n      jump\t// in\n    tag_425:\n        /* \"#utility.yul\":23832:23971   */\n      swap1\n      pop\n        /* \"#utility.yul\":23559:23978   */\n      swap2\n      swap1\n      pop\n      jump\t// out\n\n    auxdata: 0xa26469706673582212209b549d9b495d228fd4cd8d59804668b1a37d2de143f2cae92efa14fc4a0d329a64736f6c634300081e0033\n}\n",
				"bytecode": {
					"linkReferences": {},
					"object": "6080604052348015600f57600080fd5b5033600360006101000a81548173ffffffffffffffffffffffffffffffffffffffff021916908373ffffffffffffffffffffffffffffffffffffffff1602179055506119d6806100606000396000f3fe608060405234801561001057600080fd5b50600436106100885760003560e01c806370ace0d61161005b57806370ace0d614610115578063af75484814610145578063bc3e07df14610175578063d38bfff41461019157610088565b80630c96a61a1461008d578063221bfa48146100ab57806334b25ee2146100c957806354de6e32146100e5575b600080fd5b6100956101ad565b6040516100a29190610c70565b60405180910390f35b6100b36101b3565b6040516100c09190610ccc565b60405180910390f35b6100e360048036038101906100de9190610d5f565b6101d9565b005b6100ff60048036038101906100fa9190610dcb565b61049e565b60405161010c9190610e11565b60405180910390f35b61012f600480360381019061012a9190610f72565b6104b6565b60405161013c9190610c70565b60405180910390f35b61015f600480360381019061015a919061102d565b610689565b60405161016c91906111f5565b60405180910390f35b61018f600480360381019061018a919061102d565b61095d565b005b6101ab60048036038101906101a69190610dcb565b610aad565b005b60005481565b600360009054906101000a900473ffffffffffffffffffffffffffffffffffffffff1681565b600360009054906101000a900473ffffffffffffffffffffffffffffffffffffffff1673ffffffffffffffffffffffffffffffffffffffff163373ffffffffffffffffffffffffffffffffffffffff1614610269576040517f08c379a00000000000000000000000000000000000000000000000000000000081526004016102609061129a565b60405180910390fd5b60005482106102ad576040517f08c379a00000000000000000000000000000000000000000000000000000000081526004016102a49061132c565b60405180910390fd5b6000600160008481526020019081526020016000209050600160028111156102d8576102d761134c565b5b60ff168160060160149054906101000a900460ff1660ff1614610330576040517f08c379a0000000000000000000000000000000000000000000000000000000008152600401610327906113ed565b60405180910390fd5b6002808111156103435761034261134c565b5b8160060160146101000a81548160ff021916908360ff16021790555081156103e557600f600260008360060160009054906101000a900473ffffffffffffffffffffffffffffffffffffffff1673ffffffffffffffffffffffffffffffffffffffff1673ffffffffffffffffffffffffffffffffffffffff16815260200190815260200160002060008282546103d9919061143c565b92505081905550610461565b6005600260008360060160009054906101000a900473ffffffffffffffffffffffffffffffffffffffff1673ffffffffffffffffffffffffffffffffffffffff1673ffffffffffffffffffffffffffffffffffffffff1681526020019081526020016000206000828254610459919061147f565b925050819055505b827f5a87909bff68caaaaf0b3fd9c74eeccc928832f879315e5c6fb7a73612f26c0c8360405161049191906114d2565b60405180910390a2505050565b60026020528060005260406000206000915090505481565b60008060005490506040518061012001604052808281526020018781526020018681526020018581526020018481526020014281526020013373ffffffffffffffffffffffffffffffffffffffff1681526020016000600281111561051e5761051d61134c565b5b60ff168152602001600015158152506001600083815260200190815260200160002060008201518160000155602082015181600101908161055f91906116f9565b50604082015181600201908161057591906116f9565b5060608201518160030155608082015181600401908161059591906116f9565b5060a0820151816005015560c08201518160060160006101000a81548173ffffffffffffffffffffffffffffffffffffffff021916908373ffffffffffffffffffffffffffffffffffffffff16021790555060e08201518160060160146101000a81548160ff021916908360ff1602179055506101008201518160060160156101000a81548160ff02191690831515021790555090505060008081548092919061063e906117cb565b9190505550807f9dd457e4fc133d6824e882079b7f2b0fdc92a7158363dbf8abd880324603b108873360405161067592919061184c565b60405180910390a280915050949350505050565b610691610bf0565b60005482106106d5576040517f08c379a00000000000000000000000000000000000000000000000000000000081526004016106cc9061132c565b60405180910390fd5b60016000838152602001908152602001600020604051806101200160405290816000820154815260200160018201805461070e9061151c565b80601f016020809104026020016040519081016040528092919081815260200182805461073a9061151c565b80156107875780601f1061075c57610100808354040283529160200191610787565b820191906000526020600020905b81548152906001019060200180831161076a57829003601f168201915b505050505081526020016002820180546107a09061151c565b80601f01602080910402602001604051908101604052809291908181526020018280546107cc9061151c565b80156108195780601f106107ee57610100808354040283529160200191610819565b820191906000526020600020905b8154815290600101906020018083116107fc57829003601f168201915b505050505081526020016003820154815260200160048201805461083c9061151c565b80601f01602080910402602001604051908101604052809291908181526020018280546108689061151c565b80156108b55780601f1061088a576101008083540402835291602001916108b5565b820191906000526020600020905b81548152906001019060200180831161089857829003601f168201915b50505050508152602001600582015481526020016006820160009054906101000a900473ffffffffffffffffffffffffffffffffffffffff1673ffffffffffffffffffffffffffffffffffffffff1673ffffffffffffffffffffffffffffffffffffffff1681526020016006820160149054906101000a900460ff1660ff1660ff1681526020016006820160159054906101000a900460ff1615151515815250509050919050565b60005481106109a1576040517f08c379a00000000000000000000000000000000000000000000000000000000081526004016109989061132c565b60405180910390fd5b6000600160008381526020019081526020016000209050600060028111156109cc576109cb61134c565b5b60ff168160060160149054906101000a900460ff1660ff1614610a24576040517f08c379a0000000000000000000000000000000000000000000000000000000008152600401610a1b906118ee565b60405180910390fd5b60016002811115610a3857610a3761134c565b5b8160060160146101000a81548160ff021916908360ff16021790555060018160060160156101000a81548160ff021916908315150217905550817f56e8e57e3c10b8bae669b54e45b34845569c2fac78835439483fd7cf0db24adc33604051610aa19190610ccc565b60405180910390a25050565b600360009054906101000a900473ffffffffffffffffffffffffffffffffffffffff1673ffffffffffffffffffffffffffffffffffffffff163373ffffffffffffffffffffffffffffffffffffffff1614610b3d576040517f08c379a0000000000000000000000000000000000000000000000000000000008152600401610b349061129a565b60405180910390fd5b600073ffffffffffffffffffffffffffffffffffffffff168173ffffffffffffffffffffffffffffffffffffffff1603610bac576040517f08c379a0000000000000000000000000000000000000000000000000000000008152600401610ba390611980565b60405180910390fd5b80600360006101000a81548173ffffffffffffffffffffffffffffffffffffffff021916908373ffffffffffffffffffffffffffffffffffffffff16021790555050565b604051806101200160405280600081526020016060815260200160608152602001600081526020016060815260200160008152602001600073ffffffffffffffffffffffffffffffffffffffff168152602001600060ff1681526020016000151581525090565b6000819050919050565b610c6a81610c57565b82525050565b6000602082019050610c856000830184610c61565b92915050565b600073ffffffffffffffffffffffffffffffffffffffff82169050919050565b6000610cb682610c8b565b9050919050565b610cc681610cab565b82525050565b6000602082019050610ce16000830184610cbd565b92915050565b6000604051905090565b600080fd5b600080fd5b610d0481610c57565b8114610d0f57600080fd5b50565b600081359050610d2181610cfb565b92915050565b60008115159050919050565b610d3c81610d27565b8114610d4757600080fd5b50565b600081359050610d5981610d33565b92915050565b60008060408385031215610d7657610d75610cf1565b5b6000610d8485828601610d12565b9250506020610d9585828601610d4a565b9150509250929050565b610da881610cab565b8114610db357600080fd5b50565b600081359050610dc581610d9f565b92915050565b600060208284031215610de157610de0610cf1565b5b6000610def84828501610db6565b91505092915050565b6000819050919050565b610e0b81610df8565b82525050565b6000602082019050610e266000830184610e02565b92915050565b600080fd5b600080fd5b6000601f19601f8301169050919050565b7f4e487b7100000000000000000000000000000000000000000000000000000000600052604160045260246000fd5b610e7f82610e36565b810181811067ffffffffffffffff82111715610e9e57610e9d610e47565b5b80604052505050565b6000610eb1610ce7565b9050610ebd8282610e76565b919050565b600067ffffffffffffffff821115610edd57610edc610e47565b5b610ee682610e36565b9050602081019050919050565b82818337600083830152505050565b6000610f15610f1084610ec2565b610ea7565b905082815260208101848484011115610f3157610f30610e31565b5b610f3c848285610ef3565b509392505050565b600082601f830112610f5957610f58610e2c565b5b8135610f69848260208601610f02565b91505092915050565b60008060008060808587031215610f8c57610f8b610cf1565b5b600085013567ffffffffffffffff811115610faa57610fa9610cf6565b5b610fb687828801610f44565b945050602085013567ffffffffffffffff811115610fd757610fd6610cf6565b5b610fe387828801610f44565b9350506040610ff487828801610d12565b925050606085013567ffffffffffffffff81111561101557611014610cf6565b5b61102187828801610f44565b91505092959194509250565b60006020828403121561104357611042610cf1565b5b600061105184828501610d12565b91505092915050565b61106381610c57565b82525050565b600081519050919050565b600082825260208201905092915050565b60005b838110156110a3578082015181840152602081019050611088565b60008484015250505050565b60006110ba82611069565b6110c48185611074565b93506110d4818560208601611085565b6110dd81610e36565b840191505092915050565b6110f181610cab565b82525050565b600060ff82169050919050565b61110d816110f7565b82525050565b61111c81610d27565b82525050565b60006101208301600083015161113b600086018261105a565b506020830151848203602086015261115382826110af565b9150506040830151848203604086015261116d82826110af565b9150506060830151611182606086018261105a565b506080830151848203608086015261119a82826110af565b91505060a08301516111af60a086018261105a565b5060c08301516111c260c08601826110e8565b5060e08301516111d560e0860182611104565b506101008301516111ea610100860182611113565b508091505092915050565b6000602082019050818103600083015261120f8184611122565b905092915050565b600082825260208201905092915050565b7f4167656e7441756469744c6f676765723a2063616c6c6572206973206e6f742060008201527f74686520676f7665726e616e636520726f6c6500000000000000000000000000602082015250565b6000611284603383611217565b915061128f82611228565b604082019050919050565b600060208201905081810360008301526112b381611277565b9050919050565b7f4167656e7441756469744c6f676765723a204465636973696f6e20646f65732060008201527f6e6f742065786973740000000000000000000000000000000000000000000000602082015250565b6000611316602983611217565b9150611321826112ba565b604082019050919050565b6000602082019050818103600083015261134581611309565b9050919050565b7f4e487b7100000000000000000000000000000000000000000000000000000000600052602160045260246000fd5b7f4167656e7441756469744c6f676765723a204465636973696f6e206d7573742060008201527f6265206368616c6c656e67656420746f206265207265736f6c76656400000000602082015250565b60006113d7603c83611217565b91506113e28261137b565b604082019050919050565b60006020820190508181036000830152611406816113ca565b9050919050565b7f4e487b7100000000000000000000000000000000000000000000000000000000600052601160045260246000fd5b600061144782610df8565b915061145283610df8565b92508282039050818112600084121682821360008512151617156114795761147861140d565b5b92915050565b600061148a82610df8565b915061149583610df8565b9250828201905082811215600083121683821260008412151617156114bd576114bc61140d565b5b92915050565b6114cc81610d27565b82525050565b60006020820190506114e760008301846114c3565b92915050565b7f4e487b7100000000000000000000000000000000000000000000000000000000600052602260045260246000fd5b6000600282049050600182168061153457607f821691505b602082108103611547576115466114ed565b5b50919050565b60008190508160005260206000209050919050565b60006020601f8301049050919050565b600082821b905092915050565b6000600883026115af7fffffffffffffffffffffffffffffffffffffffffffffffffffffffffffffffff82611572565b6115b98683611572565b95508019841693508086168417925050509392505050565b6000819050919050565b60006115f66115f16115ec84610c57565b6115d1565b610c57565b9050919050565b6000819050919050565b611610836115db565b61162461161c826115fd565b84845461157f565b825550505050565b600090565b61163961162c565b611644818484611607565b505050565b5b818110156116685761165d600082611631565b60018101905061164a565b5050565b601f8211156116ad5761167e8161154d565b61168784611562565b81016020851015611696578190505b6116aa6116a285611562565b830182611649565b50505b505050565b600082821c905092915050565b60006116d0600019846008026116b2565b1980831691505092915050565b60006116e983836116bf565b9150826002028217905092915050565b61170282611069565b67ffffffffffffffff81111561171b5761171a610e47565b5b611725825461151c565b61173082828561166c565b600060209050601f8311600181146117635760008415611751578287015190505b61175b85826116dd565b8655506117c3565b601f1984166117718661154d565b60005b8281101561179957848901518255600182019150602085019450602081019050611774565b868310156117b657848901516117b2601f8916826116bf565b8355505b6001600288020188555050505b505050505050565b60006117d682610c57565b91507fffffffffffffffffffffffffffffffffffffffffffffffffffffffffffffffff82036118085761180761140d565b5b600182019050919050565b600061181e82611069565b6118288185611217565b9350611838818560208601611085565b61184181610e36565b840191505092915050565b600060408201905081810360008301526118668185611813565b90506118756020830184610cbd565b9392505050565b7f4167656e7441756469744c6f676765723a204465636973696f6e206e6f74206960008201527f6e20636f727265637420737461746520746f206265206368616c6c656e676564602082015250565b60006118d8604083611217565b91506118e38261187c565b604082019050919050565b60006020820190508181036000830152611907816118cb565b9050919050565b7f4167656e7441756469744c6f676765723a206e657720676f7665726e616e636560008201527f20697320746865207a65726f2061646472657373000000000000000000000000602082015250565b600061196a603483611217565b91506119758261190e565b604082019050919050565b600060208201905081810360008301526119998161195d565b905091905056fea26469706673582212209b549d9b495d228fd4cd8d59804668b1a37d2de143f2cae92efa14fc4a0d329a64736f6c634300081e0033",
					"opcodes": "PUSH1 0x80 PUSH1 0x40 MSTORE CALLVALUE DUP1 ISZERO PUSH1 0xF JUMPI PUSH1 0x0 DUP1 REVERT JUMPDEST POP CALLER PUSH1 0x3 PUSH1 0x0 PUSH2 0x100 EXP DUP2 SLOAD DUP2 PUSH20 0xFFFFFFFFFFFFFFFFFFFFFFFFFFFFFFFFFFFFFFFF MUL NOT AND SWAP1 DUP4 PUSH20 0xFFFFFFFFFFFFFFFFFFFFFFFFFFFFFFFFFFFFFFFF AND MUL OR SWAP1 SSTORE POP PUSH2 0x19D6 DUP1 PUSH2 0x60 PUSH1 0x0 CODECOPY PUSH1 0x0 RETURN INVALID PUSH1 0x80 PUSH1 0x40 MSTORE CALLVALUE DUP1 ISZERO PUSH2 0x10 JUMPI PUSH1 0x0 DUP1 REVERT JUMPDEST POP PUSH1 0x4 CALLDATASIZE LT PUSH2 0x88 JUMPI PUSH1 0x0 CALLDATALOAD PUSH1 0xE0 SHR DUP1 PUSH4 0x70ACE0D6 GT PUSH2 0x5B JUMPI DUP1 PUSH4 0x70ACE0D6 EQ PUSH2 0x115 JUMPI DUP1 PUSH4 0xAF754848 EQ PUSH2 0x145 JUMPI DUP1 PUSH4 0xBC3E07DF EQ PUSH2 0x175 JUMPI DUP1 PUSH4 0xD38BFFF4 EQ PUSH2 0x191 JUMPI PUSH2 0x88 JUMP JUMPDEST DUP1 PUSH4 0xC96A61A EQ PUSH2 0x8D JUMPI DUP1 PUSH4 0x221BFA48 EQ PUSH2 0xAB JUMPI DUP1 PUSH4 0x34B25EE2 EQ PUSH2 0xC9 JUMPI DUP1 PUSH4 0x54DE6E32 EQ PUSH2 0xE5 JUMPI JUMPDEST PUSH1 0x0 DUP1 REVERT JUMPDEST PUSH2 0x95 PUSH2 0x1AD JUMP JUMPDEST PUSH1 0x40 MLOAD PUSH2 0xA2 SWAP2 SWAP1 PUSH2 0xC70 JUMP JUMPDEST PUSH1 0x40 MLOAD DUP1 SWAP2 SUB SWAP1 RETURN JUMPDEST PUSH2 0xB3 PUSH2 0x1B3 JUMP JUMPDEST PUSH1 0x40 MLOAD PUSH2 0xC0 SWAP2 SWAP1 PUSH2 0xCCC JUMP JUMPDEST PUSH1 0x40 MLOAD DUP1 SWAP2 SUB SWAP1 RETURN JUMPDEST PUSH2 0xE3 PUSH1 0x4 DUP1 CALLDATASIZE SUB DUP2 ADD SWAP1 PUSH2 0xDE SWAP2 SWAP1 PUSH2 0xD5F JUMP JUMPDEST PUSH2 0x1D9 JUMP JUMPDEST STOP JUMPDEST PUSH2 0xFF PUSH1 0x4 DUP1 CALLDATASIZE SUB DUP2 ADD SWAP1 PUSH2 0xFA SWAP2 SWAP1 PUSH2 0xDCB JUMP JUMPDEST PUSH2 0x49E JUMP JUMPDEST PUSH1 0x40 MLOAD PUSH2 0x10C SWAP2 SWAP1 PUSH2 0xE11 JUMP JUMPDEST PUSH1 0x40 MLOAD DUP1 SWAP2 SUB SWAP1 RETURN JUMPDEST PUSH2 0x12F PUSH1 0x4 DUP1 CALLDATASIZE SUB DUP2 ADD SWAP1 PUSH2 0x12A SWAP2 SWAP1 PUSH2 0xF72 JUMP JUMPDEST PUSH2 0x4B6 JUMP JUMPDEST PUSH1 0x40 MLOAD PUSH2 0x13C SWAP2 SWAP1 PUSH2 0xC70 JUMP JUMPDEST PUSH1 0x40 MLOAD DUP1 SWAP2 SUB SWAP1 RETURN JUMPDEST PUSH2 0x15F PUSH1 0x4 DUP1 CALLDATASIZE SUB DUP2 ADD SWAP1 PUSH2 0x15A SWAP2 SWAP1 PUSH2 0x102D JUMP JUMPDEST PUSH2 0x689 JUMP JUMPDEST PUSH1 0x40 MLOAD PUSH2 0x16C SWAP2 SWAP1 PUSH2 0x11F5 JUMP JUMPDEST PUSH1 0x40 MLOAD DUP1 SWAP2 SUB SWAP1 RETURN JUMPDEST PUSH2 0x18F PUSH1 0x4 DUP1 CALLDATASIZE SUB DUP2 ADD SWAP1 PUSH2 0x18A SWAP2 SWAP1 PUSH2 0x102D JUMP JUMPDEST PUSH2 0x95D JUMP JUMPDEST STOP JUMPDEST PUSH2 0x1AB PUSH1 0x4 DUP1 CALLDATASIZE SUB DUP2 ADD SWAP1 PUSH2 0x1A6 SWAP2 SWAP1 PUSH2 0xDCB JUMP JUMPDEST PUSH2 0xAAD JUMP JUMPDEST STOP JUMPDEST PUSH1 0x0 SLOAD DUP2 JUMP JUMPDEST PUSH1 0x3 PUSH1 0x0 SWAP1 SLOAD SWAP1 PUSH2 0x100 EXP SWAP1 DIV PUSH20 0xFFFFFFFFFFFFFFFFFFFFFFFFFFFFFFFFFFFFFFFF AND DUP2 JUMP JUMPDEST PUSH1 0x3 PUSH1 0x0 SWAP1 SLOAD SWAP1 PUSH2 0x100 EXP SWAP1 DIV PUSH20 0xFFFFFFFFFFFFFFFFFFFFFFFFFFFFFFFFFFFFFFFF AND PUSH20 0xFFFFFFFFFFFFFFFFFFFFFFFFFFFFFFFFFFFFFFFF AND CALLER PUSH20 0xFFFFFFFFFFFFFFFFFFFFFFFFFFFFFFFFFFFFFFFF AND EQ PUSH2 0x269 JUMPI PUSH1 0x40 MLOAD PUSH32 0x8C379A000000000000000000000000000000000000000000000000000000000 DUP2 MSTORE PUSH1 0x4 ADD PUSH2 0x260 SWAP1 PUSH2 0x129A JUMP JUMPDEST PUSH1 0x40 MLOAD DUP1 SWAP2 SUB SWAP1 REVERT JUMPDEST PUSH1 0x0 SLOAD DUP3 LT PUSH2 0x2AD JUMPI PUSH1 0x40 MLOAD PUSH32 0x8C379A000000000000000000000000000000000000000000000000000000000 DUP2 MSTORE PUSH1 0x4 ADD PUSH2 0x2A4 SWAP1 PUSH2 0x132C JUMP JUMPDEST PUSH1 0x40 MLOAD DUP1 SWAP2 SUB SWAP1 REVERT JUMPDEST PUSH1 0x0 PUSH1 0x1 PUSH1 0x0 DUP5 DUP2 MSTORE PUSH1 0x20 ADD SWAP1 DUP2 MSTORE PUSH1 0x20 ADD PUSH1 0x0 KECCAK256 SWAP1 POP PUSH1 0x1 PUSH1 0x2 DUP2 GT ISZERO PUSH2 0x2D8 JUMPI PUSH2 0x2D7 PUSH2 0x134C JUMP JUMPDEST JUMPDEST PUSH1 0xFF AND DUP2 PUSH1 0x6 ADD PUSH1 0x14 SWAP1 SLOAD SWAP1 PUSH2 0x100 EXP SWAP1 DIV PUSH1 0xFF AND PUSH1 0xFF AND EQ PUSH2 0x330 JUMPI PUSH1 0x40 MLOAD PUSH32 0x8C379A000000000000000000000000000000000000000000000000000000000 DUP2 MSTORE PUSH1 0x4 ADD PUSH2 0x327 SWAP1 PUSH2 0x13ED JUMP JUMPDEST PUSH1 0x40 MLOAD DUP1 SWAP2 SUB SWAP1 REVERT JUMPDEST PUSH1 0x2 DUP1 DUP2 GT ISZERO PUSH2 0x343 JUMPI PUSH2 0x342 PUSH2 0x134C JUMP JUMPDEST JUMPDEST DUP2 PUSH1 0x6 ADD PUSH1 0x14 PUSH2 0x100 EXP DUP2 SLOAD DUP2 PUSH1 0xFF MUL NOT AND SWAP1 DUP4 PUSH1 0xFF AND MUL OR SWAP1 SSTORE POP DUP2 ISZERO PUSH2 0x3E5 JUMPI PUSH1 0xF PUSH1 0x2 PUSH1 0x0 DUP4 PUSH1 0x6 ADD PUSH1 0x0 SWAP1 SLOAD SWAP1 PUSH2 0x100 EXP SWAP1 DIV PUSH20 0xFFFFFFFFFFFFFFFFFFFFFFFFFFFFFFFFFFFFFFFF AND PUSH20 0xFFFFFFFFFFFFFFFFFFFFFFFFFFFFFFFFFFFFFFFF AND PUSH20 0xFFFFFFFFFFFFFFFFFFFFFFFFFFFFFFFFFFFFFFFF AND DUP2 MSTORE PUSH1 0x20 ADD SWAP1 DUP2 MSTORE PUSH1 0x20 ADD PUSH1 0x0 KECCAK256 PUSH1 0x0 DUP3 DUP3 SLOAD PUSH2 0x3D9 SWAP2 SWAP1 PUSH2 0x143C JUMP JUMPDEST SWAP3 POP POP DUP2 SWAP1 SSTORE POP PUSH2 0x461 JUMP JUMPDEST PUSH1 0x5 PUSH1 0x2 PUSH1 0x0 DUP4 PUSH1 0x6 ADD PUSH1 0x0 SWAP1 SLOAD SWAP1 PUSH2 0x100 EXP SWAP1 DIV PUSH20 0xFFFFFFFFFFFFFFFFFFFFFFFFFFFFFFFFFFFFFFFF AND PUSH20 0xFFFFFFFFFFFFFFFFFFFFFFFFFFFFFFFFFFFFFFFF AND PUSH20 0xFFFFFFFFFFFFFFFFFFFFFFFFFFFFFFFFFFFFFFFF AND DUP2 MSTORE PUSH1 0x20 ADD SWAP1 DUP2 MSTORE PUSH1 0x20 ADD PUSH1 0x0 KECCAK256 PUSH1 0x0 DUP3 DUP3 SLOAD PUSH2 0x459 SWAP2 SWAP1 PUSH2 0x147F JUMP JUMPDEST SWAP3 POP POP DUP2 SWAP1 SSTORE POP JUMPDEST DUP3 PUSH32 0x5A87909BFF68CAAAAF0B3FD9C74EECCC928832F879315E5C6FB7A73612F26C0C DUP4 PUSH1 0x40 MLOAD PUSH2 0x491 SWAP2 SWAP1 PUSH2 0x14D2 JUMP JUMPDEST PUSH1 0x40 MLOAD DUP1 SWAP2 SUB SWAP1 LOG2 POP POP POP JUMP JUMPDEST PUSH1 0x2 PUSH1 0x20 MSTORE DUP1 PUSH1 0x0 MSTORE PUSH1 0x40 PUSH1 0x0 KECCAK256 PUSH1 0x0 SWAP2 POP SWAP1 POP SLOAD DUP2 JUMP JUMPDEST PUSH1 0x0 DUP1 PUSH1 0x0 SLOAD SWAP1 POP PUSH1 0x40 MLOAD DUP1 PUSH2 0x120 ADD PUSH1 0x40 MSTORE DUP1 DUP3 DUP2 MSTORE PUSH1 0x20 ADD DUP8 DUP2 MSTORE PUSH1 0x20 ADD DUP7 DUP2 MSTORE PUSH1 0x20 ADD DUP6 DUP2 MSTORE PUSH1 0x20 ADD DUP5 DUP2 MSTORE PUSH1 0x20 ADD TIMESTAMP DUP2 MSTORE PUSH1 0x20 ADD CALLER PUSH20 0xFFFFFFFFFFFFFFFFFFFFFFFFFFFFFFFFFFFFFFFF AND DUP2 MSTORE PUSH1 0x20 ADD PUSH1 0x0 PUSH1 0x2 DUP2 GT ISZERO PUSH2 0x51E JUMPI PUSH2 0x51D PUSH2 0x134C JUMP JUMPDEST JUMPDEST PUSH1 0xFF AND DUP2 MSTORE PUSH1 0x20 ADD PUSH1 0x0 ISZERO ISZERO DUP2 MSTORE POP PUSH1 0x1 PUSH1 0x0 DUP4 DUP2 MSTORE PUSH1 0x20 ADD SWAP1 DUP2 MSTORE PUSH1 0x20 ADD PUSH1 0x0 KECCAK256 PUSH1 0x0 DUP3 ADD MLOAD DUP2 PUSH1 0x0 ADD SSTORE PUSH1 0x20 DUP3 ADD MLOAD DUP2 PUSH1 0x1 ADD SWAP1 DUP2 PUSH2 0x55F SWAP2 SWAP1 PUSH2 0x16F9 JUMP JUMPDEST POP PUSH1 0x40 DUP3 ADD MLOAD DUP2 PUSH1 0x2 ADD SWAP1 DUP2 PUSH2 0x575 SWAP2 SWAP1 PUSH2 0x16F9 JUMP JUMPDEST POP PUSH1 0x60 DUP3 ADD MLOAD DUP2 PUSH1 0x3 ADD SSTORE PUSH1 0x80 DUP3 ADD MLOAD DUP2 PUSH1 0x4 ADD SWAP1 DUP2 PUSH2 0x595 SWAP2 SWAP1 PUSH2 0x16F9 JUMP JUMPDEST POP PUSH1 0xA0 DUP3 ADD MLOAD DUP2 PUSH1 0x5 ADD SSTORE PUSH1 0xC0 DUP3 ADD MLOAD DUP2 PUSH1 0x6 ADD PUSH1 0x0 PUSH2 0x100 EXP DUP2 SLOAD DUP2 PUSH20 0xFFFFFFFFFFFFFFFFFFFFFFFFFFFFFFFFFFFFFFFF MUL NOT AND SWAP1 DUP4 PUSH20 0xFFFFFFFFFFFFFFFFFFFFFFFFFFFFFFFFFFFFFFFF AND MUL OR SWAP1 SSTORE POP PUSH1 0xE0 DUP3 ADD MLOAD DUP2 PUSH1 0x6 ADD PUSH1 0x14 PUSH2 0x100 EXP DUP2 SLOAD DUP2 PUSH1 0xFF MUL NOT AND SWAP1 DUP4 PUSH1 0xFF AND MUL OR SWAP1 SSTORE POP PUSH2 0x100 DUP3 ADD MLOAD DUP2 PUSH1 0x6 ADD PUSH1 0x15 PUSH2 0x100 EXP DUP2 SLOAD DUP2 PUSH1 0xFF MUL NOT AND SWAP1 DUP4 ISZERO ISZERO MUL OR SWAP1 SSTORE POP SWAP1 POP POP PUSH1 0x0 DUP1 DUP2 SLOAD DUP1 SWAP3 SWAP2 SWAP1 PUSH2 0x63E SWAP1 PUSH2 0x17CB JUMP JUMPDEST SWAP2 SWAP1 POP SSTORE POP DUP1 PUSH32 0x9DD457E4FC133D6824E882079B7F2B0FDC92A7158363DBF8ABD880324603B108 DUP8 CALLER PUSH1 0x40 MLOAD PUSH2 0x675 SWAP3 SWAP2 SWAP1 PUSH2 0x184C JUMP JUMPDEST PUSH1 0x40 MLOAD DUP1 SWAP2 SUB SWAP1 LOG2 DUP1 SWAP2 POP POP SWAP5 SWAP4 POP POP POP POP JUMP JUMPDEST PUSH2 0x691 PUSH2 0xBF0 JUMP JUMPDEST PUSH1 0x0 SLOAD DUP3 LT PUSH2 0x6D5 JUMPI PUSH1 0x40 MLOAD PUSH32 0x8C379A000000000000000000000000000000000000000000000000000000000 DUP2 MSTORE PUSH1 0x4 ADD PUSH2 0x6CC SWAP1 PUSH2 0x132C JUMP JUMPDEST PUSH1 0x40 MLOAD DUP1 SWAP2 SUB SWAP1 REVERT JUMPDEST PUSH1 0x1 PUSH1 0x0 DUP4 DUP2 MSTORE PUSH1 0x20 ADD SWAP1 DUP2 MSTORE PUSH1 0x20 ADD PUSH1 0x0 KECCAK256 PUSH1 0x40 MLOAD DUP1 PUSH2 0x120 ADD PUSH1 0x40 MSTORE SWAP1 DUP2 PUSH1 0x0 DUP3 ADD SLOAD DUP2 MSTORE PUSH1 0x20 ADD PUSH1 0x1 DUP3 ADD DUP1 SLOAD PUSH2 0x70E SWAP1 PUSH2 0x151C JUMP JUMPDEST DUP1 PUSH1 0x1F ADD PUSH1 0x20 DUP1 SWAP2 DIV MUL PUSH1 0x20 ADD PUSH1 0x40 MLOAD SWAP1 DUP2 ADD PUSH1 0x40 MSTORE DUP1 SWAP3 SWAP2 SWAP1 DUP2 DUP2 MSTORE PUSH1 0x20 ADD DUP3 DUP1 SLOAD PUSH2 0x73A SWAP1 PUSH2 0x151C JUMP JUMPDEST DUP1 ISZERO PUSH2 0x787 JUMPI DUP1 PUSH1 0x1F LT PUSH2 0x75C JUMPI PUSH2 0x100 DUP1 DUP4 SLOAD DIV MUL DUP4 MSTORE SWAP2 PUSH1 0x20 ADD SWAP2 PUSH2 0x787 JUMP JUMPDEST DUP3 ADD SWAP2 SWAP1 PUSH1 0x0 MSTORE PUSH1 0x20 PUSH1 0x0 KECCAK256 SWAP1 JUMPDEST DUP2 SLOAD DUP2 MSTORE SWAP1 PUSH1 0x1 ADD SWAP1 PUSH1 0x20 ADD DUP1 DUP4 GT PUSH2 0x76A JUMPI DUP3 SWAP1 SUB PUSH1 0x1F AND DUP3 ADD SWAP2 JUMPDEST POP POP POP POP POP DUP2 MSTORE PUSH1 0x20 ADD PUSH1 0x2 DUP3 ADD DUP1 SLOAD PUSH2 0x7A0 SWAP1 PUSH2 0x151C JUMP JUMPDEST DUP1 PUSH1 0x1F ADD PUSH1 0x20 DUP1 SWAP2 DIV MUL PUSH1 0x20 ADD PUSH1 0x40 MLOAD SWAP1 DUP2 ADD PUSH1 0x40 MSTORE DUP1 SWAP3 SWAP2 SWAP1 DUP2 DUP2 MSTORE PUSH1 0x20 ADD DUP3 DUP1 SLOAD PUSH2 0x7CC SWAP1 PUSH2 0x151C JUMP JUMPDEST DUP1 ISZERO PUSH2 0x819 JUMPI DUP1 PUSH1 0x1F LT PUSH2 0x7EE JUMPI PUSH2 0x100 DUP1 DUP4 SLOAD DIV MUL DUP4 MSTORE SWAP2 PUSH1 0x20 ADD SWAP2 PUSH2 0x819 JUMP JUMPDEST DUP3 ADD SWAP2 SWAP1 PUSH1 0x0 MSTORE PUSH1 0x20 PUSH1 0x0 KECCAK256 SWAP1 JUMPDEST DUP2 SLOAD DUP2 MSTORE SWAP1 PUSH1 0x1 ADD SWAP1 PUSH1 0x20 ADD DUP1 DUP4 GT PUSH2 0x7FC JUMPI DUP3 SWAP1 SUB PUSH1 0x1F AND DUP3 ADD SWAP2 JUMPDEST POP POP POP POP POP DUP2 MSTORE PUSH1 0x20 ADD PUSH1 0x3 DUP3 ADD SLOAD DUP2 MSTORE PUSH1 0x20 ADD PUSH1 0x4 DUP3 ADD DUP1 SLOAD PUSH2 0x83C SWAP1 PUSH2 0x151C JUMP JUMPDEST DUP1 PUSH1 0x1F ADD PUSH1 0x20 DUP1 SWAP2 DIV MUL PUSH1 0x20 ADD PUSH1 0x40 MLOAD SWAP1 DUP2 ADD PUSH1 0x40 MSTORE DUP1 SWAP3 SWAP2 SWAP1 DUP2 DUP2 MSTORE PUSH1 0x20 ADD DUP3 DUP1 SLOAD PUSH2 0x868 SWAP1 PUSH2 0x151C JUMP JUMPDEST DUP1 ISZERO PUSH2 0x8B5 JUMPI DUP1 PUSH1 0x1F LT PUSH2 0x88A JUMPI PUSH2 0x100 DUP1 DUP4 SLOAD DIV MUL DUP4 MSTORE SWAP2 PUSH1 0x20 ADD SWAP2 PUSH2 0x8B5 JUMP JUMPDEST DUP3 ADD SWAP2 SWAP1 PUSH1 0x0 MSTORE PUSH1 0x20 PUSH1 0x0 KECCAK256 SWAP1 JUMPDEST DUP2 SLOAD DUP2 MSTORE SWAP1 PUSH1 0x1 ADD SWAP1 PUSH1 0x20 ADD DUP1 DUP4 GT PUSH2 0x898 JUMPI DUP3 SWAP1 SUB PUSH1 0x1F AND DUP3 ADD SWAP2 JUMPDEST POP POP POP POP POP DUP2 MSTORE PUSH1 0x20 ADD PUSH1 0x5 DUP3 ADD SLOAD DUP2 MSTORE PUSH1 0x20 ADD PUSH1 0x6 DUP3 ADD PUSH1 0x0 SWAP1 SLOAD SWAP1 PUSH2 0x100 EXP SWAP1 DIV PUSH20 0xFFFFFFFFFFFFFFFFFFFFFFFFFFFFFFFFFFFFFFFF AND PUSH20 0xFFFFFFFFFFFFFFFFFFFFFFFFFFFFFFFFFFFFFFFF AND PUSH20 0xFFFFFFFFFFFFFFFFFFFFFFFFFFFFFFFFFFFFFFFF AND DUP2 MSTORE PUSH1 0x20 ADD PUSH1 0x6 DUP3 ADD PUSH1 0x14 SWAP1 SLOAD SWAP1 PUSH2 0x100 EXP SWAP1 DIV PUSH1 0xFF AND PUSH1 0xFF AND PUSH1 0xFF AND DUP2 MSTORE PUSH1 0x20 ADD PUSH1 0x6 DUP3 ADD PUSH1 0x15 SWAP1 SLOAD SWAP1 PUSH2 0x100 EXP SWAP1 DIV PUSH1 0xFF AND ISZERO ISZERO ISZERO ISZERO DUP2 MSTORE POP POP SWAP1 POP SWAP2 SWAP1 POP JUMP JUMPDEST PUSH1 0x0 SLOAD DUP2 LT PUSH2 0x9A1 JUMPI PUSH1 0x40 MLOAD PUSH32 0x8C379A000000000000000000000000000000000000000000000000000000000 DUP2 MSTORE PUSH1 0x4 ADD PUSH2 0x998 SWAP1 PUSH2 0x132C JUMP JUMPDEST PUSH1 0x40 MLOAD DUP1 SWAP2 SUB SWAP1 REVERT JUMPDEST PUSH1 0x0 PUSH1 0x1 PUSH1 0x0 DUP4 DUP2 MSTORE PUSH1 0x20 ADD SWAP1 DUP2 MSTORE PUSH1 0x20 ADD PUSH1 0x0 KECCAK256 SWAP1 POP PUSH1 0x0 PUSH1 0x2 DUP2 GT ISZERO PUSH2 0x9CC JUMPI PUSH2 0x9CB PUSH2 0x134C JUMP JUMPDEST JUMPDEST PUSH1 0xFF AND DUP2 PUSH1 0x6 ADD PUSH1 0x14 SWAP1 SLOAD SWAP1 PUSH2 0x100 EXP SWAP1 DIV PUSH1 0xFF AND PUSH1 0xFF AND EQ PUSH2 0xA24 JUMPI PUSH1 0x40 MLOAD PUSH32 0x8C379A000000000000000000000000000000000000000000000000000000000 DUP2 MSTORE PUSH1 0x4 ADD PUSH2 0xA1B SWAP1 PUSH2 0x18EE JUMP JUMPDEST PUSH1 0x40 MLOAD DUP1 SWAP2 SUB SWAP1 REVERT JUMPDEST PUSH1 0x1 PUSH1 0x2 DUP2 GT ISZERO PUSH2 0xA38 JUMPI PUSH2 0xA37 PUSH2 0x134C JUMP JUMPDEST JUMPDEST DUP2 PUSH1 0x6 ADD PUSH1 0x14 PUSH2 0x100 EXP DUP2 SLOAD DUP2 PUSH1 0xFF MUL NOT AND SWAP1 DUP4 PUSH1 0xFF AND MUL OR SWAP1 SSTORE POP PUSH1 0x1 DUP2 PUSH1 0x6 ADD PUSH1 0x15 PUSH2 0x100 EXP DUP2 SLOAD DUP2 PUSH1 0xFF MUL NOT AND SWAP1 DUP4 ISZERO ISZERO MUL OR SWAP1 SSTORE POP DUP2 PUSH32 0x56E8E57E3C10B8BAE669B54E45B34845569C2FAC78835439483FD7CF0DB24ADC CALLER PUSH1 0x40 MLOAD PUSH2 0xAA1 SWAP2 SWAP1 PUSH2 0xCCC JUMP JUMPDEST PUSH1 0x40 MLOAD DUP1 SWAP2 SUB SWAP1 LOG2 POP POP JUMP JUMPDEST PUSH1 0x3 PUSH1 0x0 SWAP1 SLOAD SWAP1 PUSH2 0x100 EXP SWAP1 DIV PUSH20 0xFFFFFFFFFFFFFFFFFFFFFFFFFFFFFFFFFFFFFFFF AND PUSH20 0xFFFFFFFFFFFFFFFFFFFFFFFFFFFFFFFFFFFFFFFF AND CALLER PUSH20 0xFFFFFFFFFFFFFFFFFFFFFFFFFFFFFFFFFFFFFFFF AND EQ PUSH2 0xB3D JUMPI PUSH1 0x40 MLOAD PUSH32 0x8C379A000000000000000000000000000000000000000000000000000000000 DUP2 MSTORE PUSH1 0x4 ADD PUSH2 0xB34 SWAP1 PUSH2 0x129A JUMP JUMPDEST PUSH1 0x40 MLOAD DUP1 SWAP2 SUB SWAP1 REVERT JUMPDEST PUSH1 0x0 PUSH20 0xFFFFFFFFFFFFFFFFFFFFFFFFFFFFFFFFFFFFFFFF AND DUP2 PUSH20 0xFFFFFFFFFFFFFFFFFFFFFFFFFFFFFFFFFFFFFFFF AND SUB PUSH2 0xBAC JUMPI PUSH1 0x40 MLOAD PUSH32 0x8C379A000000000000000000000000000000000000000000000000000000000 DUP2 MSTORE PUSH1 0x4 ADD PUSH2 0xBA3 SWAP1 PUSH2 0x1980 JUMP JUMPDEST PUSH1 0x40 MLOAD DUP1 SWAP2 SUB SWAP1 REVERT JUMPDEST DUP1 PUSH1 0x3 PUSH1 0x0 PUSH2 0x100 EXP DUP2 SLOAD DUP2 PUSH20 0xFFFFFFFFFFFFFFFFFFFFFFFFFFFFFFFFFFFFFFFF MUL NOT AND SWAP1 DUP4 PUSH20 0xFFFFFFFFFFFFFFFFFFFFFFFFFFFFFFFFFFFFFFFF AND MUL OR SWAP1 SSTORE POP POP JUMP JUMPDEST PUSH1 0x40 MLOAD DUP1 PUSH2 0x120 ADD PUSH1 0x40 MSTORE DUP1 PUSH1 0x0 DUP2 MSTORE PUSH1 0x20 ADD PUSH1 0x60 DUP2 MSTORE PUSH1 0x20 ADD PUSH1 0x60 DUP2 MSTORE PUSH1 0x20 ADD PUSH1 0x0 DUP2 MSTORE PUSH1 0x20 ADD PUSH1 0x60 DUP2 MSTORE PUSH1 0x20 ADD PUSH1 0x0 DUP2 MSTORE PUSH1 0x20 ADD PUSH1 0x0 PUSH20 0xFFFFFFFFFFFFFFFFFFFFFFFFFFFFFFFFFFFFFFFF AND DUP2 MSTORE PUSH1 0x20 ADD PUSH1 0x0 PUSH1 0xFF AND DUP2 MSTORE PUSH1 0x20 ADD PUSH1 0x0 ISZERO ISZERO DUP2 MSTORE POP SWAP1 JUMP JUMPDEST PUSH1 0x0 DUP2 SWAP1 POP SWAP2 SWAP1 POP JUMP JUMPDEST PUSH2 0xC6A DUP2 PUSH2 0xC57 JUMP JUMPDEST DUP3 MSTORE POP POP JUMP JUMPDEST PUSH1 0x0 PUSH1 0x20 DUP3 ADD SWAP1 POP PUSH2 0xC85 PUSH1 0x0 DUP4 ADD DUP5 PUSH2 0xC61 JUMP JUMPDEST SWAP3 SWAP2 POP POP JUMP JUMPDEST PUSH1 0x0 PUSH20 0xFFFFFFFFFFFFFFFFFFFFFFFFFFFFFFFFFFFFFFFF DUP3 AND SWAP1 POP SWAP2 SWAP1 POP JUMP JUMPDEST PUSH1 0x0 PUSH2 0xCB6 DUP3 PUSH2 0xC8B JUMP JUMPDEST SWAP1 POP SWAP2 SWAP1 POP JUMP JUMPDEST PUSH2 0xCC6 DUP2 PUSH2 0xCAB JUMP JUMPDEST DUP3 MSTORE POP POP JUMP JUMPDEST PUSH1 0x0 PUSH1 0x20 DUP3 ADD SWAP1 POP PUSH2 0xCE1 PUSH1 0x0 DUP4 ADD DUP5 PUSH2 0xCBD JUMP JUMPDEST SWAP3 SWAP2 POP POP JUMP JUMPDEST PUSH1 0x0 PUSH1 0x40 MLOAD SWAP1 POP SWAP1 JUMP JUMPDEST PUSH1 0x0 DUP1 REVERT JUMPDEST PUSH1 0x0 DUP1 REVERT JUMPDEST PUSH2 0xD04 DUP2 PUSH2 0xC57 JUMP JUMPDEST DUP2 EQ PUSH2 0xD0F JUMPI PUSH1 0x0 DUP1 REVERT JUMPDEST POP JUMP JUMPDEST PUSH1 0x0 DUP2 CALLDATALOAD SWAP1 POP PUSH2 0xD21 DUP2 PUSH2 0xCFB JUMP JUMPDEST SWAP3 SWAP2 POP POP JUMP JUMPDEST PUSH1 0x0 DUP2 ISZERO ISZERO SWAP1 POP SWAP2 SWAP1 POP JUMP JUMPDEST PUSH2 0xD3C DUP2 PUSH2 0xD27 JUMP JUMPDEST DUP2 EQ PUSH2 0xD47 JUMPI PUSH1 0x0 DUP1 REVERT JUMPDEST POP JUMP JUMPDEST PUSH1 0x0 DUP2 CALLDATALOAD SWAP1 POP PUSH2 0xD59 DUP2 PUSH2 0xD33 JUMP JUMPDEST SWAP3 SWAP2 POP POP JUMP JUMPDEST PUSH1 0x0 DUP1 PUSH1 0x40 DUP4 DUP6 SUB SLT ISZERO PUSH2 0xD76 JUMPI PUSH2 0xD75 PUSH2 0xCF1 JUMP JUMPDEST JUMPDEST PUSH1 0x0 PUSH2 0xD84 DUP6 DUP3 DUP7 ADD PUSH2 0xD12 JUMP JUMPDEST SWAP3 POP POP PUSH1 0x20 PUSH2 0xD95 DUP6 DUP3 DUP7 ADD PUSH2 0xD4A JUMP JUMPDEST SWAP2 POP POP SWAP3 POP SWAP3 SWAP1 POP JUMP JUMPDEST PUSH2 0xDA8 DUP2 PUSH2 0xCAB JUMP JUMPDEST DUP2 EQ PUSH2 0xDB3 JUMPI PUSH1 0x0 DUP1 REVERT JUMPDEST POP JUMP JUMPDEST PUSH1 0x0 DUP2 CALLDATALOAD SWAP1 POP PUSH2 0xDC5 DUP2 PUSH2 0xD9F JUMP JUMPDEST SWAP3 SWAP2 POP POP JUMP JUMPDEST PUSH1 0x0 PUSH1 0x20 DUP3 DUP5 SUB SLT ISZERO PUSH2 0xDE1 JUMPI PUSH2 0xDE0 PUSH2 0xCF1 JUMP JUMPDEST JUMPDEST PUSH1 0x0 PUSH2 0xDEF DUP5 DUP3 DUP6 ADD PUSH2 0xDB6 JUMP JUMPDEST SWAP2 POP POP SWAP3 SWAP2 POP POP JUMP JUMPDEST PUSH1 0x0 DUP2 SWAP1 POP SWAP2 SWAP1 POP JUMP JUMPDEST PUSH2 0xE0B DUP2 PUSH2 0xDF8 JUMP JUMPDEST DUP3 MSTORE POP POP JUMP JUMPDEST PUSH1 0x0 PUSH1 0x20 DUP3 ADD SWAP1 POP PUSH2 0xE26 PUSH1 0x0 DUP4 ADD DUP5 PUSH2 0xE02 JUMP JUMPDEST SWAP3 SWAP2 POP POP JUMP JUMPDEST PUSH1 0x0 DUP1 REVERT JUMPDEST PUSH1 0x0 DUP1 REVERT JUMPDEST PUSH1 0x0 PUSH1 0x1F NOT PUSH1 0x1F DUP4 ADD AND SWAP1 POP SWAP2 SWAP1 POP JUMP JUMPDEST PUSH32 0x4E487B7100000000000000000000000000000000000000000000000000000000 PUSH1 0x0 MSTORE PUSH1 0x41 PUSH1 0x4 MSTORE PUSH1 0x24 PUSH1 0x0 REVERT JUMPDEST PUSH2 0xE7F DUP3 PUSH2 0xE36 JUMP JUMPDEST DUP2 ADD DUP2 DUP2 LT PUSH8 0xFFFFFFFFFFFFFFFF DUP3 GT OR ISZERO PUSH2 0xE9E JUMPI PUSH2 0xE9D PUSH2 0xE47 JUMP JUMPDEST JUMPDEST DUP1 PUSH1 0x40 MSTORE POP POP POP JUMP JUMPDEST PUSH1 0x0 PUSH2 0xEB1 PUSH2 0xCE7 JUMP JUMPDEST SWAP1 POP PUSH2 0xEBD DUP3 DUP3 PUSH2 0xE76 JUMP JUMPDEST SWAP2 SWAP1 POP JUMP JUMPDEST PUSH1 0x0 PUSH8 0xFFFFFFFFFFFFFFFF DUP3 GT ISZERO PUSH2 0xEDD JUMPI PUSH2 0xEDC PUSH2 0xE47 JUMP JUMPDEST JUMPDEST PUSH2 0xEE6 DUP3 PUSH2 0xE36 JUMP JUMPDEST SWAP1 POP PUSH1 0x20 DUP2 ADD SWAP1 POP SWAP2 SWAP1 POP JUMP JUMPDEST DUP3 DUP2 DUP4 CALLDATACOPY PUSH1 0x0 DUP4 DUP4 ADD MSTORE POP POP POP JUMP JUMPDEST PUSH1 0x0 PUSH2 0xF15 PUSH2 0xF10 DUP5 PUSH2 0xEC2 JUMP JUMPDEST PUSH2 0xEA7 JUMP JUMPDEST SWAP1 POP DUP3 DUP2 MSTORE PUSH1 0x20 DUP2 ADD DUP5 DUP5 DUP5 ADD GT ISZERO PUSH2 0xF31 JUMPI PUSH2 0xF30 PUSH2 0xE31 JUMP JUMPDEST JUMPDEST PUSH2 0xF3C DUP5 DUP3 DUP6 PUSH2 0xEF3 JUMP JUMPDEST POP SWAP4 SWAP3 POP POP POP JUMP JUMPDEST PUSH1 0x0 DUP3 PUSH1 0x1F DUP4 ADD SLT PUSH2 0xF59 JUMPI PUSH2 0xF58 PUSH2 0xE2C JUMP JUMPDEST JUMPDEST DUP2 CALLDATALOAD PUSH2 0xF69 DUP5 DUP3 PUSH1 0x20 DUP7 ADD PUSH2 0xF02 JUMP JUMPDEST SWAP2 POP POP SWAP3 SWAP2 POP POP JUMP JUMPDEST PUSH1 0x0 DUP1 PUSH1 0x0 DUP1 PUSH1 0x80 DUP6 DUP8 SUB SLT ISZERO PUSH2 0xF8C JUMPI PUSH2 0xF8B PUSH2 0xCF1 JUMP JUMPDEST JUMPDEST PUSH1 0x0 DUP6 ADD CALLDATALOAD PUSH8 0xFFFFFFFFFFFFFFFF DUP2 GT ISZERO PUSH2 0xFAA JUMPI PUSH2 0xFA9 PUSH2 0xCF6 JUMP JUMPDEST JUMPDEST PUSH2 0xFB6 DUP8 DUP3 DUP9 ADD PUSH2 0xF44 JUMP JUMPDEST SWAP5 POP POP PUSH1 0x20 DUP6 ADD CALLDATALOAD PUSH8 0xFFFFFFFFFFFFFFFF DUP2 GT ISZERO PUSH2 0xFD7 JUMPI PUSH2 0xFD6 PUSH2 0xCF6 JUMP JUMPDEST JUMPDEST PUSH2 0xFE3 DUP8 DUP3 DUP9 ADD PUSH2 0xF44 JUMP JUMPDEST SWAP4 POP POP PUSH1 0x40 PUSH2 0xFF4 DUP8 DUP3 DUP9 ADD PUSH2 0xD12 JUMP JUMPDEST SWAP3 POP POP PUSH1 0x60 DUP6 ADD CALLDATALOAD PUSH8 0xFFFFFFFFFFFFFFFF DUP2 GT ISZERO PUSH2 0x1015 JUMPI PUSH2 0x1014 PUSH2 0xCF6 JUMP JUMPDEST JUMPDEST PUSH2 0x1021 DUP8 DUP3 DUP9 ADD PUSH2 0xF44 JUMP JUMPDEST SWAP2 POP POP SWAP3 SWAP6 SWAP2 SWAP5 POP SWAP3 POP JUMP JUMPDEST PUSH1 0x0 PUSH1 0x20 DUP3 DUP5 SUB SLT ISZERO PUSH2 0x1043 JUMPI PUSH2 0x1042 PUSH2 0xCF1 JUMP JUMPDEST JUMPDEST PUSH1 0x0 PUSH2 0x1051 DUP5 DUP3 DUP6 ADD PUSH2 0xD12 JUMP JUMPDEST SWAP2 POP POP SWAP3 SWAP2 POP POP JUMP JUMPDEST PUSH2 0x1063 DUP2 PUSH2 0xC57 JUMP JUMPDEST DUP3 MSTORE POP POP JUMP JUMPDEST PUSH1 0x0 DUP2 MLOAD SWAP1 POP SWAP2 SWAP1 POP JUMP JUMPDEST PUSH1 0x0 DUP3 DUP3 MSTORE PUSH1 0x20 DUP3 ADD SWAP1 POP SWAP3 SWAP2 POP POP JUMP JUMPDEST PUSH1 0x0 JUMPDEST DUP4 DUP2 LT ISZERO PUSH2 0x10A3 JUMPI DUP1 DUP3 ADD MLOAD DUP2 DUP5 ADD MSTORE PUSH1 0x20 DUP2 ADD SWAP1 POP PUSH2 0x1088 JUMP JUMPDEST PUSH1 0x0 DUP5 DUP5 ADD MSTORE POP POP POP POP JUMP JUMPDEST PUSH1 0x0 PUSH2 0x10BA DUP3 PUSH2 0x1069 JUMP JUMPDEST PUSH2 0x10C4 DUP2 DUP6 PUSH2 0x1074 JUMP JUMPDEST SWAP4 POP PUSH2 0x10D4 DUP2 DUP6 PUSH1 0x20 DUP7 ADD PUSH2 0x1085 JUMP JUMPDEST PUSH2 0x10DD DUP2 PUSH2 0xE36 JUMP JUMPDEST DUP5 ADD SWAP2 POP POP SWAP3 SWAP2 POP POP JUMP JUMPDEST PUSH2 0x10F1 DUP2 PUSH2 0xCAB JUMP JUMPDEST DUP3 MSTORE POP POP JUMP JUMPDEST PUSH1 0x0 PUSH1 0xFF DUP3 AND SWAP1 POP SWAP2 SWAP1 POP JUMP JUMPDEST PUSH2 0x110D DUP2 PUSH2 0x10F7 JUMP JUMPDEST DUP3 MSTORE POP POP JUMP JUMPDEST PUSH2 0x111C DUP2 PUSH2 0xD27 JUMP JUMPDEST DUP3 MSTORE POP POP JUMP JUMPDEST PUSH1 0x0 PUSH2 0x120 DUP4 ADD PUSH1 0x0 DUP4 ADD MLOAD PUSH2 0x113B PUSH1 0x0 DUP7 ADD DUP3 PUSH2 0x105A JUMP JUMPDEST POP PUSH1 0x20 DUP4 ADD MLOAD DUP5 DUP3 SUB PUSH1 0x20 DUP7 ADD MSTORE PUSH2 0x1153 DUP3 DUP3 PUSH2 0x10AF JUMP JUMPDEST SWAP2 POP POP PUSH1 0x40 DUP4 ADD MLOAD DUP5 DUP3 SUB PUSH1 0x40 DUP7 ADD MSTORE PUSH2 0x116D DUP3 DUP3 PUSH2 0x10AF JUMP JUMPDEST SWAP2 POP POP PUSH1 0x60 DUP4 ADD MLOAD PUSH2 0x1182 PUSH1 0x60 DUP7 ADD DUP3 PUSH2 0x105A JUMP JUMPDEST POP PUSH1 0x80 DUP4 ADD MLOAD DUP5 DUP3 SUB PUSH1 0x80 DUP7 ADD MSTORE PUSH2 0x119A DUP3 DUP3 PUSH2 0x10AF JUMP JUMPDEST SWAP2 POP POP PUSH1 0xA0 DUP4 ADD MLOAD PUSH2 0x11AF PUSH1 0xA0 DUP7 ADD DUP3 PUSH2 0x105A JUMP JUMPDEST POP PUSH1 0xC0 DUP4 ADD MLOAD PUSH2 0x11C2 PUSH1 0xC0 DUP7 ADD DUP3 PUSH2 0x10E8 JUMP JUMPDEST POP PUSH1 0xE0 DUP4 ADD MLOAD PUSH2 0x11D5 PUSH1 0xE0 DUP7 ADD DUP3 PUSH2 0x1104 JUMP JUMPDEST POP PUSH2 0x100 DUP4 ADD MLOAD PUSH2 0x11EA PUSH2 0x100 DUP7 ADD DUP3 PUSH2 0x1113 JUMP JUMPDEST POP DUP1 SWAP2 POP POP SWAP3 SWAP2 POP POP JUMP JUMPDEST PUSH1 0x0 PUSH1 0x20 DUP3 ADD SWAP1 POP DUP2 DUP2 SUB PUSH1 0x0 DUP4 ADD MSTORE PUSH2 0x120F DUP2 DUP5 PUSH2 0x1122 JUMP JUMPDEST SWAP1 POP SWAP3 SWAP2 POP POP JUMP JUMPDEST PUSH1 0x0 DUP3 DUP3 MSTORE PUSH1 0x20 DUP3 ADD SWAP1 POP SWAP3 SWAP2 POP POP JUMP JUMPDEST PUSH32 0x4167656E7441756469744C6F676765723A2063616C6C6572206973206E6F7420 PUSH1 0x0 DUP3 ADD MSTORE PUSH32 0x74686520676F7665726E616E636520726F6C6500000000000000000000000000 PUSH1 0x20 DUP3 ADD MSTORE POP JUMP JUMPDEST PUSH1 0x0 PUSH2 0x1284 PUSH1 0x33 DUP4 PUSH2 0x1217 JUMP JUMPDEST SWAP2 POP PUSH2 0x128F DUP3 PUSH2 0x1228 JUMP JUMPDEST PUSH1 0x40 DUP3 ADD SWAP1 POP SWAP2 SWAP1 POP JUMP JUMPDEST PUSH1 0x0 PUSH1 0x20 DUP3 ADD SWAP1 POP DUP2 DUP2 SUB PUSH1 0x0 DUP4 ADD MSTORE PUSH2 0x12B3 DUP2 PUSH2 0x1277 JUMP JUMPDEST SWAP1 POP SWAP2 SWAP1 POP JUMP JUMPDEST PUSH32 0x4167656E7441756469744C6F676765723A204465636973696F6E20646F657320 PUSH1 0x0 DUP3 ADD MSTORE PUSH32 0x6E6F742065786973740000000000000000000000000000000000000000000000 PUSH1 0x20 DUP3 ADD MSTORE POP JUMP JUMPDEST PUSH1 0x0 PUSH2 0x1316 PUSH1 0x29 DUP4 PUSH2 0x1217 JUMP JUMPDEST SWAP2 POP PUSH2 0x1321 DUP3 PUSH2 0x12BA JUMP JUMPDEST PUSH1 0x40 DUP3 ADD SWAP1 POP SWAP2 SWAP1 POP JUMP JUMPDEST PUSH1 0x0 PUSH1 0x20 DUP3 ADD SWAP1 POP DUP2 DUP2 SUB PUSH1 0x0 DUP4 ADD MSTORE PUSH2 0x1345 DUP2 PUSH2 0x1309 JUMP JUMPDEST SWAP1 POP SWAP2 SWAP1 POP JUMP JUMPDEST PUSH32 0x4E487B7100000000000000000000000000000000000000000000000000000000 PUSH1 0x0 MSTORE PUSH1 0x21 PUSH1 0x4 MSTORE PUSH1 0x24 PUSH1 0x0 REVERT JUMPDEST PUSH32 0x4167656E7441756469744C6F676765723A204465636973696F6E206D75737420 PUSH1 0x0 DUP3 ADD MSTORE PUSH32 0x6265206368616C6C656E67656420746F206265207265736F6C76656400000000 PUSH1 0x20 DUP3 ADD MSTORE POP JUMP JUMPDEST PUSH1 0x0 PUSH2 0x13D7 PUSH1 0x3C DUP4 PUSH2 0x1217 JUMP JUMPDEST SWAP2 POP PUSH2 0x13E2 DUP3 PUSH2 0x137B JUMP JUMPDEST PUSH1 0x40 DUP3 ADD SWAP1 POP SWAP2 SWAP1 POP JUMP JUMPDEST PUSH1 0x0 PUSH1 0x20 DUP3 ADD SWAP1 POP DUP2 DUP2 SUB PUSH1 0x0 DUP4 ADD MSTORE PUSH2 0x1406 DUP2 PUSH2 0x13CA JUMP JUMPDEST SWAP1 POP SWAP2 SWAP1 POP JUMP JUMPDEST PUSH32 0x4E487B7100000000000000000000000000000000000000000000000000000000 PUSH1 0x0 MSTORE PUSH1 0x11 PUSH1 0x4 MSTORE PUSH1 0x24 PUSH1 0x0 REVERT JUMPDEST PUSH1 0x0 PUSH2 0x1447 DUP3 PUSH2 0xDF8 JUMP JUMPDEST SWAP2 POP PUSH2 0x1452 DUP4 PUSH2 0xDF8 JUMP JUMPDEST SWAP3 POP DUP3 DUP3 SUB SWAP1 POP DUP2 DUP2 SLT PUSH1 0x0 DUP5 SLT AND DUP3 DUP3 SGT PUSH1 0x0 DUP6 SLT ISZERO AND OR ISZERO PUSH2 0x1479 JUMPI PUSH2 0x1478 PUSH2 0x140D JUMP JUMPDEST JUMPDEST SWAP3 SWAP2 POP POP JUMP JUMPDEST PUSH1 0x0 PUSH2 0x148A DUP3 PUSH2 0xDF8 JUMP JUMPDEST SWAP2 POP PUSH2 0x1495 DUP4 PUSH2 0xDF8 JUMP JUMPDEST SWAP3 POP DUP3 DUP3 ADD SWAP1 POP DUP3 DUP2 SLT ISZERO PUSH1 0x0 DUP4 SLT AND DUP4 DUP3 SLT PUSH1 0x0 DUP5 SLT ISZERO AND OR ISZERO PUSH2 0x14BD JUMPI PUSH2 0x14BC PUSH2 0x140D JUMP JUMPDEST JUMPDEST SWAP3 SWAP2 POP POP JUMP JUMPDEST PUSH2 0x14CC DUP2 PUSH2 0xD27 JUMP JUMPDEST DUP3 MSTORE POP POP JUMP JUMPDEST PUSH1 0x0 PUSH1 0x20 DUP3 ADD SWAP1 POP PUSH2 0x14E7 PUSH1 0x0 DUP4 ADD DUP5 PUSH2 0x14C3 JUMP JUMPDEST SWAP3 SWAP2 POP POP JUMP JUMPDEST PUSH32 0x4E487B7100000000000000000000000000000000000000000000000000000000 PUSH1 0x0 MSTORE PUSH1 0x22 PUSH1 0x4 MSTORE PUSH1 0x24 PUSH1 0x0 REVERT JUMPDEST PUSH1 0x0 PUSH1 0x2 DUP3 DIV SWAP1 POP PUSH1 0x1 DUP3 AND DUP1 PUSH2 0x1534 JUMPI PUSH1 0x7F DUP3 AND SWAP2 POP JUMPDEST PUSH1 0x20 DUP3 LT DUP2 SUB PUSH2 0x1547 JUMPI PUSH2 0x1546 PUSH2 0x14ED JUMP JUMPDEST JUMPDEST POP SWAP2 SWAP1 POP JUMP JUMPDEST PUSH1 0x0 DUP2 SWAP1 POP DUP2 PUSH1 0x0 MSTORE PUSH1 0x20 PUSH1 0x0 KECCAK256 SWAP1 POP SWAP2 SWAP1 POP JUMP JUMPDEST PUSH1 0x0 PUSH1 0x20 PUSH1 0x1F DUP4 ADD DIV SWAP1 POP SWAP2 SWAP1 POP JUMP JUMPDEST PUSH1 0x0 DUP3 DUP3 SHL SWAP1 POP SWAP3 SWAP2 POP POP JUMP JUMPDEST PUSH1 0x0 PUSH1 0x8 DUP4 MUL PUSH2 0x15AF PUSH32 0xFFFFFFFFFFFFFFFFFFFFFFFFFFFFFFFFFFFFFFFFFFFFFFFFFFFFFFFFFFFFFFFF DUP3 PUSH2 0x1572 JUMP JUMPDEST PUSH2 0x15B9 DUP7 DUP4 PUSH2 0x1572 JUMP JUMPDEST SWAP6 POP DUP1 NOT DUP5 AND SWAP4 POP DUP1 DUP7 AND DUP5 OR SWAP3 POP POP POP SWAP4 SWAP3 POP POP POP JUMP JUMPDEST PUSH1 0x0 DUP2 SWAP1 POP SWAP2 SWAP1 POP JUMP JUMPDEST PUSH1 0x0 PUSH2 0x15F6 PUSH2 0x15F1 PUSH2 0x15EC DUP5 PUSH2 0xC57 JUMP JUMPDEST PUSH2 0x15D1 JUMP JUMPDEST PUSH2 0xC57 JUMP JUMPDEST SWAP1 POP SWAP2 SWAP1 POP JUMP JUMPDEST PUSH1 0x0 DUP2 SWAP1 POP SWAP2 SWAP1 POP JUMP JUMPDEST PUSH2 0x1610 DUP4 PUSH2 0x15DB JUMP JUMPDEST PUSH2 0x1624 PUSH2 0x161C DUP3 PUSH2 0x15FD JUMP JUMPDEST DUP5 DUP5 SLOAD PUSH2 0x157F JUMP JUMPDEST DUP3 SSTORE POP POP POP POP JUMP JUMPDEST PUSH1 0x0 SWAP1 JUMP JUMPDEST PUSH2 0x1639 PUSH2 0x162C JUMP JUMPDEST PUSH2 0x1644 DUP2 DUP5 DUP5 PUSH2 0x1607 JUMP JUMPDEST POP POP POP JUMP JUMPDEST JUMPDEST DUP2 DUP2 LT ISZERO PUSH2 0x1668 JUMPI PUSH2 0x165D PUSH1 0x0 DUP3 PUSH2 0x1631 JUMP JUMPDEST PUSH1 0x1 DUP2 ADD SWAP1 POP PUSH2 0x164A JUMP JUMPDEST POP POP JUMP JUMPDEST PUSH1 0x1F DUP3 GT ISZERO PUSH2 0x16AD JUMPI PUSH2 0x167E DUP2 PUSH2 0x154D JUMP JUMPDEST PUSH2 0x1687 DUP5 PUSH2 0x1562 JUMP JUMPDEST DUP2 ADD PUSH1 0x20 DUP6 LT ISZERO PUSH2 0x1696 JUMPI DUP2 SWAP1 POP JUMPDEST PUSH2 0x16AA PUSH2 0x16A2 DUP6 PUSH2 0x1562 JUMP JUMPDEST DUP4 ADD DUP3 PUSH2 0x1649 JUMP JUMPDEST POP POP JUMPDEST POP POP POP JUMP JUMPDEST PUSH1 0x0 DUP3 DUP3 SHR SWAP1 POP SWAP3 SWAP2 POP POP JUMP JUMPDEST PUSH1 0x0 PUSH2 0x16D0 PUSH1 0x0 NOT DUP5 PUSH1 0x8 MUL PUSH2 0x16B2 JUMP JUMPDEST NOT DUP1 DUP4 AND SWAP2 POP POP SWAP3 SWAP2 POP POP JUMP JUMPDEST PUSH1 0x0 PUSH2 0x16E9 DUP4 DUP4 PUSH2 0x16BF JUMP JUMPDEST SWAP2 POP DUP3 PUSH1 0x2 MUL DUP3 OR SWAP1 POP SWAP3 SWAP2 POP POP JUMP JUMPDEST PUSH2 0x1702 DUP3 PUSH2 0x1069 JUMP JUMPDEST PUSH8 0xFFFFFFFFFFFFFFFF DUP2 GT ISZERO PUSH2 0x171B JUMPI PUSH2 0x171A PUSH2 0xE47 JUMP JUMPDEST JUMPDEST PUSH2 0x1725 DUP3 SLOAD PUSH2 0x151C JUMP JUMPDEST PUSH2 0x1730 DUP3 DUP3 DUP6 PUSH2 0x166C JUMP JUMPDEST PUSH1 0x0 PUSH1 0x20 SWAP1 POP PUSH1 0x1F DUP4 GT PUSH1 0x1 DUP2 EQ PUSH2 0x1763 JUMPI PUSH1 0x0 DUP5 ISZERO PUSH2 0x1751 JUMPI DUP3 DUP8 ADD MLOAD SWAP1 POP JUMPDEST PUSH2 0x175B DUP6 DUP3 PUSH2 0x16DD JUMP JUMPDEST DUP7 SSTORE POP PUSH2 0x17C3 JUMP JUMPDEST PUSH1 0x1F NOT DUP5 AND PUSH2 0x1771 DUP7 PUSH2 0x154D JUMP JUMPDEST PUSH1 0x0 JUMPDEST DUP3 DUP2 LT ISZERO PUSH2 0x1799 JUMPI DUP5 DUP10 ADD MLOAD DUP3 SSTORE PUSH1 0x1 DUP3 ADD SWAP2 POP PUSH1 0x20 DUP6 ADD SWAP5 POP PUSH1 0x20 DUP2 ADD SWAP1 POP PUSH2 0x1774 JUMP JUMPDEST DUP7 DUP4 LT ISZERO PUSH2 0x17B6 JUMPI DUP5 DUP10 ADD MLOAD PUSH2 0x17B2 PUSH1 0x1F DUP10 AND DUP3 PUSH2 0x16BF JUMP JUMPDEST DUP4 SSTORE POP JUMPDEST PUSH1 0x1 PUSH1 0x2 DUP9 MUL ADD DUP9 SSTORE POP POP POP JUMPDEST POP POP POP POP POP POP JUMP JUMPDEST PUSH1 0x0 PUSH2 0x17D6 DUP3 PUSH2 0xC57 JUMP JUMPDEST SWAP2 POP PUSH32 0xFFFFFFFFFFFFFFFFFFFFFFFFFFFFFFFFFFFFFFFFFFFFFFFFFFFFFFFFFFFFFFFF DUP3 SUB PUSH2 0x1808 JUMPI PUSH2 0x1807 PUSH2 0x140D JUMP JUMPDEST JUMPDEST PUSH1 0x1 DUP3 ADD SWAP1 POP SWAP2 SWAP1 POP JUMP JUMPDEST PUSH1 0x0 PUSH2 0x181E DUP3 PUSH2 0x1069 JUMP JUMPDEST PUSH2 0x1828 DUP2 DUP6 PUSH2 0x1217 JUMP JUMPDEST SWAP4 POP PUSH2 0x1838 DUP2 DUP6 PUSH1 0x20 DUP7 ADD PUSH2 0x1085 JUMP JUMPDEST PUSH2 0x1841 DUP2 PUSH2 0xE36 JUMP JUMPDEST DUP5 ADD SWAP2 POP POP SWAP3 SWAP2 POP POP JUMP JUMPDEST PUSH1 0x0 PUSH1 0x40 DUP3 ADD SWAP1 POP DUP2 DUP2 SUB PUSH1 0x0 DUP4 ADD MSTORE PUSH2 0x1866 DUP2 DUP6 PUSH2 0x1813 JUMP JUMPDEST SWAP1 POP PUSH2 0x1875 PUSH1 0x20 DUP4 ADD DUP5 PUSH2 0xCBD JUMP JUMPDEST SWAP4 SWAP3 POP POP POP JUMP JUMPDEST PUSH32 0x4167656E7441756469744C6F676765723A204465636973696F6E206E6F742069 PUSH1 0x0 DUP3 ADD MSTORE PUSH32 0x6E20636F727265637420737461746520746F206265206368616C6C656E676564 PUSH1 0x20 DUP3 ADD MSTORE POP JUMP JUMPDEST PUSH1 0x0 PUSH2 0x18D8 PUSH1 0x40 DUP4 PUSH2 0x1217 JUMP JUMPDEST SWAP2 POP PUSH2 0x18E3 DUP3 PUSH2 0x187C JUMP JUMPDEST PUSH1 0x40 DUP3 ADD SWAP1 POP SWAP2 SWAP1 POP JUMP JUMPDEST PUSH1 0x0 PUSH1 0x20 DUP3 ADD SWAP1 POP DUP2 DUP2 SUB PUSH1 0x0 DUP4 ADD MSTORE PUSH2 0x1907 DUP2 PUSH2 0x18CB JUMP JUMPDEST SWAP1 POP SWAP2 SWAP1 POP JUMP JUMPDEST PUSH32 0x4167656E7441756469744C6F676765723A206E657720676F7665726E616E6365 PUSH1 0x0 DUP3 ADD MSTORE PUSH32 0x20697320746865207A65726F2061646472657373000000000000000000000000 PUSH1 0x20 DUP3 ADD MSTORE POP JUMP JUMPDEST PUSH1 0x0 PUSH2 0x196A PUSH1 0x34 DUP4 PUSH2 0x1217 JUMP JUMPDEST SWAP2 POP PUSH2 0x1975 DUP3 PUSH2 0x190E JUMP JUMPDEST PUSH1 0x40 DUP3 ADD SWAP1 POP SWAP2 SWAP1 POP JUMP JUMPDEST PUSH1 0x0 PUSH1 0x20 DUP3 ADD SWAP1 POP DUP2 DUP2 SUB PUSH1 0x0 DUP4 ADD MSTORE PUSH2 0x1999 DUP2 PUSH2 0x195D JUMP JUMPDEST SWAP1 POP SWAP2 SWAP1 POP JUMP INVALID LOG2 PUSH5 0x6970667358 0x22 SLT KECCAK256 SWAP12 SLOAD SWAP14 SWAP12 BLOBHASH TSTORE 0x22 DUP16 0xD4 0xCD DUP14 MSIZE DUP1 CHAINID PUSH9 0xB1A37D2DE143F2CAE9 0x2E STATICCALL EQ 0xFC BLOBBASEFEE 0xD ORIGIN SWAP11 PUSH5 0x736F6C6343 STOP ADDMOD 0x1E STOP CALLER "
				},
				"gasEstimates": {
					"creation": {
						"codeDepositCost": "1322800",
						"executionCost": "25642",
						"totalCost": "1348442"
					},
					"external": {
						"agentReputation(address)": "2881",
						"challengeDecision(uint256)": "55206",
						"getDecision(uint256)": "infinite",
						"governanceRole()": "2537",
						"logDecision(string,string,uint256,string)": "infinite",
						"resolveDispute(uint256,bool)": "infinite",
						"totalDecisions()": "2430",
						"transferGovernance(address)": "26993"
					}
				},
				"methodIdentifiers": {
					"agentReputation(address)": "54de6e32",
					"challengeDecision(uint256)": "bc3e07df",
					"getDecision(uint256)": "af754848",
					"governanceRole()": "221bfa48",
					"logDecision(string,string,uint256,string)": "70ace0d6",
					"resolveDispute(uint256,bool)": "34b25ee2",
					"totalDecisions()": "0c96a61a",
					"transferGovernance(address)": "d38bfff4"
				}
			},
			"storageLayout": {
				"storage": [
					{
						"astId": 27,
						"contract": "AgentAuditLogger.sol:AgentAuditLogger",
						"label": "totalDecisions",
						"offset": 0,
						"slot": "0",
						"type": "t_uint256"
					},
					{
						"astId": 32,
						"contract": "AgentAuditLogger.sol:AgentAuditLogger",
						"label": "decisions",
						"offset": 0,
						"slot": "1",
						"type": "t_mapping(t_uint256,t_struct(Decision)25_storage)"
					},
					{
						"astId": 36,
						"contract": "AgentAuditLogger.sol:AgentAuditLogger",
						"label": "agentReputation",
						"offset": 0,
						"slot": "2",
						"type": "t_mapping(t_address,t_int256)"
					},
					{
						"astId": 38,
						"contract": "AgentAuditLogger.sol:AgentAuditLogger",
						"label": "governanceRole",
						"offset": 0,
						"slot": "3",
						"type": "t_address"
					}
				],
				"types": {
					"t_address": {
						"encoding": "inplace",
						"label": "address",
						"numberOfBytes": "20"
					},
					"t_bool": {
						"encoding": "inplace",
						"label": "bool",
						"numberOfBytes": "1"
					},
					"t_int256": {
						"encoding": "inplace",
						"label": "int256",
						"numberOfBytes": "32"
					},
					"t_mapping(t_address,t_int256)": {
						"encoding": "mapping",
						"key": "t_address",
						"label": "mapping(address => int256)",
						"numberOfBytes": "32",
						"value": "t_int256"
					},
					"t_mapping(t_uint256,t_struct(Decision)25_storage)": {
						"encoding": "mapping",
						"key": "t_uint256",
						"label": "mapping(uint256 => struct AgentAuditLogger.Decision)",
						"numberOfBytes": "32",
						"value": "t_struct(Decision)25_storage"
					},
					"t_string_storage": {
						"encoding": "bytes",
						"label": "string",
						"numberOfBytes": "32"
					},
					"t_struct(Decision)25_storage": {
						"encoding": "inplace",
						"label": "struct AgentAuditLogger.Decision",
						"members": [
							{
								"astId": 8,
								"contract": "AgentAuditLogger.sol:AgentAuditLogger",
								"label": "id",
								"offset": 0,
								"slot": "0",
								"type": "t_uint256"
							},
							{
								"astId": 10,
								"contract": "AgentAuditLogger.sol:AgentAuditLogger",
								"label": "action",
								"offset": 0,
								"slot": "1",
								"type": "t_string_storage"
							},
							{
								"astId": 12,
								"contract": "AgentAuditLogger.sol:AgentAuditLogger",
								"label": "reason",
								"offset": 0,
								"slot": "2",
								"type": "t_string_storage"
							},
							{
								"astId": 14,
								"contract": "AgentAuditLogger.sol:AgentAuditLogger",
								"label": "amount",
								"offset": 0,
								"slot": "3",
								"type": "t_uint256"
							},
							{
								"astId": 16,
								"contract": "AgentAuditLogger.sol:AgentAuditLogger",
								"label": "explanationHash",
								"offset": 0,
								"slot": "4",
								"type": "t_string_storage"
							},
							{
								"astId": 18,
								"contract": "AgentAuditLogger.sol:AgentAuditLogger",
								"label": "timestamp",
								"offset": 0,
								"slot": "5",
								"type": "t_uint256"
							},
							{
								"astId": 20,
								"contract": "AgentAuditLogger.sol:AgentAuditLogger",
								"label": "agent",
								"offset": 0,
								"slot": "6",
								"type": "t_address"
							},
							{
								"astId": 22,
								"contract": "AgentAuditLogger.sol:AgentAuditLogger",
								"label": "status",
								"offset": 20,
								"slot": "6",
								"type": "t_uint8"
							},
							{
								"astId": 24,
								"contract": "AgentAuditLogger.sol:AgentAuditLogger",
								"label": "disputed",
								"offset": 21,
								"slot": "6",
								"type": "t_bool"
							}
						],
						"numberOfBytes": "224"
					},
					"t_uint256": {
						"encoding": "inplace",
						"label": "uint256",
						"numberOfBytes": "32"
					},
					"t_uint8": {
						"encoding": "inplace",
						"label": "uint8",
						"numberOfBytes": "1"
					}
				}
			},
			"userdoc": {
				"kind": "user",
				"methods": {},
				"version": 1
			}
		}
	}
}