{
	"AgentAuditLogger.sol": {
		"AgentAuditLogger": {
			"abi": [
				{
					"inputs": [],
					"stateMutability": "nonpayable",
					"type": "constructor"
				},
				{
					"anonymous": false,
					"inputs": [
						{
							"indexed": true,
							"internalType": "uint256",
							"name": "id",
							"type": "uint256"
						},
						{
							"indexed": false,
							"internalType": "address",
							"name": "challenger",
							"type": "address"
						}
					],
					"name": "DecisionChallenged",
					"type": "event"
				},
				{
					"anonymous": false,
					"inputs": [
						{
							"indexed": true,
							"internalType": "uint256",
							"name": "id",
							"type": "uint256"
						},
						{
							"indexed": false,
							"internalType": "string",
							"name": "action",
							"type": "string"
						},
						{
							"indexed": false,
							"internalType": "address",
							"name": "agent",
							"type": "address"
						}
					],
					"name": "DecisionLogged",
					"type": "event"
				},
				{
					"anonymous": false,
					"inputs": [
						{
							"indexed": true,
							"internalType": "uint256",
							"name": "id",
							"type": "uint256"
						},
						{
							"indexed": false,
							"internalType": "bool",
							"name": "upheld",
							"type": "bool"
						}
					],
					"name": "DisputeResolved",
					"type": "event"
				},
				{
					"inputs": [
						{
							"internalType": "uint256",
							"name": "_id",
							"type": "uint256"
						}
					],
					"name": "challengeDecision",
					"outputs": [],
					"stateMutability": "nonpayable",
					"type": "function"
				},
				{
					"inputs": [
						{
							"internalType": "uint256",
							"name": "_id",
							"type": "uint256"
						}
					],
					"name": "getDecision",
					"outputs": [
						{
							"components": [
								{
									"internalType": "uint256",
									"name": "id",
									"type": "uint256"
								},
								{
									"internalType": "string",
									"name": "action",
									"type": "string"
								},
								{
									"internalType": "string",
									"name": "reason",
									"type": "string"
								},
								{
									"internalType": "uint256",
									"name": "amount",
									"type": "uint256"
								},
								{
									"internalType": "string",
									"name": "explanationHash",
									"type": "string"
								},
								{
									"internalType": "uint256",
									"name": "timestamp",
									"type": "uint256"
								},
								{
									"internalType": "address",
									"name": "agent",
									"type": "address"
								},
								{
									"internalType": "uint8",
									"name": "status",
									"type": "uint8"
								},
								{
									"internalType": "bool",
									"name": "disputed",
									"type": "bool"
								}
							],
							"internalType": "struct AgentAuditLogger.Decision",
							"name": "",
							"type": "tuple"
						}
					],
					"stateMutability": "view",
					"type": "function"
				},
				{
					"inputs": [],
					"name": "governanceRole",
					"outputs": [
						{
							"internalType": "address",
							"name": "",
							"type": "address"
						}
					],
					"stateMutability": "view",
					"type": "function"
				},
				{
					"inputs": [
						{
							"internalType": "string",
							"name": "_action",
							"type": "string"
						},
						{
							"internalType": "string",
							"name": "_reason",
							"type": "string"
						},
						{
							"internalType": "uint256",
							"name": "_amount",
							"type": "uint256"
						},
						{
							"internalType": "string",
							"name": "_explanationHash",
							"type": "string"
						}
					],
					"name": "logDecision",
					"outputs": [
						{
							"internalType": "uint256",
							"name": "",
							"type": "uint256"
						}
					],
					"stateMutability": "nonpayable",
					"type": "function"
				},
				{
					"inputs": [
						{
							"internalType": "uint256",
							"name": "_id",
							"type": "uint256"
						},
						{
							"internalType": "bool",
							"name": "_upheld",
							"type": "bool"
						}
					],
					"name": "resolveDispute",
					"outputs": [],
					"stateMutability": "nonpayable",
					"type": "function"
				},
				{
					"inputs": [],
					"name": "totalDecisions",
					"outputs": [
						{
							"internalType": "uint256",
							"name": "",
							"type": "uint256"
						}
					],
					"stateMutability": "view",
					"type": "function"
				},
				{
					"inputs": [
						{
							"internalType": "address",
							"name": "_newGovernance",
							"type": "address"
						}
					],
					"name": "transferGovernance",
					"outputs": [],
					"stateMutability": "nonpayable",
					"type": "function"
				}
			],
			"devdoc": {
				"details": "Protocol for transparent logging, explainability, and verification of decisions made by autonomous agents.",
				"kind": "dev",
				"methods": {
					"challengeDecision(uint256)": {
						"details": "Allows any user or governing body to challenge an agent's decision.",
						"params": {
							"_id": "The ID of the decision to challenge."
						}
					},
					"constructor": {
						"details": "Sets the deployer as the initial governance/DAO role."
					},
					"getDecision(uint256)": {
						"details": "Retrieves the full details of a decision.",
						"params": {
							"_id": "The ID of the decision."
						},
						"returns": {
							"_0": "The Decision struct containing all properties."
						}
					},
					"logDecision(string,string,uint256,string)": {
						"details": "Log a decision made by an autonomous agent.",
						"params": {
							"_action": "The action taken.",
							"_amount": "Any numeric value or token amount associated with the decision.",
							"_reason": "Human-readable explanation for the decision."
						},
						"returns": {
							"_0": "id The unique ID of the logged decision."
						}
					},
					"resolveDispute(uint256,bool)": {
						"details": "Resolves a challenged decision. Only callable by the governance role.",
						"params": {
							"_id": "The ID of the decision.",
							"_upheld": "True if the challenge was upheld (agent was wrong/overridden), false if rejected (agent was right)."
						}
					},
					"transferGovernance(address)": {
						"details": "Allows updating the governance role (e.g., transferring control to a DAO).",
						"params": {
							"_newGovernance": "The address of the new governance contract/wallet."
						}
					}
				},
				"title": "AgentAuditLogger",
				"version": 1
			},
			"evm": {
				"assembly": "    /* \"AgentAuditLogger.sol\":207:4488  contract AgentAuditLogger {... */\n  mstore(0x40, 0x80)\n    /* \"AgentAuditLogger.sol\":1179:1237  constructor() {... */\n  callvalue\n  dup1\n  iszero\n  tag_1\n  jumpi\n  0x00\n  dup1\n  revert\ntag_1:\n  pop\n    /* \"AgentAuditLogger.sol\":1220:1230  msg.sender */\n  caller\n    /* \"AgentAuditLogger.sol\":1203:1217  governanceRole */\n  0x02\n  0x00\n    /* \"AgentAuditLogger.sol\":1203:1230  governanceRole = msg.sender */\n  0x0100\n  exp\n  dup2\n  sload\n  dup2\n  0xffffffffffffffffffffffffffffffffffffffff\n  mul\n  not\n  and\n  swap1\n  dup4\n  0xffffffffffffffffffffffffffffffffffffffff\n  and\n  mul\n  or\n  swap1\n  sstore\n  pop\n    /* \"AgentAuditLogger.sol\":207:4488  contract AgentAuditLogger {... */\n  dataSize(sub_0)\n  dup1\n  dataOffset(sub_0)\n  0x00\n  codecopy\n  0x00\n  return\nstop\n\nsub_0: assembly {\n        /* \"AgentAuditLogger.sol\":207:4488  contract AgentAuditLogger {... */\n      mstore(0x40, 0x80)\n      callvalue\n      dup1\n      iszero\n      tag_1\n      jumpi\n      0x00\n      dup1\n      revert\n    tag_1:\n      pop\n      jumpi(tag_2, lt(calldatasize, 0x04))\n      shr(0xe0, calldataload(0x00))\n      dup1\n      0x70ace0d6\n      gt\n      tag_10\n      jumpi\n      dup1\n      0x70ace0d6\n      eq\n      tag_6\n      jumpi\n      dup1\n      0xaf754848\n      eq\n      tag_7\n      jumpi\n      dup1\n      0xbc3e07df\n      eq\n      tag_8\n      jumpi\n      dup1\n      0xd38bfff4\n      eq\n      tag_9\n      jumpi\n      jump(tag_2)\n    tag_10:\n      dup1\n      0x0c96a61a\n      eq\n      tag_3\n      jumpi\n      dup1\n      0x221bfa48\n      eq\n      tag_4\n      jumpi\n      dup1\n      0x34b25ee2\n      eq\n      tag_5\n      jumpi\n    tag_2:\n      0x00\n      dup1\n      revert\n        /* \"AgentAuditLogger.sol\":672:701  uint256 public totalDecisions */\n    tag_3:\n      tag_11\n      tag_12\n      jump\t// in\n    tag_11:\n      mload(0x40)\n      tag_13\n      swap2\n      swap1\n      tag_14\n      jump\t// in\n    tag_13:\n      mload(0x40)\n      dup1\n      swap2\n      sub\n      swap1\n      return\n        /* \"AgentAuditLogger.sol\":854:883  address public governanceRole */\n    tag_4:\n      tag_15\n      tag_16\n      jump\t// in\n    tag_15:\n      mload(0x40)\n      tag_17\n      swap2\n      swap1\n      tag_18\n      jump\t// in\n    tag_17:\n      mload(0x40)\n      dup1\n      swap2\n      sub\n      swap1\n      return\n        /* \"AgentAuditLogger.sol\":3657:4112  function resolveDispute(uint256 _id, bool _upheld) public onlyGovernance {... */\n    tag_5:\n      tag_19\n      0x04\n      dup1\n      calldatasize\n      sub\n      dup2\n      add\n      swap1\n      tag_20\n      swap2\n      swap1\n      tag_21\n      jump\t// in\n    tag_20:\n      tag_22\n      jump\t// in\n    tag_19:\n      stop\n        /* \"AgentAuditLogger.sol\":2130:2768  function logDecision(string memory _action, string memory _reason, uint256 _amount, string memory _explanationHash) public returns (uint256) {... */\n    tag_6:\n      tag_23\n      0x04\n      dup1\n      calldatasize\n      sub\n      dup2\n      add\n      swap1\n      tag_24\n      swap2\n      swap1\n      tag_25\n      jump\t// in\n    tag_24:\n      tag_26\n      jump\t// in\n    tag_23:\n      mload(0x40)\n      tag_27\n      swap2\n      swap1\n      tag_14\n      jump\t// in\n    tag_27:\n      mload(0x40)\n      dup1\n      swap2\n      sub\n      swap1\n      return\n        /* \"AgentAuditLogger.sol\":4292:4486  function getDecision(uint256 _id) public view returns (Decision memory) {... */\n    tag_7:\n      tag_28\n      0x04\n      dup1\n      calldatasize\n      sub\n      dup2\n      add\n      swap1\n      tag_29\n      swap2\n      swap1\n      tag_30\n      jump\t// in\n    tag_29:\n      tag_31\n      jump\t// in\n    tag_28:\n      mload(0x40)\n      tag_32\n      swap2\n      swap1\n      tag_33\n      jump\t// in\n    tag_32:\n      mload(0x40)\n      dup1\n      swap2\n      sub\n      swap1\n      return\n        /* \"AgentAuditLogger.sol\":2925:3389  function challengeDecision(uint256 _id) public {... */\n    tag_8:\n      tag_34\n      0x04\n      dup1\n      calldatasize\n      sub\n      dup2\n      add\n      swap1\n      tag_35\n      swap2\n      swap1\n      tag_30\n      jump\t// in\n    tag_35:\n      tag_36\n      jump\t// in\n    tag_34:\n      stop\n        /* \"AgentAuditLogger.sol\":1578:1803  function transferGovernance(address _newGovernance) public onlyGovernance {... */\n    tag_9:\n      tag_37\n      0x04\n      dup1\n      calldatasize\n      sub\n      dup2\n      add\n      swap1\n      tag_38\n      swap2\n      swap1\n      tag_39\n      jump\t// in\n    tag_38:\n      tag_40\n      jump\t// in\n    tag_37:\n      stop\n        /* \"AgentAuditLogger.sol\":672:701  uint256 public totalDecisions */\n    tag_12:\n      sload(0x00)\n      dup2\n      jump\t// out\n        /* \"AgentAuditLogger.sol\":854:883  address public governanceRole */\n    tag_16:\n      0x02\n      0x00\n      swap1\n      sload\n      swap1\n      0x0100\n      exp\n      swap1\n      div\n      0xffffffffffffffffffffffffffffffffffffffff\n      and\n      dup2\n      jump\t// out\n        /* \"AgentAuditLogger.sol\":3657:4112  function resolveDispute(uint256 _id, bool _upheld) public onlyGovernance {... */\n    tag_22:\n        /* \"AgentAuditLogger.sol\":1301:1315  governanceRole */\n      0x02\n      0x00\n      swap1\n      sload\n      swap1\n      0x0100\n      exp\n      swap1\n      div\n      0xffffffffffffffffffffffffffffffffffffffff\n      and\n        /* \"AgentAuditLogger.sol\":1287:1315  msg.sender == governanceRole */\n      0xffffffffffffffffffffffffffffffffffffffff\n      and\n        /* \"AgentAuditLogger.sol\":1287:1297  msg.sender */\n      caller\n        /* \"AgentAuditLogger.sol\":1287:1315  msg.sender == governanceRole */\n      0xffffffffffffffffffffffffffffffffffffffff\n      and\n      eq\n        /* \"AgentAuditLogger.sol\":1279:1371  require(msg.sender == governanceRole, \"AgentAuditLogger: caller is not the governance role\") */\n      tag_42\n      jumpi\n      mload(0x40)\n      0x08c379a000000000000000000000000000000000000000000000000000000000\n      dup2\n      mstore\n      0x04\n      add\n      tag_43\n      swap1\n      tag_44\n      jump\t// in\n    tag_43:\n      mload(0x40)\n      dup1\n      swap2\n      sub\n      swap1\n      revert\n    tag_42:\n        /* \"AgentAuditLogger.sol\":3754:3768  totalDecisions */\n      sload(0x00)\n        /* \"AgentAuditLogger.sol\":3748:3751  _id */\n      dup3\n        /* \"AgentAuditLogger.sol\":3748:3768  _id < totalDecisions */\n      lt\n        /* \"AgentAuditLogger.sol\":3740:3814  require(_id < totalDecisions, \"AgentAuditLogger: Decision does not exist\") */\n      tag_46\n      jumpi\n      mload(0x40)\n      0x08c379a000000000000000000000000000000000000000000000000000000000\n      dup2\n      mstore\n      0x04\n      add\n      tag_47\n      swap1\n      tag_48\n      jump\t// in\n    tag_47:\n      mload(0x40)\n      dup1\n      swap2\n      sub\n      swap1\n      revert\n    tag_46:\n        /* \"AgentAuditLogger.sol\":3824:3849  Decision storage decision */\n      0x00\n        /* \"AgentAuditLogger.sol\":3852:3861  decisions */\n      0x01\n        /* \"AgentAuditLogger.sol\":3852:3866  decisions[_id] */\n      0x00\n        /* \"AgentAuditLogger.sol\":3862:3865  _id */\n      dup5\n        /* \"AgentAuditLogger.sol\":3852:3866  decisions[_id] */\n      dup2\n      mstore\n      0x20\n      add\n      swap1\n      dup2\n      mstore\n      0x20\n      add\n      0x00\n      keccak256\n        /* \"AgentAuditLogger.sol\":3824:3866  Decision storage decision = decisions[_id] */\n      swap1\n      pop\n        /* \"AgentAuditLogger.sol\":3918:3935  Status.Challenged */\n      0x01\n        /* \"AgentAuditLogger.sol\":3912:3936  uint8(Status.Challenged) */\n      0x02\n      dup2\n      gt\n      iszero\n      tag_49\n      jumpi\n      tag_50\n      tag_51\n      jump\t// in\n    tag_50:\n    tag_49:\n        /* \"AgentAuditLogger.sol\":3893:3936  decision.status == uint8(Status.Challenged) */\n      0xff\n      and\n        /* \"AgentAuditLogger.sol\":3893:3901  decision */\n      dup2\n        /* \"AgentAuditLogger.sol\":3893:3908  decision.status */\n      0x06\n      add\n      0x14\n      swap1\n      sload\n      swap1\n      0x0100\n      exp\n      swap1\n      div\n      0xff\n      and\n        /* \"AgentAuditLogger.sol\":3893:3936  decision.status == uint8(Status.Challenged) */\n      0xff\n      and\n      eq\n        /* \"AgentAuditLogger.sol\":3885:4001  require(decision.status == uint8(Status.Challenged), \"AgentAuditLogger: Decision must be challenged to be resolved\") */\n      tag_52\n      jumpi\n      mload(0x40)\n      0x08c379a000000000000000000000000000000000000000000000000000000000\n      dup2\n      mstore\n      0x04\n      add\n      tag_53\n      swap1\n      tag_54\n      jump\t// in\n    tag_53:\n      mload(0x40)\n      dup1\n      swap2\n      sub\n      swap1\n      revert\n    tag_52:\n        /* \"AgentAuditLogger.sol\":4036:4051  Status.Resolved */\n      0x02\n        /* \"AgentAuditLogger.sol\":4030:4052  uint8(Status.Resolved) */\n      dup1\n      dup2\n      gt\n      iszero\n      tag_55\n      jumpi\n      tag_56\n      tag_51\n      jump\t// in\n    tag_56:\n    tag_55:\n        /* \"AgentAuditLogger.sol\":4012:4020  decision */\n      dup2\n        /* \"AgentAuditLogger.sol\":4012:4027  decision.status */\n      0x06\n      add\n      0x14\n        /* \"AgentAuditLogger.sol\":4012:4052  decision.status = uint8(Status.Resolved) */\n      0x0100\n      exp\n      dup2\n      sload\n      dup2\n      0xff\n      mul\n      not\n      and\n      swap1\n      dup4\n      0xff\n      and\n      mul\n      or\n      swap1\n      sstore\n      pop\n        /* \"AgentAuditLogger.sol\":4092:4095  _id */\n      dup3\n        /* \"AgentAuditLogger.sol\":4076:4105  DisputeResolved(_id, _upheld) */\n      0x5a87909bff68caaaaf0b3fd9c74eeccc928832f879315e5c6fb7a73612f26c0c\n        /* \"AgentAuditLogger.sol\":4097:4104  _upheld */\n      dup4\n        /* \"AgentAuditLogger.sol\":4076:4105  DisputeResolved(_id, _upheld) */\n      mload(0x40)\n      tag_57\n      swap2\n      swap1\n      tag_58\n      jump\t// in\n    tag_57:\n      mload(0x40)\n      dup1\n      swap2\n      sub\n      swap1\n      log2\n        /* \"AgentAuditLogger.sol\":3730:4112  {... */\n      pop\n        /* \"AgentAuditLogger.sol\":3657:4112  function resolveDispute(uint256 _id, bool _upheld) public onlyGovernance {... */\n      pop\n      pop\n      jump\t// out\n        /* \"AgentAuditLogger.sol\":2130:2768  function logDecision(string memory _action, string memory _reason, uint256 _amount, string memory _explanationHash) public returns (uint256) {... */\n    tag_26:\n        /* \"AgentAuditLogger.sol\":2262:2269  uint256 */\n      0x00\n        /* \"AgentAuditLogger.sol\":2281:2291  uint256 id */\n      dup1\n        /* \"AgentAuditLogger.sol\":2294:2308  totalDecisions */\n      sload(0x00)\n        /* \"AgentAuditLogger.sol\":2281:2308  uint256 id = totalDecisions */\n      swap1\n      pop\n        /* \"AgentAuditLogger.sol\":2343:2660  Decision({... */\n      mload(0x40)\n      dup1\n      0x0120\n      add\n      0x40\n      mstore\n      dup1\n        /* \"AgentAuditLogger.sol\":2370:2372  id */\n      dup3\n        /* \"AgentAuditLogger.sol\":2343:2660  Decision({... */\n      dup2\n      mstore\n      0x20\n      add\n        /* \"AgentAuditLogger.sol\":2394:2401  _action */\n      dup8\n        /* \"AgentAuditLogger.sol\":2343:2660  Decision({... */\n      dup2\n      mstore\n      0x20\n      add\n        /* \"AgentAuditLogger.sol\":2423:2430  _reason */\n      dup7\n        /* \"AgentAuditLogger.sol\":2343:2660  Decision({... */\n      dup2\n      mstore\n      0x20\n      add\n        /* \"AgentAuditLogger.sol\":2452:2459  _amount */\n      dup6\n        /* \"AgentAuditLogger.sol\":2343:2660  Decision({... */\n      dup2\n      mstore\n      0x20\n      add\n        /* \"AgentAuditLogger.sol\":2490:2506  _explanationHash */\n      dup5\n        /* \"AgentAuditLogger.sol\":2343:2660  Decision({... */\n      dup2\n      mstore\n      0x20\n      add\n        /* \"AgentAuditLogger.sol\":2531:2546  block.timestamp */\n      timestamp\n        /* \"AgentAuditLogger.sol\":2343:2660  Decision({... */\n      dup2\n      mstore\n      0x20\n      add\n        /* \"AgentAuditLogger.sol\":2567:2577  msg.sender */\n      caller\n        /* \"AgentAuditLogger.sol\":2343:2660  Decision({... */\n      0xffffffffffffffffffffffffffffffffffffffff\n      and\n      dup2\n      mstore\n      0x20\n      add\n        /* \"AgentAuditLogger.sol\":2605:2619  Status.Pending */\n      0x00\n        /* \"AgentAuditLogger.sol\":2599:2620  uint8(Status.Pending) */\n      0x02\n      dup2\n      gt\n      iszero\n      tag_60\n      jumpi\n      tag_61\n      tag_51\n      jump\t// in\n    tag_61:\n    tag_60:\n        /* \"AgentAuditLogger.sol\":2343:2660  Decision({... */\n      0xff\n      and\n      dup2\n      mstore\n      0x20\n      add\n        /* \"AgentAuditLogger.sol\":2644:2649  false */\n      0x00\n        /* \"AgentAuditLogger.sol\":2343:2660  Decision({... */\n      iszero\n      iszero\n      dup2\n      mstore\n      pop\n        /* \"AgentAuditLogger.sol\":2327:2336  decisions */\n      0x01\n        /* \"AgentAuditLogger.sol\":2327:2340  decisions[id] */\n      0x00\n        /* \"AgentAuditLogger.sol\":2337:2339  id */\n      dup4\n        /* \"AgentAuditLogger.sol\":2327:2340  decisions[id] */\n      dup2\n      mstore\n      0x20\n      add\n      swap1\n      dup2\n      mstore\n      0x20\n      add\n      0x00\n      keccak256\n        /* \"AgentAuditLogger.sol\":2327:2660  decisions[id] = Decision({... */\n      0x00\n      dup3\n      add\n      mload\n      dup2\n      0x00\n      add\n      sstore\n      0x20\n      dup3\n      add\n      mload\n      dup2\n      0x01\n      add\n      swap1\n      dup2\n      tag_62\n      swap2\n      swap1\n      tag_63\n      jump\t// in\n    tag_62:\n      pop\n      0x40\n      dup3\n      add\n      mload\n      dup2\n      0x02\n      add\n      swap1\n      dup2\n      tag_64\n      swap2\n      swap1\n      tag_63\n      jump\t// in\n    tag_64:\n      pop\n      0x60\n      dup3\n      add\n      mload\n      dup2\n      0x03\n      add\n      sstore\n      0x80\n      dup3\n      add\n      mload\n      dup2\n      0x04\n      add\n      swap1\n      dup2\n      tag_65\n      swap2\n      swap1\n      tag_63\n      jump\t// in\n    tag_65:\n      pop\n      0xa0\n      dup3\n      add\n      mload\n      dup2\n      0x05\n      add\n      sstore\n      0xc0\n      dup3\n      add\n      mload\n      dup2\n      0x06\n      add\n      exp(0x0100, 0x00)\n      dup2\n      sload\n      dup2\n      0xffffffffffffffffffffffffffffffffffffffff\n      mul\n      not\n      and\n      swap1\n      dup4\n      0xffffffffffffffffffffffffffffffffffffffff\n      and\n      mul\n      or\n      swap1\n      sstore\n      pop\n      0xe0\n      dup3\n      add\n      mload\n      dup2\n      0x06\n      add\n      exp(0x0100, 0x14)\n      dup2\n      sload\n      dup2\n      0xff\n      mul\n      not\n      and\n      swap1\n      dup4\n      0xff\n      and\n      mul\n      or\n      swap1\n      sstore\n      pop\n      0x0100\n      dup3\n      add\n      mload\n      dup2\n      0x06\n      add\n      exp(0x0100, 0x15)\n      dup2\n      sload\n      dup2\n      0xff\n      mul\n      not\n      and\n      swap1\n      dup4\n      iszero\n      iszero\n      mul\n      or\n      swap1\n      sstore\n      pop\n      swap1\n      pop\n      pop\n        /* \"AgentAuditLogger.sol\":2671:2685  totalDecisions */\n      0x00\n      dup1\n        /* \"AgentAuditLogger.sol\":2671:2687  totalDecisions++ */\n      dup2\n      sload\n      dup1\n      swap3\n      swap2\n      swap1\n      tag_66\n      swap1\n      tag_67\n      jump\t// in\n    tag_66:\n      swap2\n      swap1\n      pop\n      sstore\n      pop\n        /* \"AgentAuditLogger.sol\":2718:2720  id */\n      dup1\n        /* \"AgentAuditLogger.sol\":2703:2742  DecisionLogged(id, _action, msg.sender) */\n      0x9dd457e4fc133d6824e882079b7f2b0fdc92a7158363dbf8abd880324603b108\n        /* \"AgentAuditLogger.sol\":2722:2729  _action */\n      dup8\n        /* \"AgentAuditLogger.sol\":2731:2741  msg.sender */\n      caller\n        /* \"AgentAuditLogger.sol\":2703:2742  DecisionLogged(id, _action, msg.sender) */\n      mload(0x40)\n      tag_68\n      swap3\n      swap2\n      swap1\n      tag_69\n      jump\t// in\n    tag_68:\n      mload(0x40)\n      dup1\n      swap2\n      sub\n      swap1\n      log2\n        /* \"AgentAuditLogger.sol\":2759:2761  id */\n      dup1\n        /* \"AgentAuditLogger.sol\":2752:2761  return id */\n      swap2\n      pop\n      pop\n        /* \"AgentAuditLogger.sol\":2130:2768  function logDecision(string memory _action, string memory _reason, uint256 _amount, string memory _explanationHash) public returns (uint256) {... */\n      swap5\n      swap4\n      pop\n      pop\n      pop\n      pop\n      jump\t// out\n        /* \"AgentAuditLogger.sol\":4292:4486  function getDecision(uint256 _id) public view returns (Decision memory) {... */\n    tag_31:\n        /* \"AgentAuditLogger.sol\":4347:4362  Decision memory */\n      tag_70\n      tag_71\n      jump\t// in\n    tag_70:\n        /* \"AgentAuditLogger.sol\":4388:4402  totalDecisions */\n      sload(0x00)\n        /* \"AgentAuditLogger.sol\":4382:4385  _id */\n      dup3\n        /* \"AgentAuditLogger.sol\":4382:4402  _id < totalDecisions */\n      lt\n        /* \"AgentAuditLogger.sol\":4374:4448  require(_id < totalDecisions, \"AgentAuditLogger: Decision does not exist\") */\n      tag_73\n      jumpi\n      mload(0x40)\n      0x08c379a000000000000000000000000000000000000000000000000000000000\n      dup2\n      mstore\n      0x04\n      add\n      tag_74\n      swap1\n      tag_48\n      jump\t// in\n    tag_74:\n      mload(0x40)\n      dup1\n      swap2\n      sub\n      swap1\n      revert\n    tag_73:\n        /* \"AgentAuditLogger.sol\":4465:4474  decisions */\n      0x01\n        /* \"AgentAuditLogger.sol\":4465:4479  decisions[_id] */\n      0x00\n        /* \"AgentAuditLogger.sol\":4475:4478  _id */\n      dup4\n        /* \"AgentAuditLogger.sol\":4465:4479  decisions[_id] */\n      dup2\n      mstore\n      0x20\n      add\n      swap1\n      dup2\n      mstore\n      0x20\n      add\n      0x00\n      keccak256\n        /* \"AgentAuditLogger.sol\":4458:4479  return decisions[_id] */\n      mload(0x40)\n      dup1\n      0x0120\n      add\n      0x40\n      mstore\n      swap1\n      dup2\n      0x00\n      dup3\n      add\n      sload\n      dup2\n      mstore\n      0x20\n      add\n      0x01\n      dup3\n      add\n      dup1\n      sload\n      tag_75\n      swap1\n      tag_76\n      jump\t// in\n    tag_75:\n      dup1\n      0x1f\n      add\n      0x20\n      dup1\n      swap2\n      div\n      mul\n      0x20\n      add\n      mload(0x40)\n      swap1\n      dup2\n      add\n      0x40\n      mstore\n      dup1\n      swap3\n      swap2\n      swap1\n      dup2\n      dup2\n      mstore\n      0x20\n      add\n      dup3\n      dup1\n      sload\n      tag_77\n      swap1\n      tag_76\n      jump\t// in\n    tag_77:\n      dup1\n      iszero\n      tag_78\n      jumpi\n      dup1\n      0x1f\n      lt\n      tag_79\n      jumpi\n      0x0100\n      dup1\n      dup4\n      sload\n      div\n      mul\n      dup4\n      mstore\n      swap2\n      0x20\n      add\n      swap2\n      jump(tag_78)\n    tag_79:\n      dup3\n      add\n      swap2\n      swap1\n      0x00\n      mstore\n      keccak256(0x00, 0x20)\n      swap1\n    tag_80:\n      dup2\n      sload\n      dup2\n      mstore\n      swap1\n      0x01\n      add\n      swap1\n      0x20\n      add\n      dup1\n      dup4\n      gt\n      tag_80\n      jumpi\n      dup3\n      swap1\n      sub\n      0x1f\n      and\n      dup3\n      add\n      swap2\n    tag_78:\n      pop\n      pop\n      pop\n      pop\n      pop\n      dup2\n      mstore\n      0x20\n      add\n      0x02\n      dup3\n      add\n      dup1\n      sload\n      tag_81\n      swap1\n      tag_76\n      jump\t// in\n    tag_81:\n      dup1\n      0x1f\n      add\n      0x20\n      dup1\n      swap2\n      div\n      mul\n      0x20\n      add\n      mload(0x40)\n      swap1\n      dup2\n      add\n      0x40\n      mstore\n      dup1\n      swap3\n      swap2\n      swap1\n      dup2\n      dup2\n      mstore\n      0x20\n      add\n      dup3\n      dup1\n      sload\n      tag_82\n      swap1\n      tag_76\n      jump\t// in\n    tag_82:\n      dup1\n      iszero\n      tag_83\n      jumpi\n      dup1\n      0x1f\n      lt\n      tag_84\n      jumpi\n      0x0100\n      dup1\n      dup4\n      sload\n      div\n      mul\n      dup4\n      mstore\n      swap2\n      0x20\n      add\n      swap2\n      jump(tag_83)\n    tag_84:\n      dup3\n      add\n      swap2\n      swap1\n      0x00\n      mstore\n      keccak256(0x00, 0x20)\n      swap1\n    tag_85:\n      dup2\n      sload\n      dup2\n      mstore\n      swap1\n      0x01\n      add\n      swap1\n      0x20\n      add\n      dup1\n      dup4\n      gt\n      tag_85\n      jumpi\n      dup3\n      swap1\n      sub\n      0x1f\n      and\n      dup3\n      add\n      swap2\n    tag_83:\n      pop\n      pop\n      pop\n      pop\n      pop\n      dup2\n      mstore\n      0x20\n      add\n      0x03\n      dup3\n      add\n      sload\n      dup2\n      mstore\n      0x20\n      add\n      0x04\n      dup3\n      add\n      dup1\n      sload\n      tag_86\n      swap1\n      tag_76\n      jump\t// in\n    tag_86:\n      dup1\n      0x1f\n      add\n      0x20\n      dup1\n      swap2\n      div\n      mul\n      0x20\n      add\n      mload(0x40)\n      swap1\n      dup2\n      add\n      0x40\n      mstore\n      dup1\n      swap3\n      swap2\n      swap1\n      dup2\n      dup2\n      mstore\n      0x20\n      add\n      dup3\n      dup1\n      sload\n      tag_87\n      swap1\n      tag_76\n      jump\t// in\n    tag_87:\n      dup1\n      iszero\n      tag_88\n      jumpi\n      dup1\n      0x1f\n      lt\n      tag_89\n      jumpi\n      0x0100\n      dup1\n      dup4\n      sload\n      div\n      mul\n      dup4\n      mstore\n      swap2\n      0x20\n      add\n      swap2\n      jump(tag_88)\n    tag_89:\n      dup3\n      add\n      swap2\n      swap1\n      0x00\n      mstore\n      keccak256(0x00, 0x20)\n      swap1\n    tag_90:\n      dup2\n      sload\n      dup2\n      mstore\n      swap1\n      0x01\n      add\n      swap1\n      0x20\n      add\n      dup1\n      dup4\n      gt\n      tag_90\n      jumpi\n      dup3\n      swap1\n      sub\n      0x1f\n      and\n      dup3\n      add\n      swap2\n    tag_88:\n      pop\n      pop\n      pop\n      pop\n      pop\n      dup2\n      mstore\n      0x20\n      add\n      0x05\n      dup3\n      add\n      sload\n      dup2\n      mstore\n      0x20\n      add\n      0x06\n      dup3\n      add\n      0x00\n      swap1\n      sload\n      swap1\n      0x0100\n      exp\n      swap1\n      div\n      0xffffffffffffffffffffffffffffffffffffffff\n      and\n      0xffffffffffffffffffffffffffffffffffffffff\n      and\n      0xffffffffffffffffffffffffffffffffffffffff\n      and\n      dup2\n      mstore\n      0x20\n      add\n      0x06\n      dup3\n      add\n      0x14\n      swap1\n      sload\n      swap1\n      0x0100\n      exp\n      swap1\n      div\n      0xff\n      and\n      0xff\n      and\n      0xff\n      and\n      dup2\n      mstore\n      0x20\n      add\n      0x06\n      dup3\n      add\n      0x15\n      swap1\n      sload\n      swap1\n      0x0100\n      exp\n      swap1\n      div\n      0xff\n      and\n      iszero\n      iszero\n      iszero\n      iszero\n      dup2\n      mstore\n      pop\n      pop\n      swap1\n      pop\n        /* \"AgentAuditLogger.sol\":4292:4486  function getDecision(uint256 _id) public view returns (Decision memory) {... */\n      swap2\n      swap1\n      pop\n      jump\t// out\n        /* \"AgentAuditLogger.sol\":2925:3389  function challengeDecision(uint256 _id) public {... */\n    tag_36:\n        /* \"AgentAuditLogger.sol\":2996:3010  totalDecisions */\n      sload(0x00)\n        /* \"AgentAuditLogger.sol\":2990:2993  _id */\n      dup2\n        /* \"AgentAuditLogger.sol\":2990:3010  _id < totalDecisions */\n      lt\n        /* \"AgentAuditLogger.sol\":2982:3056  require(_id < totalDecisions, \"AgentAuditLogger: Decision does not exist\") */\n      tag_92\n      jumpi\n      mload(0x40)\n      0x08c379a000000000000000000000000000000000000000000000000000000000\n      dup2\n      mstore\n      0x04\n      add\n      tag_93\n      swap1\n      tag_48\n      jump\t// in\n    tag_93:\n      mload(0x40)\n      dup1\n      swap2\n      sub\n      swap1\n      revert\n    tag_92:\n        /* \"AgentAuditLogger.sol\":3066:3091  Decision storage decision */\n      0x00\n        /* \"AgentAuditLogger.sol\":3094:3103  decisions */\n      0x01\n        /* \"AgentAuditLogger.sol\":3094:3108  decisions[_id] */\n      0x00\n        /* \"AgentAuditLogger.sol\":3104:3107  _id */\n      dup4\n        /* \"AgentAuditLogger.sol\":3094:3108  decisions[_id] */\n      dup2\n      mstore\n      0x20\n      add\n      swap1\n      dup2\n      mstore\n      0x20\n      add\n      0x00\n      keccak256\n        /* \"AgentAuditLogger.sol\":3066:3108  Decision storage decision = decisions[_id] */\n      swap1\n      pop\n        /* \"AgentAuditLogger.sol\":3160:3174  Status.Pending */\n      0x00\n        /* \"AgentAuditLogger.sol\":3154:3175  uint8(Status.Pending) */\n      0x02\n      dup2\n      gt\n      iszero\n      tag_94\n      jumpi\n      tag_95\n      tag_51\n      jump\t// in\n    tag_95:\n    tag_94:\n        /* \"AgentAuditLogger.sol\":3135:3175  decision.status == uint8(Status.Pending) */\n      0xff\n      and\n        /* \"AgentAuditLogger.sol\":3135:3143  decision */\n      dup2\n        /* \"AgentAuditLogger.sol\":3135:3150  decision.status */\n      0x06\n      add\n      0x14\n      swap1\n      sload\n      swap1\n      0x0100\n      exp\n      swap1\n      div\n      0xff\n      and\n        /* \"AgentAuditLogger.sol\":3135:3175  decision.status == uint8(Status.Pending) */\n      0xff\n      and\n      eq\n        /* \"AgentAuditLogger.sol\":3127:3244  require(decision.status == uint8(Status.Pending), \"AgentAuditLogger: Decision not in correct state to be challenged\") */\n      tag_96\n      jumpi\n      mload(0x40)\n      0x08c379a000000000000000000000000000000000000000000000000000000000\n      dup2\n      mstore\n      0x04\n      add\n      tag_97\n      swap1\n      tag_98\n      jump\t// in\n    tag_97:\n      mload(0x40)\n      dup1\n      swap2\n      sub\n      swap1\n      revert\n    tag_96:\n        /* \"AgentAuditLogger.sol\":3279:3296  Status.Challenged */\n      0x01\n        /* \"AgentAuditLogger.sol\":3273:3297  uint8(Status.Challenged) */\n      0x02\n      dup2\n      gt\n      iszero\n      tag_99\n      jumpi\n      tag_100\n      tag_51\n      jump\t// in\n    tag_100:\n    tag_99:\n        /* \"AgentAuditLogger.sol\":3255:3263  decision */\n      dup2\n        /* \"AgentAuditLogger.sol\":3255:3270  decision.status */\n      0x06\n      add\n      0x14\n        /* \"AgentAuditLogger.sol\":3255:3297  decision.status = uint8(Status.Challenged) */\n      0x0100\n      exp\n      dup2\n      sload\n      dup2\n      0xff\n      mul\n      not\n      and\n      swap1\n      dup4\n      0xff\n      and\n      mul\n      or\n      swap1\n      sstore\n      pop\n        /* \"AgentAuditLogger.sol\":3327:3331  true */\n      0x01\n        /* \"AgentAuditLogger.sol\":3307:3315  decision */\n      dup2\n        /* \"AgentAuditLogger.sol\":3307:3324  decision.disputed */\n      0x06\n      add\n      0x15\n        /* \"AgentAuditLogger.sol\":3307:3331  decision.disputed = true */\n      0x0100\n      exp\n      dup2\n      sload\n      dup2\n      0xff\n      mul\n      not\n      and\n      swap1\n      dup4\n      iszero\n      iszero\n      mul\n      or\n      swap1\n      sstore\n      pop\n        /* \"AgentAuditLogger.sol\":3366:3369  _id */\n      dup2\n        /* \"AgentAuditLogger.sol\":3347:3382  DecisionChallenged(_id, msg.sender) */\n      0x56e8e57e3c10b8bae669b54e45b34845569c2fac78835439483fd7cf0db24adc\n        /* \"AgentAuditLogger.sol\":3371:3381  msg.sender */\n      caller\n        /* \"AgentAuditLogger.sol\":3347:3382  DecisionChallenged(_id, msg.sender) */\n      mload(0x40)\n      tag_101\n      swap2\n      swap1\n      tag_18\n      jump\t// in\n    tag_101:\n      mload(0x40)\n      dup1\n      swap2\n      sub\n      swap1\n      log2\n        /* \"AgentAuditLogger.sol\":2972:3389  {... */\n      pop\n        /* \"AgentAuditLogger.sol\":2925:3389  function challengeDecision(uint256 _id) public {... */\n      pop\n      jump\t// out\n        /* \"AgentAuditLogger.sol\":1578:1803  function transferGovernance(address _newGovernance) public onlyGovernance {... */\n    tag_40:\n        /* \"AgentAuditLogger.sol\":1301:1315  governanceRole */\n      0x02\n      0x00\n      swap1\n      sload\n      swap1\n      0x0100\n      exp\n      swap1\n      div\n      0xffffffffffffffffffffffffffffffffffffffff\n      and\n        /* \"AgentAuditLogger.sol\":1287:1315  msg.sender == governanceRole */\n      0xffffffffffffffffffffffffffffffffffffffff\n      and\n        /* \"AgentAuditLogger.sol\":1287:1297  msg.sender */\n      caller\n        /* \"AgentAuditLogger.sol\":1287:1315  msg.sender == governanceRole */\n      0xffffffffffffffffffffffffffffffffffffffff\n      and\n      eq\n        /* \"AgentAuditLogger.sol\":1279:1371  require(msg.sender == governanceRole, \"AgentAuditLogger: caller is not the governance role\") */\n      tag_103\n      jumpi\n      mload(0x40)\n      0x08c379a000000000000000000000000000000000000000000000000000000000\n      dup2\n      mstore\n      0x04\n      add\n      tag_104\n      swap1\n      tag_44\n      jump\t// in\n    tag_104:\n      mload(0x40)\n      dup1\n      swap2\n      sub\n      swap1\n      revert\n    tag_103:\n        /* \"AgentAuditLogger.sol\":1696:1697  0 */\n      0x00\n        /* \"AgentAuditLogger.sol\":1670:1698  _newGovernance != address(0) */\n      0xffffffffffffffffffffffffffffffffffffffff\n      and\n        /* \"AgentAuditLogger.sol\":1670:1684  _newGovernance */\n      dup2\n        /* \"AgentAuditLogger.sol\":1670:1698  _newGovernance != address(0) */\n      0xffffffffffffffffffffffffffffffffffffffff\n      and\n      sub\n        /* \"AgentAuditLogger.sol\":1662:1755  require(_newGovernance != address(0), \"AgentAuditLogger: new governance is the zero address\") */\n      tag_106\n      jumpi\n      mload(0x40)\n      0x08c379a000000000000000000000000000000000000000000000000000000000\n      dup2\n      mstore\n      0x04\n      add\n      tag_107\n      swap1\n      tag_108\n      jump\t// in\n    tag_107:\n      mload(0x40)\n      dup1\n      swap2\n      sub\n      swap1\n      revert\n    tag_106:\n        /* \"AgentAuditLogger.sol\":1782:1796  _newGovernance */\n      dup1\n        /* \"AgentAuditLogger.sol\":1765:1779  governanceRole */\n      0x02\n      0x00\n        /* \"AgentAuditLogger.sol\":1765:1796  governanceRole = _newGovernance */\n      0x0100\n      exp\n      dup2\n      sload\n      dup2\n      0xffffffffffffffffffffffffffffffffffffffff\n      mul\n      not\n      and\n      swap1\n      dup4\n      0xffffffffffffffffffffffffffffffffffffffff\n      and\n      mul\n      or\n      swap1\n      sstore\n      pop\n        /* \"AgentAuditLogger.sol\":1578:1803  function transferGovernance(address _newGovernance) public onlyGovernance {... */\n      pop\n      jump\t// out\n    tag_71:\n      mload(0x40)\n      dup1\n      0x0120\n      add\n      0x40\n      mstore\n      dup1\n      0x00\n      dup2\n      mstore\n      0x20\n      add\n      0x60\n      dup2\n      mstore\n      0x20\n      add\n      0x60\n      dup2\n      mstore\n      0x20\n      add\n      0x00\n      dup2\n      mstore\n      0x20\n      add\n      0x60\n      dup2\n      mstore\n      0x20\n      add\n      0x00\n      dup2\n      mstore\n      0x20\n      add\n      and(0xffffffffffffffffffffffffffffffffffffffff, 0x00)\n      dup2\n      mstore\n      0x20\n      add\n      and(0xff, 0x00)\n      dup2\n      mstore\n      0x20\n      add\n      iszero(iszero(0x00))\n      dup2\n      mstore\n      pop\n      swap1\n      jump\t// out\n        /* \"#utility.yul\":7:84   */\n    tag_109:\n        /* \"#utility.yul\":44:51   */\n      0x00\n        /* \"#utility.yul\":73:78   */\n      dup2\n        /* \"#utility.yul\":62:78   */\n      swap1\n      pop\n        /* \"#utility.yul\":7:84   */\n      swap2\n      swap1\n      pop\n      jump\t// out\n        /* \"#utility.yul\":90:208   */\n    tag_110:\n        /* \"#utility.yul\":177:201   */\n      tag_177\n        /* \"#utility.yul\":195:200   */\n      dup2\n        /* \"#utility.yul\":177:201   */\n      tag_109\n      jump\t// in\n    tag_177:\n        /* \"#utility.yul\":172:175   */\n      dup3\n        /* \"#utility.yul\":165:202   */\n      mstore\n        /* \"#utility.yul\":90:208   */\n      pop\n      pop\n      jump\t// out\n        /* \"#utility.yul\":214:436   */\n    tag_14:\n        /* \"#utility.yul\":307:311   */\n      0x00\n        /* \"#utility.yul\":345:347   */\n      0x20\n        /* \"#utility.yul\":334:343   */\n      dup3\n        /* \"#utility.yul\":330:348   */\n      add\n        /* \"#utility.yul\":322:348   */\n      swap1\n      pop\n        /* \"#utility.yul\":358:429   */\n      tag_179\n        /* \"#utility.yul\":426:427   */\n      0x00\n        /* \"#utility.yul\":415:424   */\n      dup4\n        /* \"#utility.yul\":411:428   */\n      add\n        /* \"#utility.yul\":402:408   */\n      dup5\n        /* \"#utility.yul\":358:429   */\n      tag_110\n      jump\t// in\n    tag_179:\n        /* \"#utility.yul\":214:436   */\n      swap3\n      swap2\n      pop\n      pop\n      jump\t// out\n        /* \"#utility.yul\":442:568   */\n    tag_111:\n        /* \"#utility.yul\":479:486   */\n      0x00\n        /* \"#utility.yul\":519:561   */\n      0xffffffffffffffffffffffffffffffffffffffff\n        /* \"#utility.yul\":512:517   */\n      dup3\n        /* \"#utility.yul\":508:562   */\n      and\n        /* \"#utility.yul\":497:562   */\n      swap1\n      pop\n        /* \"#utility.yul\":442:568   */\n      swap2\n      swap1\n      pop\n      jump\t// out\n        /* \"#utility.yul\":574:670   */\n    tag_112:\n        /* \"#utility.yul\":611:618   */\n      0x00\n        /* \"#utility.yul\":640:664   */\n      tag_182\n        /* \"#utility.yul\":658:663   */\n      dup3\n        /* \"#utility.yul\":640:664   */\n      tag_111\n      jump\t// in\n    tag_182:\n        /* \"#utility.yul\":629:664   */\n      swap1\n      pop\n        /* \"#utility.yul\":574:670   */\n      swap2\n      swap1\n      pop\n      jump\t// out\n        /* \"#utility.yul\":676:794   */\n    tag_113:\n        /* \"#utility.yul\":763:787   */\n      tag_184\n        /* \"#utility.yul\":781:786   */\n      dup2\n        /* \"#utility.yul\":763:787   */\n      tag_112\n      jump\t// in\n    tag_184:\n        /* \"#utility.yul\":758:761   */\n      dup3\n        /* \"#utility.yul\":751:788   */\n      mstore\n        /* \"#utility.yul\":676:794   */\n      pop\n      pop\n      jump\t// out\n        /* \"#utility.yul\":800:1022   */\n    tag_18:\n        /* \"#utility.yul\":893:897   */\n      0x00\n        /* \"#utility.yul\":931:933   */\n      0x20\n        /* \"#utility.yul\":920:929   */\n      dup3\n        /* \"#utility.yul\":916:934   */\n      add\n        /* \"#utility.yul\":908:934   */\n      swap1\n      pop\n        /* \"#utility.yul\":944:1015   */\n      tag_186\n        /* \"#utility.yul\":1012:1013   */\n      0x00\n        /* \"#utility.yul\":1001:1010   */\n      dup4\n        /* \"#utility.yul\":997:1014   */\n      add\n        /* \"#utility.yul\":988:994   */\n      dup5\n        /* \"#utility.yul\":944:1015   */\n      tag_113\n      jump\t// in\n    tag_186:\n        /* \"#utility.yul\":800:1022   */\n      swap3\n      swap2\n      pop\n      pop\n      jump\t// out\n        /* \"#utility.yul\":1028:1103   */\n    tag_114:\n        /* \"#utility.yul\":1061:1067   */\n      0x00\n        /* \"#utility.yul\":1094:1096   */\n      0x40\n        /* \"#utility.yul\":1088:1097   */\n      mload\n        /* \"#utility.yul\":1078:1097   */\n      swap1\n      pop\n        /* \"#utility.yul\":1028:1103   */\n      swap1\n      jump\t// out\n        /* \"#utility.yul\":1109:1226   */\n    tag_115:\n        /* \"#utility.yul\":1218:1219   */\n      0x00\n        /* \"#utility.yul\":1215:1216   */\n      dup1\n        /* \"#utility.yul\":1208:1220   */\n      revert\n        /* \"#utility.yul\":1232:1349   */\n    tag_116:\n        /* \"#utility.yul\":1341:1342   */\n      0x00\n        /* \"#utility.yul\":1338:1339   */\n      dup1\n        /* \"#utility.yul\":1331:1343   */\n      revert\n        /* \"#utility.yul\":1355:1477   */\n    tag_117:\n        /* \"#utility.yul\":1428:1452   */\n      tag_191\n        /* \"#utility.yul\":1446:1451   */\n      dup2\n        /* \"#utility.yul\":1428:1452   */\n      tag_109\n      jump\t// in\n    tag_191:\n        /* \"#utility.yul\":1421:1426   */\n      dup2\n        /* \"#utility.yul\":1418:1453   */\n      eq\n        /* \"#utility.yul\":1408:1471   */\n      tag_192\n      jumpi\n        /* \"#utility.yul\":1467:1468   */\n      0x00\n        /* \"#utility.yul\":1464:1465   */\n      dup1\n        /* \"#utility.yul\":1457:1469   */\n      revert\n        /* \"#utility.yul\":1408:1471   */\n    tag_192:\n        /* \"#utility.yul\":1355:1477   */\n      pop\n      jump\t// out\n        /* \"#utility.yul\":1483:1622   */\n    tag_118:\n        /* \"#utility.yul\":1529:1534   */\n      0x00\n        /* \"#utility.yul\":1567:1573   */\n      dup2\n        /* \"#utility.yul\":1554:1574   */\n      calldataload\n        /* \"#utility.yul\":1545:1574   */\n      swap1\n      pop\n        /* \"#utility.yul\":1583:1616   */\n      tag_194\n        /* \"#utility.yul\":1610:1615   */\n      dup2\n        /* \"#utility.yul\":1583:1616   */\n      tag_117\n      jump\t// in\n    tag_194:\n        /* \"#utility.yul\":1483:1622   */\n      swap3\n      swap2\n      pop\n      pop\n      jump\t// out\n        /* \"#utility.yul\":1628:1718   */\n    tag_119:\n        /* \"#utility.yul\":1662:1669   */\n      0x00\n        /* \"#utility.yul\":1705:1710   */\n      dup2\n        /* \"#utility.yul\":1698:1711   */\n      iszero\n        /* \"#utility.yul\":1691:1712   */\n      iszero\n        /* \"#utility.yul\":1680:1712   */\n      swap1\n      pop\n        /* \"#utility.yul\":1628:1718   */\n      swap2\n      swap1\n      pop\n      jump\t// out\n        /* \"#utility.yul\":1724:1840   */\n    tag_120:\n        /* \"#utility.yul\":1794:1815   */\n      tag_197\n        /* \"#utility.yul\":1809:1814   */\n      dup2\n        /* \"#utility.yul\":1794:1815   */\n      tag_119\n      jump\t// in\n    tag_197:\n        /* \"#utility.yul\":1787:1792   */\n      dup2\n        /* \"#utility.yul\":1784:1816   */\n      eq\n        /* \"#utility.yul\":1774:1834   */\n      tag_198\n      jumpi\n        /* \"#utility.yul\":1830:1831   */\n      0x00\n        /* \"#utility.yul\":1827:1828   */\n      dup1\n        /* \"#utility.yul\":1820:1832   */\n      revert\n        /* \"#utility.yul\":1774:1834   */\n    tag_198:\n        /* \"#utility.yul\":1724:1840   */\n      pop\n      jump\t// out\n        /* \"#utility.yul\":1846:1979   */\n    tag_121:\n        /* \"#utility.yul\":1889:1894   */\n      0x00\n        /* \"#utility.yul\":1927:1933   */\n      dup2\n        /* \"#utility.yul\":1914:1934   */\n      calldataload\n        /* \"#utility.yul\":1905:1934   */\n      swap1\n      pop\n        /* \"#utility.yul\":1943:1973   */\n      tag_200\n        /* \"#utility.yul\":1967:1972   */\n      dup2\n        /* \"#utility.yul\":1943:1973   */\n      tag_120\n      jump\t// in\n    tag_200:\n        /* \"#utility.yul\":1846:1979   */\n      swap3\n      swap2\n      pop\n      pop\n      jump\t// out\n        /* \"#utility.yul\":1985:2453   */\n    tag_21:\n        /* \"#utility.yul\":2050:2056   */\n      0x00\n        /* \"#utility.yul\":2058:2064   */\n      dup1\n        /* \"#utility.yul\":2107:2109   */\n      0x40\n        /* \"#utility.yul\":2095:2104   */\n      dup4\n        /* \"#utility.yul\":2086:2093   */\n      dup6\n        /* \"#utility.yul\":2082:2105   */\n      sub\n        /* \"#utility.yul\":2078:2110   */\n      slt\n        /* \"#utility.yul\":2075:2194   */\n      iszero\n      tag_202\n      jumpi\n        /* \"#utility.yul\":2113:2192   */\n      tag_203\n      tag_115\n      jump\t// in\n    tag_203:\n        /* \"#utility.yul\":2075:2194   */\n    tag_202:\n        /* \"#utility.yul\":2233:2234   */\n      0x00\n        /* \"#utility.yul\":2258:2311   */\n      tag_204\n        /* \"#utility.yul\":2303:2310   */\n      dup6\n        /* \"#utility.yul\":2294:2300   */\n      dup3\n        /* \"#utility.yul\":2283:2292   */\n      dup7\n        /* \"#utility.yul\":2279:2301   */\n      add\n        /* \"#utility.yul\":2258:2311   */\n      tag_118\n      jump\t// in\n    tag_204:\n        /* \"#utility.yul\":2248:2311   */\n      swap3\n      pop\n        /* \"#utility.yul\":2204:2321   */\n      pop\n        /* \"#utility.yul\":2360:2362   */\n      0x20\n        /* \"#utility.yul\":2386:2436   */\n      tag_205\n        /* \"#utility.yul\":2428:2435   */\n      dup6\n        /* \"#utility.yul\":2419:2425   */\n      dup3\n        /* \"#utility.yul\":2408:2417   */\n      dup7\n        /* \"#utility.yul\":2404:2426   */\n      add\n        /* \"#utility.yul\":2386:2436   */\n      tag_121\n      jump\t// in\n    tag_205:\n        /* \"#utility.yul\":2376:2436   */\n      swap2\n      pop\n        /* \"#utility.yul\":2331:2446   */\n      pop\n        /* \"#utility.yul\":1985:2453   */\n      swap3\n      pop\n      swap3\n      swap1\n      pop\n      jump\t// out\n        /* \"#utility.yul\":2459:2576   */\n    tag_122:\n        /* \"#utility.yul\":2568:2569   */\n      0x00\n        /* \"#utility.yul\":2565:2566   */\n      dup1\n        /* \"#utility.yul\":2558:2570   */\n      revert\n        /* \"#utility.yul\":2582:2699   */\n    tag_123:\n        /* \"#utility.yul\":2691:2692   */\n      0x00\n        /* \"#utility.yul\":2688:2689   */\n      dup1\n        /* \"#utility.yul\":2681:2693   */\n      revert\n        /* \"#utility.yul\":2705:2807   */\n    tag_124:\n        /* \"#utility.yul\":2746:2752   */\n      0x00\n        /* \"#utility.yul\":2797:2799   */\n      0x1f\n        /* \"#utility.yul\":2793:2800   */\n      not\n        /* \"#utility.yul\":2788:2790   */\n      0x1f\n        /* \"#utility.yul\":2781:2786   */\n      dup4\n        /* \"#utility.yul\":2777:2791   */\n      add\n        /* \"#utility.yul\":2773:2801   */\n      and\n        /* \"#utility.yul\":2763:2801   */\n      swap1\n      pop\n        /* \"#utility.yul\":2705:2807   */\n      swap2\n      swap1\n      pop\n      jump\t// out\n        /* \"#utility.yul\":2813:2993   */\n    tag_125:\n        /* \"#utility.yul\":2861:2938   */\n      0x4e487b7100000000000000000000000000000000000000000000000000000000\n        /* \"#utility.yul\":2858:2859   */\n      0x00\n        /* \"#utility.yul\":2851:2939   */\n      mstore\n        /* \"#utility.yul\":2958:2962   */\n      0x41\n        /* \"#utility.yul\":2955:2956   */\n      0x04\n        /* \"#utility.yul\":2948:2963   */\n      mstore\n        /* \"#utility.yul\":2982:2986   */\n      0x24\n        /* \"#utility.yul\":2979:2980   */\n      0x00\n        /* \"#utility.yul\":2972:2987   */\n      revert\n        /* \"#utility.yul\":2999:3280   */\n    tag_126:\n        /* \"#utility.yul\":3082:3109   */\n      tag_211\n        /* \"#utility.yul\":3104:3108   */\n      dup3\n        /* \"#utility.yul\":3082:3109   */\n      tag_124\n      jump\t// in\n    tag_211:\n        /* \"#utility.yul\":3074:3080   */\n      dup2\n        /* \"#utility.yul\":3070:3110   */\n      add\n        /* \"#utility.yul\":3212:3218   */\n      dup2\n        /* \"#utility.yul\":3200:3210   */\n      dup2\n        /* \"#utility.yul\":3197:3219   */\n      lt\n        /* \"#utility.yul\":3176:3194   */\n      0xffffffffffffffff\n        /* \"#utility.yul\":3164:3174   */\n      dup3\n        /* \"#utility.yul\":3161:3195   */\n      gt\n        /* \"#utility.yul\":3158:3220   */\n      or\n        /* \"#utility.yul\":3155:3243   */\n      iszero\n      tag_212\n      jumpi\n        /* \"#utility.yul\":3223:3241   */\n      tag_213\n      tag_125\n      jump\t// in\n    tag_213:\n        /* \"#utility.yul\":3155:3243   */\n    tag_212:\n        /* \"#utility.yul\":3263:3273   */\n      dup1\n        /* \"#utility.yul\":3259:3261   */\n      0x40\n        /* \"#utility.yul\":3252:3274   */\n      mstore\n        /* \"#utility.yul\":3042:3280   */\n      pop\n        /* \"#utility.yul\":2999:3280   */\n      pop\n      pop\n      jump\t// out\n        /* \"#utility.yul\":3286:3415   */\n    tag_127:\n        /* \"#utility.yul\":3320:3326   */\n      0x00\n        /* \"#utility.yul\":3347:3367   */\n      tag_215\n      tag_114\n      jump\t// in\n    tag_215:\n        /* \"#utility.yul\":3337:3367   */\n      swap1\n      pop\n        /* \"#utility.yul\":3376:3409   */\n      tag_216\n        /* \"#utility.yul\":3404:3408   */\n      dup3\n        /* \"#utility.yul\":3396:3402   */\n      dup3\n        /* \"#utility.yul\":3376:3409   */\n      tag_126\n      jump\t// in\n    tag_216:\n        /* \"#utility.yul\":3286:3415   */\n      swap2\n      swap1\n      pop\n      jump\t// out\n        /* \"#utility.yul\":3421:3729   */\n    tag_128:\n        /* \"#utility.yul\":3483:3487   */\n      0x00\n        /* \"#utility.yul\":3573:3591   */\n      0xffffffffffffffff\n        /* \"#utility.yul\":3565:3571   */\n      dup3\n        /* \"#utility.yul\":3562:3592   */\n      gt\n        /* \"#utility.yul\":3559:3615   */\n      iszero\n      tag_218\n      jumpi\n        /* \"#utility.yul\":3595:3613   */\n      tag_219\n      tag_125\n      jump\t// in\n    tag_219:\n        /* \"#utility.yul\":3559:3615   */\n    tag_218:\n        /* \"#utility.yul\":3633:3662   */\n      tag_220\n        /* \"#utility.yul\":3655:3661   */\n      dup3\n        /* \"#utility.yul\":3633:3662   */\n      tag_124\n      jump\t// in\n    tag_220:\n        /* \"#utility.yul\":3625:3662   */\n      swap1\n      pop\n        /* \"#utility.yul\":3717:3721   */\n      0x20\n        /* \"#utility.yul\":3711:3715   */\n      dup2\n        /* \"#utility.yul\":3707:3722   */\n      add\n        /* \"#utility.yul\":3699:3722   */\n      swap1\n      pop\n        /* \"#utility.yul\":3421:3729   */\n      swap2\n      swap1\n      pop\n      jump\t// out\n        /* \"#utility.yul\":3735:3883   */\n    tag_129:\n        /* \"#utility.yul\":3833:3839   */\n      dup3\n        /* \"#utility.yul\":3828:3831   */\n      dup2\n        /* \"#utility.yul\":3823:3826   */\n      dup4\n        /* \"#utility.yul\":3810:3840   */\n      calldatacopy\n        /* \"#utility.yul\":3874:3875   */\n      0x00\n        /* \"#utility.yul\":3865:3871   */\n      dup4\n        /* \"#utility.yul\":3860:3863   */\n      dup4\n        /* \"#utility.yul\":3856:3872   */\n      add\n        /* \"#utility.yul\":3849:3876   */\n      mstore\n        /* \"#utility.yul\":3735:3883   */\n      pop\n      pop\n      pop\n      jump\t// out\n        /* \"#utility.yul\":3889:4314   */\n    tag_130:\n        /* \"#utility.yul\":3967:3972   */\n      0x00\n        /* \"#utility.yul\":3992:4058   */\n      tag_223\n        /* \"#utility.yul\":4008:4057   */\n      tag_224\n        /* \"#utility.yul\":4050:4056   */\n      dup5\n        /* \"#utility.yul\":4008:4057   */\n      tag_128\n      jump\t// in\n    tag_224:\n        /* \"#utility.yul\":3992:4058   */\n      tag_127\n      jump\t// in\n    tag_223:\n        /* \"#utility.yul\":3983:4058   */\n      swap1\n      pop\n        /* \"#utility.yul\":4081:4087   */\n      dup3\n        /* \"#utility.yul\":4074:4079   */\n      dup2\n        /* \"#utility.yul\":4067:4088   */\n      mstore\n        /* \"#utility.yul\":4119:4123   */\n      0x20\n        /* \"#utility.yul\":4112:4117   */\n      dup2\n        /* \"#utility.yul\":4108:4124   */\n      add\n        /* \"#utility.yul\":4157:4160   */\n      dup5\n        /* \"#utility.yul\":4148:4154   */\n      dup5\n        /* \"#utility.yul\":4143:4146   */\n      dup5\n        /* \"#utility.yul\":4139:4155   */\n      add\n        /* \"#utility.yul\":4136:4161   */\n      gt\n        /* \"#utility.yul\":4133:4245   */\n      iszero\n      tag_225\n      jumpi\n        /* \"#utility.yul\":4164:4243   */\n      tag_226\n      tag_123\n      jump\t// in\n    tag_226:\n        /* \"#utility.yul\":4133:4245   */\n    tag_225:\n        /* \"#utility.yul\":4254:4308   */\n      tag_227\n        /* \"#utility.yul\":4301:4307   */\n      dup5\n        /* \"#utility.yul\":4296:4299   */\n      dup3\n        /* \"#utility.yul\":4291:4294   */\n      dup6\n        /* \"#utility.yul\":4254:4308   */\n      tag_129\n      jump\t// in\n    tag_227:\n        /* \"#utility.yul\":3973:4314   */\n      pop\n        /* \"#utility.yul\":3889:4314   */\n      swap4\n      swap3\n      pop\n      pop\n      pop\n      jump\t// out\n        /* \"#utility.yul\":4334:4674   */\n    tag_131:\n        /* \"#utility.yul\":4390:4395   */\n      0x00\n        /* \"#utility.yul\":4439:4442   */\n      dup3\n        /* \"#utility.yul\":4432:4436   */\n      0x1f\n        /* \"#utility.yul\":4424:4430   */\n      dup4\n        /* \"#utility.yul\":4420:4437   */\n      add\n        /* \"#utility.yul\":4416:4443   */\n      slt\n        /* \"#utility.yul\":4406:4528   */\n      tag_229\n      jumpi\n        /* \"#utility.yul\":4447:4526   */\n      tag_230\n      tag_122\n      jump\t// in\n    tag_230:\n        /* \"#utility.yul\":4406:4528   */\n    tag_229:\n        /* \"#utility.yul\":4564:4570   */\n      dup2\n        /* \"#utility.yul\":4551:4571   */\n      calldataload\n        /* \"#utility.yul\":4589:4668   */\n      tag_231\n        /* \"#utility.yul\":4664:4667   */\n      dup5\n        /* \"#utility.yul\":4656:4662   */\n      dup3\n        /* \"#utility.yul\":4649:4653   */\n      0x20\n        /* \"#utility.yul\":4641:4647   */\n      dup7\n        /* \"#utility.yul\":4637:4654   */\n      add\n        /* \"#utility.yul\":4589:4668   */\n      tag_130\n      jump\t// in\n    tag_231:\n        /* \"#utility.yul\":4580:4668   */\n      swap2\n      pop\n        /* \"#utility.yul\":4396:4674   */\n      pop\n        /* \"#utility.yul\":4334:4674   */\n      swap3\n      swap2\n      pop\n      pop\n      jump\t// out\n        /* \"#utility.yul\":4680:5985   */\n    tag_25:\n        /* \"#utility.yul\":4796:4802   */\n      0x00\n        /* \"#utility.yul\":4804:4810   */\n      dup1\n        /* \"#utility.yul\":4812:4818   */\n      0x00\n        /* \"#utility.yul\":4820:4826   */\n      dup1\n        /* \"#utility.yul\":4869:4872   */\n      0x80\n        /* \"#utility.yul\":4857:4866   */\n      dup6\n        /* \"#utility.yul\":4848:4855   */\n      dup8\n        /* \"#utility.yul\":4844:4867   */\n      sub\n        /* \"#utility.yul\":4840:4873   */\n      slt\n        /* \"#utility.yul\":4837:4957   */\n      iszero\n      tag_233\n      jumpi\n        /* \"#utility.yul\":4876:4955   */\n      tag_234\n      tag_115\n      jump\t// in\n    tag_234:\n        /* \"#utility.yul\":4837:4957   */\n    tag_233:\n        /* \"#utility.yul\":5024:5025   */\n      0x00\n        /* \"#utility.yul\":5013:5022   */\n      dup6\n        /* \"#utility.yul\":5009:5026   */\n      add\n        /* \"#utility.yul\":4996:5027   */\n      calldataload\n        /* \"#utility.yul\":5054:5072   */\n      0xffffffffffffffff\n        /* \"#utility.yul\":5046:5052   */\n      dup2\n        /* \"#utility.yul\":5043:5073   */\n      gt\n        /* \"#utility.yul\":5040:5157   */\n      iszero\n      tag_235\n      jumpi\n        /* \"#utility.yul\":5076:5155   */\n      tag_236\n      tag_116\n      jump\t// in\n    tag_236:\n        /* \"#utility.yul\":5040:5157   */\n    tag_235:\n        /* \"#utility.yul\":5181:5244   */\n      tag_237\n        /* \"#utility.yul\":5236:5243   */\n      dup8\n        /* \"#utility.yul\":5227:5233   */\n      dup3\n        /* \"#utility.yul\":5216:5225   */\n      dup9\n        /* \"#utility.yul\":5212:5234   */\n      add\n        /* \"#utility.yul\":5181:5244   */\n      tag_131\n      jump\t// in\n    tag_237:\n        /* \"#utility.yul\":5171:5244   */\n      swap5\n      pop\n        /* \"#utility.yul\":4967:5254   */\n      pop\n        /* \"#utility.yul\":5321:5323   */\n      0x20\n        /* \"#utility.yul\":5310:5319   */\n      dup6\n        /* \"#utility.yul\":5306:5324   */\n      add\n        /* \"#utility.yul\":5293:5325   */\n      calldataload\n        /* \"#utility.yul\":5352:5370   */\n      0xffffffffffffffff\n        /* \"#utility.yul\":5344:5350   */\n      dup2\n        /* \"#utility.yul\":5341:5371   */\n      gt\n        /* \"#utility.yul\":5338:5455   */\n      iszero\n      tag_238\n      jumpi\n        /* \"#utility.yul\":5374:5453   */\n      tag_239\n      tag_116\n      jump\t// in\n    tag_239:\n        /* \"#utility.yul\":5338:5455   */\n    tag_238:\n        /* \"#utility.yul\":5479:5542   */\n      tag_240\n        /* \"#utility.yul\":5534:5541   */\n      dup8\n        /* \"#utility.yul\":5525:5531   */\n      dup3\n        /* \"#utility.yul\":5514:5523   */\n      dup9\n        /* \"#utility.yul\":5510:5532   */\n      add\n        /* \"#utility.yul\":5479:5542   */\n      tag_131\n      jump\t// in\n    tag_240:\n        /* \"#utility.yul\":5469:5542   */\n      swap4\n      pop\n        /* \"#utility.yul\":5264:5552   */\n      pop\n        /* \"#utility.yul\":5591:5593   */\n      0x40\n        /* \"#utility.yul\":5617:5670   */\n      tag_241\n        /* \"#utility.yul\":5662:5669   */\n      dup8\n        /* \"#utility.yul\":5653:5659   */\n      dup3\n        /* \"#utility.yul\":5642:5651   */\n      dup9\n        /* \"#utility.yul\":5638:5660   */\n      add\n        /* \"#utility.yul\":5617:5670   */\n      tag_118\n      jump\t// in\n    tag_241:\n        /* \"#utility.yul\":5607:5670   */\n      swap3\n      pop\n        /* \"#utility.yul\":5562:5680   */\n      pop\n        /* \"#utility.yul\":5747:5749   */\n      0x60\n        /* \"#utility.yul\":5736:5745   */\n      dup6\n        /* \"#utility.yul\":5732:5750   */\n      add\n        /* \"#utility.yul\":5719:5751   */\n      calldataload\n        /* \"#utility.yul\":5778:5796   */\n      0xffffffffffffffff\n        /* \"#utility.yul\":5770:5776   */\n      dup2\n        /* \"#utility.yul\":5767:5797   */\n      gt\n        /* \"#utility.yul\":5764:5881   */\n      iszero\n      tag_242\n      jumpi\n        /* \"#utility.yul\":5800:5879   */\n      tag_243\n      tag_116\n      jump\t// in\n    tag_243:\n        /* \"#utility.yul\":5764:5881   */\n    tag_242:\n        /* \"#utility.yul\":5905:5968   */\n      tag_244\n        /* \"#utility.yul\":5960:5967   */\n      dup8\n        /* \"#utility.yul\":5951:5957   */\n      dup3\n        /* \"#utility.yul\":5940:5949   */\n      dup9\n        /* \"#utility.yul\":5936:5958   */\n      add\n        /* \"#utility.yul\":5905:5968   */\n      tag_131\n      jump\t// in\n    tag_244:\n        /* \"#utility.yul\":5895:5968   */\n      swap2\n      pop\n        /* \"#utility.yul\":5690:5978   */\n      pop\n        /* \"#utility.yul\":4680:5985   */\n      swap3\n      swap6\n      swap2\n      swap5\n      pop\n      swap3\n      pop\n      jump\t// out\n        /* \"#utility.yul\":5991:6320   */\n    tag_30:\n        /* \"#utility.yul\":6050:6056   */\n      0x00\n        /* \"#utility.yul\":6099:6101   */\n      0x20\n        /* \"#utility.yul\":6087:6096   */\n      dup3\n        /* \"#utility.yul\":6078:6085   */\n      dup5\n        /* \"#utility.yul\":6074:6097   */\n      sub\n        /* \"#utility.yul\":6070:6102   */\n      slt\n        /* \"#utility.yul\":6067:6186   */\n      iszero\n      tag_246\n      jumpi\n        /* \"#utility.yul\":6105:6184   */\n      tag_247\n      tag_115\n      jump\t// in\n    tag_247:\n        /* \"#utility.yul\":6067:6186   */\n    tag_246:\n        /* \"#utility.yul\":6225:6226   */\n      0x00\n        /* \"#utility.yul\":6250:6303   */\n      tag_248\n        /* \"#utility.yul\":6295:6302   */\n      dup5\n        /* \"#utility.yul\":6286:6292   */\n      dup3\n        /* \"#utility.yul\":6275:6284   */\n      dup6\n        /* \"#utility.yul\":6271:6293   */\n      add\n        /* \"#utility.yul\":6250:6303   */\n      tag_118\n      jump\t// in\n    tag_248:\n        /* \"#utility.yul\":6240:6303   */\n      swap2\n      pop\n        /* \"#utility.yul\":6196:6313   */\n      pop\n        /* \"#utility.yul\":5991:6320   */\n      swap3\n      swap2\n      pop\n      pop\n      jump\t// out\n        /* \"#utility.yul\":6326:6434   */\n    tag_132:\n        /* \"#utility.yul\":6403:6427   */\n      tag_250\n        /* \"#utility.yul\":6421:6426   */\n      dup2\n        /* \"#utility.yul\":6403:6427   */\n      tag_109\n      jump\t// in\n    tag_250:\n        /* \"#utility.yul\":6398:6401   */\n      dup3\n        /* \"#utility.yul\":6391:6428   */\n      mstore\n        /* \"#utility.yul\":6326:6434   */\n      pop\n      pop\n      jump\t// out\n        /* \"#utility.yul\":6440:6539   */\n    tag_133:\n        /* \"#utility.yul\":6492:6498   */\n      0x00\n        /* \"#utility.yul\":6526:6531   */\n      dup2\n        /* \"#utility.yul\":6520:6532   */\n      mload\n        /* \"#utility.yul\":6510:6532   */\n      swap1\n      pop\n        /* \"#utility.yul\":6440:6539   */\n      swap2\n      swap1\n      pop\n      jump\t// out\n        /* \"#utility.yul\":6545:6704   */\n    tag_134:\n        /* \"#utility.yul\":6619:6630   */\n      0x00\n        /* \"#utility.yul\":6653:6659   */\n      dup3\n        /* \"#utility.yul\":6648:6651   */\n      dup3\n        /* \"#utility.yul\":6641:6660   */\n      mstore\n        /* \"#utility.yul\":6693:6697   */\n      0x20\n        /* \"#utility.yul\":6688:6691   */\n      dup3\n        /* \"#utility.yul\":6684:6698   */\n      add\n        /* \"#utility.yul\":6669:6698   */\n      swap1\n      pop\n        /* \"#utility.yul\":6545:6704   */\n      swap3\n      swap2\n      pop\n      pop\n      jump\t// out\n        /* \"#utility.yul\":6710:6958   */\n    tag_135:\n        /* \"#utility.yul\":6792:6793   */\n      0x00\n        /* \"#utility.yul\":6802:6915   */\n    tag_254:\n        /* \"#utility.yul\":6816:6822   */\n      dup4\n        /* \"#utility.yul\":6813:6814   */\n      dup2\n        /* \"#utility.yul\":6810:6823   */\n      lt\n        /* \"#utility.yul\":6802:6915   */\n      iszero\n      tag_256\n      jumpi\n        /* \"#utility.yul\":6901:6902   */\n      dup1\n        /* \"#utility.yul\":6896:6899   */\n      dup3\n        /* \"#utility.yul\":6892:6903   */\n      add\n        /* \"#utility.yul\":6886:6904   */\n      mload\n        /* \"#utility.yul\":6882:6883   */\n      dup2\n        /* \"#utility.yul\":6877:6880   */\n      dup5\n        /* \"#utility.yul\":6873:6884   */\n      add\n        /* \"#utility.yul\":6866:6905   */\n      mstore\n        /* \"#utility.yul\":6838:6840   */\n      0x20\n        /* \"#utility.yul\":6835:6836   */\n      dup2\n        /* \"#utility.yul\":6831:6841   */\n      add\n        /* \"#utility.yul\":6826:6841   */\n      swap1\n      pop\n        /* \"#utility.yul\":6802:6915   */\n      jump(tag_254)\n    tag_256:\n        /* \"#utility.yul\":6949:6950   */\n      0x00\n        /* \"#utility.yul\":6940:6946   */\n      dup5\n        /* \"#utility.yul\":6935:6938   */\n      dup5\n        /* \"#utility.yul\":6931:6947   */\n      add\n        /* \"#utility.yul\":6924:6951   */\n      mstore\n        /* \"#utility.yul\":6772:6958   */\n      pop\n        /* \"#utility.yul\":6710:6958   */\n      pop\n      pop\n      pop\n      jump\t// out\n        /* \"#utility.yul\":6964:7321   */\n    tag_136:\n        /* \"#utility.yul\":7042:7045   */\n      0x00\n        /* \"#utility.yul\":7070:7109   */\n      tag_258\n        /* \"#utility.yul\":7103:7108   */\n      dup3\n        /* \"#utility.yul\":7070:7109   */\n      tag_133\n      jump\t// in\n    tag_258:\n        /* \"#utility.yul\":7125:7186   */\n      tag_259\n        /* \"#utility.yul\":7179:7185   */\n      dup2\n        /* \"#utility.yul\":7174:7177   */\n      dup6\n        /* \"#utility.yul\":7125:7186   */\n      tag_134\n      jump\t// in\n    tag_259:\n        /* \"#utility.yul\":7118:7186   */\n      swap4\n      pop\n        /* \"#utility.yul\":7195:7260   */\n      tag_260\n        /* \"#utility.yul\":7253:7259   */\n      dup2\n        /* \"#utility.yul\":7248:7251   */\n      dup6\n        /* \"#utility.yul\":7241:7245   */\n      0x20\n        /* \"#utility.yul\":7234:7239   */\n      dup7\n        /* \"#utility.yul\":7230:7246   */\n      add\n        /* \"#utility.yul\":7195:7260   */\n      tag_135\n      jump\t// in\n    tag_260:\n        /* \"#utility.yul\":7285:7314   */\n      tag_261\n        /* \"#utility.yul\":7307:7313   */\n      dup2\n        /* \"#utility.yul\":7285:7314   */\n      tag_124\n      jump\t// in\n    tag_261:\n        /* \"#utility.yul\":7280:7283   */\n      dup5\n        /* \"#utility.yul\":7276:7315   */\n      add\n        /* \"#utility.yul\":7269:7315   */\n      swap2\n      pop\n        /* \"#utility.yul\":7046:7321   */\n      pop\n        /* \"#utility.yul\":6964:7321   */\n      swap3\n      swap2\n      pop\n      pop\n      jump\t// out\n        /* \"#utility.yul\":7327:7435   */\n    tag_137:\n        /* \"#utility.yul\":7404:7428   */\n      tag_263\n        /* \"#utility.yul\":7422:7427   */\n      dup2\n        /* \"#utility.yul\":7404:7428   */\n      tag_112\n      jump\t// in\n    tag_263:\n        /* \"#utility.yul\":7399:7402   */\n      dup3\n        /* \"#utility.yul\":7392:7429   */\n      mstore\n        /* \"#utility.yul\":7327:7435   */\n      pop\n      pop\n      jump\t// out\n        /* \"#utility.yul\":7441:7527   */\n    tag_138:\n        /* \"#utility.yul\":7476:7483   */\n      0x00\n        /* \"#utility.yul\":7516:7520   */\n      0xff\n        /* \"#utility.yul\":7509:7514   */\n      dup3\n        /* \"#utility.yul\":7505:7521   */\n      and\n        /* \"#utility.yul\":7494:7521   */\n      swap1\n      pop\n        /* \"#utility.yul\":7441:7527   */\n      swap2\n      swap1\n      pop\n      jump\t// out\n        /* \"#utility.yul\":7533:7635   */\n    tag_139:\n        /* \"#utility.yul\":7606:7628   */\n      tag_266\n        /* \"#utility.yul\":7622:7627   */\n      dup2\n        /* \"#utility.yul\":7606:7628   */\n      tag_138\n      jump\t// in\n    tag_266:\n        /* \"#utility.yul\":7601:7604   */\n      dup3\n        /* \"#utility.yul\":7594:7629   */\n      mstore\n        /* \"#utility.yul\":7533:7635   */\n      pop\n      pop\n      jump\t// out\n        /* \"#utility.yul\":7641:7740   */\n    tag_140:\n        /* \"#utility.yul\":7712:7733   */\n      tag_268\n        /* \"#utility.yul\":7727:7732   */\n      dup2\n        /* \"#utility.yul\":7712:7733   */\n      tag_119\n      jump\t// in\n    tag_268:\n        /* \"#utility.yul\":7707:7710   */\n      dup3\n        /* \"#utility.yul\":7700:7734   */\n      mstore\n        /* \"#utility.yul\":7641:7740   */\n      pop\n      pop\n      jump\t// out\n        /* \"#utility.yul\":7822:9809   */\n    tag_141:\n        /* \"#utility.yul\":7939:7942   */\n      0x00\n        /* \"#utility.yul\":7975:7981   */\n      0x0120\n        /* \"#utility.yul\":7970:7973   */\n      dup4\n        /* \"#utility.yul\":7966:7982   */\n      add\n        /* \"#utility.yul\":8062:8066   */\n      0x00\n        /* \"#utility.yul\":8055:8060   */\n      dup4\n        /* \"#utility.yul\":8051:8067   */\n      add\n        /* \"#utility.yul\":8045:8068   */\n      mload\n        /* \"#utility.yul\":8081:8144   */\n      tag_270\n        /* \"#utility.yul\":8138:8142   */\n      0x00\n        /* \"#utility.yul\":8133:8136   */\n      dup7\n        /* \"#utility.yul\":8129:8143   */\n      add\n        /* \"#utility.yul\":8115:8127   */\n      dup3\n        /* \"#utility.yul\":8081:8144   */\n      tag_132\n      jump\t// in\n    tag_270:\n        /* \"#utility.yul\":7992:8154   */\n      pop\n        /* \"#utility.yul\":8238:8242   */\n      0x20\n        /* \"#utility.yul\":8231:8236   */\n      dup4\n        /* \"#utility.yul\":8227:8243   */\n      add\n        /* \"#utility.yul\":8221:8244   */\n      mload\n        /* \"#utility.yul\":8291:8294   */\n      dup5\n        /* \"#utility.yul\":8285:8289   */\n      dup3\n        /* \"#utility.yul\":8281:8295   */\n      sub\n        /* \"#utility.yul\":8274:8278   */\n      0x20\n        /* \"#utility.yul\":8269:8272   */\n      dup7\n        /* \"#utility.yul\":8265:8279   */\n      add\n        /* \"#utility.yul\":8258:8296   */\n      mstore\n        /* \"#utility.yul\":8317:8390   */\n      tag_271\n        /* \"#utility.yul\":8385:8389   */\n      dup3\n        /* \"#utility.yul\":8371:8383   */\n      dup3\n        /* \"#utility.yul\":8317:8390   */\n      tag_136\n      jump\t// in\n    tag_271:\n        /* \"#utility.yul\":8309:8390   */\n      swap2\n      pop\n        /* \"#utility.yul\":8164:8401   */\n      pop\n        /* \"#utility.yul\":8485:8489   */\n      0x40\n        /* \"#utility.yul\":8478:8483   */\n      dup4\n        /* \"#utility.yul\":8474:8490   */\n      add\n        /* \"#utility.yul\":8468:8491   */\n      mload\n        /* \"#utility.yul\":8538:8541   */\n      dup5\n        /* \"#utility.yul\":8532:8536   */\n      dup3\n        /* \"#utility.yul\":8528:8542   */\n      sub\n        /* \"#utility.yul\":8521:8525   */\n      0x40\n        /* \"#utility.yul\":8516:8519   */\n      dup7\n        /* \"#utility.yul\":8512:8526   */\n      add\n        /* \"#utility.yul\":8505:8543   */\n      mstore\n        /* \"#utility.yul\":8564:8637   */\n      tag_272\n        /* \"#utility.yul\":8632:8636   */\n      dup3\n        /* \"#utility.yul\":8618:8630   */\n      dup3\n        /* \"#utility.yul\":8564:8637   */\n      tag_136\n      jump\t// in\n    tag_272:\n        /* \"#utility.yul\":8556:8637   */\n      swap2\n      pop\n        /* \"#utility.yul\":8411:8648   */\n      pop\n        /* \"#utility.yul\":8732:8736   */\n      0x60\n        /* \"#utility.yul\":8725:8730   */\n      dup4\n        /* \"#utility.yul\":8721:8737   */\n      add\n        /* \"#utility.yul\":8715:8738   */\n      mload\n        /* \"#utility.yul\":8751:8814   */\n      tag_273\n        /* \"#utility.yul\":8808:8812   */\n      0x60\n        /* \"#utility.yul\":8803:8806   */\n      dup7\n        /* \"#utility.yul\":8799:8813   */\n      add\n        /* \"#utility.yul\":8785:8797   */\n      dup3\n        /* \"#utility.yul\":8751:8814   */\n      tag_132\n      jump\t// in\n    tag_273:\n        /* \"#utility.yul\":8658:8824   */\n      pop\n        /* \"#utility.yul\":8917:8921   */\n      0x80\n        /* \"#utility.yul\":8910:8915   */\n      dup4\n        /* \"#utility.yul\":8906:8922   */\n      add\n        /* \"#utility.yul\":8900:8923   */\n      mload\n        /* \"#utility.yul\":8970:8973   */\n      dup5\n        /* \"#utility.yul\":8964:8968   */\n      dup3\n        /* \"#utility.yul\":8960:8974   */\n      sub\n        /* \"#utility.yul\":8953:8957   */\n      0x80\n        /* \"#utility.yul\":8948:8951   */\n      dup7\n        /* \"#utility.yul\":8944:8958   */\n      add\n        /* \"#utility.yul\":8937:8975   */\n      mstore\n        /* \"#utility.yul\":8996:9069   */\n      tag_274\n        /* \"#utility.yul\":9064:9068   */\n      dup3\n        /* \"#utility.yul\":9050:9062   */\n      dup3\n        /* \"#utility.yul\":8996:9069   */\n      tag_136\n      jump\t// in\n    tag_274:\n        /* \"#utility.yul\":8988:9069   */\n      swap2\n      pop\n        /* \"#utility.yul\":8834:9080   */\n      pop\n        /* \"#utility.yul\":9167:9171   */\n      0xa0\n        /* \"#utility.yul\":9160:9165   */\n      dup4\n        /* \"#utility.yul\":9156:9172   */\n      add\n        /* \"#utility.yul\":9150:9173   */\n      mload\n        /* \"#utility.yul\":9186:9249   */\n      tag_275\n        /* \"#utility.yul\":9243:9247   */\n      0xa0\n        /* \"#utility.yul\":9238:9241   */\n      dup7\n        /* \"#utility.yul\":9234:9248   */\n      add\n        /* \"#utility.yul\":9220:9232   */\n      dup3\n        /* \"#utility.yul\":9186:9249   */\n      tag_132\n      jump\t// in\n    tag_275:\n        /* \"#utility.yul\":9090:9259   */\n      pop\n        /* \"#utility.yul\":9342:9346   */\n      0xc0\n        /* \"#utility.yul\":9335:9340   */\n      dup4\n        /* \"#utility.yul\":9331:9347   */\n      add\n        /* \"#utility.yul\":9325:9348   */\n      mload\n        /* \"#utility.yul\":9361:9424   */\n      tag_276\n        /* \"#utility.yul\":9418:9422   */\n      0xc0\n        /* \"#utility.yul\":9413:9416   */\n      dup7\n        /* \"#utility.yul\":9409:9423   */\n      add\n        /* \"#utility.yul\":9395:9407   */\n      dup3\n        /* \"#utility.yul\":9361:9424   */\n      tag_137\n      jump\t// in\n    tag_276:\n        /* \"#utility.yul\":9269:9434   */\n      pop\n        /* \"#utility.yul\":9518:9522   */\n      0xe0\n        /* \"#utility.yul\":9511:9516   */\n      dup4\n        /* \"#utility.yul\":9507:9523   */\n      add\n        /* \"#utility.yul\":9501:9524   */\n      mload\n        /* \"#utility.yul\":9537:9596   */\n      tag_277\n        /* \"#utility.yul\":9590:9594   */\n      0xe0\n        /* \"#utility.yul\":9585:9588   */\n      dup7\n        /* \"#utility.yul\":9581:9595   */\n      add\n        /* \"#utility.yul\":9567:9579   */\n      dup3\n        /* \"#utility.yul\":9537:9596   */\n      tag_139\n      jump\t// in\n    tag_277:\n        /* \"#utility.yul\":9444:9606   */\n      pop\n        /* \"#utility.yul\":9692:9698   */\n      0x0100\n        /* \"#utility.yul\":9685:9690   */\n      dup4\n        /* \"#utility.yul\":9681:9699   */\n      add\n        /* \"#utility.yul\":9675:9700   */\n      mload\n        /* \"#utility.yul\":9713:9772   */\n      tag_278\n        /* \"#utility.yul\":9764:9770   */\n      0x0100\n        /* \"#utility.yul\":9759:9762   */\n      dup7\n        /* \"#utility.yul\":9755:9771   */\n      add\n        /* \"#utility.yul\":9741:9753   */\n      dup3\n        /* \"#utility.yul\":9713:9772   */\n      tag_140\n      jump\t// in\n    tag_278:\n        /* \"#utility.yul\":9616:9782   */\n      pop\n        /* \"#utility.yul\":9799:9803   */\n      dup1\n        /* \"#utility.yul\":9792:9803   */\n      swap2\n      pop\n        /* \"#utility.yul\":7944:9809   */\n      pop\n        /* \"#utility.yul\":7822:9809   */\n      swap3\n      swap2\n      pop\n      pop\n      jump\t// out\n        /* \"#utility.yul\":9815:10184   */\n    tag_33:\n        /* \"#utility.yul\":9956:9960   */\n      0x00\n        /* \"#utility.yul\":9994:9996   */\n      0x20\n        /* \"#utility.yul\":9983:9992   */\n      dup3\n        /* \"#utility.yul\":9979:9997   */\n      add\n        /* \"#utility.yul\":9971:9997   */\n      swap1\n      pop\n        /* \"#utility.yul\":10043:10052   */\n      dup2\n        /* \"#utility.yul\":10037:10041   */\n      dup2\n        /* \"#utility.yul\":10033:10053   */\n      sub\n        /* \"#utility.yul\":10029:10030   */\n      0x00\n        /* \"#utility.yul\":10018:10027   */\n      dup4\n        /* \"#utility.yul\":10014:10031   */\n      add\n        /* \"#utility.yul\":10007:10054   */\n      mstore\n        /* \"#utility.yul\":10071:10177   */\n      tag_280\n        /* \"#utility.yul\":10172:10176   */\n      dup2\n        /* \"#utility.yul\":10163:10169   */\n      dup5\n        /* \"#utility.yul\":10071:10177   */\n      tag_141\n      jump\t// in\n    tag_280:\n        /* \"#utility.yul\":10063:10177   */\n      swap1\n      pop\n        /* \"#utility.yul\":9815:10184   */\n      swap3\n      swap2\n      pop\n      pop\n      jump\t// out\n        /* \"#utility.yul\":10190:10312   */\n    tag_142:\n        /* \"#utility.yul\":10263:10287   */\n      tag_282\n        /* \"#utility.yul\":10281:10286   */\n      dup2\n        /* \"#utility.yul\":10263:10287   */\n      tag_112\n      jump\t// in\n    tag_282:\n        /* \"#utility.yul\":10256:10261   */\n      dup2\n        /* \"#utility.yul\":10253:10288   */\n      eq\n        /* \"#utility.yul\":10243:10306   */\n      tag_283\n      jumpi\n        /* \"#utility.yul\":10302:10303   */\n      0x00\n        /* \"#utility.yul\":10299:10300   */\n      dup1\n        /* \"#utility.yul\":10292:10304   */\n      revert\n        /* \"#utility.yul\":10243:10306   */\n    tag_283:\n        /* \"#utility.yul\":10190:10312   */\n      pop\n      jump\t// out\n        /* \"#utility.yul\":10318:10457   */\n    tag_143:\n        /* \"#utility.yul\":10364:10369   */\n      0x00\n        /* \"#utility.yul\":10402:10408   */\n      dup2\n        /* \"#utility.yul\":10389:10409   */\n      calldataload\n        /* \"#utility.yul\":10380:10409   */\n      swap1\n      pop\n        /* \"#utility.yul\":10418:10451   */\n      tag_285\n        /* \"#utility.yul\":10445:10450   */\n      dup2\n        /* \"#utility.yul\":10418:10451   */\n      tag_142\n      jump\t// in\n    tag_285:\n        /* \"#utility.yul\":10318:10457   */\n      swap3\n      swap2\n      pop\n      pop\n      jump\t// out\n        /* \"#utility.yul\":10463:10792   */\n    tag_39:\n        /* \"#utility.yul\":10522:10528   */\n      0x00\n        /* \"#utility.yul\":10571:10573   */\n      0x20\n        /* \"#utility.yul\":10559:10568   */\n      dup3\n        /* \"#utility.yul\":10550:10557   */\n      dup5\n        /* \"#utility.yul\":10546:10569   */\n      sub\n        /* \"#utility.yul\":10542:10574   */\n      slt\n        /* \"#utility.yul\":10539:10658   */\n      iszero\n      tag_287\n      jumpi\n        /* \"#utility.yul\":10577:10656   */\n      tag_288\n      tag_115\n      jump\t// in\n    tag_288:\n        /* \"#utility.yul\":10539:10658   */\n    tag_287:\n        /* \"#utility.yul\":10697:10698   */\n      0x00\n        /* \"#utility.yul\":10722:10775   */\n      tag_289\n        /* \"#utility.yul\":10767:10774   */\n      dup5\n        /* \"#utility.yul\":10758:10764   */\n      dup3\n        /* \"#utility.yul\":10747:10756   */\n      dup6\n        /* \"#utility.yul\":10743:10765   */\n      add\n        /* \"#utility.yul\":10722:10775   */\n      tag_143\n      jump\t// in\n    tag_289:\n        /* \"#utility.yul\":10712:10775   */\n      swap2\n      pop\n        /* \"#utility.yul\":10668:10785   */\n      pop\n        /* \"#utility.yul\":10463:10792   */\n      swap3\n      swap2\n      pop\n      pop\n      jump\t// out\n        /* \"#utility.yul\":10798:10967   */\n    tag_144:\n        /* \"#utility.yul\":10882:10893   */\n      0x00\n        /* \"#utility.yul\":10916:10922   */\n      dup3\n        /* \"#utility.yul\":10911:10914   */\n      dup3\n        /* \"#utility.yul\":10904:10923   */\n      mstore\n        /* \"#utility.yul\":10956:10960   */\n      0x20\n        /* \"#utility.yul\":10951:10954   */\n      dup3\n        /* \"#utility.yul\":10947:10961   */\n      add\n        /* \"#utility.yul\":10932:10961   */\n      swap1\n      pop\n        /* \"#utility.yul\":10798:10967   */\n      swap3\n      swap2\n      pop\n      pop\n      jump\t// out\n        /* \"#utility.yul\":10973:11211   */\n    tag_145:\n        /* \"#utility.yul\":11113:11147   */\n      0x4167656e7441756469744c6f676765723a2063616c6c6572206973206e6f7420\n        /* \"#utility.yul\":11109:11110   */\n      0x00\n        /* \"#utility.yul\":11101:11107   */\n      dup3\n        /* \"#utility.yul\":11097:11111   */\n      add\n        /* \"#utility.yul\":11090:11148   */\n      mstore\n        /* \"#utility.yul\":11182:11203   */\n      0x74686520676f7665726e616e636520726f6c6500000000000000000000000000\n        /* \"#utility.yul\":11177:11179   */\n      0x20\n        /* \"#utility.yul\":11169:11175   */\n      dup3\n        /* \"#utility.yul\":11165:11180   */\n      add\n        /* \"#utility.yul\":11158:11204   */\n      mstore\n        /* \"#utility.yul\":10973:11211   */\n      pop\n      jump\t// out\n        /* \"#utility.yul\":11217:11583   */\n    tag_146:\n        /* \"#utility.yul\":11359:11362   */\n      0x00\n        /* \"#utility.yul\":11380:11447   */\n      tag_293\n        /* \"#utility.yul\":11444:11446   */\n      0x33\n        /* \"#utility.yul\":11439:11442   */\n      dup4\n        /* \"#utility.yul\":11380:11447   */\n      tag_144\n      jump\t// in\n    tag_293:\n        /* \"#utility.yul\":11373:11447   */\n      swap2\n      pop\n        /* \"#utility.yul\":11456:11549   */\n      tag_294\n        /* \"#utility.yul\":11545:11548   */\n      dup3\n        /* \"#utility.yul\":11456:11549   */\n      tag_145\n      jump\t// in\n    tag_294:\n        /* \"#utility.yul\":11574:11576   */\n      0x40\n        /* \"#utility.yul\":11569:11572   */\n      dup3\n        /* \"#utility.yul\":11565:11577   */\n      add\n        /* \"#utility.yul\":11558:11577   */\n      swap1\n      pop\n        /* \"#utility.yul\":11217:11583   */\n      swap2\n      swap1\n      pop\n      jump\t// out\n        /* \"#utility.yul\":11589:12008   */\n    tag_44:\n        /* \"#utility.yul\":11755:11759   */\n      0x00\n        /* \"#utility.yul\":11793:11795   */\n      0x20\n        /* \"#utility.yul\":11782:11791   */\n      dup3\n        /* \"#utility.yul\":11778:11796   */\n      add\n        /* \"#utility.yul\":11770:11796   */\n      swap1\n      pop\n        /* \"#utility.yul\":11842:11851   */\n      dup2\n        /* \"#utility.yul\":11836:11840   */\n      dup2\n        /* \"#utility.yul\":11832:11852   */\n      sub\n        /* \"#utility.yul\":11828:11829   */\n      0x00\n        /* \"#utility.yul\":11817:11826   */\n      dup4\n        /* \"#utility.yul\":11813:11830   */\n      add\n        /* \"#utility.yul\":11806:11853   */\n      mstore\n        /* \"#utility.yul\":11870:12001   */\n      tag_296\n        /* \"#utility.yul\":11996:12000   */\n      dup2\n        /* \"#utility.yul\":11870:12001   */\n      tag_146\n      jump\t// in\n    tag_296:\n        /* \"#utility.yul\":11862:12001   */\n      swap1\n      pop\n        /* \"#utility.yul\":11589:12008   */\n      swap2\n      swap1\n      pop\n      jump\t// out\n        /* \"#utility.yul\":12014:12242   */\n    tag_147:\n        /* \"#utility.yul\":12154:12188   */\n      0x4167656e7441756469744c6f676765723a204465636973696f6e20646f657320\n        /* \"#utility.yul\":12150:12151   */\n      0x00\n        /* \"#utility.yul\":12142:12148   */\n      dup3\n        /* \"#utility.yul\":12138:12152   */\n      add\n        /* \"#utility.yul\":12131:12189   */\n      mstore\n        /* \"#utility.yul\":12223:12234   */\n      0x6e6f742065786973740000000000000000000000000000000000000000000000\n        /* \"#utility.yul\":12218:12220   */\n      0x20\n        /* \"#utility.yul\":12210:12216   */\n      dup3\n        /* \"#utility.yul\":12206:12221   */\n      add\n        /* \"#utility.yul\":12199:12235   */\n      mstore\n        /* \"#utility.yul\":12014:12242   */\n      pop\n      jump\t// out\n        /* \"#utility.yul\":12248:12614   */\n    tag_148:\n        /* \"#utility.yul\":12390:12393   */\n      0x00\n        /* \"#utility.yul\":12411:12478   */\n      tag_299\n        /* \"#utility.yul\":12475:12477   */\n      0x29\n        /* \"#utility.yul\":12470:12473   */\n      dup4\n        /* \"#utility.yul\":12411:12478   */\n      tag_144\n      jump\t// in\n    tag_299:\n        /* \"#utility.yul\":12404:12478   */\n      swap2\n      pop\n        /* \"#utility.yul\":12487:12580   */\n      tag_300\n        /* \"#utility.yul\":12576:12579   */\n      dup3\n        /* \"#utility.yul\":12487:12580   */\n      tag_147\n      jump\t// in\n    tag_300:\n        /* \"#utility.yul\":12605:12607   */\n      0x40\n        /* \"#utility.yul\":12600:12603   */\n      dup3\n        /* \"#utility.yul\":12596:12608   */\n      add\n        /* \"#utility.yul\":12589:12608   */\n      swap1\n      pop\n        /* \"#utility.yul\":12248:12614   */\n      swap2\n      swap1\n      pop\n      jump\t// out\n        /* \"#utility.yul\":12620:13039   */\n    tag_48:\n        /* \"#utility.yul\":12786:12790   */\n      0x00\n        /* \"#utility.yul\":12824:12826   */\n      0x20\n        /* \"#utility.yul\":12813:12822   */\n      dup3\n        /* \"#utility.yul\":12809:12827   */\n      add\n        /* \"#utility.yul\":12801:12827   */\n      swap1\n      pop\n        /* \"#utility.yul\":12873:12882   */\n      dup2\n        /* \"#utility.yul\":12867:12871   */\n      dup2\n        /* \"#utility.yul\":12863:12883   */\n      sub\n        /* \"#utility.yul\":12859:12860   */\n      0x00\n        /* \"#utility.yul\":12848:12857   */\n      dup4\n        /* \"#utility.yul\":12844:12861   */\n      add\n        /* \"#utility.yul\":12837:12884   */\n      mstore\n        /* \"#utility.yul\":12901:13032   */\n      tag_302\n        /* \"#utility.yul\":13027:13031   */\n      dup2\n        /* \"#utility.yul\":12901:13032   */\n      tag_148\n      jump\t// in\n    tag_302:\n        /* \"#utility.yul\":12893:13032   */\n      swap1\n      pop\n        /* \"#utility.yul\":12620:13039   */\n      swap2\n      swap1\n      pop\n      jump\t// out\n        /* \"#utility.yul\":13045:13225   */\n    tag_51:\n        /* \"#utility.yul\":13093:13170   */\n      0x4e487b7100000000000000000000000000000000000000000000000000000000\n        /* \"#utility.yul\":13090:13091   */\n      0x00\n        /* \"#utility.yul\":13083:13171   */\n      mstore\n        /* \"#utility.yul\":13190:13194   */\n      0x21\n        /* \"#utility.yul\":13187:13188   */\n      0x04\n        /* \"#utility.yul\":13180:13195   */\n      mstore\n        /* \"#utility.yul\":13214:13218   */\n      0x24\n        /* \"#utility.yul\":13211:13212   */\n      0x00\n        /* \"#utility.yul\":13204:13219   */\n      revert\n        /* \"#utility.yul\":13231:13478   */\n    tag_149:\n        /* \"#utility.yul\":13371:13405   */\n      0x4167656e7441756469744c6f676765723a204465636973696f6e206d75737420\n        /* \"#utility.yul\":13367:13368   */\n      0x00\n        /* \"#utility.yul\":13359:13365   */\n      dup3\n        /* \"#utility.yul\":13355:13369   */\n      add\n        /* \"#utility.yul\":13348:13406   */\n      mstore\n        /* \"#utility.yul\":13440:13470   */\n      0x6265206368616c6c656e67656420746f206265207265736f6c76656400000000\n        /* \"#utility.yul\":13435:13437   */\n      0x20\n        /* \"#utility.yul\":13427:13433   */\n      dup3\n        /* \"#utility.yul\":13423:13438   */\n      add\n        /* \"#utility.yul\":13416:13471   */\n      mstore\n        /* \"#utility.yul\":13231:13478   */\n      pop\n      jump\t// out\n        /* \"#utility.yul\":13484:13850   */\n    tag_150:\n        /* \"#utility.yul\":13626:13629   */\n      0x00\n        /* \"#utility.yul\":13647:13714   */\n      tag_306\n        /* \"#utility.yul\":13711:13713   */\n      0x3c\n        /* \"#utility.yul\":13706:13709   */\n      dup4\n        /* \"#utility.yul\":13647:13714   */\n      tag_144\n      jump\t// in\n    tag_306:\n        /* \"#utility.yul\":13640:13714   */\n      swap2\n      pop\n        /* \"#utility.yul\":13723:13816   */\n      tag_307\n        /* \"#utility.yul\":13812:13815   */\n      dup3\n        /* \"#utility.yul\":13723:13816   */\n      tag_149\n      jump\t// in\n    tag_307:\n        /* \"#utility.yul\":13841:13843   */\n      0x40\n        /* \"#utility.yul\":13836:13839   */\n      dup3\n        /* \"#utility.yul\":13832:13844   */\n      add\n        /* \"#utility.yul\":13825:13844   */\n      swap1\n      pop\n        /* \"#utility.yul\":13484:13850   */\n      swap2\n      swap1\n      pop\n      jump\t// out\n        /* \"#utility.yul\":13856:14275   */\n    tag_54:\n        /* \"#utility.yul\":14022:14026   */\n      0x00\n        /* \"#utility.yul\":14060:14062   */\n      0x20\n        /* \"#utility.yul\":14049:14058   */\n      dup3\n        /* \"#utility.yul\":14045:14063   */\n      add\n        /* \"#utility.yul\":14037:14063   */\n      swap1\n      pop\n        /* \"#utility.yul\":14109:14118   */\n      dup2\n        /* \"#utility.yul\":14103:14107   */\n      dup2\n        /* \"#utility.yul\":14099:14119   */\n      sub\n        /* \"#utility.yul\":14095:14096   */\n      0x00\n        /* \"#utility.yul\":14084:14093   */\n      dup4\n        /* \"#utility.yul\":14080:14097   */\n      add\n        /* \"#utility.yul\":14073:14120   */\n      mstore\n        /* \"#utility.yul\":14137:14268   */\n      tag_309\n        /* \"#utility.yul\":14263:14267   */\n      dup2\n        /* \"#utility.yul\":14137:14268   */\n      tag_150\n      jump\t// in\n    tag_309:\n        /* \"#utility.yul\":14129:14268   */\n      swap1\n      pop\n        /* \"#utility.yul\":13856:14275   */\n      swap2\n      swap1\n      pop\n      jump\t// out\n        /* \"#utility.yul\":14281:14390   */\n    tag_151:\n        /* \"#utility.yul\":14362:14383   */\n      tag_311\n        /* \"#utility.yul\":14377:14382   */\n      dup2\n        /* \"#utility.yul\":14362:14383   */\n      tag_119\n      jump\t// in\n    tag_311:\n        /* \"#utility.yul\":14357:14360   */\n      dup3\n        /* \"#utility.yul\":14350:14384   */\n      mstore\n        /* \"#utility.yul\":14281:14390   */\n      pop\n      pop\n      jump\t// out\n        /* \"#utility.yul\":14396:14606   */\n    tag_58:\n        /* \"#utility.yul\":14483:14487   */\n      0x00\n        /* \"#utility.yul\":14521:14523   */\n      0x20\n        /* \"#utility.yul\":14510:14519   */\n      dup3\n        /* \"#utility.yul\":14506:14524   */\n      add\n        /* \"#utility.yul\":14498:14524   */\n      swap1\n      pop\n        /* \"#utility.yul\":14534:14599   */\n      tag_313\n        /* \"#utility.yul\":14596:14597   */\n      0x00\n        /* \"#utility.yul\":14585:14594   */\n      dup4\n        /* \"#utility.yul\":14581:14598   */\n      add\n        /* \"#utility.yul\":14572:14578   */\n      dup5\n        /* \"#utility.yul\":14534:14599   */\n      tag_151\n      jump\t// in\n    tag_313:\n        /* \"#utility.yul\":14396:14606   */\n      swap3\n      swap2\n      pop\n      pop\n      jump\t// out\n        /* \"#utility.yul\":14612:14792   */\n    tag_152:\n        /* \"#utility.yul\":14660:14737   */\n      0x4e487b7100000000000000000000000000000000000000000000000000000000\n        /* \"#utility.yul\":14657:14658   */\n      0x00\n        /* \"#utility.yul\":14650:14738   */\n      mstore\n        /* \"#utility.yul\":14757:14761   */\n      0x22\n        /* \"#utility.yul\":14754:14755   */\n      0x04\n        /* \"#utility.yul\":14747:14762   */\n      mstore\n        /* \"#utility.yul\":14781:14785   */\n      0x24\n        /* \"#utility.yul\":14778:14779   */\n      0x00\n        /* \"#utility.yul\":14771:14786   */\n      revert\n        /* \"#utility.yul\":14798:15118   */\n    tag_76:\n        /* \"#utility.yul\":14842:14848   */\n      0x00\n        /* \"#utility.yul\":14879:14880   */\n      0x02\n        /* \"#utility.yul\":14873:14877   */\n      dup3\n        /* \"#utility.yul\":14869:14881   */\n      div\n        /* \"#utility.yul\":14859:14881   */\n      swap1\n      pop\n        /* \"#utility.yul\":14926:14927   */\n      0x01\n        /* \"#utility.yul\":14920:14924   */\n      dup3\n        /* \"#utility.yul\":14916:14928   */\n      and\n        /* \"#utility.yul\":14947:14965   */\n      dup1\n        /* \"#utility.yul\":14937:15018   */\n      tag_316\n      jumpi\n        /* \"#utility.yul\":15003:15007   */\n      0x7f\n        /* \"#utility.yul\":14995:15001   */\n      dup3\n        /* \"#utility.yul\":14991:15008   */\n      and\n        /* \"#utility.yul\":14981:15008   */\n      swap2\n      pop\n        /* \"#utility.yul\":14937:15018   */\n    tag_316:\n        /* \"#utility.yul\":15065:15067   */\n      0x20\n        /* \"#utility.yul\":15057:15063   */\n      dup3\n        /* \"#utility.yul\":15054:15068   */\n      lt\n        /* \"#utility.yul\":15034:15052   */\n      dup2\n        /* \"#utility.yul\":15031:15069   */\n      sub\n        /* \"#utility.yul\":15028:15112   */\n      tag_317\n      jumpi\n        /* \"#utility.yul\":15084:15102   */\n      tag_318\n      tag_152\n      jump\t// in\n    tag_318:\n        /* \"#utility.yul\":15028:15112   */\n    tag_317:\n        /* \"#utility.yul\":14849:15118   */\n      pop\n        /* \"#utility.yul\":14798:15118   */\n      swap2\n      swap1\n      pop\n      jump\t// out\n        /* \"#utility.yul\":15124:15265   */\n    tag_153:\n        /* \"#utility.yul\":15173:15177   */\n      0x00\n        /* \"#utility.yul\":15196:15199   */\n      dup2\n        /* \"#utility.yul\":15188:15199   */\n      swap1\n      pop\n        /* \"#utility.yul\":15219:15222   */\n      dup2\n        /* \"#utility.yul\":15216:15217   */\n      0x00\n        /* \"#utility.yul\":15209:15223   */\n      mstore\n        /* \"#utility.yul\":15253:15257   */\n      0x20\n        /* \"#utility.yul\":15250:15251   */\n      0x00\n        /* \"#utility.yul\":15240:15258   */\n      keccak256\n        /* \"#utility.yul\":15232:15258   */\n      swap1\n      pop\n        /* \"#utility.yul\":15124:15265   */\n      swap2\n      swap1\n      pop\n      jump\t// out\n        /* \"#utility.yul\":15271:15364   */\n    tag_154:\n        /* \"#utility.yul\":15308:15314   */\n      0x00\n        /* \"#utility.yul\":15355:15357   */\n      0x20\n        /* \"#utility.yul\":15350:15352   */\n      0x1f\n        /* \"#utility.yul\":15343:15348   */\n      dup4\n        /* \"#utility.yul\":15339:15353   */\n      add\n        /* \"#utility.yul\":15335:15358   */\n      div\n        /* \"#utility.yul\":15325:15358   */\n      swap1\n      pop\n        /* \"#utility.yul\":15271:15364   */\n      swap2\n      swap1\n      pop\n      jump\t// out\n        /* \"#utility.yul\":15370:15477   */\n    tag_155:\n        /* \"#utility.yul\":15414:15422   */\n      0x00\n        /* \"#utility.yul\":15464:15469   */\n      dup3\n        /* \"#utility.yul\":15458:15462   */\n      dup3\n        /* \"#utility.yul\":15454:15470   */\n      shl\n        /* \"#utility.yul\":15433:15470   */\n      swap1\n      pop\n        /* \"#utility.yul\":15370:15477   */\n      swap3\n      swap2\n      pop\n      pop\n      jump\t// out\n        /* \"#utility.yul\":15483:15876   */\n    tag_156:\n        /* \"#utility.yul\":15552:15558   */\n      0x00\n        /* \"#utility.yul\":15602:15603   */\n      0x08\n        /* \"#utility.yul\":15590:15600   */\n      dup4\n        /* \"#utility.yul\":15586:15604   */\n      mul\n        /* \"#utility.yul\":15625:15722   */\n      tag_323\n        /* \"#utility.yul\":15655:15721   */\n      0xffffffffffffffffffffffffffffffffffffffffffffffffffffffffffffffff\n        /* \"#utility.yul\":15644:15653   */\n      dup3\n        /* \"#utility.yul\":15625:15722   */\n      tag_155\n      jump\t// in\n    tag_323:\n        /* \"#utility.yul\":15743:15782   */\n      tag_324\n        /* \"#utility.yul\":15773:15781   */\n      dup7\n        /* \"#utility.yul\":15762:15771   */\n      dup4\n        /* \"#utility.yul\":15743:15782   */\n      tag_155\n      jump\t// in\n    tag_324:\n        /* \"#utility.yul\":15731:15782   */\n      swap6\n      pop\n        /* \"#utility.yul\":15815:15819   */\n      dup1\n        /* \"#utility.yul\":15811:15820   */\n      not\n        /* \"#utility.yul\":15804:15809   */\n      dup5\n        /* \"#utility.yul\":15800:15821   */\n      and\n        /* \"#utility.yul\":15791:15821   */\n      swap4\n      pop\n        /* \"#utility.yul\":15864:15868   */\n      dup1\n        /* \"#utility.yul\":15854:15862   */\n      dup7\n        /* \"#utility.yul\":15850:15869   */\n      and\n        /* \"#utility.yul\":15843:15848   */\n      dup5\n        /* \"#utility.yul\":15840:15870   */\n      or\n        /* \"#utility.yul\":15830:15870   */\n      swap3\n      pop\n        /* \"#utility.yul\":15559:15876   */\n      pop\n      pop\n        /* \"#utility.yul\":15483:15876   */\n      swap4\n      swap3\n      pop\n      pop\n      pop\n      jump\t// out\n        /* \"#utility.yul\":15882:15942   */\n    tag_157:\n        /* \"#utility.yul\":15910:15913   */\n      0x00\n        /* \"#utility.yul\":15931:15936   */\n      dup2\n        /* \"#utility.yul\":15924:15936   */\n      swap1\n      pop\n        /* \"#utility.yul\":15882:15942   */\n      swap2\n      swap1\n      pop\n      jump\t// out\n        /* \"#utility.yul\":15948:16090   */\n    tag_158:\n        /* \"#utility.yul\":15998:16007   */\n      0x00\n        /* \"#utility.yul\":16031:16084   */\n      tag_327\n        /* \"#utility.yul\":16049:16083   */\n      tag_328\n        /* \"#utility.yul\":16058:16082   */\n      tag_329\n        /* \"#utility.yul\":16076:16081   */\n      dup5\n        /* \"#utility.yul\":16058:16082   */\n      tag_109\n      jump\t// in\n    tag_329:\n        /* \"#utility.yul\":16049:16083   */\n      tag_157\n      jump\t// in\n    tag_328:\n        /* \"#utility.yul\":16031:16084   */\n      tag_109\n      jump\t// in\n    tag_327:\n        /* \"#utility.yul\":16018:16084   */\n      swap1\n      pop\n        /* \"#utility.yul\":15948:16090   */\n      swap2\n      swap1\n      pop\n      jump\t// out\n        /* \"#utility.yul\":16096:16171   */\n    tag_159:\n        /* \"#utility.yul\":16139:16142   */\n      0x00\n        /* \"#utility.yul\":16160:16165   */\n      dup2\n        /* \"#utility.yul\":16153:16165   */\n      swap1\n      pop\n        /* \"#utility.yul\":16096:16171   */\n      swap2\n      swap1\n      pop\n      jump\t// out\n        /* \"#utility.yul\":16177:16446   */\n    tag_160:\n        /* \"#utility.yul\":16287:16326   */\n      tag_332\n        /* \"#utility.yul\":16318:16325   */\n      dup4\n        /* \"#utility.yul\":16287:16326   */\n      tag_158\n      jump\t// in\n    tag_332:\n        /* \"#utility.yul\":16348:16439   */\n      tag_333\n        /* \"#utility.yul\":16397:16438   */\n      tag_334\n        /* \"#utility.yul\":16421:16437   */\n      dup3\n        /* \"#utility.yul\":16397:16438   */\n      tag_159\n      jump\t// in\n    tag_334:\n        /* \"#utility.yul\":16389:16395   */\n      dup5\n        /* \"#utility.yul\":16382:16386   */\n      dup5\n        /* \"#utility.yul\":16376:16387   */\n      sload\n        /* \"#utility.yul\":16348:16439   */\n      tag_156\n      jump\t// in\n    tag_333:\n        /* \"#utility.yul\":16342:16346   */\n      dup3\n        /* \"#utility.yul\":16335:16440   */\n      sstore\n        /* \"#utility.yul\":16253:16446   */\n      pop\n        /* \"#utility.yul\":16177:16446   */\n      pop\n      pop\n      pop\n      jump\t// out\n        /* \"#utility.yul\":16452:16525   */\n    tag_161:\n        /* \"#utility.yul\":16497:16500   */\n      0x00\n        /* \"#utility.yul\":16452:16525   */\n      swap1\n      jump\t// out\n        /* \"#utility.yul\":16531:16720   */\n    tag_162:\n        /* \"#utility.yul\":16608:16640   */\n      tag_337\n      tag_161\n      jump\t// in\n    tag_337:\n        /* \"#utility.yul\":16649:16714   */\n      tag_338\n        /* \"#utility.yul\":16707:16713   */\n      dup2\n        /* \"#utility.yul\":16699:16705   */\n      dup5\n        /* \"#utility.yul\":16693:16697   */\n      dup5\n        /* \"#utility.yul\":16649:16714   */\n      tag_160\n      jump\t// in\n    tag_338:\n        /* \"#utility.yul\":16584:16720   */\n      pop\n        /* \"#utility.yul\":16531:16720   */\n      pop\n      pop\n      jump\t// out\n        /* \"#utility.yul\":16726:16912   */\n    tag_163:\n        /* \"#utility.yul\":16786:16906   */\n    tag_340:\n        /* \"#utility.yul\":16803:16806   */\n      dup2\n        /* \"#utility.yul\":16796:16801   */\n      dup2\n        /* \"#utility.yul\":16793:16807   */\n      lt\n        /* \"#utility.yul\":16786:16906   */\n      iszero\n      tag_342\n      jumpi\n        /* \"#utility.yul\":16857:16896   */\n      tag_343\n        /* \"#utility.yul\":16894:16895   */\n      0x00\n        /* \"#utility.yul\":16887:16892   */\n      dup3\n        /* \"#utility.yul\":16857:16896   */\n      tag_162\n      jump\t// in\n    tag_343:\n        /* \"#utility.yul\":16830:16831   */\n      0x01\n        /* \"#utility.yul\":16823:16828   */\n      dup2\n        /* \"#utility.yul\":16819:16832   */\n      add\n        /* \"#utility.yul\":16810:16832   */\n      swap1\n      pop\n        /* \"#utility.yul\":16786:16906   */\n      jump(tag_340)\n    tag_342:\n        /* \"#utility.yul\":16726:16912   */\n      pop\n      pop\n      jump\t// out\n        /* \"#utility.yul\":16918:17461   */\n    tag_164:\n        /* \"#utility.yul\":17019:17021   */\n      0x1f\n        /* \"#utility.yul\":17014:17017   */\n      dup3\n        /* \"#utility.yul\":17011:17022   */\n      gt\n        /* \"#utility.yul\":17008:17454   */\n      iszero\n      tag_345\n      jumpi\n        /* \"#utility.yul\":17053:17091   */\n      tag_346\n        /* \"#utility.yul\":17085:17090   */\n      dup2\n        /* \"#utility.yul\":17053:17091   */\n      tag_153\n      jump\t// in\n    tag_346:\n        /* \"#utility.yul\":17137:17166   */\n      tag_347\n        /* \"#utility.yul\":17155:17165   */\n      dup5\n        /* \"#utility.yul\":17137:17166   */\n      tag_154\n      jump\t// in\n    tag_347:\n        /* \"#utility.yul\":17127:17135   */\n      dup2\n        /* \"#utility.yul\":17123:17167   */\n      add\n        /* \"#utility.yul\":17320:17322   */\n      0x20\n        /* \"#utility.yul\":17308:17318   */\n      dup6\n        /* \"#utility.yul\":17305:17323   */\n      lt\n        /* \"#utility.yul\":17302:17351   */\n      iszero\n      tag_348\n      jumpi\n        /* \"#utility.yul\":17341:17349   */\n      dup2\n        /* \"#utility.yul\":17326:17349   */\n      swap1\n      pop\n        /* \"#utility.yul\":17302:17351   */\n    tag_348:\n        /* \"#utility.yul\":17364:17444   */\n      tag_349\n        /* \"#utility.yul\":17420:17442   */\n      tag_350\n        /* \"#utility.yul\":17438:17441   */\n      dup6\n        /* \"#utility.yul\":17420:17442   */\n      tag_154\n      jump\t// in\n    tag_350:\n        /* \"#utility.yul\":17410:17418   */\n      dup4\n        /* \"#utility.yul\":17406:17443   */\n      add\n        /* \"#utility.yul\":17393:17404   */\n      dup3\n        /* \"#utility.yul\":17364:17444   */\n      tag_163\n      jump\t// in\n    tag_349:\n        /* \"#utility.yul\":17023:17454   */\n      pop\n      pop\n        /* \"#utility.yul\":17008:17454   */\n    tag_345:\n        /* \"#utility.yul\":16918:17461   */\n      pop\n      pop\n      pop\n      jump\t// out\n        /* \"#utility.yul\":17467:17584   */\n    tag_165:\n        /* \"#utility.yul\":17521:17529   */\n      0x00\n        /* \"#utility.yul\":17571:17576   */\n      dup3\n        /* \"#utility.yul\":17565:17569   */\n      dup3\n        /* \"#utility.yul\":17561:17577   */\n      shr\n        /* \"#utility.yul\":17540:17577   */\n      swap1\n      pop\n        /* \"#utility.yul\":17467:17584   */\n      swap3\n      swap2\n      pop\n      pop\n      jump\t// out\n        /* \"#utility.yul\":17590:17759   */\n    tag_166:\n        /* \"#utility.yul\":17634:17640   */\n      0x00\n        /* \"#utility.yul\":17667:17718   */\n      tag_353\n        /* \"#utility.yul\":17715:17716   */\n      0x00\n        /* \"#utility.yul\":17711:17717   */\n      not\n        /* \"#utility.yul\":17703:17708   */\n      dup5\n        /* \"#utility.yul\":17700:17701   */\n      0x08\n        /* \"#utility.yul\":17696:17709   */\n      mul\n        /* \"#utility.yul\":17667:17718   */\n      tag_165\n      jump\t// in\n    tag_353:\n        /* \"#utility.yul\":17663:17719   */\n      not\n        /* \"#utility.yul\":17748:17752   */\n      dup1\n        /* \"#utility.yul\":17742:17746   */\n      dup4\n        /* \"#utility.yul\":17738:17753   */\n      and\n        /* \"#utility.yul\":17728:17753   */\n      swap2\n      pop\n        /* \"#utility.yul\":17641:17759   */\n      pop\n        /* \"#utility.yul\":17590:17759   */\n      swap3\n      swap2\n      pop\n      pop\n      jump\t// out\n        /* \"#utility.yul\":17764:18059   */\n    tag_167:\n        /* \"#utility.yul\":17840:17844   */\n      0x00\n        /* \"#utility.yul\":17986:18015   */\n      tag_355\n        /* \"#utility.yul\":18011:18014   */\n      dup4\n        /* \"#utility.yul\":18005:18009   */\n      dup4\n        /* \"#utility.yul\":17986:18015   */\n      tag_166\n      jump\t// in\n    tag_355:\n        /* \"#utility.yul\":17978:18015   */\n      swap2\n      pop\n        /* \"#utility.yul\":18048:18051   */\n      dup3\n        /* \"#utility.yul\":18045:18046   */\n      0x02\n        /* \"#utility.yul\":18041:18052   */\n      mul\n        /* \"#utility.yul\":18035:18039   */\n      dup3\n        /* \"#utility.yul\":18032:18053   */\n      or\n        /* \"#utility.yul\":18024:18053   */\n      swap1\n      pop\n        /* \"#utility.yul\":17764:18059   */\n      swap3\n      swap2\n      pop\n      pop\n      jump\t// out\n        /* \"#utility.yul\":18064:19459   */\n    tag_63:\n        /* \"#utility.yul\":18181:18218   */\n      tag_357\n        /* \"#utility.yul\":18214:18217   */\n      dup3\n        /* \"#utility.yul\":18181:18218   */\n      tag_133\n      jump\t// in\n    tag_357:\n        /* \"#utility.yul\":18283:18301   */\n      0xffffffffffffffff\n        /* \"#utility.yul\":18275:18281   */\n      dup2\n        /* \"#utility.yul\":18272:18302   */\n      gt\n        /* \"#utility.yul\":18269:18325   */\n      iszero\n      tag_358\n      jumpi\n        /* \"#utility.yul\":18305:18323   */\n      tag_359\n      tag_125\n      jump\t// in\n    tag_359:\n        /* \"#utility.yul\":18269:18325   */\n    tag_358:\n        /* \"#utility.yul\":18349:18387   */\n      tag_360\n        /* \"#utility.yul\":18381:18385   */\n      dup3\n        /* \"#utility.yul\":18375:18386   */\n      sload\n        /* \"#utility.yul\":18349:18387   */\n      tag_76\n      jump\t// in\n    tag_360:\n        /* \"#utility.yul\":18434:18501   */\n      tag_361\n        /* \"#utility.yul\":18494:18500   */\n      dup3\n        /* \"#utility.yul\":18486:18492   */\n      dup3\n        /* \"#utility.yul\":18480:18484   */\n      dup6\n        /* \"#utility.yul\":18434:18501   */\n      tag_164\n      jump\t// in\n    tag_361:\n        /* \"#utility.yul\":18528:18529   */\n      0x00\n        /* \"#utility.yul\":18552:18556   */\n      0x20\n        /* \"#utility.yul\":18539:18556   */\n      swap1\n      pop\n        /* \"#utility.yul\":18584:18586   */\n      0x1f\n        /* \"#utility.yul\":18576:18582   */\n      dup4\n        /* \"#utility.yul\":18573:18587   */\n      gt\n        /* \"#utility.yul\":18601:18602   */\n      0x01\n        /* \"#utility.yul\":18596:19214   */\n      dup2\n      eq\n      tag_363\n      jumpi\n        /* \"#utility.yul\":19258:19259   */\n      0x00\n        /* \"#utility.yul\":19275:19281   */\n      dup5\n        /* \"#utility.yul\":19272:19349   */\n      iszero\n      tag_364\n      jumpi\n        /* \"#utility.yul\":19324:19333   */\n      dup3\n        /* \"#utility.yul\":19319:19322   */\n      dup8\n        /* \"#utility.yul\":19315:19334   */\n      add\n        /* \"#utility.yul\":19309:19335   */\n      mload\n        /* \"#utility.yul\":19300:19335   */\n      swap1\n      pop\n        /* \"#utility.yul\":19272:19349   */\n    tag_364:\n        /* \"#utility.yul\":19375:19442   */\n      tag_365\n        /* \"#utility.yul\":19435:19441   */\n      dup6\n        /* \"#utility.yul\":19428:19433   */\n      dup3\n        /* \"#utility.yul\":19375:19442   */\n      tag_167\n      jump\t// in\n    tag_365:\n        /* \"#utility.yul\":19369:19373   */\n      dup7\n        /* \"#utility.yul\":19362:19443   */\n      sstore\n        /* \"#utility.yul\":19231:19453   */\n      pop\n        /* \"#utility.yul\":18566:19453   */\n      jump(tag_362)\n        /* \"#utility.yul\":18596:19214   */\n    tag_363:\n        /* \"#utility.yul\":18648:18652   */\n      0x1f\n        /* \"#utility.yul\":18644:18653   */\n      not\n        /* \"#utility.yul\":18636:18642   */\n      dup5\n        /* \"#utility.yul\":18632:18654   */\n      and\n        /* \"#utility.yul\":18682:18719   */\n      tag_366\n        /* \"#utility.yul\":18714:18718   */\n      dup7\n        /* \"#utility.yul\":18682:18719   */\n      tag_153\n      jump\t// in\n    tag_366:\n        /* \"#utility.yul\":18741:18742   */\n      0x00\n        /* \"#utility.yul\":18755:18963   */\n    tag_367:\n        /* \"#utility.yul\":18769:18776   */\n      dup3\n        /* \"#utility.yul\":18766:18767   */\n      dup2\n        /* \"#utility.yul\":18763:18777   */\n      lt\n        /* \"#utility.yul\":18755:18963   */\n      iszero\n      tag_369\n      jumpi\n        /* \"#utility.yul\":18848:18857   */\n      dup5\n        /* \"#utility.yul\":18843:18846   */\n      dup10\n        /* \"#utility.yul\":18839:18858   */\n      add\n        /* \"#utility.yul\":18833:18859   */\n      mload\n        /* \"#utility.yul\":18825:18831   */\n      dup3\n        /* \"#utility.yul\":18818:18860   */\n      sstore\n        /* \"#utility.yul\":18899:18900   */\n      0x01\n        /* \"#utility.yul\":18891:18897   */\n      dup3\n        /* \"#utility.yul\":18887:18901   */\n      add\n        /* \"#utility.yul\":18877:18901   */\n      swap2\n      pop\n        /* \"#utility.yul\":18946:18948   */\n      0x20\n        /* \"#utility.yul\":18935:18944   */\n      dup6\n        /* \"#utility.yul\":18931:18949   */\n      add\n        /* \"#utility.yul\":18918:18949   */\n      swap5\n      pop\n        /* \"#utility.yul\":18792:18796   */\n      0x20\n        /* \"#utility.yul\":18789:18790   */\n      dup2\n        /* \"#utility.yul\":18785:18797   */\n      add\n        /* \"#utility.yul\":18780:18797   */\n      swap1\n      pop\n        /* \"#utility.yul\":18755:18963   */\n      jump(tag_367)\n    tag_369:\n        /* \"#utility.yul\":18991:18997   */\n      dup7\n        /* \"#utility.yul\":18982:18989   */\n      dup4\n        /* \"#utility.yul\":18979:18998   */\n      lt\n        /* \"#utility.yul\":18976:19155   */\n      iszero\n      tag_370\n      jumpi\n        /* \"#utility.yul\":19049:19058   */\n      dup5\n        /* \"#utility.yul\":19044:19047   */\n      dup10\n        /* \"#utility.yul\":19040:19059   */\n      add\n        /* \"#utility.yul\":19034:19060   */\n      mload\n        /* \"#utility.yul\":19092:19140   */\n      tag_371\n        /* \"#utility.yul\":19134:19138   */\n      0x1f\n        /* \"#utility.yul\":19126:19132   */\n      dup10\n        /* \"#utility.yul\":19122:19139   */\n      and\n        /* \"#utility.yul\":19111:19120   */\n      dup3\n        /* \"#utility.yul\":19092:19140   */\n      tag_166\n      jump\t// in\n    tag_371:\n        /* \"#utility.yul\":19084:19090   */\n      dup4\n        /* \"#utility.yul\":19077:19141   */\n      sstore\n        /* \"#utility.yul\":18999:19155   */\n      pop\n        /* \"#utility.yul\":18976:19155   */\n    tag_370:\n        /* \"#utility.yul\":19201:19202   */\n      0x01\n        /* \"#utility.yul\":19197:19198   */\n      0x02\n        /* \"#utility.yul\":19189:19195   */\n      dup9\n        /* \"#utility.yul\":19185:19199   */\n      mul\n        /* \"#utility.yul\":19181:19203   */\n      add\n        /* \"#utility.yul\":19175:19179   */\n      dup9\n        /* \"#utility.yul\":19168:19204   */\n      sstore\n        /* \"#utility.yul\":18603:19214   */\n      pop\n      pop\n      pop\n        /* \"#utility.yul\":18566:19453   */\n    tag_362:\n      pop\n        /* \"#utility.yul\":18156:19459   */\n      pop\n      pop\n      pop\n        /* \"#utility.yul\":18064:19459   */\n      pop\n      pop\n      jump\t// out\n        /* \"#utility.yul\":19465:19645   */\n    tag_168:\n        /* \"#utility.yul\":19513:19590   */\n      0x4e487b7100000000000000000000000000000000000000000000000000000000\n        /* \"#utility.yul\":19510:19511   */\n      0x00\n        /* \"#utility.yul\":19503:19591   */\n      mstore\n        /* \"#utility.yul\":19610:19614   */\n      0x11\n        /* \"#utility.yul\":19607:19608   */\n      0x04\n        /* \"#utility.yul\":19600:19615   */\n      mstore\n        /* \"#utility.yul\":19634:19638   */\n      0x24\n        /* \"#utility.yul\":19631:19632   */\n      0x00\n        /* \"#utility.yul\":19624:19639   */\n      revert\n        /* \"#utility.yul\":19651:19884   */\n    tag_67:\n        /* \"#utility.yul\":19690:19693   */\n      0x00\n        /* \"#utility.yul\":19713:19737   */\n      tag_374\n        /* \"#utility.yul\":19731:19736   */\n      dup3\n        /* \"#utility.yul\":19713:19737   */\n      tag_109\n      jump\t// in\n    tag_374:\n        /* \"#utility.yul\":19704:19737   */\n      swap2\n      pop\n        /* \"#utility.yul\":19759:19825   */\n      0xffffffffffffffffffffffffffffffffffffffffffffffffffffffffffffffff\n        /* \"#utility.yul\":19752:19757   */\n      dup3\n        /* \"#utility.yul\":19749:19826   */\n      sub\n        /* \"#utility.yul\":19746:19849   */\n      tag_375\n      jumpi\n        /* \"#utility.yul\":19829:19847   */\n      tag_376\n      tag_168\n      jump\t// in\n    tag_376:\n        /* \"#utility.yul\":19746:19849   */\n    tag_375:\n        /* \"#utility.yul\":19876:19877   */\n      0x01\n        /* \"#utility.yul\":19869:19874   */\n      dup3\n        /* \"#utility.yul\":19865:19878   */\n      add\n        /* \"#utility.yul\":19858:19878   */\n      swap1\n      pop\n        /* \"#utility.yul\":19651:19884   */\n      swap2\n      swap1\n      pop\n      jump\t// out\n        /* \"#utility.yul\":19890:20267   */\n    tag_169:\n        /* \"#utility.yul\":19978:19981   */\n      0x00\n        /* \"#utility.yul\":20006:20045   */\n      tag_378\n        /* \"#utility.yul\":20039:20044   */\n      dup3\n        /* \"#utility.yul\":20006:20045   */\n      tag_133\n      jump\t// in\n    tag_378:\n        /* \"#utility.yul\":20061:20132   */\n      tag_379\n        /* \"#utility.yul\":20125:20131   */\n      dup2\n        /* \"#utility.yul\":20120:20123   */\n      dup6\n        /* \"#utility.yul\":20061:20132   */\n      tag_144\n      jump\t// in\n    tag_379:\n        /* \"#utility.yul\":20054:20132   */\n      swap4\n      pop\n        /* \"#utility.yul\":20141:20206   */\n      tag_380\n        /* \"#utility.yul\":20199:20205   */\n      dup2\n        /* \"#utility.yul\":20194:20197   */\n      dup6\n        /* \"#utility.yul\":20187:20191   */\n      0x20\n        /* \"#utility.yul\":20180:20185   */\n      dup7\n        /* \"#utility.yul\":20176:20192   */\n      add\n        /* \"#utility.yul\":20141:20206   */\n      tag_135\n      jump\t// in\n    tag_380:\n        /* \"#utility.yul\":20231:20260   */\n      tag_381\n        /* \"#utility.yul\":20253:20259   */\n      dup2\n        /* \"#utility.yul\":20231:20260   */\n      tag_124\n      jump\t// in\n    tag_381:\n        /* \"#utility.yul\":20226:20229   */\n      dup5\n        /* \"#utility.yul\":20222:20261   */\n      add\n        /* \"#utility.yul\":20215:20261   */\n      swap2\n      pop\n        /* \"#utility.yul\":19982:20267   */\n      pop\n        /* \"#utility.yul\":19890:20267   */\n      swap3\n      swap2\n      pop\n      pop\n      jump\t// out\n        /* \"#utility.yul\":20273:20696   */\n    tag_69:\n        /* \"#utility.yul\":20414:20418   */\n      0x00\n        /* \"#utility.yul\":20452:20454   */\n      0x40\n        /* \"#utility.yul\":20441:20450   */\n      dup3\n        /* \"#utility.yul\":20437:20455   */\n      add\n        /* \"#utility.yul\":20429:20455   */\n      swap1\n      pop\n        /* \"#utility.yul\":20501:20510   */\n      dup2\n        /* \"#utility.yul\":20495:20499   */\n      dup2\n        /* \"#utility.yul\":20491:20511   */\n      sub\n        /* \"#utility.yul\":20487:20488   */\n      0x00\n        /* \"#utility.yul\":20476:20485   */\n      dup4\n        /* \"#utility.yul\":20472:20489   */\n      add\n        /* \"#utility.yul\":20465:20512   */\n      mstore\n        /* \"#utility.yul\":20529:20607   */\n      tag_383\n        /* \"#utility.yul\":20602:20606   */\n      dup2\n        /* \"#utility.yul\":20593:20599   */\n      dup6\n        /* \"#utility.yul\":20529:20607   */\n      tag_169\n      jump\t// in\n    tag_383:\n        /* \"#utility.yul\":20521:20607   */\n      swap1\n      pop\n        /* \"#utility.yul\":20617:20689   */\n      tag_384\n        /* \"#utility.yul\":20685:20687   */\n      0x20\n        /* \"#utility.yul\":20674:20683   */\n      dup4\n        /* \"#utility.yul\":20670:20688   */\n      add\n        /* \"#utility.yul\":20661:20667   */\n      dup5\n        /* \"#utility.yul\":20617:20689   */\n      tag_113\n      jump\t// in\n    tag_384:\n        /* \"#utility.yul\":20273:20696   */\n      swap4\n      swap3\n      pop\n      pop\n      pop\n      jump\t// out\n        /* \"#utility.yul\":20702:20953   */\n    tag_170:\n        /* \"#utility.yul\":20842:20876   */\n      0x4167656e7441756469744c6f676765723a204465636973696f6e206e6f742069\n        /* \"#utility.yul\":20838:20839   */\n      0x00\n        /* \"#utility.yul\":20830:20836   */\n      dup3\n        /* \"#utility.yul\":20826:20840   */\n      add\n        /* \"#utility.yul\":20819:20877   */\n      mstore\n        /* \"#utility.yul\":20911:20945   */\n      0x6e20636f727265637420737461746520746f206265206368616c6c656e676564\n        /* \"#utility.yul\":20906:20908   */\n      0x20\n        /* \"#utility.yul\":20898:20904   */\n      dup3\n        /* \"#utility.yul\":20894:20909   */\n      add\n        /* \"#utility.yul\":20887:20946   */\n      mstore\n        /* \"#utility.yul\":20702:20953   */\n      pop\n      jump\t// out\n        /* \"#utility.yul\":20959:21325   */\n    tag_171:\n        /* \"#utility.yul\":21101:21104   */\n      0x00\n        /* \"#utility.yul\":21122:21189   */\n      tag_387\n        /* \"#utility.yul\":21186:21188   */\n      0x40\n        /* \"#utility.yul\":21181:21184   */\n      dup4\n        /* \"#utility.yul\":21122:21189   */\n      tag_144\n      jump\t// in\n    tag_387:\n        /* \"#utility.yul\":21115:21189   */\n      swap2\n      pop\n        /* \"#utility.yul\":21198:21291   */\n      tag_388\n        /* \"#utility.yul\":21287:21290   */\n      dup3\n        /* \"#utility.yul\":21198:21291   */\n      tag_170\n      jump\t// in\n    tag_388:\n        /* \"#utility.yul\":21316:21318   */\n      0x40\n        /* \"#utility.yul\":21311:21314   */\n      dup3\n        /* \"#utility.yul\":21307:21319   */\n      add\n        /* \"#utility.yul\":21300:21319   */\n      swap1\n      pop\n        /* \"#utility.yul\":20959:21325   */\n      swap2\n      swap1\n      pop\n      jump\t// out\n        /* \"#utility.yul\":21331:21750   */\n    tag_98:\n        /* \"#utility.yul\":21497:21501   */\n      0x00\n        /* \"#utility.yul\":21535:21537   */\n      0x20\n        /* \"#utility.yul\":21524:21533   */\n      dup3\n        /* \"#utility.yul\":21520:21538   */\n      add\n        /* \"#utility.yul\":21512:21538   */\n      swap1\n      pop\n        /* \"#utility.yul\":21584:21593   */\n      dup2\n        /* \"#utility.yul\":21578:21582   */\n      dup2\n        /* \"#utility.yul\":21574:21594   */\n      sub\n        /* \"#utility.yul\":21570:21571   */\n      0x00\n        /* \"#utility.yul\":21559:21568   */\n      dup4\n        /* \"#utility.yul\":21555:21572   */\n      add\n        /* \"#utility.yul\":21548:21595   */\n      mstore\n        /* \"#utility.yul\":21612:21743   */\n      tag_390\n        /* \"#utility.yul\":21738:21742   */\n      dup2\n        /* \"#utility.yul\":21612:21743   */\n      tag_171\n      jump\t// in\n    tag_390:\n        /* \"#utility.yul\":21604:21743   */\n      swap1\n      pop\n        /* \"#utility.yul\":21331:21750   */\n      swap2\n      swap1\n      pop\n      jump\t// out\n        /* \"#utility.yul\":21756:21995   */\n    tag_172:\n        /* \"#utility.yul\":21896:21930   */\n      0x4167656e7441756469744c6f676765723a206e657720676f7665726e616e6365\n        /* \"#utility.yul\":21892:21893   */\n      0x00\n        /* \"#utility.yul\":21884:21890   */\n      dup3\n        /* \"#utility.yul\":21880:21894   */\n      add\n        /* \"#utility.yul\":21873:21931   */\n      mstore\n        /* \"#utility.yul\":21965:21987   */\n      0x20697320746865207a65726f2061646472657373000000000000000000000000\n        /* \"#utility.yul\":21960:21962   */\n      0x20\n        /* \"#utility.yul\":21952:21958   */\n      dup3\n        /* \"#utility.yul\":21948:21963   */\n      add\n        /* \"#utility.yul\":21941:21988   */\n      mstore\n        /* \"#utility.yul\":21756:21995   */\n      pop\n      jump\t// out\n        /* \"#utility.yul\":22001:22367   */\n    tag_173:\n        /* \"#utility.yul\":22143:22146   */\n      0x00\n        /* \"#utility.yul\":22164:22231   */\n      tag_393\n        /* \"#utility.yul\":22228:22230   */\n      0x34\n        /* \"#utility.yul\":22223:22226   */\n      dup4\n        /* \"#utility.yul\":22164:22231   */\n      tag_144\n      jump\t// in\n    tag_393:\n        /* \"#utility.yul\":22157:22231   */\n      swap2\n      pop\n        /* \"#utility.yul\":22240:22333   */\n      tag_394\n        /* \"#utility.yul\":22329:22332   */\n      dup3\n        /* \"#utility.yul\":22240:22333   */\n      tag_172\n      jump\t// in\n    tag_394:\n        /* \"#utility.yul\":22358:22360   */\n      0x40\n        /* \"#utility.yul\":22353:22356   */\n      dup3\n        /* \"#utility.yul\":22349:22361   */\n      add\n        /* \"#utility.yul\":22342:22361   */\n      swap1\n      pop\n        /* \"#utility.yul\":22001:22367   */\n      swap2\n      swap1\n      pop\n      jump\t// out\n        /* \"#utility.yul\":22373:22792   */\n    tag_108:\n        /* \"#utility.yul\":22539:22543   */\n      0x00\n        /* \"#utility.yul\":22577:22579   */\n      0x20\n        /* \"#utility.yul\":22566:22575   */\n      dup3\n        /* \"#utility.yul\":22562:22580   */\n      add\n        /* \"#utility.yul\":22554:22580   */\n      swap1\n      pop\n        /* \"#utility.yul\":22626:22635   */\n      dup2\n        /* \"#utility.yul\":22620:22624   */\n      dup2\n        /* \"#utility.yul\":22616:22636   */\n      sub\n        /* \"#utility.yul\":22612:22613   */\n      0x00\n        /* \"#utility.yul\":22601:22610   */\n      dup4\n        /* \"#utility.yul\":22597:22614   */\n      add\n        /* \"#utility.yul\":22590:22637   */\n      mstore\n        /* \"#utility.yul\":22654:22785   */\n      tag_396\n        /* \"#utility.yul\":22780:22784   */\n      dup2\n        /* \"#utility.yul\":22654:22785   */\n      tag_173\n      jump\t// in\n    tag_396:\n        /* \"#utility.yul\":22646:22785   */\n      swap1\n      pop\n        /* \"#utility.yul\":22373:22792   */\n      swap2\n      swap1\n      pop\n      jump\t// out\n\n    auxdata: 0xa26469706673582212204327a1552e2652bcb9f79c1047536866b10c6bc2d815070936c5b80575b270eb64736f6c634300081e0033\n}\n",
				"bytecode": {
					"linkReferences": {},
					"object": "6080604052348015600f57600080fd5b5033600260006101000a81548173ffffffffffffffffffffffffffffffffffffffff021916908373ffffffffffffffffffffffffffffffffffffffff1602179055506117c6806100606000396000f3fe608060405234801561001057600080fd5b506004361061007d5760003560e01c806370ace0d61161005b57806370ace0d6146100da578063af7548481461010a578063bc3e07df1461013a578063d38bfff4146101565761007d565b80630c96a61a14610082578063221bfa48146100a057806334b25ee2146100be575b600080fd5b61008a610172565b6040516100979190610b1b565b60405180910390f35b6100a8610178565b6040516100b59190610b77565b60405180910390f35b6100d860048036038101906100d39190610c0a565b61019e565b005b6100f460048036038101906100ef9190610d90565b610361565b6040516101019190610b1b565b60405180910390f35b610124600480360381019061011f9190610e4b565b610534565b6040516101319190611013565b60405180910390f35b610154600480360381019061014f9190610e4b565b610808565b005b610170600480360381019061016b9190611061565b610958565b005b60005481565b600260009054906101000a900473ffffffffffffffffffffffffffffffffffffffff1681565b600260009054906101000a900473ffffffffffffffffffffffffffffffffffffffff1673ffffffffffffffffffffffffffffffffffffffff163373ffffffffffffffffffffffffffffffffffffffff161461022e576040517f08c379a000000000000000000000000000000000000000000000000000000000815260040161022590611111565b60405180910390fd5b6000548210610272576040517f08c379a0000000000000000000000000000000000000000000000000000000008152600401610269906111a3565b60405180910390fd5b60006001600084815260200190815260200160002090506001600281111561029d5761029c6111c3565b5b60ff168160060160149054906101000a900460ff1660ff16146102f5576040517f08c379a00000000000000000000000000000000000000000000000000000000081526004016102ec90611264565b60405180910390fd5b600280811115610308576103076111c3565b5b8160060160146101000a81548160ff021916908360ff160217905550827f5a87909bff68caaaaf0b3fd9c74eeccc928832f879315e5c6fb7a73612f26c0c836040516103549190611293565b60405180910390a2505050565b60008060005490506040518061012001604052808281526020018781526020018681526020018581526020018481526020014281526020013373ffffffffffffffffffffffffffffffffffffffff168152602001600060028111156103c9576103c86111c3565b5b60ff168152602001600015158152506001600083815260200190815260200160002060008201518160000155602082015181600101908161040a91906114ba565b50604082015181600201908161042091906114ba565b5060608201518160030155608082015181600401908161044091906114ba565b5060a0820151816005015560c08201518160060160006101000a81548173ffffffffffffffffffffffffffffffffffffffff021916908373ffffffffffffffffffffffffffffffffffffffff16021790555060e08201518160060160146101000a81548160ff021916908360ff1602179055506101008201518160060160156101000a81548160ff0219169083151502179055509050506000808154809291906104e9906115bb565b9190505550807f9dd457e4fc133d6824e882079b7f2b0fdc92a7158363dbf8abd880324603b108873360405161052092919061163c565b60405180910390a280915050949350505050565b61053c610a9b565b6000548210610580576040517f08c379a0000000000000000000000000000000000000000000000000000000008152600401610577906111a3565b60405180910390fd5b6001600083815260200190815260200160002060405180610120016040529081600082015481526020016001820180546105b9906112dd565b80601f01602080910402602001604051908101604052809291908181526020018280546105e5906112dd565b80156106325780601f1061060757610100808354040283529160200191610632565b820191906000526020600020905b81548152906001019060200180831161061557829003601f168201915b5050505050815260200160028201805461064b906112dd565b80601f0160208091040260200160405190810160405280929190818152602001828054610677906112dd565b80156106c45780601f10610699576101008083540402835291602001916106c4565b820191906000526020600020905b8154815290600101906020018083116106a757829003601f168201915b50505050508152602001600382015481526020016004820180546106e7906112dd565b80601f0160208091040260200160405190810160405280929190818152602001828054610713906112dd565b80156107605780601f1061073557610100808354040283529160200191610760565b820191906000526020600020905b81548152906001019060200180831161074357829003601f168201915b50505050508152602001600582015481526020016006820160009054906101000a900473ffffffffffffffffffffffffffffffffffffffff1673ffffffffffffffffffffffffffffffffffffffff1673ffffffffffffffffffffffffffffffffffffffff1681526020016006820160149054906101000a900460ff1660ff1660ff1681526020016006820160159054906101000a900460ff1615151515815250509050919050565b600054811061084c576040517f08c379a0000000000000000000000000000000000000000000000000000000008152600401610843906111a3565b60405180910390fd5b600060016000838152602001908152602001600020905060006002811115610877576108766111c3565b5b60ff168160060160149054906101000a900460ff1660ff16146108cf576040517f08c379a00000000000000000000000000000000000000000000000000000000081526004016108c6906116de565b60405180910390fd5b600160028111156108e3576108e26111c3565b5b8160060160146101000a81548160ff021916908360ff16021790555060018160060160156101000a81548160ff021916908315150217905550817f56e8e57e3c10b8bae669b54e45b34845569c2fac78835439483fd7cf0db24adc3360405161094c9190610b77565b60405180910390a25050565b600260009054906101000a900473ffffffffffffffffffffffffffffffffffffffff1673ffffffffffffffffffffffffffffffffffffffff163373ffffffffffffffffffffffffffffffffffffffff16146109e8576040517f08c379a00000000000000000000000000000000000000000000000000000000081526004016109df90611111565b60405180910390fd5b600073ffffffffffffffffffffffffffffffffffffffff168173ffffffffffffffffffffffffffffffffffffffff1603610a57576040517f08c379a0000000000000000000000000000000000000000000000000000000008152600401610a4e90611770565b60405180910390fd5b80600260006101000a81548173ffffffffffffffffffffffffffffffffffffffff021916908373ffffffffffffffffffffffffffffffffffffffff16021790555050565b604051806101200160405280600081526020016060815260200160608152602001600081526020016060815260200160008152602001600073ffffffffffffffffffffffffffffffffffffffff168152602001600060ff1681526020016000151581525090565b6000819050919050565b610b1581610b02565b82525050565b6000602082019050610b306000830184610b0c565b92915050565b600073ffffffffffffffffffffffffffffffffffffffff82169050919050565b6000610b6182610b36565b9050919050565b610b7181610b56565b82525050565b6000602082019050610b8c6000830184610b68565b92915050565b6000604051905090565b600080fd5b600080fd5b610baf81610b02565b8114610bba57600080fd5b50565b600081359050610bcc81610ba6565b92915050565b60008115159050919050565b610be781610bd2565b8114610bf257600080fd5b50565b600081359050610c0481610bde565b92915050565b60008060408385031215610c2157610c20610b9c565b5b6000610c2f85828601610bbd565b9250506020610c4085828601610bf5565b9150509250929050565b600080fd5b600080fd5b6000601f19601f8301169050919050565b7f4e487b7100000000000000000000000000000000000000000000000000000000600052604160045260246000fd5b610c9d82610c54565b810181811067ffffffffffffffff82111715610cbc57610cbb610c65565b5b80604052505050565b6000610ccf610b92565b9050610cdb8282610c94565b919050565b600067ffffffffffffffff821115610cfb57610cfa610c65565b5b610d0482610c54565b9050602081019050919050565b82818337600083830152505050565b6000610d33610d2e84610ce0565b610cc5565b905082815260208101848484011115610d4f57610d4e610c4f565b5b610d5a848285610d11565b509392505050565b600082601f830112610d7757610d76610c4a565b5b8135610d87848260208601610d20565b91505092915050565b60008060008060808587031215610daa57610da9610b9c565b5b600085013567ffffffffffffffff811115610dc857610dc7610ba1565b5b610dd487828801610d62565b945050602085013567ffffffffffffffff811115610df557610df4610ba1565b5b610e0187828801610d62565b9350506040610e1287828801610bbd565b925050606085013567ffffffffffffffff811115610e3357610e32610ba1565b5b610e3f87828801610d62565b91505092959194509250565b600060208284031215610e6157610e60610b9c565b5b6000610e6f84828501610bbd565b91505092915050565b610e8181610b02565b82525050565b600081519050919050565b600082825260208201905092915050565b60005b83811015610ec1578082015181840152602081019050610ea6565b60008484015250505050565b6000610ed882610e87565b610ee28185610e92565b9350610ef2818560208601610ea3565b610efb81610c54565b840191505092915050565b610f0f81610b56565b82525050565b600060ff82169050919050565b610f2b81610f15565b82525050565b610f3a81610bd2565b82525050565b600061012083016000830151610f596000860182610e78565b5060208301518482036020860152610f718282610ecd565b91505060408301518482036040860152610f8b8282610ecd565b9150506060830151610fa06060860182610e78565b5060808301518482036080860152610fb88282610ecd565b91505060a0830151610fcd60a0860182610e78565b5060c0830151610fe060c0860182610f06565b5060e0830151610ff360e0860182610f22565b50610100830151611008610100860182610f31565b508091505092915050565b6000602082019050818103600083015261102d8184610f40565b905092915050565b61103e81610b56565b811461104957600080fd5b50565b60008135905061105b81611035565b92915050565b60006020828403121561107757611076610b9c565b5b60006110858482850161104c565b91505092915050565b600082825260208201905092915050565b7f4167656e7441756469744c6f676765723a2063616c6c6572206973206e6f742060008201527f74686520676f7665726e616e636520726f6c6500000000000000000000000000602082015250565b60006110fb60338361108e565b91506111068261109f565b604082019050919050565b6000602082019050818103600083015261112a816110ee565b9050919050565b7f4167656e7441756469744c6f676765723a204465636973696f6e20646f65732060008201527f6e6f742065786973740000000000000000000000000000000000000000000000602082015250565b600061118d60298361108e565b915061119882611131565b604082019050919050565b600060208201905081810360008301526111bc81611180565b9050919050565b7f4e487b7100000000000000000000000000000000000000000000000000000000600052602160045260246000fd5b7f4167656e7441756469744c6f676765723a204465636973696f6e206d7573742060008201527f6265206368616c6c656e67656420746f206265207265736f6c76656400000000602082015250565b600061124e603c8361108e565b9150611259826111f2565b604082019050919050565b6000602082019050818103600083015261127d81611241565b9050919050565b61128d81610bd2565b82525050565b60006020820190506112a86000830184611284565b92915050565b7f4e487b7100000000000000000000000000000000000000000000000000000000600052602260045260246000fd5b600060028204905060018216806112f557607f821691505b602082108103611308576113076112ae565b5b50919050565b60008190508160005260206000209050919050565b60006020601f8301049050919050565b600082821b905092915050565b6000600883026113707fffffffffffffffffffffffffffffffffffffffffffffffffffffffffffffffff82611333565b61137a8683611333565b95508019841693508086168417925050509392505050565b6000819050919050565b60006113b76113b26113ad84610b02565b611392565b610b02565b9050919050565b6000819050919050565b6113d18361139c565b6113e56113dd826113be565b848454611340565b825550505050565b600090565b6113fa6113ed565b6114058184846113c8565b505050565b5b818110156114295761141e6000826113f2565b60018101905061140b565b5050565b601f82111561146e5761143f8161130e565b61144884611323565b81016020851015611457578190505b61146b61146385611323565b83018261140a565b50505b505050565b600082821c905092915050565b600061149160001984600802611473565b1980831691505092915050565b60006114aa8383611480565b9150826002028217905092915050565b6114c382610e87565b67ffffffffffffffff8111156114dc576114db610c65565b5b6114e682546112dd565b6114f182828561142d565b600060209050601f8311600181146115245760008415611512578287015190505b61151c858261149e565b865550611584565b601f1984166115328661130e565b60005b8281101561155a57848901518255600182019150602085019450602081019050611535565b868310156115775784890151611573601f891682611480565b8355505b6001600288020188555050505b505050505050565b7f4e487b7100000000000000000000000000000000000000000000000000000000600052601160045260246000fd5b60006115c682610b02565b91507fffffffffffffffffffffffffffffffffffffffffffffffffffffffffffffffff82036115f8576115f761158c565b5b600182019050919050565b600061160e82610e87565b611618818561108e565b9350611628818560208601610ea3565b61163181610c54565b840191505092915050565b600060408201905081810360008301526116568185611603565b90506116656020830184610b68565b9392505050565b7f4167656e7441756469744c6f676765723a204465636973696f6e206e6f74206960008201527f6e20636f727265637420737461746520746f206265206368616c6c656e676564602082015250565b60006116c860408361108e565b91506116d38261166c565b604082019050919050565b600060208201905081810360008301526116f7816116bb565b9050919050565b7f4167656e7441756469744c6f676765723a206e657720676f7665726e616e636560008201527f20697320746865207a65726f2061646472657373000000000000000000000000602082015250565b600061175a60348361108e565b9150611765826116fe565b604082019050919050565b600060208201905081810360008301526117898161174d565b905091905056fea26469706673582212204327a1552e2652bcb9f79c1047536866b10c6bc2d815070936c5b80575b270eb64736f6c634300081e0033",
					"opcodes": "PUSH1 0x80 PUSH1 0x40 MSTORE CALLVALUE DUP1 ISZERO PUSH1 0xF JUMPI PUSH1 0x0 DUP1 REVERT JUMPDEST POP CALLER PUSH1 0x2 PUSH1 0x0 PUSH2 0x100 EXP DUP2 SLOAD DUP2 PUSH20 0xFFFFFFFFFFFFFFFFFFFFFFFFFFFFFFFFFFFFFFFF MUL NOT AND SWAP1 DUP4 PUSH20 0xFFFFFFFFFFFFFFFFFFFFFFFFFFFFFFFFFFFFFFFF AND MUL OR SWAP1 SSTORE POP PUSH2 0x17C6 DUP1 PUSH2 0x60 PUSH1 0x0 CODECOPY PUSH1 0x0 RETURN INVALID PUSH1 0x80 PUSH1 0x40 MSTORE CALLVALUE DUP1 ISZERO PUSH2 0x10 JUMPI PUSH1 0x0 DUP1 REVERT JUMPDEST POP PUSH1 0x4 CALLDATASIZE LT PUSH2 0x7D JUMPI PUSH1 0x0 CALLDATALOAD PUSH1 0xE0 SHR DUP1 PUSH4 0x70ACE0D6 GT PUSH2 0x5B JUMPI DUP1 PUSH4 0x70ACE0D6 EQ PUSH2 0xDA JUMPI DUP1 PUSH4 0xAF754848 EQ PUSH2 0x10A JUMPI DUP1 PUSH4 0xBC3E07DF EQ PUSH2 0x13A JUMPI DUP1 PUSH4 0xD38BFFF4 EQ PUSH2 0x156 JUMPI PUSH2 0x7D JUMP JUMPDEST DUP1 PUSH4 0xC96A61A EQ PUSH2 0x82 JUMPI DUP1 PUSH4 0x221BFA48 EQ PUSH2 0xA0 JUMPI DUP1 PUSH4 0x34B25EE2 EQ PUSH2 0xBE JUMPI JUMPDEST PUSH1 0x0 DUP1 REVERT JUMPDEST PUSH2 0x8A PUSH2 0x172 JUMP JUMPDEST PUSH1 0x40 MLOAD PUSH2 0x97 SWAP2 SWAP1 PUSH2 0xB1B JUMP JUMPDEST PUSH1 0x40 MLOAD DUP1 SWAP2 SUB SWAP1 RETURN JUMPDEST PUSH2 0xA8 PUSH2 0x178 JUMP JUMPDEST PUSH1 0x40 MLOAD PUSH2 0xB5 SWAP2 SWAP1 PUSH2 0xB77 JUMP JUMPDEST PUSH1 0x40 MLOAD DUP1 SWAP2 SUB SWAP1 RETURN JUMPDEST PUSH2 0xD8 PUSH1 0x4 DUP1 CALLDATASIZE SUB DUP2 ADD SWAP1 PUSH2 0xD3 SWAP2 SWAP1 PUSH2 0xC0A JUMP JUMPDEST PUSH2 0x19E JUMP JUMPDEST STOP JUMPDEST PUSH2 0xF4 PUSH1 0x4 DUP1 CALLDATASIZE SUB DUP2 ADD SWAP1 PUSH2 0xEF SWAP2 SWAP1 PUSH2 0xD90 JUMP JUMPDEST PUSH2 0x361 JUMP JUMPDEST PUSH1 0x40 MLOAD PUSH2 0x101 SWAP2 SWAP1 PUSH2 0xB1B JUMP JUMPDEST PUSH1 0x40 MLOAD DUP1 SWAP2 SUB SWAP1 RETURN JUMPDEST PUSH2 0x124 PUSH1 0x4 DUP1 CALLDATASIZE SUB DUP2 ADD SWAP1 PUSH2 0x11F SWAP2 SWAP1 PUSH2 0xE4B JUMP JUMPDEST PUSH2 0x534 JUMP JUMPDEST PUSH1 0x40 MLOAD PUSH2 0x131 SWAP2 SWAP1 PUSH2 0x1013 JUMP JUMPDEST PUSH1 0x40 MLOAD DUP1 SWAP2 SUB SWAP1 RETURN JUMPDEST PUSH2 0x154 PUSH1 0x4 DUP1 CALLDATASIZE SUB DUP2 ADD SWAP1 PUSH2 0x14F SWAP2 SWAP1 PUSH2 0xE4B JUMP JUMPDEST PUSH2 0x808 JUMP JUMPDEST STOP JUMPDEST PUSH2 0x170 PUSH1 0x4 DUP1 CALLDATASIZE SUB DUP2 ADD SWAP1 PUSH2 0x16B SWAP2 SWAP1 PUSH2 0x1061 JUMP JUMPDEST PUSH2 0x958 JUMP JUMPDEST STOP JUMPDEST PUSH1 0x0 SLOAD DUP2 JUMP JUMPDEST PUSH1 0x2 PUSH1 0x0 SWAP1 SLOAD SWAP1 PUSH2 0x100 EXP SWAP1 DIV PUSH20 0xFFFFFFFFFFFFFFFFFFFFFFFFFFFFFFFFFFFFFFFF AND DUP2 JUMP JUMPDEST PUSH1 0x2 PUSH1 0x0 SWAP1 SLOAD SWAP1 PUSH2 0x100 EXP SWAP1 DIV PUSH20 0xFFFFFFFFFFFFFFFFFFFFFFFFFFFFFFFFFFFFFFFF AND PUSH20 0xFFFFFFFFFFFFFFFFFFFFFFFFFFFFFFFFFFFFFFFF AND CALLER PUSH20 0xFFFFFFFFFFFFFFFFFFFFFFFFFFFFFFFFFFFFFFFF AND EQ PUSH2 0x22E JUMPI PUSH1 0x40 MLOAD PUSH32 0x8C379A000000000000000000000000000000000000000000000000000000000 DUP2 MSTORE PUSH1 0x4 ADD PUSH2 0x225 SWAP1 PUSH2 0x1111 JUMP JUMPDEST PUSH1 0x40 MLOAD DUP1 SWAP2 SUB SWAP1 REVERT JUMPDEST PUSH1 0x0 SLOAD DUP3 LT PUSH2 0x272 JUMPI PUSH1 0x40 MLOAD PUSH32 0x8C379A000000000000000000000000000000000000000000000000000000000 DUP2 MSTORE PUSH1 0x4 ADD PUSH2 0x269 SWAP1 PUSH2 0x11A3 JUMP JUMPDEST PUSH1 0x40 MLOAD DUP1 SWAP2 SUB SWAP1 REVERT JUMPDEST PUSH1 0x0 PUSH1 0x1 PUSH1 0x0 DUP5 DUP2 MSTORE PUSH1 0x20 ADD SWAP1 DUP2 MSTORE PUSH1 0x20 ADD PUSH1 0x0 KECCAK256 SWAP1 POP PUSH1 0x1 PUSH1 0x2 DUP2 GT ISZERO PUSH2 0x29D JUMPI PUSH2 0x29C PUSH2 0x11C3 JUMP JUMPDEST JUMPDEST PUSH1 0xFF AND DUP2 PUSH1 0x6 ADD PUSH1 0x14 SWAP1 SLOAD SWAP1 PUSH2 0x100 EXP SWAP1 DIV PUSH1 0xFF AND PUSH1 0xFF AND EQ PUSH2 0x2F5 JUMPI PUSH1 0x40 MLOAD PUSH32 0x8C379A000000000000000000000000000000000000000000000000000000000 DUP2 MSTORE PUSH1 0x4 ADD PUSH2 0x2EC SWAP1 PUSH2 0x1264 JUMP JUMPDEST PUSH1 0x40 MLOAD DUP1 SWAP2 SUB SWAP1 REVERT JUMPDEST PUSH1 0x2 DUP1 DUP2 GT ISZERO PUSH2 0x308 JUMPI PUSH2 0x307 PUSH2 0x11C3 JUMP JUMPDEST JUMPDEST DUP2 PUSH1 0x6 ADD PUSH1 0x14 PUSH2 0x100 EXP DUP2 SLOAD DUP2 PUSH1 0xFF MUL NOT AND SWAP1 DUP4 PUSH1 0xFF AND MUL OR SWAP1 SSTORE POP DUP3 PUSH32 0x5A87909BFF68CAAAAF0B3FD9C74EECCC928832F879315E5C6FB7A73612F26C0C DUP4 PUSH1 0x40 MLOAD PUSH2 0x354 SWAP2 SWAP1 PUSH2 0x1293 JUMP JUMPDEST PUSH1 0x40 MLOAD DUP1 SWAP2 SUB SWAP1 LOG2 POP POP POP JUMP JUMPDEST PUSH1 0x0 DUP1 PUSH1 0x0 SLOAD SWAP1 POP PUSH1 0x40 MLOAD DUP1 PUSH2 0x120 ADD PUSH1 0x40 MSTORE DUP1 DUP3 DUP2 MSTORE PUSH1 0x20 ADD DUP8 DUP2 MSTORE PUSH1 0x20 ADD DUP7 DUP2 MSTORE PUSH1 0x20 ADD DUP6 DUP2 MSTORE PUSH1 0x20 ADD DUP5 DUP2 MSTORE PUSH1 0x20 ADD TIMESTAMP DUP2 MSTORE PUSH1 0x20 ADD CALLER PUSH20 0xFFFFFFFFFFFFFFFFFFFFFFFFFFFFFFFFFFFFFFFF AND DUP2 MSTORE PUSH1 0x20 ADD PUSH1 0x0 PUSH1 0x2 DUP2 GT ISZERO PUSH2 0x3C9 JUMPI PUSH2 0x3C8 PUSH2 0x11C3 JUMP JUMPDEST JUMPDEST PUSH1 0xFF AND DUP2 MSTORE PUSH1 0x20 ADD PUSH1 0x0 ISZERO ISZERO DUP2 MSTORE POP PUSH1 0x1 PUSH1 0x0 DUP4 DUP2 MSTORE PUSH1 0x20 ADD SWAP1 DUP2 MSTORE PUSH1 0x20 ADD PUSH1 0x0 KECCAK256 PUSH1 0x0 DUP3 ADD MLOAD DUP2 PUSH1 0x0 ADD SSTORE PUSH1 0x20 DUP3 ADD MLOAD DUP2 PUSH1 0x1 ADD SWAP1 DUP2 PUSH2 0x40A SWAP2 SWAP1 PUSH2 0x14BA JUMP JUMPDEST POP PUSH1 0x40 DUP3 ADD MLOAD DUP2 PUSH1 0x2 ADD SWAP1 DUP2 PUSH2 0x420 SWAP2 SWAP1 PUSH2 0x14BA JUMP JUMPDEST POP PUSH1 0x60 DUP3 ADD MLOAD DUP2 PUSH1 0x3 ADD SSTORE PUSH1 0x80 DUP3 ADD MLOAD DUP2 PUSH1 0x4 ADD SWAP1 DUP2 PUSH2 0x440 SWAP2 SWAP1 PUSH2 0x14BA JUMP JUMPDEST POP PUSH1 0xA0 DUP3 ADD MLOAD DUP2 PUSH1 0x5 ADD SSTORE PUSH1 0xC0 DUP3 ADD MLOAD DUP2 PUSH1 0x6 ADD PUSH1 0x0 PUSH2 0x100 EXP DUP2 SLOAD DUP2 PUSH20 0xFFFFFFFFFFFFFFFFFFFFFFFFFFFFFFFFFFFFFFFF MUL NOT AND SWAP1 DUP4 PUSH20 0xFFFFFFFFFFFFFFFFFFFFFFFFFFFFFFFFFFFFFFFF AND MUL OR SWAP1 SSTORE POP PUSH1 0xE0 DUP3 ADD MLOAD DUP2 PUSH1 0x6 ADD PUSH1 0x14 PUSH2 0x100 EXP DUP2 SLOAD DUP2 PUSH1 0xFF MUL NOT AND SWAP1 DUP4 PUSH1 0xFF AND MUL OR SWAP1 SSTORE POP PUSH2 0x100 DUP3 ADD MLOAD DUP2 PUSH1 0x6 ADD PUSH1 0x15 PUSH2 0x100 EXP DUP2 SLOAD DUP2 PUSH1 0xFF MUL NOT AND SWAP1 DUP4 ISZERO ISZERO MUL OR SWAP1 SSTORE POP SWAP1 POP POP PUSH1 0x0 DUP1 DUP2 SLOAD DUP1 SWAP3 SWAP2 SWAP1 PUSH2 0x4E9 SWAP1 PUSH2 0x15BB JUMP JUMPDEST SWAP2 SWAP1 POP SSTORE POP DUP1 PUSH32 0x9DD457E4FC133D6824E882079B7F2B0FDC92A7158363DBF8ABD880324603B108 DUP8 CALLER PUSH1 0x40 MLOAD PUSH2 0x520 SWAP3 SWAP2 SWAP1 PUSH2 0x163C JUMP JUMPDEST PUSH1 0x40 MLOAD DUP1 SWAP2 SUB SWAP1 LOG2 DUP1 SWAP2 POP POP SWAP5 SWAP4 POP POP POP POP JUMP JUMPDEST PUSH2 0x53C PUSH2 0xA9B JUMP JUMPDEST PUSH1 0x0 SLOAD DUP3 LT PUSH2 0x580 JUMPI PUSH1 0x40 MLOAD PUSH32 0x8C379A000000000000000000000000000000000000000000000000000000000 DUP2 MSTORE PUSH1 0x4 ADD PUSH2 0x577 SWAP1 PUSH2 0x11A3 JUMP JUMPDEST PUSH1 0x40 MLOAD DUP1 SWAP2 SUB SWAP1 REVERT JUMPDEST PUSH1 0x1 PUSH1 0x0 DUP4 DUP2 MSTORE PUSH1 0x20 ADD SWAP1 DUP2 MSTORE PUSH1 0x20 ADD PUSH1 0x0 KECCAK256 PUSH1 0x40 MLOAD DUP1 PUSH2 0x120 ADD PUSH1 0x40 MSTORE SWAP1 DUP2 PUSH1 0x0 DUP3 ADD SLOAD DUP2 MSTORE PUSH1 0x20 ADD PUSH1 0x1 DUP3 ADD DUP1 SLOAD PUSH2 0x5B9 SWAP1 PUSH2 0x12DD JUMP JUMPDEST DUP1 PUSH1 0x1F ADD PUSH1 0x20 DUP1 SWAP2 DIV MUL PUSH1 0x20 ADD PUSH1 0x40 MLOAD SWAP1 DUP2 ADD PUSH1 0x40 MSTORE DUP1 SWAP3 SWAP2 SWAP1 DUP2 DUP2 MSTORE PUSH1 0x20 ADD DUP3 DUP1 SLOAD PUSH2 0x5E5 SWAP1 PUSH2 0x12DD JUMP JUMPDEST DUP1 ISZERO PUSH2 0x632 JUMPI DUP1 PUSH1 0x1F LT PUSH2 0x607 JUMPI PUSH2 0x100 DUP1 DUP4 SLOAD DIV MUL DUP4 MSTORE SWAP2 PUSH1 0x20 ADD SWAP2 PUSH2 0x632 JUMP JUMPDEST DUP3 ADD SWAP2 SWAP1 PUSH1 0x0 MSTORE PUSH1 0x20 PUSH1 0x0 KECCAK256 SWAP1 JUMPDEST DUP2 SLOAD DUP2 MSTORE SWAP1 PUSH1 0x1 ADD SWAP1 PUSH1 0x20 ADD DUP1 DUP4 GT PUSH2 0x615 JUMPI DUP3 SWAP1 SUB PUSH1 0x1F AND DUP3 ADD SWAP2 JUMPDEST POP POP POP POP POP DUP2 MSTORE PUSH1 0x20 ADD PUSH1 0x2 DUP3 ADD DUP1 SLOAD PUSH2 0x64B SWAP1 PUSH2 0x12DD JUMP JUMPDEST DUP1 PUSH1 0x1F ADD PUSH1 0x20 DUP1 SWAP2 DIV MUL PUSH1 0x20 ADD PUSH1 0x40 MLOAD SWAP1 DUP2 ADD PUSH1 0x40 MSTORE DUP1 SWAP3 SWAP2 SWAP1 DUP2 DUP2 MSTORE PUSH1 0x20 ADD DUP3 DUP1 SLOAD PUSH2 0x677 SWAP1 PUSH2 0x12DD JUMP JUMPDEST DUP1 ISZERO PUSH2 0x6C4 JUMPI DUP1 PUSH1 0x1F LT PUSH2 0x699 JUMPI PUSH2 0x100 DUP1 DUP4 SLOAD DIV MUL DUP4 MSTORE SWAP2 PUSH1 0x20 ADD SWAP2 PUSH2 0x6C4 JUMP JUMPDEST DUP3 ADD SWAP2 SWAP1 PUSH1 0x0 MSTORE PUSH1 0x20 PUSH1 0x0 KECCAK256 SWAP1 JUMPDEST DUP2 SLOAD DUP2 MSTORE SWAP1 PUSH1 0x1 ADD SWAP1 PUSH1 0x20 ADD DUP1 DUP4 GT PUSH2 0x6A7 JUMPI DUP3 SWAP1 SUB PUSH1 0x1F AND DUP3 ADD SWAP2 JUMPDEST POP POP POP POP POP DUP2 MSTORE PUSH1 0x20 ADD PUSH1 0x3 DUP3 ADD SLOAD DUP2 MSTORE PUSH1 0x20 ADD PUSH1 0x4 DUP3 ADD DUP1 SLOAD PUSH2 0x6E7 SWAP1 PUSH2 0x12DD JUMP JUMPDEST DUP1 PUSH1 0x1F ADD PUSH1 0x20 DUP1 SWAP2 DIV MUL PUSH1 0x20 ADD PUSH1 0x40 MLOAD SWAP1 DUP2 ADD PUSH1 0x40 MSTORE DUP1 SWAP3 SWAP2 SWAP1 DUP2 DUP2 MSTORE PUSH1 0x20 ADD DUP3 DUP1 SLOAD PUSH2 0x713 SWAP1 PUSH2 0x12DD JUMP JUMPDEST DUP1 ISZERO PUSH2 0x760 JUMPI DUP1 PUSH1 0x1F LT PUSH2 0x735 JUMPI PUSH2 0x100 DUP1 DUP4 SLOAD DIV MUL DUP4 MSTORE SWAP2 PUSH1 0x20 ADD SWAP2 PUSH2 0x760 JUMP JUMPDEST DUP3 ADD SWAP2 SWAP1 PUSH1 0x0 MSTORE PUSH1 0x20 PUSH1 0x0 KECCAK256 SWAP1 JUMPDEST DUP2 SLOAD DUP2 MSTORE SWAP1 PUSH1 0x1 ADD SWAP1 PUSH1 0x20 ADD DUP1 DUP4 GT PUSH2 0x743 JUMPI DUP3 SWAP1 SUB PUSH1 0x1F AND DUP3 ADD SWAP2 JUMPDEST POP POP POP POP POP DUP2 MSTORE PUSH1 0x20 ADD PUSH1 0x5 DUP3 ADD SLOAD DUP2 MSTORE PUSH1 0x20 ADD PUSH1 0x6 DUP3 ADD PUSH1 0x0 SWAP1 SLOAD SWAP1 PUSH2 0x100 EXP SWAP1 DIV PUSH20 0xFFFFFFFFFFFFFFFFFFFFFFFFFFFFFFFFFFFFFFFF AND PUSH20 0xFFFFFFFFFFFFFFFFFFFFFFFFFFFFFFFFFFFFFFFF AND PUSH20 0xFFFFFFFFFFFFFFFFFFFFFFFFFFFFFFFFFFFFFFFF AND DUP2 MSTORE PUSH1 0x20 ADD PUSH1 0x6 DUP3 ADD PUSH1 0x14 SWAP1 SLOAD SWAP1 PUSH2 0x100 EXP SWAP1 DIV PUSH1 0xFF AND PUSH1 0xFF AND PUSH1 0xFF AND DUP2 MSTORE PUSH1 0x20 ADD PUSH1 0x6 DUP3 ADD PUSH1 0x15 SWAP1 SLOAD SWAP1 PUSH2 0x100 EXP SWAP1 DIV PUSH1 0xFF AND ISZERO ISZERO ISZERO ISZERO DUP2 MSTORE POP POP SWAP1 POP SWAP2 SWAP1 POP JUMP JUMPDEST PUSH1 0x0 SLOAD DUP2 LT PUSH2 0x84C JUMPI PUSH1 0x40 MLOAD PUSH32 0x8C379A000000000000000000000000000000000000000000000000000000000 DUP2 MSTORE PUSH1 0x4 ADD PUSH2 0x843 SWAP1 PUSH2 0x11A3 JUMP JUMPDEST PUSH1 0x40 MLOAD DUP1 SWAP2 SUB SWAP1 REVERT JUMPDEST PUSH1 0x0 PUSH1 0x1 PUSH1 0x0 DUP4 DUP2 MSTORE PUSH1 0x20 ADD SWAP1 DUP2 MSTORE PUSH1 0x20 ADD PUSH1 0x0 KECCAK256 SWAP1 POP PUSH1 0x0 PUSH1 0x2 DUP2 GT ISZERO PUSH2 0x877 JUMPI PUSH2 0x876 PUSH2 0x11C3 JUMP JUMPDEST JUMPDEST PUSH1 0xFF AND DUP2 PUSH1 0x6 ADD PUSH1 0x14 SWAP1 SLOAD SWAP1 PUSH2 0x100 EXP SWAP1 DIV PUSH1 0xFF AND PUSH1 0xFF AND EQ PUSH2 0x8CF JUMPI PUSH1 0x40 MLOAD PUSH32 0x8C379A000000000000000000000000000000000000000000000000000000000 DUP2 MSTORE PUSH1 0x4 ADD PUSH2 0x8C6 SWAP1 PUSH2 0x16DE JUMP JUMPDEST PUSH1 0x40 MLOAD DUP1 SWAP2 SUB SWAP1 REVERT JUMPDEST PUSH1 0x1 PUSH1 0x2 DUP2 GT ISZERO PUSH2 0x8E3 JUMPI PUSH2 0x8E2 PUSH2 0x11C3 JUMP JUMPDEST JUMPDEST DUP2 PUSH1 0x6 ADD PUSH1 0x14 PUSH2 0x100 EXP DUP2 SLOAD DUP2 PUSH1 0xFF MUL NOT AND SWAP1 DUP4 PUSH1 0xFF AND MUL OR SWAP1 SSTORE POP PUSH1 0x1 DUP2 PUSH1 0x6 ADD PUSH1 0x15 PUSH2 0x100 EXP DUP2 SLOAD DUP2 PUSH1 0xFF MUL NOT AND SWAP1 DUP4 ISZERO ISZERO MUL OR SWAP1 SSTORE POP DUP2 PUSH32 0x56E8E57E3C10B8BAE669B54E45B34845569C2FAC78835439483FD7CF0DB24ADC CALLER PUSH1 0x40 MLOAD PUSH2 0x94C SWAP2 SWAP1 PUSH2 0xB77 JUMP JUMPDEST PUSH1 0x40 MLOAD DUP1 SWAP2 SUB SWAP1 LOG2 POP POP JUMP JUMPDEST PUSH1 0x2 PUSH1 0x0 SWAP1 SLOAD SWAP1 PUSH2 0x100 EXP SWAP1 DIV PUSH20 0xFFFFFFFFFFFFFFFFFFFFFFFFFFFFFFFFFFFFFFFF AND PUSH20 0xFFFFFFFFFFFFFFFFFFFFFFFFFFFFFFFFFFFFFFFF AND CALLER PUSH20 0xFFFFFFFFFFFFFFFFFFFFFFFFFFFFFFFFFFFFFFFF AND EQ PUSH2 0x9E8 JUMPI PUSH1 0x40 MLOAD PUSH32 0x8C379A000000000000000000000000000000000000000000000000000000000 DUP2 MSTORE PUSH1 0x4 ADD PUSH2 0x9DF SWAP1 PUSH2 0x1111 JUMP JUMPDEST PUSH1 0x40 MLOAD DUP1 SWAP2 SUB SWAP1 REVERT JUMPDEST PUSH1 0x0 PUSH20 0xFFFFFFFFFFFFFFFFFFFFFFFFFFFFFFFFFFFFFFFF AND DUP2 PUSH20 0xFFFFFFFFFFFFFFFFFFFFFFFFFFFFFFFFFFFFFFFF AND SUB PUSH2 0xA57 JUMPI PUSH1 0x40 MLOAD PUSH32 0x8C379A000000000000000000000000000000000000000000000000000000000 DUP2 MSTORE PUSH1 0x4 ADD PUSH2 0xA4E SWAP1 PUSH2 0x1770 JUMP JUMPDEST PUSH1 0x40 MLOAD DUP1 SWAP2 SUB SWAP1 REVERT JUMPDEST DUP1 PUSH1 0x2 PUSH1 0x0 PUSH2 0x100 EXP DUP2 SLOAD DUP2 PUSH20 0xFFFFFFFFFFFFFFFFFFFFFFFFFFFFFFFFFFFFFFFF MUL NOT AND SWAP1 DUP4 PUSH20 0xFFFFFFFFFFFFFFFFFFFFFFFFFFFFFFFFFFFFFFFF AND MUL OR SWAP1 SSTORE POP POP JUMP JUMPDEST PUSH1 0x40 MLOAD DUP1 PUSH2 0x120 ADD PUSH1 0x40 MSTORE DUP1 PUSH1 0x0 DUP2 MSTORE PUSH1 0x20 ADD PUSH1 0x60 DUP2 MSTORE PUSH1 0x20 ADD PUSH1 0x60 DUP2 MSTORE PUSH1 0x20 ADD PUSH1 0x0 DUP2 MSTORE PUSH1 0x20 ADD PUSH1 0x60 DUP2 MSTORE PUSH1 0x20 ADD PUSH1 0x0 DUP2 MSTORE PUSH1 0x20 ADD PUSH1 0x0 PUSH20 0xFFFFFFFFFFFFFFFFFFFFFFFFFFFFFFFFFFFFFFFF AND DUP2 MSTORE PUSH1 0x20 ADD PUSH1 0x0 PUSH1 0xFF AND DUP2 MSTORE PUSH1 0x20 ADD PUSH1 0x0 ISZERO ISZERO DUP2 MSTORE POP SWAP1 JUMP JUMPDEST PUSH1 0x0 DUP2 SWAP1 POP SWAP2 SWAP1 POP JUMP JUMPDEST PUSH2 0xB15 DUP2 PUSH2 0xB02 JUMP JUMPDEST DUP3 MSTORE POP POP JUMP JUMPDEST PUSH1 0x0 PUSH1 0x20 DUP3 ADD SWAP1 POP PUSH2 0xB30 PUSH1 0x0 DUP4 ADD DUP5 PUSH2 0xB0C JUMP JUMPDEST SWAP3 SWAP2 POP POP JUMP JUMPDEST PUSH1 0x0 PUSH20 0xFFFFFFFFFFFFFFFFFFFFFFFFFFFFFFFFFFFFFFFF DUP3 AND SWAP1 POP SWAP2 SWAP1 POP JUMP JUMPDEST PUSH1 0x0 PUSH2 0xB61 DUP3 PUSH2 0xB36 JUMP JUMPDEST SWAP1 POP SWAP2 SWAP1 POP JUMP JUMPDEST PUSH2 0xB71 DUP2 PUSH2 0xB56 JUMP JUMPDEST DUP3 MSTORE POP POP JUMP JUMPDEST PUSH1 0x0 PUSH1 0x20 DUP3 ADD SWAP1 POP PUSH2 0xB8C PUSH1 0x0 DUP4 ADD DUP5 PUSH2 0xB68 JUMP JUMPDEST SWAP3 SWAP2 POP POP JUMP JUMPDEST PUSH1 0x0 PUSH1 0x40 MLOAD SWAP1 POP SWAP1 JUMP JUMPDEST PUSH1 0x0 DUP1 REVERT JUMPDEST PUSH1 0x0 DUP1 REVERT JUMPDEST PUSH2 0xBAF DUP2 PUSH2 0xB02 JUMP JUMPDEST DUP2 EQ PUSH2 0xBBA JUMPI PUSH1 0x0 DUP1 REVERT JUMPDEST POP JUMP JUMPDEST PUSH1 0x0 DUP2 CALLDATALOAD SWAP1 POP PUSH2 0xBCC DUP2 PUSH2 0xBA6 JUMP JUMPDEST SWAP3 SWAP2 POP POP JUMP JUMPDEST PUSH1 0x0 DUP2 ISZERO ISZERO SWAP1 POP SWAP2 SWAP1 POP JUMP JUMPDEST PUSH2 0xBE7 DUP2 PUSH2 0xBD2 JUMP JUMPDEST DUP2 EQ PUSH2 0xBF2 JUMPI PUSH1 0x0 DUP1 REVERT JUMPDEST POP JUMP JUMPDEST PUSH1 0x0 DUP2 CALLDATALOAD SWAP1 POP PUSH2 0xC04 DUP2 PUSH2 0xBDE JUMP JUMPDEST SWAP3 SWAP2 POP POP JUMP JUMPDEST PUSH1 0x0 DUP1 PUSH1 0x40 DUP4 DUP6 SUB SLT ISZERO PUSH2 0xC21 JUMPI PUSH2 0xC20 PUSH2 0xB9C JUMP JUMPDEST JUMPDEST PUSH1 0x0 PUSH2 0xC2F DUP6 DUP3 DUP7 ADD PUSH2 0xBBD JUMP JUMPDEST SWAP3 POP POP PUSH1 0x20 PUSH2 0xC40 DUP6 DUP3 DUP7 ADD PUSH2 0xBF5 JUMP JUMPDEST SWAP2 POP POP SWAP3 POP SWAP3 SWAP1 POP JUMP JUMPDEST PUSH1 0x0 DUP1 REVERT JUMPDEST PUSH1 0x0 DUP1 REVERT JUMPDEST PUSH1 0x0 PUSH1 0x1F NOT PUSH1 0x1F DUP4 ADD AND SWAP1 POP SWAP2 SWAP1 POP JUMP JUMPDEST PUSH32 0x4E487B7100000000000000000000000000000000000000000000000000000000 PUSH1 0x0 MSTORE PUSH1 0x41 PUSH1 0x4 MSTORE PUSH1 0x24 PUSH1 0x0 REVERT JUMPDEST PUSH2 0xC9D DUP3 PUSH2 0xC54 JUMP JUMPDEST DUP2 ADD DUP2 DUP2 LT PUSH8 0xFFFFFFFFFFFFFFFF DUP3 GT OR ISZERO PUSH2 0xCBC JUMPI PUSH2 0xCBB PUSH2 0xC65 JUMP JUMPDEST JUMPDEST DUP1 PUSH1 0x40 MSTORE POP POP POP JUMP JUMPDEST PUSH1 0x0 PUSH2 0xCCF PUSH2 0xB92 JUMP JUMPDEST SWAP1 POP PUSH2 0xCDB DUP3 DUP3 PUSH2 0xC94 JUMP JUMPDEST SWAP2 SWAP1 POP JUMP JUMPDEST PUSH1 0x0 PUSH8 0xFFFFFFFFFFFFFFFF DUP3 GT ISZERO PUSH2 0xCFB JUMPI PUSH2 0xCFA PUSH2 0xC65 JUMP JUMPDEST JUMPDEST PUSH2 0xD04 DUP3 PUSH2 0xC54 JUMP JUMPDEST SWAP1 POP PUSH1 0x20 DUP2 ADD SWAP1 POP SWAP2 SWAP1 POP JUMP JUMPDEST DUP3 DUP2 DUP4 CALLDATACOPY PUSH1 0x0 DUP4 DUP4 ADD MSTORE POP POP POP JUMP JUMPDEST PUSH1 0x0 PUSH2 0xD33 PUSH2 0xD2E DUP5 PUSH2 0xCE0 JUMP JUMPDEST PUSH2 0xCC5 JUMP JUMPDEST SWAP1 POP DUP3 DUP2 MSTORE PUSH1 0x20 DUP2 ADD DUP5 DUP5 DUP5 ADD GT ISZERO PUSH2 0xD4F JUMPI PUSH2 0xD4E PUSH2 0xC4F JUMP JUMPDEST JUMPDEST PUSH2 0xD5A DUP5 DUP3 DUP6 PUSH2 0xD11 JUMP JUMPDEST POP SWAP4 SWAP3 POP POP POP JUMP JUMPDEST PUSH1 0x0 DUP3 PUSH1 0x1F DUP4 ADD SLT PUSH2 0xD77 JUMPI PUSH2 0xD76 PUSH2 0xC4A JUMP JUMPDEST JUMPDEST DUP2 CALLDATALOAD PUSH2 0xD87 DUP5 DUP3 PUSH1 0x20 DUP7 ADD PUSH2 0xD20 JUMP JUMPDEST SWAP2 POP POP SWAP3 SWAP2 POP POP JUMP JUMPDEST PUSH1 0x0 DUP1 PUSH1 0x0 DUP1 PUSH1 0x80 DUP6 DUP8 SUB SLT ISZERO PUSH2 0xDAA JUMPI PUSH2 0xDA9 PUSH2 0xB9C JUMP JUMPDEST JUMPDEST PUSH1 0x0 DUP6 ADD CALLDATALOAD PUSH8 0xFFFFFFFFFFFFFFFF DUP2 GT ISZERO PUSH2 0xDC8 JUMPI PUSH2 0xDC7 PUSH2 0xBA1 JUMP JUMPDEST JUMPDEST PUSH2 0xDD4 DUP8 DUP3 DUP9 ADD PUSH2 0xD62 JUMP JUMPDEST SWAP5 POP POP PUSH1 0x20 DUP6 ADD CALLDATALOAD PUSH8 0xFFFFFFFFFFFFFFFF DUP2 GT ISZERO PUSH2 0xDF5 JUMPI PUSH2 0xDF4 PUSH2 0xBA1 JUMP JUMPDEST JUMPDEST PUSH2 0xE01 DUP8 DUP3 DUP9 ADD PUSH2 0xD62 JUMP JUMPDEST SWAP4 POP POP PUSH1 0x40 PUSH2 0xE12 DUP8 DUP3 DUP9 ADD PUSH2 0xBBD JUMP JUMPDEST SWAP3 POP POP PUSH1 0x60 DUP6 ADD CALLDATALOAD PUSH8 0xFFFFFFFFFFFFFFFF DUP2 GT ISZERO PUSH2 0xE33 JUMPI PUSH2 0xE32 PUSH2 0xBA1 JUMP JUMPDEST JUMPDEST PUSH2 0xE3F DUP8 DUP3 DUP9 ADD PUSH2 0xD62 JUMP JUMPDEST SWAP2 POP POP SWAP3 SWAP6 SWAP2 SWAP5 POP SWAP3 POP JUMP JUMPDEST PUSH1 0x0 PUSH1 0x20 DUP3 DUP5 SUB SLT ISZERO PUSH2 0xE61 JUMPI PUSH2 0xE60 PUSH2 0xB9C JUMP JUMPDEST JUMPDEST PUSH1 0x0 PUSH2 0xE6F DUP5 DUP3 DUP6 ADD PUSH2 0xBBD JUMP JUMPDEST SWAP2 POP POP SWAP3 SWAP2 POP POP JUMP JUMPDEST PUSH2 0xE81 DUP2 PUSH2 0xB02 JUMP JUMPDEST DUP3 MSTORE POP POP JUMP JUMPDEST PUSH1 0x0 DUP2 MLOAD SWAP1 POP SWAP2 SWAP1 POP JUMP JUMPDEST PUSH1 0x0 DUP3 DUP3 MSTORE PUSH1 0x20 DUP3 ADD SWAP1 POP SWAP3 SWAP2 POP POP JUMP JUMPDEST PUSH1 0x0 JUMPDEST DUP4 DUP2 LT ISZERO PUSH2 0xEC1 JUMPI DUP1 DUP3 ADD MLOAD DUP2 DUP5 ADD MSTORE PUSH1 0x20 DUP2 ADD SWAP1 POP PUSH2 0xEA6 JUMP JUMPDEST PUSH1 0x0 DUP5 DUP5 ADD MSTORE POP POP POP POP JUMP JUMPDEST PUSH1 0x0 PUSH2 0xED8 DUP3 PUSH2 0xE87 JUMP JUMPDEST PUSH2 0xEE2 DUP2 DUP6 PUSH2 0xE92 JUMP JUMPDEST SWAP4 POP PUSH2 0xEF2 DUP2 DUP6 PUSH1 0x20 DUP7 ADD PUSH2 0xEA3 JUMP JUMPDEST PUSH2 0xEFB DUP2 PUSH2 0xC54 JUMP JUMPDEST DUP5 ADD SWAP2 POP POP SWAP3 SWAP2 POP POP JUMP JUMPDEST PUSH2 0xF0F DUP2 PUSH2 0xB56 JUMP JUMPDEST DUP3 MSTORE POP POP JUMP JUMPDEST PUSH1 0x0 PUSH1 0xFF DUP3 AND SWAP1 POP SWAP2 SWAP1 POP JUMP JUMPDEST PUSH2 0xF2B DUP2 PUSH2 0xF15 JUMP JUMPDEST DUP3 MSTORE POP POP JUMP JUMPDEST PUSH2 0xF3A DUP2 PUSH2 0xBD2 JUMP JUMPDEST DUP3 MSTORE POP POP JUMP JUMPDEST PUSH1 0x0 PUSH2 0x120 DUP4 ADD PUSH1 0x0 DUP4 ADD MLOAD PUSH2 0xF59 PUSH1 0x0 DUP7 ADD DUP3 PUSH2 0xE78 JUMP JUMPDEST POP PUSH1 0x20 DUP4 ADD MLOAD DUP5 DUP3 SUB PUSH1 0x20 DUP7 ADD MSTORE PUSH2 0xF71 DUP3 DUP3 PUSH2 0xECD JUMP JUMPDEST SWAP2 POP POP PUSH1 0x40 DUP4 ADD MLOAD DUP5 DUP3 SUB PUSH1 0x40 DUP7 ADD MSTORE PUSH2 0xF8B DUP3 DUP3 PUSH2 0xECD JUMP JUMPDEST SWAP2 POP POP PUSH1 0x60 DUP4 ADD MLOAD PUSH2 0xFA0 PUSH1 0x60 DUP7 ADD DUP3 PUSH2 0xE78 JUMP JUMPDEST POP PUSH1 0x80 DUP4 ADD MLOAD DUP5 DUP3 SUB PUSH1 0x80 DUP7 ADD MSTORE PUSH2 0xFB8 DUP3 DUP3 PUSH2 0xECD JUMP JUMPDEST SWAP2 POP POP PUSH1 0xA0 DUP4 ADD MLOAD PUSH2 0xFCD PUSH1 0xA0 DUP7 ADD DUP3 PUSH2 0xE78 JUMP JUMPDEST POP PUSH1 0xC0 DUP4 ADD MLOAD PUSH2 0xFE0 PUSH1 0xC0 DUP7 ADD DUP3 PUSH2 0xF06 JUMP JUMPDEST POP PUSH1 0xE0 DUP4 ADD MLOAD PUSH2 0xFF3 PUSH1 0xE0 DUP7 ADD DUP3 PUSH2 0xF22 JUMP JUMPDEST POP PUSH2 0x100 DUP4 ADD MLOAD PUSH2 0x1008 PUSH2 0x100 DUP7 ADD DUP3 PUSH2 0xF31 JUMP JUMPDEST POP DUP1 SWAP2 POP POP SWAP3 SWAP2 POP POP JUMP JUMPDEST PUSH1 0x0 PUSH1 0x20 DUP3 ADD SWAP1 POP DUP2 DUP2 SUB PUSH1 0x0 DUP4 ADD MSTORE PUSH2 0x102D DUP2 DUP5 PUSH2 0xF40 JUMP JUMPDEST SWAP1 POP SWAP3 SWAP2 POP POP JUMP JUMPDEST PUSH2 0x103E DUP2 PUSH2 0xB56 JUMP JUMPDEST DUP2 EQ PUSH2 0x1049 JUMPI PUSH1 0x0 DUP1 REVERT JUMPDEST POP JUMP JUMPDEST PUSH1 0x0 DUP2 CALLDATALOAD SWAP1 POP PUSH2 0x105B DUP2 PUSH2 0x1035 JUMP JUMPDEST SWAP3 SWAP2 POP POP JUMP JUMPDEST PUSH1 0x0 PUSH1 0x20 DUP3 DUP5 SUB SLT ISZERO PUSH2 0x1077 JUMPI PUSH2 0x1076 PUSH2 0xB9C JUMP JUMPDEST JUMPDEST PUSH1 0x0 PUSH2 0x1085 DUP5 DUP3 DUP6 ADD PUSH2 0x104C JUMP JUMPDEST SWAP2 POP POP SWAP3 SWAP2 POP POP JUMP JUMPDEST PUSH1 0x0 DUP3 DUP3 MSTORE PUSH1 0x20 DUP3 ADD SWAP1 POP SWAP3 SWAP2 POP POP JUMP JUMPDEST PUSH32 0x4167656E7441756469744C6F676765723A2063616C6C6572206973206E6F7420 PUSH1 0x0 DUP3 ADD MSTORE PUSH32 0x74686520676F7665726E616E636520726F6C6500000000000000000000000000 PUSH1 0x20 DUP3 ADD MSTORE POP JUMP JUMPDEST PUSH1 0x0 PUSH2 0x10FB PUSH1 0x33 DUP4 PUSH2 0x108E JUMP JUMPDEST SWAP2 POP PUSH2 0x1106 DUP3 PUSH2 0x109F JUMP JUMPDEST PUSH1 0x40 DUP3 ADD SWAP1 POP SWAP2 SWAP1 POP JUMP JUMPDEST PUSH1 0x0 PUSH1 0x20 DUP3 ADD SWAP1 POP DUP2 DUP2 SUB PUSH1 0x0 DUP4 ADD MSTORE PUSH2 0x112A DUP2 PUSH2 0x10EE JUMP JUMPDEST SWAP1 POP SWAP2 SWAP1 POP JUMP JUMPDEST PUSH32 0x4167656E7441756469744C6F676765723A204465636973696F6E20646F657320 PUSH1 0x0 DUP3 ADD MSTORE PUSH32 0x6E6F742065786973740000000000000000000000000000000000000000000000 PUSH1 0x20 DUP3 ADD MSTORE POP JUMP JUMPDEST PUSH1 0x0 PUSH2 0x118D PUSH1 0x29 DUP4 PUSH2 0x108E JUMP JUMPDEST SWAP2 POP PUSH2 0x1198 DUP3 PUSH2 0x1131 JUMP JUMPDEST PUSH1 0x40 DUP3 ADD SWAP1 POP SWAP2 SWAP1 POP JUMP JUMPDEST PUSH1 0x0 PUSH1 0x20 DUP3 ADD SWAP1 POP DUP2 DUP2 SUB PUSH1 0x0 DUP4 ADD MSTORE PUSH2 0x11BC DUP2 PUSH2 0x1180 JUMP JUMPDEST SWAP1 POP SWAP2 SWAP1 POP JUMP JUMPDEST PUSH32 0x4E487B7100000000000000000000000000000000000000000000000000000000 PUSH1 0x0 MSTORE PUSH1 0x21 PUSH1 0x4 MSTORE PUSH1 0x24 PUSH1 0x0 REVERT JUMPDEST PUSH32 0x4167656E7441756469744C6F676765723A204465636973696F6E206D75737420 PUSH1 0x0 DUP3 ADD MSTORE PUSH32 0x6265206368616C6C656E67656420746F206265207265736F6C76656400000000 PUSH1 0x20 DUP3 ADD MSTORE POP JUMP JUMPDEST PUSH1 0x0 PUSH2 0x124E PUSH1 0x3C DUP4 PUSH2 0x108E JUMP JUMPDEST SWAP2 POP PUSH2 0x1259 DUP3 PUSH2 0x11F2 JUMP JUMPDEST PUSH1 0x40 DUP3 ADD SWAP1 POP SWAP2 SWAP1 POP JUMP JUMPDEST PUSH1 0x0 PUSH1 0x20 DUP3 ADD SWAP1 POP DUP2 DUP2 SUB PUSH1 0x0 DUP4 ADD MSTORE PUSH2 0x127D DUP2 PUSH2 0x1241 JUMP JUMPDEST SWAP1 POP SWAP2 SWAP1 POP JUMP JUMPDEST PUSH2 0x128D DUP2 PUSH2 0xBD2 JUMP JUMPDEST DUP3 MSTORE POP POP JUMP JUMPDEST PUSH1 0x0 PUSH1 0x20 DUP3 ADD SWAP1 POP PUSH2 0x12A8 PUSH1 0x0 DUP4 ADD DUP5 PUSH2 0x1284 JUMP JUMPDEST SWAP3 SWAP2 POP POP JUMP JUMPDEST PUSH32 0x4E487B7100000000000000000000000000000000000000000000000000000000 PUSH1 0x0 MSTORE PUSH1 0x22 PUSH1 0x4 MSTORE PUSH1 0x24 PUSH1 0x0 REVERT JUMPDEST PUSH1 0x0 PUSH1 0x2 DUP3 DIV SWAP1 POP PUSH1 0x1 DUP3 AND DUP1 PUSH2 0x12F5 JUMPI PUSH1 0x7F DUP3 AND SWAP2 POP JUMPDEST PUSH1 0x20 DUP3 LT DUP2 SUB PUSH2 0x1308 JUMPI PUSH2 0x1307 PUSH2 0x12AE JUMP JUMPDEST JUMPDEST POP SWAP2 SWAP1 POP JUMP JUMPDEST PUSH1 0x0 DUP2 SWAP1 POP DUP2 PUSH1 0x0 MSTORE PUSH1 0x20 PUSH1 0x0 KECCAK256 SWAP1 POP SWAP2 SWAP1 POP JUMP JUMPDEST PUSH1 0x0 PUSH1 0x20 PUSH1 0x1F DUP4 ADD DIV SWAP1 POP SWAP2 SWAP1 POP JUMP JUMPDEST PUSH1 0x0 DUP3 DUP3 SHL SWAP1 POP SWAP3 SWAP2 POP POP JUMP JUMPDEST PUSH1 0x0 PUSH1 0x8 DUP4 MUL PUSH2 0x1370 PUSH32 0xFFFFFFFFFFFFFFFFFFFFFFFFFFFFFFFFFFFFFFFFFFFFFFFFFFFFFFFFFFFFFFFF DUP3 PUSH2 0x1333 JUMP JUMPDEST PUSH2 0x137A DUP7 DUP4 PUSH2 0x1333 JUMP JUMPDEST SWAP6 POP DUP1 NOT DUP5 AND SWAP4 POP DUP1 DUP7 AND DUP5 OR SWAP3 POP POP POP SWAP4 SWAP3 POP POP POP JUMP JUMPDEST PUSH1 0x0 DUP2 SWAP1 POP SWAP2 SWAP1 POP JUMP JUMPDEST PUSH1 0x0 PUSH2 0x13B7 PUSH2 0x13B2 PUSH2 0x13AD DUP5 PUSH2 0xB02 JUMP JUMPDEST PUSH2 0x1392 JUMP JUMPDEST PUSH2 0xB02 JUMP JUMPDEST SWAP1 POP SWAP2 SWAP1 POP JUMP JUMPDEST PUSH1 0x0 DUP2 SWAP1 POP SWAP2 SWAP1 POP JUMP JUMPDEST PUSH2 0x13D1 DUP4 PUSH2 0x139C JUMP JUMPDEST PUSH2 0x13E5 PUSH2 0x13DD DUP3 PUSH2 0x13BE JUMP JUMPDEST DUP5 DUP5 SLOAD PUSH2 0x1340 JUMP JUMPDEST DUP3 SSTORE POP POP POP POP JUMP JUMPDEST PUSH1 0x0 SWAP1 JUMP JUMPDEST PUSH2 0x13FA PUSH2 0x13ED JUMP JUMPDEST PUSH2 0x1405 DUP2 DUP5 DUP5 PUSH2 0x13C8 JUMP JUMPDEST POP POP POP JUMP JUMPDEST JUMPDEST DUP2 DUP2 LT ISZERO PUSH2 0x1429 JUMPI PUSH2 0x141E PUSH1 0x0 DUP3 PUSH2 0x13F2 JUMP JUMPDEST PUSH1 0x1 DUP2 ADD SWAP1 POP PUSH2 0x140B JUMP JUMPDEST POP POP JUMP JUMPDEST PUSH1 0x1F DUP3 GT ISZERO PUSH2 0x146E JUMPI PUSH2 0x143F DUP2 PUSH2 0x130E JUMP JUMPDEST PUSH2 0x1448 DUP5 PUSH2 0x1323 JUMP JUMPDEST DUP2 ADD PUSH1 0x20 DUP6 LT ISZERO PUSH2 0x1457 JUMPI DUP2 SWAP1 POP JUMPDEST PUSH2 0x146B PUSH2 0x1463 DUP6 PUSH2 0x1323 JUMP JUMPDEST DUP4 ADD DUP3 PUSH2 0x140A JUMP JUMPDEST POP POP JUMPDEST POP POP POP JUMP JUMPDEST PUSH1 0x0 DUP3 DUP3 SHR SWAP1 POP SWAP3 SWAP2 POP POP JUMP JUMPDEST PUSH1 0x0 PUSH2 0x1491 PUSH1 0x0 NOT DUP5 PUSH1 0x8 MUL PUSH2 0x1473 JUMP JUMPDEST NOT DUP1 DUP4 AND SWAP2 POP POP SWAP3 SWAP2 POP POP JUMP JUMPDEST PUSH1 0x0 PUSH2 0x14AA DUP4 DUP4 PUSH2 0x1480 JUMP JUMPDEST SWAP2 POP DUP3 PUSH1 0x2 MUL DUP3 OR SWAP1 POP SWAP3 SWAP2 POP POP JUMP JUMPDEST PUSH2 0x14C3 DUP3 PUSH2 0xE87 JUMP JUMPDEST PUSH8 0xFFFFFFFFFFFFFFFF DUP2 GT ISZERO PUSH2 0x14DC JUMPI PUSH2 0x14DB PUSH2 0xC65 JUMP JUMPDEST JUMPDEST PUSH2 0x14E6 DUP3 SLOAD PUSH2 0x12DD JUMP JUMPDEST PUSH2 0x14F1 DUP3 DUP3 DUP6 PUSH2 0x142D JUMP JUMPDEST PUSH1 0x0 PUSH1 0x20 SWAP1 POP PUSH1 0x1F DUP4 GT PUSH1 0x1 DUP2 EQ PUSH2 0x1524 JUMPI PUSH1 0x0 DUP5 ISZERO PUSH2 0x1512 JUMPI DUP3 DUP8 ADD MLOAD SWAP1 POP JUMPDEST PUSH2 0x151C DUP6 DUP3 PUSH2 0x149E JUMP JUMPDEST DUP7 SSTORE POP PUSH2 0x1584 JUMP JUMPDEST PUSH1 0x1F NOT DUP5 AND PUSH2 0x1532 DUP7 PUSH2 0x130E JUMP JUMPDEST PUSH1 0x0 JUMPDEST DUP3 DUP2 LT ISZERO PUSH2 0x155A JUMPI DUP5 DUP10 ADD MLOAD DUP3 SSTORE PUSH1 0x1 DUP3 ADD SWAP2 POP PUSH1 0x20 DUP6 ADD SWAP5 POP PUSH1 0x20 DUP2 ADD SWAP1 POP PUSH2 0x1535 JUMP JUMPDEST DUP7 DUP4 LT ISZERO PUSH2 0x1577 JUMPI DUP5 DUP10 ADD MLOAD PUSH2 0x1573 PUSH1 0x1F DUP10 AND DUP3 PUSH2 0x1480 JUMP JUMPDEST DUP4 SSTORE POP JUMPDEST PUSH1 0x1 PUSH1 0x2 DUP9 MUL ADD DUP9 SSTORE POP POP POP JUMPDEST POP POP POP POP POP POP JUMP JUMPDEST PUSH32 0x4E487B7100000000000000000000000000000000000000000000000000000000 PUSH1 0x0 MSTORE PUSH1 0x11 PUSH1 0x4 MSTORE PUSH1 0x24 PUSH1 0x0 REVERT JUMPDEST PUSH1 0x0 PUSH2 0x15C6 DUP3 PUSH2 0xB02 JUMP JUMPDEST SWAP2 POP PUSH32 0xFFFFFFFFFFFFFFFFFFFFFFFFFFFFFFFFFFFFFFFFFFFFFFFFFFFFFFFFFFFFFFFF DUP3 SUB PUSH2 0x15F8 JUMPI PUSH2 0x15F7 PUSH2 0x158C JUMP JUMPDEST JUMPDEST PUSH1 0x1 DUP3 ADD SWAP1 POP SWAP2 SWAP1 POP JUMP JUMPDEST PUSH1 0x0 PUSH2 0x160E DUP3 PUSH2 0xE87 JUMP JUMPDEST PUSH2 0x1618 DUP2 DUP6 PUSH2 0x108E JUMP JUMPDEST SWAP4 POP PUSH2 0x1628 DUP2 DUP6 PUSH1 0x20 DUP7 ADD PUSH2 0xEA3 JUMP JUMPDEST PUSH2 0x1631 DUP2 PUSH2 0xC54 JUMP JUMPDEST DUP5 ADD SWAP2 POP POP SWAP3 SWAP2 POP POP JUMP JUMPDEST PUSH1 0x0 PUSH1 0x40 DUP3 ADD SWAP1 POP DUP2 DUP2 SUB PUSH1 0x0 DUP4 ADD MSTORE PUSH2 0x1656 DUP2 DUP6 PUSH2 0x1603 JUMP JUMPDEST SWAP1 POP PUSH2 0x1665 PUSH1 0x20 DUP4 ADD DUP5 PUSH2 0xB68 JUMP JUMPDEST SWAP4 SWAP3 POP POP POP JUMP JUMPDEST PUSH32 0x4167656E7441756469744C6F676765723A204465636973696F6E206E6F742069 PUSH1 0x0 DUP3 ADD MSTORE PUSH32 0x6E20636F727265637420737461746520746F206265206368616C6C656E676564 PUSH1 0x20 DUP3 ADD MSTORE POP JUMP JUMPDEST PUSH1 0x0 PUSH2 0x16C8 PUSH1 0x40 DUP4 PUSH2 0x108E JUMP JUMPDEST SWAP2 POP PUSH2 0x16D3 DUP3 PUSH2 0x166C JUMP JUMPDEST PUSH1 0x40 DUP3 ADD SWAP1 POP SWAP2 SWAP1 POP JUMP JUMPDEST PUSH1 0x0 PUSH1 0x20 DUP3 ADD SWAP1 POP DUP2 DUP2 SUB PUSH1 0x0 DUP4 ADD MSTORE PUSH2 0x16F7 DUP2 PUSH2 0x16BB JUMP JUMPDEST SWAP1 POP SWAP2 SWAP1 POP JUMP JUMPDEST PUSH32 0x4167656E7441756469744C6F676765723A206E657720676F7665726E616E6365 PUSH1 0x0 DUP3 ADD MSTORE PUSH32 0x20697320746865207A65726F2061646472657373000000000000000000000000 PUSH1 0x20 DUP3 ADD MSTORE POP JUMP JUMPDEST PUSH1 0x0 PUSH2 0x175A PUSH1 0x34 DUP4 PUSH2 0x108E JUMP JUMPDEST SWAP2 POP PUSH2 0x1765 DUP3 PUSH2 0x16FE JUMP JUMPDEST PUSH1 0x40 DUP3 ADD SWAP1 POP SWAP2 SWAP1 POP JUMP JUMPDEST PUSH1 0x0 PUSH1 0x20 DUP3 ADD SWAP1 POP DUP2 DUP2 SUB PUSH1 0x0 DUP4 ADD MSTORE PUSH2 0x1789 DUP2 PUSH2 0x174D JUMP JUMPDEST SWAP1 POP SWAP2 SWAP1 POP JUMP INVALID LOG2 PUSH5 0x6970667358 0x22 SLT KECCAK256 NUMBER 0x27 LOG1 SSTORE 0x2E 0x26 MSTORE 0xBC 0xB9 0xF7 SWAP13 LT SELFBALANCE MSTORE8 PUSH9 0x66B10C6BC2D8150709 CALLDATASIZE 0xC5 0xB8 SDIV PUSH22 0xB270EB64736F6C634300081E00330000000000000000 "
				},
				"gasEstimates": {
					"creation": {
						"codeDepositCost": "1217200",
						"executionCost": "25534",
						"totalCost": "1242734"
					},
					"external": {
						"challengeDecision(uint256)": "55206",
						"getDecision(uint256)": "infinite",
						"governanceRole()": "2537",
						"logDecision(string,string,uint256,string)": "infinite",
						"resolveDispute(uint256,bool)": "infinite",
						"totalDecisions()": "2430",
						"transferGovernance(address)": "26993"
					}
				},
				"methodIdentifiers": {
					"challengeDecision(uint256)": "bc3e07df",
					"getDecision(uint256)": "af754848",
					"governanceRole()": "221bfa48",
					"logDecision(string,string,uint256,string)": "70ace0d6",
					"resolveDispute(uint256,bool)": "34b25ee2",
					"totalDecisions()": "0c96a61a",
					"transferGovernance(address)": "d38bfff4"
				}
			},
			"storageLayout": {
				"storage": [
					{
						"astId": 27,
						"contract": "AgentAuditLogger.sol:AgentAuditLogger",
						"label": "totalDecisions",
						"offset": 0,
						"slot": "0",
						"type": "t_uint256"
					},
					{
						"astId": 32,
						"contract": "AgentAuditLogger.sol:AgentAuditLogger",
						"label": "decisions",
						"offset": 0,
						"slot": "1",
						"type": "t_mapping(t_uint256,t_struct(Decision)25_storage)"
					},
					{
						"astId": 34,
						"contract": "AgentAuditLogger.sol:AgentAuditLogger",
						"label": "governanceRole",
						"offset": 0,
						"slot": "2",
						"type": "t_address"
					}
				],
				"types": {
					"t_address": {
						"encoding": "inplace",
						"label": "address",
						"numberOfBytes": "20"
					},
					"t_bool": {
						"encoding": "inplace",
						"label": "bool",
						"numberOfBytes": "1"
					},
					"t_mapping(t_uint256,t_struct(Decision)25_storage)": {
						"encoding": "mapping",
						"key": "t_uint256",
						"label": "mapping(uint256 => struct AgentAuditLogger.Decision)",
						"numberOfBytes": "32",
						"value": "t_struct(Decision)25_storage"
					},
					"t_string_storage": {
						"encoding": "bytes",
						"label": "string",
						"numberOfBytes": "32"
					},
					"t_struct(Decision)25_storage": {
						"encoding": "inplace",
						"label": "struct AgentAuditLogger.Decision",
						"members": [
							{
								"astId": 8,
								"contract": "AgentAuditLogger.sol:AgentAuditLogger",
								"label": "id",
								"offset": 0,
								"slot": "0",
								"type": "t_uint256"
							},
							{
								"astId": 10,
								"contract": "AgentAuditLogger.sol:AgentAuditLogger",
								"label": "action",
								"offset": 0,
								"slot": "1",
								"type": "t_string_storage"
							},
							{
								"astId": 12,
								"contract": "AgentAuditLogger.sol:AgentAuditLogger",
								"label": "reason",
								"offset": 0,
								"slot": "2",
								"type": "t_string_storage"
							},
							{
								"astId": 14,
								"contract": "AgentAuditLogger.sol:AgentAuditLogger",
								"label": "amount",
								"offset": 0,
								"slot": "3",
								"type": "t_uint256"
							},
							{
								"astId": 16,
								"contract": "AgentAuditLogger.sol:AgentAuditLogger",
								"label": "explanationHash",
								"offset": 0,
								"slot": "4",
								"type": "t_string_storage"
							},
							{
								"astId": 18,
								"contract": "AgentAuditLogger.sol:AgentAuditLogger",
								"label": "timestamp",
								"offset": 0,
								"slot": "5",
								"type": "t_uint256"
							},
							{
								"astId": 20,
								"contract": "AgentAuditLogger.sol:AgentAuditLogger",
								"label": "agent",
								"offset": 0,
								"slot": "6",
								"type": "t_address"
							},
							{
								"astId": 22,
								"contract": "AgentAuditLogger.sol:AgentAuditLogger",
								"label": "status",
								"offset": 20,
								"slot": "6",
								"type": "t_uint8"
							},
							{
								"astId": 24,
								"contract": "AgentAuditLogger.sol:AgentAuditLogger",
								"label": "disputed",
								"offset": 21,
								"slot": "6",
								"type": "t_bool"
							}
						],
						"numberOfBytes": "224"
					},
					"t_uint256": {
						"encoding": "inplace",
						"label": "uint256",
						"numberOfBytes": "32"
					},
					"t_uint8": {
						"encoding": "inplace",
						"label": "uint8",
						"numberOfBytes": "1"
					}
				}
			},
			"userdoc": {
				"kind": "user",
				"methods": {},
				"version": 1
			}
		}
	}
}